:020000040800F2
:1000000018190020890100088D0100088F010008DF
:10001000910100089301000895010008000000000C
:100020000000000000000000000000009701000830
:1000300099010008000000000F020008891800085C
:100040009F0100089F0100089F0100089F01000810
:100050009F0100089F0100089F0100089F01000800
:100060009F0100089F0100089F0100089F010008F0
:100070009F0100089F0100089F0100089F010008E0
:100080009F0100089F0100089F0100089F010008D0
:100090009F0100089F0100089F0100089F010008C0
:1000A0009F0100089F0100089F0100089F010008B0
:1000B0009F0100089F0100089F0100089F010008A0
:1000C0009F0100089F0100089F0100089F01000890
:1000D0009F010008991800089F0100089F0100086F
:1000E0009F0100089F0100089F01000800F002F82E
:1000F00000F03AF80AA090E8000C82448344AAF188
:100100000107DA4501D100F02FF8AFF2090EBAE885
:100110000F0013F0010F18BFFB1A43F0010318473B
:100120002022000040220000103A24BF78C878C185
:10013000FAD8520724BF30C830C144BF04680C60ED
:10014000704700000023002400250026103A28BF35
:1001500078C1FBD8520728BF30C148BF0B60704739
:100160001FB51FBD10B510BD00F089F81146FFF78F
:10017000F7FF01F09FFC00F0A7F803B4FFF7F2FFD0
:1001800003BC01F0CFFB000008480047FEE7FEE794
:10019000FEE7FEE7FEE7FEE7FEE7FEE7FEE7FEE737
:1001A00003480449044A054B70470000ED0000086D
:1001B0001813002018190020181500201815002009
:1001C000EFF3108072B6704780F310887047204CB0
:1001D000204D25604FF0000484F309881E4C4FF039
:1001E000010525701D4C4FF08055256062B6FEE775
:1001F00030B41A4C4FF08055256030BC704730B495
:10020000164C4FF08055256030BC704700BF72B669
:10021000EFF3098028B1203880E8F00F1049096811
:10022000086000B50F4880475DF804EB0E480F49A1
:100230000A7802700A480E490A680260106890E85D
:10024000F00F203080F309884EF0040E62B670473C
:1002500020ED00E00000FFFF4E00002004ED00E074
:1002600054000020A10F000843000020440000209B
:100270005C000020704770477047704770477546B4
:1002800000F02CF8AE4605006946534620F0070002
:10029000854618B020B5FFF783FFBDE820404FF03A
:1002A00000064FF000074FF000084FF0000B21F060
:1002B0000701AC46ACE8C009ACE8C009ACE8C0092D
:1002C000ACE8C0098D46704710B50446AFF3008016
:1002D0002046BDE81040FFF750BF000000487047BF
:1002E000B812002001464906084A926942F001020C
:1002F000064B9A61064A526822F0E062044B5A604B
:100300001A4652680A435A607047000000100240C3
:10031000000001402148806940F004001F498861C5
:100320000846806940F0100088610846806940F006
:10033000200088611A48006820F00F001849086002
:100340000846006840F0080008601648406820F041
:10035000FF00144948600846406840F08800486043
:100360000846C06840F48070C8600846C06840F421
:100370000070C8600C48006820F470600A4908608A
:100380000846006840F40060086007480C300068C8
:1003900040F0040004490C3108607047001002402E
:1003A00000080140001001400014014010B504464F
:1003B00014B10120214908702048007848B3204832
:1003C000006850B11E48001D006830B11D4800682B
:1003D00018B11D48006801281BD10A2001F0D4FA89
:1003E0000020164908701648006808B9012010BDA1
:1003F0001348001D006808B90220F8E7114800689A
:1004000008B90320F3E710480068012814D104203C
:10041000EDE70B48006801280ED10948001D00686F
:10042000012809D107480068012805D1064800685D
:1004300010B90120014908700020D8E726000020EB
:100440002001224208812242000121420A4880699B
:1004500040F01000084988610848006800200749FA
:1004600008600846006840F0333008600846C068FD
:1004700040F0FF00C86070470010024000100140CB
:1004800010B5012004490860052001F0A1FA002000
:100490000249C1F8900110BD9081214200802142A3
:1004A00010B51B48806940F008001949886108466A
:1004B000806940F0100088610846806940F00100C2
:1004C00088610120FFF70EFF1248006812490840BA
:1004D0001049086008460068104908430D49086043
:1004E0000F4840680F4908400D4948600846406879
:1004F0000D4908430A49486028200649143108601C
:100500001020091F08604FF4E0500549086110BD34
:1005100000100240000C0140FF0F00FF00303300CC
:1005200000100140FF00F0FF0033030000F0010164
:10053000064A1160C0F34001054AC2F8AC11C0F38D
:100540008001024A0832116070470000A80122426F
:100550000000224270B506460D46002412E046FA1D
:1005600004F000F001000A49086000200949C1F8C0
:100570009401052001F02CFA01200549083108609A
:10058000601CC4B2082CEADB2846FFF7CFFF70BD21
:100590008C8121420080214200B50020154908616C
:1005A000C8601420486100208861C861084600685E
:1005B00040F001000860084640680F4908400D49B6
:1005C0004860084600680D4908400A490860084626
:1005D000006820F4802008600846406820F4FE008F
:1005E00048600020886000214FF0006000F058F85B
:1005F00000BD0000001002400000FFF8FFFFF6FE03
:100600002DE9F0410746884614461D46284600F06D
:1006100033F8C5F1040007FA00F60F20284100EA7C
:100620000800064306F00F06E21704EBD2625211EF
:10063000920002F1E022D2F800212146E31704EBF8
:10064000D3635B11A4EB431C012303FA0CF31A439D
:100650002046E31704EBD3635B119B0003F1E02317
:10066000C3F800210348005D40EA0610014908551F
:10067000BDE8F08100E400E00146072323EA01021F
:100680001202054B18684FF6FF031840034B18433E
:100690001043014B186070470CED00E00000FA05B4
:1006A000024A0A400243024B1A60704780FFFF1F54
:1006B00008ED00E010B500F013F800F021FE00F0A6
:1006C00049FE00F069FE00F0F1FD00F0C3FD00F00E
:1006D000FDFE00F0A1FE00F0C7FE00F002F810BD24
:1006E0007047704706480078012808D1054800780F
:1006F000FF2804D203480078401C02490870704764
:100700004E0000204100002010B500241A48007857
:10071000012830D1FFF754FD04461848007820B175
:1007200016480078401E1549087014480078F8B93A
:1007300013480078E0B900F02BFF124812490978FD
:1007400050F82100114908600F48007810490978D5
:1007500088420DD00D480068806B401C0B49096829
:1007600088630C480068401C0A490860FFF747FD91
:100770002046FFF729FD10BD4E000020410000205B
:1007800042000020500D0020440000205C000020AA
:10079000430000202800002070B5054600260F48C1
:1007A000007808B1002070BDFFF70AFD06460C482E
:1007B0000468006820B10A48006840680849086079
:1007C0003046FFF701FD3CB1012020700020208160
:1007D0006560204600F030FD2046E4E7410000203F
:1007E0002C0000202DE9F04105460F4614464FF03D
:1007F00000082878012804D0012020700020BDE8DE
:10080000F0813648007818B1022020700020F6E709
:100810003348007818B10D2020700020EFE7FFF773
:10082000CFFC80466E6846B1002068604046FFF706
:10083000CBFC002020703046E1E72A48006890F8A1
:10084000300040F002002749096881F8300000209C
:100850002449096881F8310022480068C7622846A7
:1008600000F0ACFC4046FFF7AFFC00F057FEFFF78E
:10087000A7FC80461B48006890F8310020B1012891
:100880000DD002280AD105E016480068066A00204B
:1008900020700DE000260E20207009E000BF2946E0
:1008A0001048006800F074FC00260A20207000BF89
:1008B00000BF00200B49096881F830000949096828
:1008C00081F8310007490968C8610649096808626A
:1008D0004046FFF779FC304691E7000041000020D8
:1008E000420000205400002070B504460D4600264A
:1008F0002078012801D0012070BDFFF761FC064679
:10090000A07A60B1002302222946204600F0FEFBB7
:100910003046FFF759FC00F001FE0020ECE760686C
:1009200020B13046FFF750FC1420E5E76560304603
:10093000FFF74AFC0020DFE710B500240B480078E1
:10094000012811D1FFF73CFC04460948007840B962
:1009500008480078FF2804D206480078401C054962
:1009600008702046FFF730FC10BD00004E0000204C
:10097000410000204200002010B5002413480078F8
:10098000012821D1FFF71CFC044611480078C0B1B2
:100990000F480078401E0E4908700846007860B97C
:1009A0000C48007828B92046FFF70EFC00F0B6FD91
:1009B0000AE02046FFF708FC06E02046FFF704FCAB
:1009C00002E02046FFF700FC10BD00004E000020B2
:1009D000420000204100002070B5054600260F4867
:1009E000007808B1002070BDFFF7EAFB06460C480E
:1009F0000468006820B10A48006840680849086037
:100A00003046FFF7E1FB3CB1032020702581002038
:100A10006060204600F010FC2046E4E74100002022
:100A20002C0000202DE9F04105460E461446002713
:100A30002878032803D001202070BDE8F0813148D8
:100A4000007810B102202070F7E72F48007810B12D
:100A50000D202070F1E7FFF7B3FB0746288940B16E
:100A60002889401E28813846FFF7AEFB0020207001
:100A7000E3E72648006890F8300040F00100234981
:100A8000096881F8300000202049096881F83100A8
:100A90001E480068C662284600F090FB3846FFF703
:100AA00093FB00F03BFDFFF78BFB07461748006800
:100AB00090F8310020B1012809D0022806D102E0C7
:100AC000002020700BE00E20207008E000BF2946B7
:100AD0000E48006800F05CFB0A20207000BF00BFD9
:100AE00000200A49096881F830000849096881F83E
:100AF000310006490968C8613846FFF765FB00BF49
:100B00009BE700004100002042000020540000202C
:100B100070B5044600252078032801D0012070BD5F
:100B2000FFF74EFB0546A07A60B10023012219466B
:100B3000204600F0EBFA2846FFF746FB00F0EEFCFB
:100B40000020ECE720894FF6FF71884207D2208908
:100B5000401C20812846FFF737FB0020DFE72846AE
:100B6000FFF732FB3320DAE710B50B48007890B975
:100B700000F00EFD09480078094908700948074946
:100B8000097850F8210008490860084600680749BC
:100B90000860FFF71CFB10BD4E0000204400002041
:100BA00043000020500D00205C0000205400002075
:100BB00010B50024022000F0F5F9FFF701FB044610
:100BC00000200B4908602046FFF7FEFA322000F0B3
:100BD000E9F9FFF7F5FA0446054800680549086099
:100BE0000120054908702046FFF7EEFA10BD00000D
:100BF0005000002038000020400000207047000016
:100C00002DE9FE4F06460F4690461C464FF0000960
:100C1000FFF7D6FA81461F48007828B14846FFF70B
:100C2000D3FA3C20BDE8FE8F1B4850F8240060BB7F
:100C30000120194941F824004846FFF7C5FA00236E
:100C400042463946304600F009F9824600200090BD
:100C500001900346024651460290204600F0AEFC49
:100C6000054635B90D48007801280CD100F056FC36
:100C700009E0FFF7A5FA81460020074941F8240062
:100C80004846FFF7A1FA2846CCE74846FFF79CFA0A
:100C90002820C7E741000020500D00204E00002012
:100CA0002DE9F04F85B081468A4693461C46DDE922
:100CB0000F78129D00200390FFF782FA03902348DB
:100CC000007830B10398FFF77FFA3C2005B0BDE80B
:100CD000F08F1F4850F8240088BB01201C4941F8C0
:100CE00024000398FFF770FA2A464146384600F080
:100CF00075FD2B465A465146484600F0AFF8049021
:100D00001198CDE9008002953A4620460E9B049941
:100D100000F054FC064636B90E48007801280CD184
:100D200000F0FCFB09E0FFF74BFA039000200849B4
:100D300041F824000398FFF747FA3046C6E7FFE77B
:100D40000398FFF741FA2820C0E700004100002087
:100D5000500D00204E000020704770472DE9F041F3
:100D600006460F4614464FF000081548007818B1A3
:100D700012202070BDE8F081FFF722FA8046FF2E96
:100D800003D11048006890F832600F4850F82650A0
:100D90002DB94046FFF718FA43202070EAE7012DED
:100DA00005D14046FFF710FA43202070E2E7EF64D8
:100DB0004046FFF709FA0020207000BFDAE7000084
:100DC0004100002054000020500D0020704700001A
:100DD0002DE9F04707460D464FF0000A0020286035
:100DE0006860FFF7EDF98246FF2F03D119480068CC
:100DF00090F83270184850F827402CB95046FFF749
:100E0000E3F94320BDE8F087012C04D15046FFF7F9
:100E1000DBF94320F6E7207C00F0010020B95046C2
:100E2000FFF7D2F94520EDE70026D4F80C90D4F86E
:100E300008805046FFF7C8F900E0761C58F8041BFC
:100E40000029FAD0B0002860A9EB06008000686095
:100E50000020D7E754000020500D002070B5044654
:100E600010464FF080750560051F28462C606FF016
:100E70000106051F28462E604FF01236051F284632
:100E80002E604FF00336051F28462E604FF00236C5
:100E9000051F28462E607610051F28462E60051F68
:100EA000284629604FF01136051F28462E604FF066
:100EB0001036051F28462E604FF00936051F2846BC
:100EC0002E604FF00836051F28462E604FF007367B
:100ED000051F28462E604FF00636051F28462E6057
:100EE0004FF00536051F28462E604FF00436051FCB
:100EF00028462E6070BD00002DE9F04105464FF0F8
:100F00000008FFF75DF98046FF2D05D120480068F5
:100F100090F83250012608E01D48006890F8320031
:100F2000A84201D1012600E000261A4850F82540C9
:100F30002CB94046FFF748F94820BDE8F081012C64
:100F400004D14046FFF740F94320F6E794F83470A7
:100F50001148C05D94F8351088430F49C8550846BC
:100F6000C05D30B994F836100C48007888430B49BE
:100F7000087094F8300040F0080084F830004046D3
:100F8000FFF722F9012E01D100F0C8FA0020D4E7C2
:100F900054000020500D0020460000204500002095
:100FA0007047000070B5054600261748007800B16C
:100FB00070BD1648007800B1FAE71DB3FFF700F9DD
:100FC00006461348006890F834401248005D104906
:100FD000096891F8351088430E4908550846005DA8
:100FE00040B90B48006890F836100B4800788843E9
:100FF0000949087006480068C5623046FFF7E4F802
:1010000000F08CFA00BFD3E741000020420000202E
:1010100054000020460000204500002070B5002646
:1010200000F072F8FFF7CCF8064631480068401C23
:101030002F4908603046FFF7C7F82E48007801288E
:1010400053D12D48007820B1012804D0022809D1BD
:1010500003E001250BE0002509E0012501202649D8
:10106000087004E0012500202349087000BF00BF7C
:1010700005B970BD2148046833E0FFF7A1F80646C2
:10108000E06A50B3E06A401EE062E06A28BB94F870
:10109000300000F0370040B114F8300F00F0C80005
:1010A000207001206070303C02E0002084F83100A4
:1010B00094F8300000F0080078B93434A078104972
:1010C000097808430E49087020780E49085C617859
:1010D000084314F834190B4A505464693046FFF73A
:1010E00073F894F832003F28C7D100BFC1E7000071
:1010F0006C0000204E0000206400002060000020F2
:101100004500002046000020704700002DE9F04F08
:1011100005460F4690469946A87A19490E5C05F196
:101120000B00805D11F800B00BEBC60000F0FF0A69
:10113000144850F82A4000202034E0602760207CCA
:1011400020EA0800207484F81190207C203C00F0F4
:10115000080068B994F836000B49097808430A4931
:1011600008700A48805D94F835100843074988558F
:101170002946204600F00CF85046BDE8F08F0000EC
:101180003E220008500D00204500002046000020AF
:1011900010B590F8342001F10B039B5C90F83540BA
:1011A000A34301F10B04A35423469B5C23B98B7A20
:1011B00090F83640A3438B7210BD000010B51B4A57
:1011C0001268D061194A126892F8343000F10B02AB
:1011D000D25C164B1B6893F835301A43134B1B68CF
:1011E00093F8344000F10B031A55827A0F4B1B68B9
:1011F00093F836301A4382720C4A126892F834100F
:101200000B4A525C094B1B6893F835309A43084BE4
:101210005A541A46525C42B9044A126892F836305F
:10122000044A12789A43034B1A7010BD54000020F0
:101230004600002045000020014600228A7200205E
:1012400005E0002301F10B021354421CD0B2082820
:10125000F7D370472DE9F0415021114800F02CF9E7
:1012600000250DE0681C86B20D4800EB051400EB6C
:1012700006170020207067600AA0E060681C85B235
:10128000042DEFD3064800EB0514002020706060A9
:1012900004A0E060024804490860BDE8F081000055
:1012A000000900203F0000003000002070B5C82178
:1012B000114800F001F900230FE0581C85B203EB40
:1012C00083000D4901EB800405EB850001EB8006EE
:1012D000002020706660581C83B2092BEDD303EB0D
:1012E0008300054901EB80040020207060600846FF
:1012F0000249086070BD0000380800202C00002062
:1013000000200A4908600A4908700A4908700A4919
:1013100008700A4908700A4908600A4908600A49C1
:1013200008600A4908600A49087070476C0000208C
:1013300041000020420000204F0000204E0000200D
:1013400028000020500000203C0000203800002031
:101350004000002000210A4A1170002004E0002112
:10136000084A1154411CC8B20828F8D30021064A83
:101370001170064A1170064A1160064A11607047E2
:1013800045000020460000204300002044000020CB
:101390005C0000205400002070B54FF47C711948A7
:1013A00000F08AF84FF48071174800F085F80024A7
:1013B00013E0601CC5B2C4EBC40000EB400011494F
:1013C00001EB8003C5EBC50000EB400001EB80069C
:1013D0005E610EA0D864601CC4B20B2CE9D3C4EBD0
:1013E000C40000EB4000074901EB80030020586176
:1013F00006A0D86400200649086002480549086034
:1014000070BD0000500E0020500D00203F00000075
:10141000600000205800002000B587B003200021A4
:1014200080220A4BCDE90132CDE903104FF6FF705F
:101430003F23074A00900748FFF732FC06AA06A19F
:101440003F20FFF78BFC07B000BD0000500B0020D1
:101450004C0D0020F116000875432F4F532D4949BC
:101460002049646C6500000000B587B003200021AE
:1014700080220A4BCDE90132CDE903104FF6FE7010
:101480003E23074A00900748FFF70AFC06AA06A178
:101490003E20FFF763FC07B000BD000050090020AC
:1014A0004C0B00201917000875432F4F532D494945
:1014B000205374617400000004E0002200F8012B46
:1014C0004A1E91B20029F8D1704700002DE9F04181
:1014D00078211048FFF7F0FF00240DE0601C86B271
:1014E00004EB44000B4901EBC00506EB460001EBA1
:1014F000C0072F60601C84B2042CEFD304EB4400BF
:10150000044901EBC0050020286008460249086034
:10151000BDE8F081401200206800002010B50024D2
:10152000FEF74EFE044613480078F8B912480078DA
:10153000E0B900F02DF811481149097850F8210060
:10154000104908600E4800780F49097888420DD08C
:101550000C480068806B401C0A49096888630B4886
:101560000068401C09490860FEF742FE2046FEF76D
:101570002BFE10BD4100002042000020500D002035
:10158000440000205C0000204300002028000020D0
:101590000649074A1278885C0649095C034A515C8F
:1015A00001EBC001044A1170704700003E220008A0
:1015B0004500002046000020440000202DE9F84F9F
:1015C00005460F4690469946DDE90AAB002000909B
:1015D000FEF7F6FD00903F480468002C74D01834E4
:1015E00054F8040C3B4908600098FEF7EDFD44F800
:1015F000187CA576002020766076606144F814BCE3
:1016000044F80CAC44F8108C0C9824F8080C24F81E
:10161000069C0020E077E810207705F00700E076D0
:10162000217F01208840A077E17E012088406077FB
:1016300000206060E060A0602062A0626062E06202
:10164000206325A06063183C002606E0002104F119
:10165000500040F82610701CC6B2002EF6D020466E
:10166000FFF7CCFA2046FFF777FBFEF7A9FD0090C5
:101670001A4840F825401A48006860610020A061BF
:101680001748006810B11648006884611448046067
:101690003434A07813490978084312490870207837
:1016A0001149085C6178084314F834190E4A505403
:1016B0000E480078401C0D4908700098FEF784FD24
:1016C0000020BDE8F88FFFE70098FEF77DFD42207F
:1016D000F7E70000580000203F000000500D0020F8
:1016E0006000002045000020460000204F00002040
:1016F000002400BF00BFFEF763FD044605480068F4
:10170000401C044908602046FEF75EFDFFF725FBFC
:10171000F1E7000050000020002400BF02E0642038
:10172000FFF740FC194800780028F8D018480068F6
:101730006421B0FBF1F0164908600846006828B93A
:10174000002014490870FF20FFF7D6FB00BFFEF70A
:1017500037FD0446104800681049086000200E4913
:1017600008602046FEF730FD0C480068084909680B
:10177000B0FBF1F0C0F1640006490870FFF726FBEA
:1017800000F00EF83220FFF70DFCE0E740000020EB
:101790003800002034000020500000203C000020D1
:1017A0007CB5002514E069462846FFF711FB064684
:1017B00066B9094850F8254044B1012C06D0D4E957
:1017C000020100EB810060640198A064681CC5B24E
:1017D0003F2DE8D97CBD0000500D002002F0010330
:1017E00043B102F002032BB102E0491E002308C0FE
:1017F0000029FAD17047000030B504460025FEF7F5
:10180000CBFE1F48006840F480301D49086000BFCF
:101810001B480068400C0028FAD04FF4806018493B
:101820004860A01EC4B20846406840EA8440486050
:101830000846406840F4803048601248006840F034
:101840003200104908600E48006840F080700C4972
:10185000086000BF0A480068400E0028FAD0084817
:10186000406840F002000649486005E004484068CE
:10187000C0F3870505F00305022DF7D130BD000048
:10188000001002400020024010B5FEF72BFFFFF7CA
:10189000C5FBFEF739FF10BD10B5FEF723FF1E484C
:1018A000008800F0200010B31B48001D0088C4B25F
:1018B0001A48008800F40040C8B91848008800F4AD
:1018C000804060B10A2C03D000201449088020E039
:1018D0001248008840F400401049088019E00D2C9F
:1018E00006D10E48008840F480400C49088010E082
:1018F0000A480088C0F30D0009490C5407480088C5
:10190000401C0649088008460088C72801DD0020E1
:101910000880FEF7F9FE10BD0038014024000020C9
:1019200070070020014600BF7047000010B54FF05F
:10193000E022126922F004024FF0E0231A61C3177B
:1019400000EB5373C3F3C7030D4C2370C31700EBB5
:101950005373D9104FF4FA6251430222094B1A8093
:101960004FF0E022126942F002024FF0E0231A61C8
:101970001A465161126942F001021A6110BD00005D
:101980001C0000201E00002070B504460E480078A0
:10199000012811D10D480088844206DB0B480088DD
:1019A00094FBF0F52846FFF7FDFA0848008894FB01
:1019B000F0F100FB114084B24FF47A7104FB01F0A6
:1019C00000F006F870BD00004E0000201E00002050
:1019D0002DE9F047074600264FF0E020D0F814909C
:1019E0001148007807FB00F800BFFEF7A5FF4FF095
:1019F000E020856911E04FF0E0208469AC420CD012
:101A0000AC4202D2281B064403E0A9EB04002844A0
:101A100006442546464500D300E0ECE700BFFEF74C
:101A2000ABFFBDE8F08700001C0000200CE00020A8
:101A3000FEF7BCFC044624B1214604480068FEF7CA
:101A400053FF0A20FFF7A0FFF1E70000000000208D
:101A50000FE0601CC4B20A20FFF796FF082C02D1E9
:101A6000012004490860642C03D1002400200149AE
:101A70000860EEE78001224208B513E06A460021C3
:101A800009480068FEF7CEFF002008490860C8201A
:101A9000FFF77AFF01200649C1F884014FF448702E
:101AA000FFF772FFEAE700000400002084012242F1
:101AB0000000224210B50920FFF79EFE4820FFF7E4
:101AC00035FF4FF41651482000F0A4F8FEF7BEFC95
:101AD000FEF720FCFEF7E4FCFEF7ECFD0A23044AC7
:101AE00000210448FFF78CF8FFF73EF8002010BDF6
:101AF0006C010020751B000808B5002420E06A4630
:101B00000A2110480068FEF76DFE0446012C02D041
:101B1000022C11D104E00C480068FEF7F9FF0BE03D
:101B20000A480078401C09490870084600781128C6
:101B300001D10020087000BF00BF0A20FFF724FF7A
:101B4000DDE7000000000020040000201A00002053
:101B50000BE00649064A1278885C0721FEF7FAFC7A
:101B6000FEF78EFC0A20FFF70FFFF2E708000020C7
:101B70001A00002070B50446002500BF0020FEF7C3
:101B80000BFE184908600020FEF726FF1649086082
:101B9000FFF70EF8FEF714FB05460723134A002152
:101BA0001348FFF72DF80623124A00211248FFF7C9
:101BB00027F80523114A00211148FFF721F80423D3
:101BC000104A00211048FFF71BF803230F4A002199
:101BD0000F48FFF715F80A20FFF78EF92846FEF7A1
:101BE000F3FA70BD00000020040000206C02002009
:101BF000511A00086C030020511B00086C040020DF
:101C0000791A00086C060020F91A00086C070020F9
:101C10002D1A00082DE9F05F05460E46300100F050
:101C2000AFF98146304905FB01F000F0A9F9824681
:101C3000494600F0C3F80746384600F081F984B2FF
:101C4000204600F09DF98346394600F079FA824635
:101C50004FF0834100F0A8F9814600F071F9804609
:101C60004FF6FF7000EA041404EB080084B21F482A
:101C7000806940F004001D4988610846806940F48D
:101C8000804088611A48006820F47F601849086025
:101C90000846006840F40B6008601448C06840F4CF
:101CA00080401249C8600846C06820F48040C8607F
:101CB00010480480001D008842F20C0108430D49C1
:101CC000091D08800846008840F480700880084696
:101CD000008840F0200008800223252203210846C6
:101CE000FEF78EFCBDE8F09F40420F00001002405E
:101CF000040801400838014090EA010F48BF81F014
:101D0000004100F12E82421A3CBF801A89184FEA26
:101D1000D0524FF07F4C1CEA410FA2EBD15318BFB9
:101D20009CEA026F00F03B804FF0004C4CEA002030
:101D30004CEA012121FA03FC10EB0C0C1ED202F13B
:101D4000FF325FEA1C2040EBC25038BF70471CF0E6
:101D50007F0F4FEA400C18BFBCF17F4F38BF704770
:101D6000C3F12003994008BF20F00100BCF17F4F70
:101D700038BF7047A0F1C04000F0DDB94FEA3C0029
:101D8000000A40EBC25028BF1CF0FF0F4FEA400C86
:101D9000E6D018BFBCF17F4F38BF7047EAE79CEA36
:101DA000026F05D010EA5C0F08BF00F000407047DA
:101DB00010B500F07AF900BF64FBBE3E4FF47F0C13
:101DC0001CEAD0121EBF1CEAD11392EA0C0F93EA50
:101DD0000C0F00F0858090EA010F48BF42F480723A
:101DE00040F4000C41F400002CF07F4120F07F40D3
:101DF00000B58142A2EB03020FF2081CACEB504E7F
:101E0000C0F100009EF800E04FEA4E0E00FB0EFC11
:101E100038BF49004FEA2C1C02F5FA020CFB0EF306
:101E20004FEACE1E4FEA112C4FEAC1210EEB635E42
:101E300042EB22420EFB0CFC4FEA1C5300FB031149
:101E40004FEA112C4FEA01310EFB0CFC4FEADC4C3F
:101E500000FB0C11C14228BF09184CEB03335DF89D
:101E600004EB10EB410143EBC250B2F57C0F38BFDD
:101E7000704729D512F0F00F1CBF00F1C04000F0F0
:101E800000407047008182838485868788898B8C97
:101E90008D8E8F919293959697999A9C9D9FA0A2D3
:101EA000A3A5A7A8AAACAEB0B2B3B5B7B9BCBEC023
:101EB000C2C5C7C9CCCED1D4D7D9DCDFE2E6E9ECC4
:101EC000F0F3F7FAFE0000004FEA400C0CF1807CC2
:101ED000BCF17E4F28BF7047B0F1C04000F02BB975
:101EE00090EA010F0CEAD11348BF42F480726245B8
:101EF00038BF634507D213F47F0F16D080EA010084
:101F000000F00040704710B500F0CFF8097EFC3EAD
:101F100000F005B880EA010000F00040704780EA58
:101F2000010000F0004000F006B912F47F0F04BF7A
:101F30000248704780EA010000F0FDB80000C07F51
:101F4000C10DD1F19E0206DB4FEA002343F00043AE
:101F500023FA02F07047004207D54FEA4001B1F181
:101F6000FE4F02D24FF00000704710B500F09DF810
:101F700049922480002070476FEA200070470000DB
:101F8000B0FA80F310FA03F2C3F19D030AD0D90529
:101F900001EB1220530638BF704700F1010008BF63
:101FA00020F00100704700004FF47F0C1CEAD012B3
:101FB0001EBF1CEAD11392EA0C0F93EA0C0F00F03B
:101FC000478090EA010F48BF42F480724FF0004C06
:101FD0004CEA00204CEA012102EB0302A0FB0113B2
:101FE000A2F50002002918BF43F001035B0028BFDF
:101FF0004FEA330342EB22425FEA132C4CEBC25010
:102000002EBFBCEB436FB2F57C0F70474FEA036CF9
:10201000BCF1004F08BF20F00100B2F57C0F38BFC3
:1020200070470BD582F0FF0212F5803FC8BF7047A2
:1020300000F1C040D8BF00F00040704700F5000C30
:102040005FEA4C0C48BF7047B0F1C04000F073B875
:1020500090EA010F0CEAD11348BF42F48072624546
:1020600038BF634504D280EA010000F000407047A9
:1020700010B500F01AF800BF8900013E00F007B863
:1020800000F009B85FEA410C5FEA1C6C08D080EAF6
:10209000010000F050B85FEA400C5FEA1C6CF6D11A
:1020A0004FF00040A0F5800070470EF1020E2EF0B8
:1020B000030E5EF8044B244204D44FEA4102B2F10D
:1020C0007F4F11D84FEA4003B3F17F4F0CD80ED1A8
:1020D0004FEAD07CB2F17F4F0CEB4C0C0CF1020CB0
:1020E00008BF4CEBD17C04E04FF0080C01E04FEA54
:1020F000D17C0CEB4C0324FA03F404F00704B4F194
:10210000040C06D20EEB840CBDE810404CF0010C20
:102110006047DFE80CF0070802024FF00040A0F52E
:10212000800010BD0846420018BFD2F1807288BFFF
:1021300000F0004010BDFF2141EAD050C0057047BB
:1021400080F0004090EA010F7FF5DDAD81F00041A5
:1021500000F007B890EA010F48BF81F000413FF559
:10216000D2AD421A04D882F00042A0EB0200114422
:102170004FEAD0524FF07F4C1CEA410FA2EBD153F3
:1021800018BF9CEA026F4AD04FF0004C4CEA002086
:102190004CEA012121FA03FCB0EB0C0C0FD412F035
:1021A000FE0F36D05FEA4C001DD5001240EBC25046
:1021B00038BF70471CF03F0F18BF70470BE0A2F10B
:1021C00001025FEA1C2040EBC25038BF70471CF090
:1021D0007F0F18BF7047C3F12003994014BF401E02
:1021E00020F00100704780084FEA122308BF7047B3
:1021F000B0FA80FCA2EB0C02CCF1280C60FA0CF0D7
:1022000093EA122F04BF00EBC25070474FEAC3702D
:102210007047130A5FEADC1008BF7047F6E79CEAD4
:10222000026F04D010EA5C0F08BF0020704710B5A1
:10223000FFF73BFF40DFF63E81F0004070470000B3
:10224000010002000100030001000200010004007F
:10225000010002000100030001000200010005006E
:10226000010002000100030001000200010004005F
:10227000010002000100030001000200010006004D
:10228000010002000100030001000200010004003F
:10229000010002000100030001000200010005002E
:1022A000010002000100030001000200010004001F
:1022B000010002000100030001000200010007000C
:1022C00001000200010003000100020001000400FF
:1022D00001000200010003000100020001000500EE
:1022E00001000200010003000100020001000400DF
:1022F00001000200010003000100020001000600CD
:1023000001000200010003000100020001000400BE
:1023100001000200010003000100020001000500AD
:10232000010002000100030001000200010004009E
:102330000100020001000300010002000100000092
:102340006023000800000020700000002801000841
:10235000D023000870000020A818000044010008E5
:102360000000000000000000FC60DAF266B6BEE08B
:10237000FEF6EE3E9C7A9E8E0100000000000000FA
:10238000000000000000010000000000000000004C
:10239000000000000000000000000000000000003D
:1023A000000000000000000000000000000000002D
:1023B000000000000000000000000000000000001D
:1023C000000000000000000000000000000000000D
:04000005080000ED02
:00000001FF
