:020000040800F2
:1000000000150020890100088D0100088F010008FB
:10001000910100089301000895010008000000000C
:100020000000000000000000000000009701000830
:1000300099010008000000000F020008A510000848
:100040009F0100089F0100089F0100089F01000810
:100050009F0100089F0100089F0100089F01000800
:100060009F0100089F0100089F0100089F010008F0
:100070009F0100089F0100089F0100089F010008E0
:100080009F0100089F0100089F0100089F010008D0
:100090009F0100089F0100089F0100089F010008C0
:1000A0009F0100089F0100089F0100089F010008B0
:1000B0009F0100089F0100089F0100089F010008A0
:1000C0009F0100089F0100089F0100089F01000890
:1000D0009F010008C11000089F0100089F0100084F
:1000E0009F0100089F0100089F01000800F002F82E
:1000F00000F03AF80AA090E8000C82448344AAF188
:100100000107DA4501D100F02FF8AFF2090EBAE885
:100110000F0013F0010F18BFFB1A43F0010318473B
:100120002013000040130000103A24BF78C878C1A3
:10013000FAD8520724BF30C830C144BF04680C60ED
:10014000704700000023002400250026103A28BF35
:1001500078C1FBD8520728BF30C148BF0B60704739
:100160001FB51FBD10B510BD00F089F81146FFF78F
:10017000F7FF01F0A9F800F0A7F803B4FFF7F2FFCA
:1001800003BC00F0E3FF000008480047FEE7FEE77D
:10019000FEE7FEE7FEE7FEE7FEE7FEE7FEE7FEE737
:1001A00003480449044A054B70470000ED0000086D
:1001B000000F002000150020001100200011002079
:1001C000EFF3108072B6704780F310887047204CB0
:1001D000204D25604FF0000484F309881E4C4FF039
:1001E000010525701D4C4FF08055256062B6FEE775
:1001F00030B41A4C4FF08055256030BC704730B495
:10020000164C4FF08055256030BC704700BF72B669
:10021000EFF3098028B1203880E8F00F1049096811
:10022000086000B50F4880475DF804EB0E480F49A1
:100230000A7802700A480E490A680260106890E85D
:10024000F00F203080F309884EF0040E62B670473C
:1002500020ED00E00000FFFF3200002004ED00E090
:100260003800002005090008270000202800002091
:1002700040000020704770477047704770477546D0
:1002800000F02CF8AE4605006946534620F0070002
:10029000854618B020B5FFF783FFBDE820404FF03A
:1002A00000064FF000074FF000084FF0000B21F060
:1002B0000701AC46ACE8C009ACE8C009ACE8C0092D
:1002C000ACE8C0098D46704710B50446AFF3008016
:1002D0002046BDE81040FFF750BF000000487047BF
:1002E0009C0E00200A48806940F01000084988618F
:1002F000084800680020074908600846006840F088
:10030000333008600846C06840F0FF00C86070479E
:10031000001002400010014000B50020154908619E
:10032000C8601420486100208861C86108460068E0
:1003300040F001000860084640680F4908400D4938
:100340004860084600680D4908400A4908600846A8
:10035000006820F4802008600846406820F4FE0011
:1003600048600020886000214FF0006000F008F82D
:1003700000BD0000001002400000FFF8FFFFF6FE85
:10038000024A0A400243024B1A60704780FFFF1F77
:1003900008ED00E010B500F013F800F0BFFB00F02E
:1003A000E7FB00F007FC00F08FFB00F061FB00F0C2
:1003B0009BFC00F03FFC00F065FC00F002F810BD73
:1003C0007047704706480078012808D10548007832
:1003D000FF2804D203480078401C02490870704787
:1003E000320000202500002010B500241A480078B3
:1003F000012830D1FFF7E4FE04461848007820B108
:1004000016480078401E1549087014480078F8B95D
:1004100013480078E0B900F0C9FC12481249097885
:1004200050F82100114908600F48007810490978F8
:1004300088420DD00D480068806B401C0B4909684C
:1004400088630C480068401C0A490860FFF7D7FE23
:100450002046FFF7B9FE10BD320000202500002025
:100460002600002034090020280000204000002041
:10047000270000200C00002010B500240B48007855
:10048000012811D1FFF79CFE04460948007840B9C5
:1004900008480078FF2804D206480078401C054927
:1004A00008702046FFF790FE10BD000032000020CB
:1004B000250000202600002010B5002413480078F5
:1004C000012821D1FFF77CFE044611480078C0B115
:1004D0000F480078401E0E4908700846007860B941
:1004E0000C48007828B92046FFF76EFE00F024FC87
:1004F0000AE02046FFF768FE06E02046FFF764FEAC
:1005000002E02046FFF760FE10BD00003200002030
:10051000260000202500002010B50B48007890B977
:1005200000F044FC09480078094908700948074967
:10053000097850F821000849086008460068074912
:100540000860FFF744FE10BD3200002028000020A4
:10055000270000203409002040000020380000203F
:10056000704700002DE9FE4F06460F4690461C4698
:100570004FF00009FFF724FE81461F48007828B19C
:100580004846FFF721FE3C20BDE8FE8F1B4850F88F
:10059000240060BB0120194941F824004846FFF7B8
:1005A00013FE002342463946304600F009F98246E0
:1005B00000200090019003460246514602902046DA
:1005C00000F00AFC054635B90D48007801280CD129
:1005D00000F0B2FB09E0FFF7F3FD81460020074978
:1005E00041F824004846FFF7EFFD2846CCE748468F
:1005F000FFF7EAFD2820C7E7250000203409002086
:10060000320000202DE9F04F85B081468A4693469E
:100610001C46DDE90F78129D00200390FFF7D0FD06
:1006200003902348007830B10398FFF7CDFD3C20BC
:1006300005B0BDE8F08F1F4850F8240088BB0120AA
:100640001C4941F824000398FFF7BEFD2A464146A5
:10065000384600F0D1FC2B465A465146484600F039
:10066000AFF804901198CDE9008002953A462046F3
:100670000E9B049900F0B0FB064636B90E48007890
:1006800001280CD100F058FB09E0FFF799FD039019
:100690000020084941F824000398FFF795FD3046F3
:1006A000C6E7FFE70398FFF78FFD2820C0E70000AB
:1006B00025000020340900203200002070477047D8
:1006C0002DE9F04106460F4614464FF00008154844
:1006D000007818B112202070BDE8F081FFF770FD9E
:1006E0008046FF2E03D11048006890F832600F4812
:1006F00050F826502DB94046FFF766FD4320207084
:10070000EAE7012D05D14046FFF75EFD432020704A
:10071000E2E7EF644046FFF757FD0020207000BF7E
:10072000DAE700002500002038000020340900200E
:10073000704700002DE9F04707460D464FF0000ACC
:10074000002028606860FFF73BFD8246FF2F03D141
:100750001948006890F83270184850F827402CB9B2
:100760005046FFF731FD4320BDE8F087012C04D14E
:100770005046FFF729FD4320F6E7207C00F00100FA
:1007800020B95046FFF720FD4520EDE70026D4F8BC
:100790000C90D4F808805046FFF716FD00E0761C58
:1007A00058F8041B0029FAD0B0002860A9EB060015
:1007B000800068600020D7E738000020340900205E
:1007C00070B5044610464FF080750560051F284639
:1007D0002C606FF00106051F28462E604FF0123680
:1007E000051F28462E604FF00336051F28462E6051
:1007F0004FF00236051F28462E607610051F28464A
:100800002E60051F284629604FF01136051F284627
:100810002E604FF01036051F28462E604FF0093627
:10082000051F28462E604FF00836051F28462E600B
:100830004FF00736051F28462E604FF00636051F7D
:1008400028462E604FF00536051F28462E604FF0D3
:100850000436051F28462E6070BD00002DE9F041CA
:1008600005464FF00008FFF7ABFC8046FF2D05D191
:100870002048006890F83250012608E01D480068C2
:1008800090F83200A84201D1012600E000261A4863
:1008900050F825402CB94046FFF796FC4820BDE8AB
:1008A000F081012C04D14046FFF78EFC4320F6E78F
:1008B00094F834701148C05D94F8351088430F499E
:1008C000C8550846C05D30B994F836100C48007819
:1008D00088430B49087094F8300040F0080084F811
:1008E00030004046FFF770FC012E01D100F024FAE1
:1008F0000020D4E738000020340900202A0000201E
:10090000290000207047000070B5054600261748F2
:10091000007800B170BD1648007800B1FAE71DB349
:10092000FFF74EFC06461348006890F83440124822
:10093000005D1049096891F8351088430E49085543
:100940000846005D40B90B48006890F836100B4827
:10095000007888430949087006480068C562304637
:10096000FFF732FC00F0E8F900BFD3E725000020D4
:1009700026000020380000202A0000202900002046
:1009800070B5002600F072F8FFF71AFC06463148F1
:100990000068401C2F4908603046FFF715FC2E48C0
:1009A0000078012853D12D48007820B1012804D0C7
:1009B000022809D103E001250BE0002509E001250B
:1009C00001202649087004E0012500202349087011
:1009D00000BF00BF05B970BD2148046833E0FFF7D0
:1009E000EFFB0646E06A50B3E06A401EE062E06A50
:1009F00028BB94F8300000F0370040B114F8300FF5
:100A000000F0C800207001206070303C02E000203F
:100A100084F8310094F8300000F0080078B93434DC
:100A2000A0781049097808430E49087020780E49CB
:100A3000085C6178084314F834190B4A505464690F
:100A40003046FFF7C1FB94F832003F28C7D100BF02
:100A5000C1E70000500000203200002048000020C4
:100A600044000020290000202A00002070470000D8
:100A70002DE9F0415021114800F02CF900250DE03E
:100A8000681C86B20D4800EB051400EB0617002029
:100A9000207067600AA0E060681C85B2042DEFD367
:100AA000064800EB051400202070606004A0E060A0
:100AB000024804490860BDE8F0810000E404002019
:100AC0003F0000001400002070B5C821114800F05C
:100AD00001F900230FE0581C85B203EB83000D4998
:100AE00001EB800405EB850001EB800600202070FF
:100AF0006660581C83B2092BEDD303EB83000549D4
:100B000001EB800400202070606008460249086004
:100B100070BD00001C0400201000002000200A49C5
:100B200008600A4908700A4908700A4908700A49A9
:100B300008700A4908600A4908600A4908600A49B9
:100B400008600A4908707047500000202500002006
:100B50002600002033000020320000200C0000207E
:100B600034000020200000201C0000202400002071
:100B700000210A4A1170002004E00021084A1154A3
:100B8000411CC8B20828F8D30021064A1170064A51
:100B90001170064A1160064A116070472900002052
:100BA0002A0000202700002028000020400000200C
:100BB0003800002070B54FF47C71194800F08AF8B5
:100BC0004FF48071174800F085F8002413E0601C92
:100BD000C5B2C4EBC40000EB4000114901EB800337
:100BE000C5EBC50000EB400001EB80065E610EA086
:100BF000D864601CC4B20B2CE9D3C4EBC40000EB76
:100C00004000074901EB80030020586106A0D8642A
:100C100000200649086002480549086070BD0000D0
:100C2000340A0020340900203F0000004400002066
:100C30003C00002000B587B00320002180220A4B31
:100C4000CDE90132CDE903104FF6FF703F23074A8B
:100C500000900748FFF7D6FC06AA06A13F20FFF741
:100C60002FFD07B000BD0000340700203009002030
:100C70000D0F000875432F4F532D49492049646CCF
:100C80006500000000B587B00320002180220A4BD8
:100C9000CDE90132CDE903104FF6FE703E23074A3D
:100CA00000900748FFF7AEFC06AA06A13E20FFF71A
:100CB00007FD07B000BD000034050020300700200C
:100CC000350F000875432F4F532D49492053746148
:100CD0007400000004E0002200F8012B4A1E91B2CB
:100CE0000029F8D1704700002DE9F0417821104823
:100CF000FFF7F0FF00240DE0601C86B204EB440017
:100D00000B4901EBC00506EB460001EBC0072F6065
:100D1000601C84B2042CEFD304EB4400044901EBC3
:100D2000C00500202860084602490860BDE8F0813F
:100D3000240E00204C00002010B50024FFF740FADC
:100D4000044613480078F8B912480078E0B900F07A
:100D50002DF811481149097850F821001049086010
:100D60000E4800780F49097888420DD00C48006879
:100D7000806B401C0A49096888630B480068401C66
:100D800009490860FFF734FA2046FFF71DFA10BD45
:100D90002500002026000020340900202800002023
:100DA00040000020270000200C0000200649074AD0
:100DB0001278885C0649095C034A515C01EBC0016A
:100DC000044A1170704700004013000829000020F9
:100DD0002A000020280000202DE9F84F05460F4684
:100DE00090469946DDE90AAB00200090FFF7E8F94C
:100DF00000903F480468002C74D0183454F8040C58
:100E00003B4908600098FFF7DFF944F8187CA576A5
:100E1000002020766076606144F814BC44F80CAC85
:100E200044F8108C0C9824F8080C24F8069C002038
:100E3000E077E810207705F00700E076217F0120B9
:100E40008840A077E17E01208840607700206060C4
:100E5000E060A0602062A0626062E062206325A082
:100E60006063183C002606E0002104F1500040F8C1
:100E70002610701CC6B2002EF6D02046FFF770FB7D
:100E80002046FFF71BFCFFF79BF900901A4840F83B
:100E900025401A48006860610020A061174800687A
:100EA00010B1164800688461144804603434A07896
:100EB0001349097808431249087020781149085CE1
:100EC0006178084314F834190E4A50540E480078DB
:100ED000401C0D4908700098FFF776F90020BDE826
:100EE000F88FFFE70098FFF76FF94220F7E700005F
:100EF0003C0000203F000000340900204400002096
:100F0000290000202A00002033000020002400BF18
:100F100000BFFFF755F9044605480068401C044926
:100F200008602046FFF750F9FFF7C9FBF1E7000022
:100F300034000020002400BF02E02820FFF7E4FC7A
:100F4000194800780028F8D0184800686421B0FBE0
:100F5000F1F0164908600846006828B900201449D5
:100F60000870FF20FFF77AFC00BFFFF729F904465D
:100F7000104800681049086000200E4908602046AB
:100F8000FFF722F90C48006808490968B0FBF1F046
:100F9000C0F1640006490870FFF7CAFB00F00EF8C4
:100FA0001420FFF7B1FCE0E7240000201C00002023
:100FB0001800002034000020200000207CB500250F
:100FC00014E069462846FFF7B5FB064666B90948AE
:100FD00050F8254044B1012C06D0D4E9020100EBC1
:100FE000810060640198A064681CC5B23F2DE8D9F7
:100FF0007CBD00003409002002F0010343B102F07F
:1010000002032BB102E0491E002308C00029FAD1D7
:101010007047000030B504460025FFF77DF91F48F2
:10102000006840F480301D49086000BF1B4800681C
:10103000400C0028FAD04FF4806018494860A01E88
:10104000C4B20846406840EA8440486008464068A8
:1010500040F4803048601248006840F03200104987
:1010600008600E48006840F080700C49086000BFBE
:101070000A480068400E0028FAD00848406840F04E
:1010800002000649486005E004484068C0F387054F
:1010900005F00305022DF7D130BD0000001002401D
:1010A0000020024010B505480078012805D1FFF75F
:1010B00089F9FFF765FCFFF797F910BD32000020B2
:1010C00010B5FFF77FF91E48008800F0200010B32C
:1010D0001B48001D0088C4B21A48008800F4004074
:1010E000C8B91848008800F4804060B10A2C03D0C9
:1010F00000201449088020E01248008840F4004095
:101100001049088019E00D2C06D10E48008840F4E3
:1011100080400C49088010E00A480088C0F30D00A8
:1011200009490C5407480088401C064908800846B5
:101130000088C72801DD00200880FFF755F910BDA1
:10114000003801400800002054030020014600BF81
:101150007047000010B54FF0E022126922F004023F
:101160004FF0E0231A61C31700EB5373C3F3C703B7
:101170000D4C2370C31700EB5373D91041F2883222
:1011800051430522094B1A804FF0E022126942F0C8
:1011900002024FF0E0231A611A465161126942F0CF
:1011A00001021A6110BD00000000002002000020B2
:1011B00070B504460F480078A0B10F48007888B990
:1011C0000E480088844206DB0C48008894FBF0F54A
:1011D000284600F01DF80948008894FBF0F100FB58
:1011E000114084B24FF47A7104FB01F000F016F85C
:1011F00070BD000032000020250000200200002009
:1012000010B5FFF739F910BD10B5FFF755F910BD4E
:1012100010B504462046FFF777FB10BD2DE9F047D7
:10122000074600264FF0E020D0F8149010480078D0
:1012300007FB00F8FFF7E4FF4FF0E020856911E0BD
:101240004FF0E0208469AC420CD0AC4202D2281BA3
:10125000064403E0A9EB040028440644254646451D
:1012600000D300E0ECE700BFFFF7CEFFBDE8F0875A
:10127000000000200DE00020064908605020FFF724
:1012800097FF01200449C1F880014FF46670FFF711
:101290008FFFF0E780012242000022420EE0002092
:1012A000074908604FF49670FFF782FF0120054957
:1012B000C1F884014FF49670FFF77AFFEFE7000062
:1012C000840122420000224210B50920FFF7A2FE4D
:1012D0004820FFF73FFFFFF705F8FFF75BF80A2309
:1012E000044A00210448FFF73DF9FFF715F90020F3
:1012F00010BD000050010020FD12000870B504462A
:10130000002500BFFEF75CFF05460723084A0021C1
:101310000848FFF727F90623074A00210748FFF787
:1013200021F90A20FFF79AFA2846FEF74DFF70BD13
:101330005002002075120008500300209D12000882
:101340000000010002000100030001000200010092
:10135000040001000200010003000100020001007E
:10136000050001000200010003000100020001006D
:10137000040001000200010003000100020001005E
:10138000060001000200010003000100020001004C
:10139000040001000200010003000100020001003E
:1013A000050001000200010003000100020001002D
:1013B000040001000200010003000100020001001E
:1013C000070001000200010003000100020001000B
:1013D00004000100020001000300010002000100FE
:1013E00005000100020001000300010002000100ED
:1013F00004000100020001000300010002000100DE
:1014000006000100020001000300010002000100CB
:1014100004000100020001000300010002000100BD
:1014200005000100020001000300010002000100AC
:10143000040001000200010003000100020001009D
:10144000601400080000002054000000280100087B
:10145000B414000854000020AC140000440100083B
:10146000000000000000000000000000000000007C
:10147000000000000000000000000000000000006C
:10148000000000000000000000000000000000005C
:10149000000000000000000000000000000000004C
:1014A000000000000000000000000000000000003C
:0414B0000000000038
:04000005080000ED02
:00000001FF
