:020000040800F2
:1000000078180020F5010008F9010008FB0100083C
:10001000FD010008FF0100080102000800000000C7
:1000200000000000000000000000000003020008C3
:10003000050200080000000007020008090200088D
:100040000B0200080B0200080B0200080B0200085C
:100050000B0200080B0200080B0200080B0200084C
:100060000B0200080B0200080B0200080B0200083C
:100070000B0200080B0200080B0200080B0200082C
:100080000B0200080B0200080B0200080B0200081C
:100090000B0200080B0200080B0200080B0200080C
:1000A0000B0200080B0200080B0200080B020008FC
:1000B0000B0200080B020008911500080B02000853
:1000C0000B0200080B0200080B0200080B020008DC
:1000D0000B020008AD0D00080B0200080B0200081F
:1000E0000B0200080B0200080B02000800F002F8E7
:1000F00000F06BF80AA090E8000C82448344AAF157
:100100000107DA4501D100F060F8AFF2090EBAE854
:100110000F0013F0010F18BFFB1A43F0010318473B
:10012000CC2A0000EC2A00000A444FF0000C10F822
:10013000013B13F0070408BF10F8014B1D1108BF65
:1001400010F8015B641E05D010F8016B641E01F805
:10015000016BF9D113F0080F1EBF10F8014BAD1C55
:100160000C1B09D16D1E58BF01F801CBFAD505E073
:1001700014F8016B01F8016B6D1EF9D59142D6D3CD
:10018000704700000023002400250026103A28BFF5
:1001900078C1FBD8520728BF30C148BF0B607047F9
:1001A000642901F0E987752901F0E687782902F0D2
:1001B0001F80632902F07381732902F07881002087
:1001C00070471FB51FBD10B510BD02F0A3F9114651
:1001D000FFF7F7FF00F02AF802F0C1F903B4FFF7C8
:1001E000F2FF03BC00F0D4FD30BF72B662B680F3FC
:1001F0000888704708480047FEE7FEE7FEE7FEE78D
:10020000FEE7FEE7FEE7FEE7FEE7FEE703480449F8
:10021000044A054B70470000ED00000878120020EA
:1002200078180020781400207814002086B000266A
:10023000092000F054FD482000F0F4FB4FF4E131B8
:10024000482000F0EEFD00F0F3F800F00BF900F0AC
:100250005FFA3A4841684820884739A001F030FFEA
:100260003BA001F02DFF15E03CA001F029FF4FF469
:10027000FA7000F00FFC3FA001F022FF4FF4FA707B
:1002800000F008FC3F48006808B9012000E00020A9
:100290003C49086000F01CFA4EF614718842E3D124
:1002A00039A001F00DFF3CA001F00AFF4FF400154A
:1002B00043E0002000F01AF90446042C13D100207A
:1002C0003049083108603BA001F0FAFEA5F1640155
:1002D00013223F4800F012FB3EA001F0F1FE012086
:1002E0004349C1F88801022C17D100202549083163
:1002F000086040A001F0E4FEA5F16401132201A80A
:1003000000F064FA42A001F0DBFE01A946A001F072
:10031000D7FE01203649C1F88801701C86B20A2038
:1003200000F0B8FB142E08D11648006808B9012067
:1003300000E00020134908600026BAE75C000020B6
:100340004E414E4F2053544D33320D0A00000000F1
:1003500053504920544553540D0A0000573235512B
:10036000313620436865636B204661696C656421A2
:100370000D0A0000506C6561736520436865636B0E
:10038000210D0A0080012242573235513136205268
:1003900065616479210D0A004B45595F55503A5704
:1003A0007269746520204B4559313A526561640D7C
:1003B0000A0000000D0A5374617274205772697448
:1003C00065205732355131362E2E2E2E0D0A000063
:1003D000CE2A00085732355131362057726974657C
:1003E0002046696E6973686564210D0A000000008B
:1003F000000022420D0A53746172742052656164D8
:10040000205732355131362E2E2E2E0D0A00000087
:10041000546865204461746120526561646564209C
:1004200049733A20200D0A0025730D0A00000000D0
:100430000A48806940F0100008498861084800684F
:100440000020074908600846006840F03330086023
:100450000846C06840F0FF00C860704700100240C6
:10046000001001404548806940F00400434988611C
:100470000846806940F0100088610846806940F0B5
:10048000200088613E48006820F00F003C49086069
:100490000846006840F0080008603A48406820F0CC
:1004A000FF00384948600846406840F088004860CE
:1004B0000846C06840F48070C8600846C06840F4D0
:1004C0000070C8603048006820F470602E490860F1
:1004D0000846006840F4006008602B480C30006853
:1004E00040F0040028490C310860704710B50446FC
:1004F00014B10120254908702448007848B32448E5
:10050000006850B12248001D006830B121480068E1
:1005100018B12148006801281BD10A2000F0BAFA5E
:1005200000201A4908701A48006808B9012010BD57
:100530001748001D006808B90220F8E71548006850
:1005400008B90320F3E714480068012814D10420F7
:10055000EDE70F48006801280ED10D48001D006826
:10056000012809D10B480068012805D10A48006814
:1005700010B90120054908700020D8E7001002409A
:10058000000801400010014000140140000000205C
:10059000200122420881224200012142024600211C
:1005A00007E0481C81B24FF6FE70814201DD002059
:1005B00070474348008800F002000028F1D040480E
:1005C000001D0280002107E0481C81B24FF6FE703A
:1005D000814201DD0020EBE73948008800F001008E
:1005E0000028F1D03648001D0088C0B2E0E700B511
:1005F0003448806940F00800324988610846C06983
:1006000040F48040C86130480068C0F313002E49B0
:100610000860084600682D4908432B4908602A48AD
:100620000830006840F460402749083108602448D9
:10063000083800882249083908800846008840F4B4
:10064000007008800846008840F4807008800846E2
:10065000008840F0040008800846008808800846AA
:10066000008840F0020008800846008840F0010041
:1006700008800846008840F0380008800846008856
:1006800008800846008840F040000880FF20FFF7FF
:1006900085FF00BD00F007000949083909884FF6B9
:1006A000C7721140064A083A11801146098841EA8A
:1006B000C00111801146098841F040011180704746
:1006C0000838004000100240040C01400000B0BB9C
:1006D00010B500240020CD4908609020FFF75EFF90
:1006E0000020FFF75BFF0020FFF758FF0020FFF717
:1006F00055FFFF20FFF752FF44EA0024FF20FFF7D9
:100700004DFF04430120C249C1F8B001204610BD8D
:1007100010B5C048806940F00800BE498861BE48F5
:10072000006820F47020BC4908600846006840F466
:1007300040300860B8480830006840F48050B6493E
:1007400008310860FFF753FF0120FFF7A3FFFFF711
:10075000BFFFB249088010BD10B500240020AB498E
:1007600008600520FFF71AFFFF20FFF717FF044678
:100770000120A749C1F8B001204610BD10B50446BC
:100780000020A24908600120FFF708FF2046FFF77C
:1007900005FF01209E49C1F8B00110BD10B5002031
:1007A0009A4908600620FFF7F9FE01209849C1F830
:1007B000B00110BD10B50020944908600420FFF777
:1007C000EDFE01209249C1F8B00110BD2DE9F041C4
:1007D00006460C46174600208C4908600320FFF7A8
:1007E000DDFEC4F30740FFF7D9FEC4F30720FFF78F
:1007F000D5FEE0B2FFF7D2FE002505E0FF20FFF7AF
:10080000CDFE7055681C85B2BD42F7DB01207F49E3
:100810000860BDE8F08110B500BFFFF79DFF00F054
:1008200001000028F9D110BD2DE9F04106460C4623
:100830001746FFF7B3FF0020744908600220FFF756
:10084000ADFEC4F30740FFF7A9FEC4F30720FFF78E
:10085000A5FEE0B2FFF7A2FE002504E0705DFFF701
:100860009DFE681C85B2BD42F8DB01206749086027
:10087000FFF7D1FFBDE8F0812DE9F04107460E46B4
:100880001446F0B2C0F58075AC4200DC254612E09B
:100890002A4631463846FFF7C7FFAC4200D10BE08D
:1008A0002F442E44601B84B2B4F5807F02DD4FF4E8
:1008B000807500E02546EBE700BFBDE8F08110B58C
:1008C00004462403FFF76AFFFFF7A5FF00204F4906
:1008D00008602020FFF762FEC4F30740FFF75EFECA
:1008E000C4F30720FFF75AFEE0B2FFF757FE0120DE
:1008F0004749C1F8B001FFF78EFF10BD2DE9F04761
:1009000081460F4616464FEA1738C7F30B0ACAF559
:100910008054A64200DC344644E04FEA08314FF4EC
:1009200080523F48FFF752FF002508E00AEB050020
:100930003B49085CFF2800D003E0681C85B2A54253
:10094000F4DB00BFA54216DA4046FFF7B8FF0025EA
:1009500007E019F8050005EB0A01314A5054681CFC
:1009600085B2A542F5DB4FEA08314FF480522C489E
:10097000FFF782FF04E0224639464846FFF77CFF36
:10098000A64200D10FE008F101084FF0000AA1448F
:100990002744301B86B2B6F5805F02DD4FF48054E9
:1009A00000E03446B9E700BFBDE8F08710B5FFF7B7
:1009B000F5FEFFF730FF002014490860C720FFF75D
:1009C000EDFD01201249C1F8B001FFF724FF10BD71
:1009D00010B500200D490860B920FFF7DFFD0120A8
:1009E0000B49C1F8B001032000F038F810BD10B574
:1009F000002006490860AB20FFF7D0FD0120044924
:100A0000C1F8B001032000F029F810BDB0812142E7
:100A10000080214200100240040C0140020000202E
:100A2000500100204FF0E021096921F004014FF04E
:100A3000E0221161C21700EB5272C2F3C702234BCE
:100A40001A701946097801EB4102C2EBC1114FF649
:100A5000FF7202EAC1011E4A1180704701461B4A1B
:100A600012784A434FF0E0235A6100229A61012232
:100A70001A6100BF4FF0E022106900F001021AB1C4
:100A800000F48032002AF5D000224FF0E0231A61F2
:100A90009A61704701460E4A12884A434FF0E0239C
:100AA0005A6100229A6101221A6100BF4FF0E022D0
:100AB000106900F001021AB100F48032002AF5D06A
:100AC00000224FF0E0231A619A6170470400002071
:100AD00006000020A34A0A400243A34B1A60704755
:100AE0000146072323EA010212029F4B1B1D1868CF
:100AF0004FF6FF0318409D4B184310439A4B1B1DA4
:100B0000186070472DE9F0410746884614461D4697
:100B10002846FFF7E5FFC5F1040007FA00F60F20AD
:100B2000284100EA0800064306F00F06E21704EB2E
:100B3000D2625211920002F1E022D2F80021214645
:100B4000E31704EBD3635B11A4EB431C012303FA0B
:100B50000CF31A432046E31704EBD3635B119B00AD
:100B600003F1E023C3F800218148005D40EA06104C
:100B70007F490855BDE8F08170B504460B46CE1795
:100B800001EB9676C6F38700CE1701EB9676B6108A
:100B9000A1EB8606B606350E764B9B6943F0010342
:100BA000744EB3614FEAB63353F820300F26AE408F
:100BB000B343714E46F82030334653F8203004FAE0
:100BC00005F61E436C4B43F820606C4B1B680126F6
:100BD0008E403343694E336002F0010343B1674BEB
:100BE0000C331B6801268E403343644E0C36336051
:100BF00002F0020343B1614B08331E6801238B40AE
:100C00001E435E4B08331E6070BD00B5002059497D
:100C10000861C8601420486100208861C8610846E6
:100C2000006840F0010008600846406854490840E8
:100C30005049486008460068524908404D490860DC
:100C40000846006820F4802008600846406820F4C8
:100C5000FE0048600020886000214FF00060FFF730
:100C600039FF00BD10B540480830006840F004006E
:100C70003D49083108603F48C06940F080503D4917
:100C8000C8614148406840F480703F494860084668
:100C9000006840F0040008600846006840F0020068
:100CA0000860FFF7A1FA10BD3048001D2E49091D4C
:100CB00008607047014649062E4A926942F00102D7
:100CC0002C4B9A612C4A083A526822F0E0622A4B77
:100CD000083B5A601A4652680A435A60704730B55A
:100CE00004460025FFF791FF2248006840F4803059
:100CF0002049086000BF1F480068400C0028FAD057
:100D00004FF480601B494860A01EC4B2084640688A
:100D100040EA844048600846406840F480304860BB
:100D20001A48006840F0320018490860114800680D
:100D300040F080700F49086000BF0E480068400E08
:100D40000028FAD00B48406840F00200094948608A
:100D500005E008484068C0F3870505F00305022D4B
:100D6000F7D130BD80FFFF1F08ED00E00000FA055D
:100D700000E400E0001002400800014000040140CF
:100D80000000FFF8FFFFF6FE007000400020024068
:100D900000BF704700BF584A128802F04002002A84
:100DA000F9D0C2B2544B1B1D1A80704752490988B2
:100DB00001F0200111B35049091D0988C8B24F49FB
:100DC000098801F40041C9B94C49098801F48041FE
:100DD00061B10A2803D00021484A118020E0474928
:100DE000098841F40041454A118019E00D2806D1D7
:100DF0004249098841F48041404A118010E03F494E
:100E00000988C1F30D013E4A50543C490988491CE8
:100E10003A4A118011460988C72901DD0021118055
:100E200070472DE9F05F05460E46300101F0F0FCF9
:100E30008146344905FB01F001F0EAFC824649464F
:100E400001F004FC0746384601F0C2FC84B220469B
:100E500001F0DEFC8346394601F0BAFD82464FF0D0
:100E6000834101F0E9FC814601F0B2FC80464FF677
:100E7000FF7000EA041404EB080084B22248806981
:100E800040F00400204988610846806940F48040B1
:100E900088611E48006820F47F601C49086008468D
:100EA000006840F40B6008601748C06840F4804058
:100EB0001549C8600846C06820F48040C8600E48E4
:100EC00008300480001D008842F20C0108430A49E2
:100ED0000C3108800846008840F48070088008467D
:100EE000008840F0200008800223252203210846C4
:100EF000FFF708FEBDE8F09F003801400C0000201D
:100F00005011002040420F00001002400408014030
:100F100010B58CB004461E230BAA03A9204600F08E
:100F2000CBFE0090009810B101200CB010BD9DF8D0
:100F30002C00044400200B900EE040489DF82C202B
:100F400050F8221003A800F001FE00B908E09DF857
:100F50002C00401CC0B20B909DF82C000728ECD34D
:100F600000BF9DF82C00072863D2DFE800F00405DD
:100F70003C5E6564630000BF31A001F0A1F831A0C0
:100F800001F09EF83FA001F09BF84EA001F098F808
:100F90005CA001F095F86BA001F092F879A001F047
:100FA0008FF887A001F08CF88CA001F089F894A04C
:100FB00001F086F898A001F083F89DA001F080F878
:100FC000A2A001F07DF8A8A001F07AF8B4A001F089
:100FD00077F8C1A001F074F8CCA001F071F8D8A0A6
:100FE00001F06EF8A2E216A001F06AF8E4A001F0A8
:100FF00067F800200B900EE0F14800689DF82C2067
:1010000000EBC2004168EFA001F05AF89DF82C00F7
:10101000401CC0B20B90EA48007D9DF82C1088421D
:10102000EADC07A001F04CF880E205A001F048F8E6
:10103000CCE179E24DE221E2F4E100001000002071
:101040000D0A00002D2D2D2D2D2D2D2D2D2D2D2D6D
:101050002D2D2D2D2D2D2D2D2D2D2D2D55534D413E
:1010600052542056332E322D2D2D2D2D2D2D2D2D3C
:101070002D2D2D2D2D2D2D2D2D2D2D2D2D2D2D20AD
:101080000D0A00002020202055534D415254CAC75C
:10109000D3C9414C49454E54454BBFAAB7A2B5C42C
:1010A000D2BBB8F6C1E9C7C9B5C4B4AEBFDAB5F7AB
:1010B000CAD4BBA5BDBBD7E9BCFE2CCDA8B9FD20C9
:1010C0000D0A0000CBFC2CC4E3BFC9D2D4CDA8B913
:1010D000FDB4AEBFDAD6FACAD6B5F7D3C3B3CCD017
:1010E000F2C0EFC3E6B5C4C8CEBACEBAAFCAFD2CC3
:1010F000B2A2D6B4D0D02ED2F2B4CB2CC4E3BFC9A6
:101100000D0A0000D2D4CBE6D2E2B8FCB8C4BAAF24
:10111000CAFDB5C4CAE4C8EBB2CECAFD28D6A7B38F
:10112000D6CAFDD7D62831302F3136BDF8D6C62CD9
:10113000D6A7B3D6B8BACAFD29A1A2D7D6B7FBB4F1
:10114000AE0D0A00A1A2BAAFCAFDC8EBBFDAB5D88E
:10115000D6B7B5C8D7F7CEAAB2CECAFD292CB5A549
:10116000B8F6BAAFCAFDD7EEB6E0D6A7B3D63130DF
:10117000B8F6CAE4C8EBB2CECAFD2CB2A2D6A7B369
:10118000D60D0A00BAAFCAFDB7B5BBD8D6B5CFD415
:10119000CABE2ED6A7B3D6B2CECAFDCFD4CABEBD64
:1011A000F8D6C6C9E8D6C3B9A6C4DC2CD6A7B3D630
:1011B000BDF8D6C6D7AABBBBB9A6C4DC2E0D0A00A3
:1011C000BCBCCAF5D6A7B3D63A7777772E6F7065D1
:1011D0006E6564762E636F6D0D0A000055534D41A8
:1011E0005254D3D037B8F6CFB5CDB3C3FCC1EE2837
:1011F000B1D8D0EBD0A1D0B4293A0D0A000000003C
:101200003F3A202020202020BBF1C8A1B0EFD6FA21
:10121000D0C5CFA20D0A000068656C703A2020206E
:10122000BBF1C8A1B0EFD6FAD0C5CFA20D0A00001D
:101230006C6973743A202020BFC9D3C3B5C4BAAF58
:10124000CAFDC1D0B1ED0D0A0A00000069643A2060
:1012500020202020BFC9D3C3BAAFCAFDB5C44944BA
:10126000C1D0B1ED0D0A0A006865783A202020202F
:10127000B2CECAFD3136BDF8D6C6CFD4CABE2CBA5E
:10128000F3B8FABFD5B8F12BCAFDD7D6BCB4D6B4E3
:10129000D0D0BDF8D6C6D7AABBBB0D0A0A00000045
:1012A0006465633A20202020B2CECAFD3130BDF8FB
:1012B000D6C6CFD4CABE2CBAF3B8FABFD5B8F12B74
:1012C000CAFDD7D6BCB4D6B4D0D0BDF8D6C6D7AA3E
:1012D000BBBB0D0A0A00000072756E74696D653A39
:1012E000312CBFAAC6F4BAAFCAFDD4CBD0D0BCC68D
:1012F000CAB13B302CB9D8B1D5BAAFCAFDD4CBD026
:10130000D0BCC6CAB13B0D0A0A000000C7EBB0B49E
:10131000D5D5B3CCD0F2B1E0D0B4B8F1CABDCAE4EF
:10132000C8EBBAAFCAFDC3FBBCB0B2CECAFDB2A215
:10133000D2D4BBD8B3B5BCFCBDE1CAF82E0D0A00AF
:101340002D2D2D2D2D2D2D2D2D2D2D2D2D2D2D2DCD
:101350002D2D2D2D2D2D2D2D2D2D414C49454E540E
:10136000454B2D2D2D2D2D2D2D2D2D2D2D2D2D2D77
:101370002D2D2D2D2D2D2D2D2D2D2D200D0A000047
:101380002D2D2D2D2D2D2D2D2D2D2D2D2D2D2D2D8D
:101390002D2D2D2D2D2D2D2D2DBAAFCAFDC7E5B527
:1013A000A52D2D2D2D2D2D2D2D2D2D2D2D2D2D2DF5
:1013B0002D2D2D2D2D2D2D2D2D2D2D2D200D0A00DA
:1013C0005C00002025730D0A00000000EBA000F077
:1013D00077FE00200B901AE0F84909689DF82C2050
:1013E00001EBC20101AB02AA486803A900F08AFC24
:1013F000F24800689DF82C1050F8312003A9F0A0A5
:1014000000F05EFE9DF82C00401CC0B20B90EB4833
:10141000007D9DF82C108842DEDCAFF2DC3000F05D
:101420004FFE83E0AFF2E83000F04AFE0BAA03A9BA
:10143000204600F043FD9DF82C00C8B9694603A87A
:1014400000F0B7FB0B909DF82C0020B9E1A00099AB
:1014500000F036FE0EE09DF82C00042801D002209A
:1014600063E5DFA000F02CFE0120D449C87501E03F
:1014700002205AE5D9A000F023FE57E0D7A000F0E3
:101480001FFE0BAA03A9204600F018FD9DF82C00B2
:10149000C8B9694603A800F08CFB0B909DF82C009E
:1014A00020B9D4A0009900F00BFE0EE09DF82C00AE
:1014B000042801D0022038E5D1A000F001FE002070
:1014C000BE49C87501E002202FE5C4A000F0F8FD78
:1014D0002CE0C2A000F0F4FD0BAA03A9204600F006
:1014E000EDFC9DF82C00C8B9694603A800F061FB2B
:1014F0000B909DF82C0078B9B049009881F8EC0069
:10150000084690F8EC0018B1C2A000F0D9FD07E041
:10151000C7A000F0D5FD03E0022006E5022004E5A7
:10152000AEA000F0CDFD01E00120FEE400BF0020F0
:10153000FBE4C648008820F00100C44908804FF64B
:10154000FF70C2491C3108800020C0491431088056
:101550009A49C1F8F0007047BC48008800F00100CB
:1015600040B19648D0F8F0004FF6FF710844934917
:10157000C1F8F0009148D0F8F000B449143109885E
:1015800008448E49C1F8F0000846D0F8F0007047D2
:1015900010B5AE48008800F0010058B187490869CD
:1015A00080470020A949143108804FF47A70A74978
:1015B0001C310880A548008820F00100A34908805C
:1015C00010BD70B505460C46A148C06940F0040046
:1015D0009F49C8619D481C300580001F04809B48BE
:1015E000001F008840F001009849091F08809748B3
:1015F0001038008840F00100944910390880022317
:101600001E2203210846FFF77DFA70BD10B504467F
:1016100004EBC40000EB04100122C2EB800081B295
:101620004FF47A70FFF7CDFF01206449C87510BDF3
:1016300030B595B0054613AB12AA09A9284600F0AB
:1016400061FB044614B1204615B030BD0020149053
:1016500026E05A4909689DF8502001EBC20113ABFE
:1016600011AA486801A900F04DFB04460CB12046C0
:10167000EAE709A901A800F069FA60B99DF84400F9
:101680009DF84810884201DD0220DDE79DF85000FA
:101690004A4988750AE09DF85000401CC0B2149079
:1016A0004648007D9DF850108842D2DC00BF434878
:1016B000007D9DF85010884201D10420C4E714A990
:1016C000284600F072FC04460CB12046BCE79DF8A9
:1016D00050003A4948750020B6E72DE9F0419AB02C
:1016E0003648847D007DA04202DC1AB0BDE8F0815E
:1016F0003249096801EBC40106AB07AA486808A98A
:1017000000F000FB08A953A000F0DAFC0026BBE0C3
:101710002A48008B0121B1400840D8B122214FA0B6
:1017200000F0CEFC304600F033FC24492431471849
:1017300039464BA000F0C4FC222148A000F0C0FCB8
:10174000304600F025FC1D492431084410A941F819
:1017500026008FE0304600F01BFC18492431085861
:1017600010A941F826001548C07D30B910A850F8DE
:1017700026103CA000F0A4FC7CE075E02D2D2D2D62
:101780002D2D2D2D2D2D2D2D2D2D2D2D2D2D2D2D89
:101790002D2D2D2D2DBAAFCAFD204944202D2D2DE4
:1017A0002D2D2D2D2D2D2D2D2D2D2D2D2D2D2D2D69
:1017B0002D2D2D2D2D2D2D2D200D0A005C0000200E
:1017C00025732069642069733A0D0A305825303832
:1017D000580D0A004845583A305825580D0A00005F
:1017E0003136BDF8D6C6B2CECAFDCFD4CABE210DA1
:1017F0000A0000004445433A256C750D0A000000BC
:101800003130BDF8D6C6B2CECAFDCFD4CABE210D86
:101810000A00000052756E2054696D652043616CAA
:1018200063756C6174696F6E204F4E0D0A00000085
:1018300052756E2054696D652043616C63756C61EF
:1018400074696F6E204F46460D0A00001008004074
:10185000001002400D0A25732800000025630000D7
:1018600025730000256C640010A850F8261095A080
:1018700000F026FC9DF81C00401EB04202D093A050
:1018800000F01EFC701CC6B29DF81C008642FFF6DC
:101890003FAF8FA000F014FCFFF74BFE8D48407D5A
:1018A0000B280DD2DFE800F0060D151E27323F4E43
:1018B0005F7287008749096851F834008047054600
:1018C00090E0844A126852F8341010988847054610
:1018D00088E0804B1B6853F83420DDE91001904705
:1018E00005467FE07B4F3F6857F8343010A807C8A3
:1018F0009847054676E0DFF8DCC1DCF800C05CF80C
:10190000347010A80FC8B84705466BE01498DFF88C
:10191000C4C10090DCF800C05CF8347010A80FC897
:10192000B84705465EE0DDE91401DFF8A8C1CDE95E
:101930000001DCF800C05CF8347010A80FC8B8478C
:1019400005464FE0DDE914121698DFF888C1CDE9AD
:1019500000120290DCF800C05CF8347010A80FC8C8
:10196000B84705463EE0DDE91423DDE91610DFF84F
:1019700064C1CDE90023CDE90210DCF800C05CF8B9
:10198000347010A80FC8B84705462BE0DDE91523D1
:10199000DDE91710CDE90123CDE903101498DFF834
:1019A00034C10090DCF800C05CF8347010A80FC897
:1019B000B847054616E0DDE91623DDE91810CDE944
:1019C0000223CDE90410DDE91401DFF808C1CDE9F7
:1019D0000001DCF800C05CF8347010A80FC8B847EC
:1019E000054600BF00BFFFF7B7FD9DF818000128AE
:1019F0000CD13848C07D20B9294637A000F060FBE3
:101A000007E0294636A000F05BFB02E033A000F0BF
:101A100057FB304890F8EC0088B12E48D0F8F00021
:101A20000A21B0FBF1F201FB12072A48D0F8F000BE
:101A3000B0FBF1F83A4641462CA000F041FB00BF54
:101A400053E670B53148008800F40040002833D0D8
:101A50002E48057800202E4948551E4881682C489C
:101A6000884704461CB91B49C868804721E02848BC
:101A7000FFF74EFA0546012D00D02C46CCB1012CC3
:101A800006D0022C08D0032C0AD0042C10D10BE075
:101A900020A000F015FB0BE021A000F011FB07E0F7
:101AA00022A000F00DFB03E023A000F009FB00BF23
:101AB00000BF00201549088070BD014608687047C6
:101AC0000160704730582558000000002C000000CD
:101AD000290000005C0000203D256C753B0D0A00CC
:101AE0003D305825583B0D0A0000000046756E63D6
:101AF00074696F6E2052756E2054696D653A256465
:101B00002E2531646D730D0A000000000C000020CA
:101B100050110020BAAFCAFDB4EDCEF3210D0A007A
:101B2000B2CECAFDB4EDCEF3210D0A00B2CECAFD8D
:101B3000CCABB6E0210D0A00CEB4D5D2B5BDC6A55A
:101B4000C5E4B5C4BAAFCAFD210D0A0002460AE0D9
:101B500010780B78984201D001207047107800B9B6
:101B600002E0521C491CF3E700BF0020F5E706E045
:101B700002780A70027802B902E0401C491CF7E7BB
:101B800000BF70470146002005E00A7802B903E073
:101B9000421CD0B2491CF8E700BF704710B502469E
:101BA000012000E050430B1EA1F10104E1B2F9D184
:101BB00010BD2DE9F04F05460F4600264FF00A09EB
:101BC000B3462C460020386034E02078392802DC07
:101BD0002078302811DA28782D2802D028782B2870
:101BE00000D156B12078462802DC2078412804DA5A
:101BF0002078582817D1012E15D12078412801DBF3
:101C00004FF0100928782D2803D14FF0020B6D1CDE
:101C10000FE028782B2803D14FF0010B6D1C08E052
:101C2000701CC6B205E0207800B904E00120BDE8D0
:101C3000F08F641CC9E700BF2C46B9F1100F0FD11B
:101C4000032E01DA0220F2E72078302806D16078EE
:101C5000582803D1A41CB01EC6B204E00320E6E756
:101C60000EB90420E3E71BE00EB1701EC6B2207867
:101C7000392806DC2078302803DB2078A0F1300AF0
:101C800002E02078A0F1370A31464846FFF786FF88
:101C900039680AFB00103860641C207800B900E045
:101CA000E2E700BFBBF1020F04D13868C0F10008C1
:101CB000C7F800800020BAE710B504460020107075
:101CC0000BE020780870641C491C1078401C1070D0
:101CD0001078984201DB012010BD2078202802D026
:101CE00020780028EDD10020087000BFF4E70146FD
:101CF000491C00E0491C0878202801D10029F9D1AD
:101D0000087870472DE9FF4F85B080468946002747
:101D1000002004900390012002904FF0000B00255A
:101D200044461DE02078202816D005F07F000528C5
:101D300012DA0DB945F0800505F07F00042803D1C3
:101D400020782A2800D00EE0207805F07F010DF8D9
:101D50000100681CC5B202E0852D00D103E0641CBF
:101D600020780028DED100BF8DB1002005F07F0172
:101D70000DF80100CEA16846FFF7E8FE18B9002172
:101D80000898017002E001210898017000254FF0C9
:101D9000000A444614E0641C0AF1010000F0FF0A46
:101DA0002078202802D020782A2809D12046FFF761
:101DB0009EFF0646282E03D02A2E01D0CDF810A073
:101DC0002078282802D020780028E4D144460498BE
:101DD00010B10498401C04444FF0000A002654E05F
:101DE000207810B94FF0010A50E02078282803D15C
:101DF00016B9781CC7B213E02078292808D13EB95B
:101E000017B1781EC7B201E04FF0010A47B93DE0B3
:101E10002078222804D10EB9012000E000200646D7
:101E200047B9207820282FD0207889F8000009F1C0
:101E3000010929E020782C2804D101200290681C97
:101E4000C5B214E02078202811D0207828280ED0A0
:101E50004DB9BBF1050F06DA20780DF80B000BF138
:101E6000010000F0FF0B0298401CC0B20290012F4D
:101E70000AD10298022807D10298401CC0B20290F1
:101E80000398401CC0B20390641CA9E700BF0398EC
:101E9000012809D100200DF80B0085A16846FFF745
:101EA00055FE08B900200390079903980870002098
:101EB00089F80000504609B0BDE8F08FF0B5034640
:101EC000154600200022002600245BE01F782C2FFE
:101ED00001D104B901221F78292F01D01F780FB931
:101EE00004B950E0002E3AD11F78302F02DB1F7862
:101EF000392F17DD1F782D2F14D01F782B2F11D0DD
:101F00001F78612F02DB1F78662F0BDD1F78412FB2
:101F100002DB1F78462F05DD1F78582F02D01F786F
:101F2000782F0CD102B12EE01F78612F03DB1F78D0
:101F3000203F0F7001E01F780F70491C1FE01F78D1
:101F4000222F04D102B11EE00126012417E01F78E0
:101F5000202F14D01F782C2F11D0FF2613E01F78CC
:101F6000222F00D1002402B10DE044B11F785C2F74
:101F700002D15B1C471CF8B21F780F70491C471C2C
:101F8000F8B25B1CA2E700BF00270F702E70F0BDF7
:101F900002460020002105E0474B5B5C0344D8B2B9
:101FA0004B1CD9B29142F7DB70472DE9F043B5B035
:101FB00005460F460024002604E000213E488155D6
:101FC000701CC6B20A2EF8DB06E06D1C287818B922
:101FD000012035B0BDE8F08328782828F5D16D1CA4
:101FE00061E034AA69462846FFF768FF0646354493
:101FF0009DF8D00020B1012827D0FF284CD149E01E
:102000009DF8000000B333A96846FFF7D2FD0646ED
:102010000EB10220DDE72046FFF7BAFF26490A315C
:10202000339A0A50A1F12400008B0121A14088437A
:1020300021491A39088304211F480155601CC4B284
:102040000A2C01DD0320C4E726E06846FFF79AFD6D
:10205000401C00F0FF082046FFF79AFF16490A319E
:1020600000EB010949466846FFF781FD12481A381E
:10207000018B0120A040014388B20F491A3908831F
:102080000D4800F80480601CC4B20A2C01DD032056
:102090009FE701E002209CE700BF2878292801D0B3
:1020A000287800B900E09CE700BF3C70002090E772
:1020B000766F696400000000760000207047000021
:1020C0000FB4044910B503AA029800F0F5F910BC4A
:1020D0005DF814FB0800002070B5044685690068AF
:1020E000C10601D5302600E02026C00707D070BD0C
:1020F000D4E9012130469047206A401C20626D1EC1
:10210000F6D570BD70B5044685690078C00707D163
:1021100070BDD4E9012120209047206A401C206234
:102120006D1EF6D570BD70B50C460546012A05D06A
:102130002878800600D5EA69002302E0012305E043
:102140005B1C934202D2E05C0028F9D1A869E61832
:10215000C01AA861286A184428622846FFF7BCFF05
:1021600004E0D5E9012114F8010B9047B442F8D3FB
:102170002846FFF7C7FF70BD2DE9F0410646002451
:1021800010687529314616A510D0AFF300800028DD
:1021900002DA404213A507E031688A0701D512A58B
:1021A00002E0490704D511A5012401E0AFF3008046
:1021B00000210A2206F1240709E0B0FBF2FCB0FB83
:1021C000F2F302FB1C00303078541846491C0028FA
:1021D000F3D123462A463046BDE8F04100F0FCB872
:1021E000000000002D0000002B0000002000000077
:1021F00070B504460D4621461068AFF30080218873
:10220000090502D50F4A7A4402E00E4A7A440E329A
:10221000002104F1240305E000F00F060009965D9B
:102220005E54491C0028F7D120780023000704D50C
:10223000702D02D009B1022311322046BDE8704052
:1022400000F0CAB8D70800002DE9F05F89460446BF
:102250004FF0000ADFF874B1FB44C0F820A020461C
:10226000E1688847002874D0252806D0D4E90121E8
:102270009047206A401C2062F1E700265F46204616
:10228000E16888472028054607DB312D05D27819FB
:1022900010F8200C08B10643F1E7B00701D526F08D
:1022A0000406C4F81CA00027C4F818A02A2D09D0E1
:1022B000284600F061F938B304EB8708303DC8F8D0
:1022C000185019E059F8041B204604EB870291616D
:1022D000E1688847012F054618D1E069002820DA17
:1022E00026F020061DE0D8F8180000EB800005EB72
:1022F00040003038C8F818002046E1688847054695
:1023000000F03AF90028EED1012F0AD02E2D08D185
:102310002046E16888477F1C0546022F46F02006CC
:10232000C4DBA069002803DA404246F00106A06140
:10233000F00701D026F010066C2D0BD0682D09D0C7
:102340004C2D39D06A2D35D0742D35D07A2D33D01F
:1023500016E038E0E1682F4620468847B842054637
:1023600009D16C2F26D04FF48060E16806432046E7
:102370008847054604E06C2F1AD04FF4807006435E
:102380000DB3A5F14100192802D8203546F40066A6
:102390004A462946204626604E46FDF701FF80B199
:1023A00001280BD0F61D26F0070000F1080956E7BA
:1023B0004020E4E78020D8E70020D6E706F10409B2
:1023C0004DE7284652E7206ABDE8F09FAD080000BF
:1023D00070477047704770472DE9F0470D469946A2
:1023E0009246044600F124080168880604D5E06995
:1023F00021F01001216000E00120A84201DD471B0F
:1024000000E00027A1697A1902EB0900081AA0610F
:102410002078C00602D42046FFF75EFE002608E0C2
:10242000D4E901211AF806009047206A401C761C66
:1024300020624E45F4DB2078C0060AD52046FFF71F
:102440004BFE06E0D4E9012130209047206A401C71
:102450002062381EA7F10107F4DC07E0D4E901216E
:1024600018F805009047206A401C2062281EA5F13C
:102470000105F3DC2046FFF745FE2078000602D573
:102480000220BDE8F0870120FBE710B5436913B1D6
:10249000AFF3008001E0FFF746FE012010BD127887
:1024A00000F124010A7000224A700122EDE7116850
:1024B0004FF0FF32E9E70000074B70B50D467B4453
:1024C00000F011F80446284600F020F810B14FF053
:1024D000FF3070BD204670BDD3E8FFFF01694A1C84
:1024E00002610878704700B58FB0CDE90131002155
:1024F000059105497944CDE9031011466846FFF777
:10250000A3FE0FB000BD0000E5FFFFFF007B00F061
:1025100080007047754600F02BF8AE46050069460E
:10252000534620F00700854618B020B5FDF76EFE33
:10253000BDE820404FF000064FF000074FF00008C4
:102540004FF0000B21F00701AC46ACE8C009ACE845
:10255000C009ACE8C009ACE8C0098D46704710B5A9
:102560000446AFF300802046BDE81040FDF736BEBC
:10257000004870471812002030380A2801D2012084
:10258000704700207047000090EA010F48BF81F0BB
:10259000004100F12E82421A3CBF801A89184FEA8E
:1025A000D0524FF07F4C1CEA410FA2EBD15318BF21
:1025B0009CEA026F00F03B804FF0004C4CEA002098
:1025C0004CEA012121FA03FC10EB0C0C1ED202F1A3
:1025D000FF325FEA1C2040EBC25038BF70471CF04E
:1025E0007F0F4FEA400C18BFBCF17F4F38BF7047D8
:1025F000C3F12003994008BF20F00100BCF17F4FD8
:1026000038BF7047A0F1C04000F0DDB94FEA3C0090
:10261000000A40EBC25028BF1CF0FF0F4FEA400CED
:10262000E6D018BFBCF17F4F38BF7047EAE79CEA9D
:10263000026F05D010EA5C0F08BF00F00040704741
:1026400010B500F07AF900BF64FBBE3E4FF47F0C7A
:102650001CEAD0121EBF1CEAD11392EA0C0F93EAB7
:102660000C0F00F0858090EA010F48BF42F48072A1
:1026700040F4000C41F400002CF07F4120F07F403A
:1026800000B58142A2EB03020FF2081CACEB504EE6
:10269000C0F100009EF800E04FEA4E0E00FB0EFC79
:1026A00038BF49004FEA2C1C02F5FA020CFB0EF36E
:1026B0004FEACE1E4FEA112C4FEAC1210EEB635EAA
:1026C00042EB22420EFB0CFC4FEA1C5300FB0311B1
:1026D0004FEA112C4FEA01310EFB0CFC4FEADC4CA7
:1026E00000FB0C11C14228BF09184CEB03335DF805
:1026F00004EB10EB410143EBC250B2F57C0F38BF45
:10270000704729D512F0F00F1CBF00F1C04000F057
:1027100000407047008182838485868788898B8CFE
:102720008D8E8F919293959697999A9C9D9FA0A23A
:10273000A3A5A7A8AAACAEB0B2B3B5B7B9BCBEC08A
:10274000C2C5C7C9CCCED1D4D7D9DCDFE2E6E9EC2B
:10275000F0F3F7FAFE0000004FEA400C0CF1807C29
:10276000BCF17E4F28BF7047B0F1C04000F02BB9DC
:1027700090EA010F0CEAD11348BF42F4807262451F
:1027800038BF634507D213F47F0F16D080EA0100EB
:1027900000F00040704710B500F0CFF8097EFC3E15
:1027A00000F005B880EA010000F00040704780EAC0
:1027B000010000F0004000F006B912F47F0F04BFE2
:1027C0000248704780EA010000F0FDB80000C07FB9
:1027D000C10DD1F19E0206DB4FEA002343F0004316
:1027E00023FA02F07047004207D54FEA4001B1F1E9
:1027F000FE4F02D24FF00000704710B500F09DF878
:1028000049922480002070476FEA20007047000042
:10281000B0FA80F310FA03F2C3F19D030AD0D90590
:1028200001EB1220530638BF704700F1010008BFCA
:1028300020F00100704700004FF47F0C1CEAD0121A
:102840001EBF1CEAD11392EA0C0F93EA0C0F00F0A2
:10285000478090EA010F48BF42F480724FF0004C6D
:102860004CEA00204CEA012102EB0302A0FB011319
:10287000A2F50002002918BF43F001035B0028BF46
:102880004FEA330342EB22425FEA132C4CEBC25077
:102890002EBFBCEB436FB2F57C0F70474FEA036C61
:1028A000BCF1004F08BF20F00100B2F57C0F38BF2B
:1028B00070470BD582F0FF0212F5803FC8BF70470A
:1028C00000F1C040D8BF00F00040704700F5000C98
:1028D0005FEA4C0C48BF7047B0F1C04000F073B8DD
:1028E00090EA010F0CEAD11348BF42F480726245AE
:1028F00038BF634504D280EA010000F00040704711
:1029000010B500F01AF800BF8900013E00F007B8CA
:1029100000F009B85FEA410C5FEA1C6C08D080EA5D
:10292000010000F050B85FEA400C5FEA1C6CF6D181
:102930004FF00040A0F5800070470EF1020E2EF01F
:10294000030E5EF8044B244204D44FEA4102B2F174
:102950007F4F11D84FEA4003B3F17F4F0CD80ED10F
:102960004FEAD07CB2F17F4F0CEB4C0C0CF1020C17
:1029700008BF4CEBD17C04E04FF0080C01E04FEABB
:10298000D17C0CEB4C0324FA03F404F00704B4F1FB
:10299000040C06D20EEB840CBDE810404CF0010C88
:1029A0006047DFE80CF0070802024FF00040A0F596
:1029B000800010BD0846420018BFD2F1807288BF67
:1029C00000F0004010BDFF2141EAD050C005704723
:1029D00080F0004090EA010F7FF5DDAD81F000410D
:1029E00000F007B890EA010F48BF81F000413FF5C1
:1029F000D2AD421A04D882F00042A0EB020011448A
:102A00004FEAD0524FF07F4C1CEA410FA2EBD1535A
:102A100018BF9CEA026F4AD04FF0004C4CEA0020ED
:102A20004CEA012121FA03FCB0EB0C0C0FD412F09C
:102A3000FE0F36D05FEA4C001DD5001240EBC250AD
:102A400038BF70471CF03F0F18BF70470BE0A2F172
:102A500001025FEA1C2040EBC25038BF70471CF0F7
:102A60007F0F18BF7047C3F12003994014BF401E69
:102A700020F00100704780084FEA122308BF70471A
:102A8000B0FA80FCA2EB0C02CCF1280C60FA0CF03E
:102A900093EA122F04BF00EBC25070474FEAC37095
:102AA0007047130A5FEADC1008BF7047F6E79CEA3C
:102AB000026F04D010EA5C0F08BF0020704710B509
:102AC000FFF73BFF40DFF63E81F0004070474E418C
:102AD0004E4F53544D333220535049205445535494
:102AE000003031323334353637383941424344458A
:102AF000464030580030313233343536373839615A
:102B000062636465664030780004000008000000DD
:102B10000000000002000100001000003F00000063
:102B2000646563006964000072756E74696D6500A8
:102B300068656C70000000006C6973740000000030
:102B40006865780075313620205732355158585F06
:102B500052656164494428766F6964290000000069
:102B6000766F6964205732355158585F45726173EA
:102B7000655F4368697028766F696429000000000A
:102B8000766F69642077726974655F616464722826
:102B900075333220616464722C7533322076616C37
:102BA0002900000075333220726561645F616464DE
:102BB000722875333220616464722900766F69640B
:102BC0002064656C61795F6D7328753136206E6D98
:102BD00073290000766F69642064656C61795F75A4
:102BE0007328753332206E75732900000C2C000891
:102BF000000000205001000028010008642C00089B
:102C00005001002028170000840100081201C3149D
:102C1000EF131C2B1B0830041A38041A24041A4022
:102C2000041A20041A280413BB1A1B08A4081AC18A
:102C3000081A800813950A1B08BC081A5D081AD4E4
:102C40000813D1061B08440813AD091B08600822AD
:102C50002C14200D161B0831041ADB041A433822E9
:042C60000602DC018B
:04000005080000ED02
:00000001FF
