:020000040800F2
:100000005007002095010008990100089B01000895
:100010009D0100089F010008A101000800000000E8
:10002000000000000000000000000000A301000824
:10003000A501000800000000A7010008A9010008B0
:10004000AB010008AB010008AB010008AB010008E0
:10005000AB010008AB010008AB010008AB010008D0
:10006000AB010008AB010008AB010008AB010008C0
:10007000AB010008AB010008AB010008AB010008B0
:10008000AB010008AB010008AB010008AB010008A0
:10009000AB010008AB010008AB010008AB01000890
:1000A000AB010008AB010008AB010008AB01000880
:1000B000AB01000837020008AB010008AB010008E3
:1000C000AB010008AB010008AB010008AB01000860
:1000D000AB010008650A0008AB010008AB0100088D
:1000E000AB010008AB010008AB01000800F002F80A
:1000F00000F03AF80AA090E8000C82448344AAF188
:100100000107DA4501D100F02FF8AFF2090EBAE885
:100110000F0013F0010F18BFFB1A43F0010318473B
:10012000FC1000001C110000103A24BF78C878C1F0
:10013000FAD8520724BF30C830C144BF04680C60ED
:10014000704700000023002400250026103A28BF35
:1001500078C1FBD8520728BF30C148BF0B60704739
:100160001FB51FBD10B510BD00F06EFD1146FFF7A5
:10017000F7FF00F02BF800F0A0FD03B4FFF7F2FF4B
:1001800003BC00F061FC000030BF72B662B680F3C1
:100190000888704708480047FEE7FEE7FEE7FEE7ED
:1001A000FEE7FEE7FEE7FEE7FEE7FEE70348044959
:1001B000044A054B70470000ED0000085001002084
:1001C000500700205003002050030020092000F0B9
:1001D000E2FB482000F082FA4FF4E131482000F0C1
:1001E0007CFC00F0B1F900F0C9F956A000F0EEFC7B
:1001F00058A000F0EBFC0DE05AA000F0E7FCC8208E
:1002000000F0A4FA5B48006808B9012000E0002073
:100210005849086000F071F90028EDD101205549D6
:10022000086055A000F0D2FC41F61F41132000F0F9
:100230002DFA00BFFEE710B55248008800F001001B
:10024000002877D050480088401C4F490880084655
:100250000088B0F5FA7F05D1002008804B494C4852
:1002600000F01FF94B480078022806D003280ED072
:10027000062818D007282CD11FE0454800780A210D
:1002800090FBF1F04449085C4449087021E0404883
:1002900000780A2190FBF1F201FB12003E49085C54
:1002A0003E49087015E0394800780A2190FBF1F0CA
:1002B0003949085C394908700BE0344800780A2154
:1002C00090FBF1F201FB12003349085C33490870DE
:1002D00000BF00BF2F4801783048007800F095F942
:1002E00000F0B1F92B480078401C2A4908700846F4
:1002F0000078042801D106200870264800780828D4
:1003000002D102202349087025480088401C244956
:10031000088008460088FA280CD10020088015487B
:100320000C38006810B9012001E003E000201149F9
:100330000C3908601348008820F00100114908803A
:1003400010BD00004E414E4F2053544D33320D0A24
:1003500000000000444854313120544553540D0AE4
:10036000000000004448543131204572726F720D14
:100370000A0000008C0122424448543131204F4B86
:100380000D0A000010040040160000201900002093
:1003900018000020120000200000002013000020A0
:1003A0001400002010B56448006820F0F000624995
:1003B00008600846006840F03000086000205F498F
:1003C0000860142000F0C2F901205D49C1F8A401C1
:1003D0001E2000F09FF910BD10B50024564800689B
:1003E00020F0F000544908600846006840F08000A2
:1003F000086004E0601CC4B2012000F08BF94F4893
:100400008038006808B1642CF4DB642C01DB012027
:1004100010BD002404E0601CC4B2012000F07AF991
:1004200046488038006808B9642CF4DB642C01DB92
:100430000120EDE70020EBE710B5002404E0601C8C
:10044000C4B2012000F066F93C488038006808B169
:10045000642CF4DB002404E0601CC4B2012000F032
:1004600059F936488038006808B9642CF4DB282034
:1004700000F050F931488038006808B1012010BD03
:100480000020FCE770B50024002506E06006040E9D
:10049000FFF7D2FF0443681CC5B2082DF6DB2046E7
:1004A00070BD7CB505460E46FFF77CFFFFF794FF55
:1004B000F8B9002405E0FFF7E5FF0DF80400601C23
:1004C000C4B2052CF7DB9DF800009DF8011008442C
:1004D0009DF8021008449DF8031008449DF804108C
:1004E000884208D19DF8000030709DF80200287005
:1004F00001E001207CBD0020FCE710B511488069B7
:1005000040F008000F4988610B48006820F0F000B7
:10051000094908600846006840F030000860064855
:100520000830006840F40070034908310860FFF7A4
:1005300039FFFFF751FF10BD040C0140A481214297
:1005400000802142001002400A48806940F01000FB
:100550000849886108480068002007490860084683
:10056000006840F0333008600846C06840F0FF0083
:10057000C8607047001002400010014010B53848B4
:10058000806940F00800364988610846806940F07B
:10059000100088610846806940F0010088610120F0
:1005A00000F0E4F92F4800682F4908402D49086001
:1005B000084600682D4908432A4908602C484068CD
:1005C0002C4908402A494860084640682A4908439F
:1005D0002749486028202349143108601020091F4A
:1005E00008604FF4E0502249086110BD00F001019D
:1005F000224A1160C0F34001214AC2F8AC11C0F395
:1006000080011E4A08321160704770B506460D46DB
:10061000002412E046FA04F000F0010019490860D5
:1006200000201949C1F89401052000F073F8012059
:10063000144908310860601CC4B2082CEADB284663
:10064000FFF7D4FF70BD10B501200E49091D0860E9
:10065000052000F05FF800200B49C1F8900110BDA3
:1006600000100240000C0140FF0F00FF003033007B
:1006700000100140FF00F0FF00330300A8012242F8
:10068000000022428C8121420080214270B5054643
:100690000C461048C06940F002000E49C8610E487F
:1006A0000580001F04800C482038008840F00100BD
:1006B00009492039088008482C38008840F001009A
:1006C00005492C39088002231D220321002000F057
:1006D00075F870BD001002402C0400404FF0E0217E
:1006E000096921F004014FF0E0221161C21700EB0B
:1006F0005272C2F3C702234B1A701946097801EBF4
:100700004102C2EBC1114FF6FF7202EAC1011E4A5B
:100710001180704701461B4A12784A434FF0E0238C
:100720005A6100229A6101221A6100BF4FF0E02253
:10073000106900F001021AB100F48032002AF5D0ED
:1007400000224FF0E0231A619A61704701460E4A79
:1007500012884A434FF0E0235A6100229A61012235
:100760001A6100BF4FF0E022106900F001021AB1D7
:1007700000F48032002AF5D000224FF0E0231A6105
:100780009A6170471A0000201C000020A34A0A400A
:100790000243A34B1A6070470146072323EA010274
:1007A00012029F4B1B1D18684FF6FF0318409D4B0C
:1007B000184310439A4B1B1D186070472DE9F041F8
:1007C0000746884614461D462846FFF7E5FFC5F153
:1007D000040007FA00F60F20284100EA080006434B
:1007E00006F00F06E21704EBD2625211920002F1FA
:1007F000E022D2F800212146E31704EBD3635B111A
:10080000A4EB431C012303FA0CF31A432046E3171D
:1008100004EBD3635B119B0003F1E023C3F80021D9
:100820008148005D40EA06107F490855BDE8F08127
:1008300070B504460B46CE1701EB9676C6F38700DB
:10084000CE1701EB9676B610A1EB8606B606350EEE
:10085000764B9B6943F00103744EB3614FEAB633A4
:1008600053F820300F26AE40B343714E46F8203087
:10087000334653F8203004FA05F61E436C4B43F818
:1008800020606C4B1B6801268E403343694E3360F9
:1008900002F0010343B1674B0C331B6801268E4005
:1008A0003343644E0C36336002F0020343B1614BB4
:1008B00008331E6801238B401E435E4B08331E60C5
:1008C00070BD00B5002059490861C8601420486116
:1008D00000208861C8610846006840F00100086097
:1008E0000846406854490840504948600846006836
:1008F000524908404D4908600846006820F48020AD
:1009000008600846406820F4FE00486000208860C7
:1009100000214FF00060FFF739FF00BD10B54048DF
:100920000830006840F004003D49083108603F4845
:10093000C06940F080503D49C8614148406840F47A
:1009400080703F4948600846006840F00400086035
:100950000846006840F002000860FFF715FC10BD73
:100960003048001D2E49091D0860704701464906A0
:100970002E4A926942F001022C4B9A612C4A083AA5
:10098000526822F0E0622A4B083B5A601A465268CD
:100990000A435A60704730B504460025FFF791FFBF
:1009A0002248006840F480302049086000BF1F489A
:1009B0000068400C0028FAD04FF480601B49486062
:1009C000A01EC4B20846406840EA84404860084619
:1009D000406840F4803048601A48006840F03200B7
:1009E000184908601148006840F080700F4908609D
:1009F00000BF0E480068400E0028FAD00B4840683F
:100A000040F002000949486005E008484068C0F32A
:100A1000870505F00305022DF7D130BD80FFFF1FCC
:100A200008ED00E00000FA0500E400E000100240DC
:100A300008000140000401400000FFF8FFFFF6FE3F
:100A4000007000400020024000BF704700BF584ABD
:100A5000128802F04002002AF9D0C2B2544B1B1D8A
:100A60001A8070475249098801F0200111B350499A
:100A7000091D0988C8B24F49098801F40041C9B964
:100A80004C49098801F4804161B10A2803D0002152
:100A9000484A118020E04749098841F40041454A0D
:100AA000118019E00D2806D14249098841F480419E
:100AB000404A118010E03F490988C1F30D013E4AC8
:100AC00050543C490988491C3A4A1180114609880A
:100AD000C72901DD0021118070472DE9F05F05462F
:100AE0000E46300100F03AFA8146344905FB01F028
:100AF00000F034FA8246494600F04EF9074638467F
:100B000000F00CFA84B2204600F028FA83463946F9
:100B100000F004FB82464FF0834100F033FA814637
:100B200000F0FCF980464FF6FF7000EA041404EB75
:100B3000080084B22248806940F00400204988619E
:100B40000846806940F4804088611E48006820F4AF
:100B50007F601C4908600846006840F40B6008602C
:100B60001748C06840F480401549C8600846C0680E
:100B700020F48040C8600E4808300480001D0088C2
:100B800042F20C0108430A490C31088008460088EB
:100B900040F4807008800846008840F020000880FB
:100BA0000223252203210846FFF708FEBDE8F09F37
:100BB00000380140240000202800002040420F009F
:100BC0000010024004080140704700000FB40449BF
:100BD00010B503AA029800F009F810BC5DF814FBE8
:100BE000200000207047704770477047074B70B572
:100BF0000D467B4400F011F80446284600F020F82A
:100C000010B14FF0FF3070BD204670BD57FEFFFFA2
:100C100001694A1C02610878704700B58FB0CDE9C0
:100C200001310021059105497944CDE903101146B0
:100C3000684600F02EF80FB000BD0000E5FFFFFF92
:100C4000007B00F080007047754600F03FF8AE462C
:100C500005006946534620F00700854618B020B5C8
:100C6000FFF7A4FABDE820404FF000064FF0000760
:100C70004FF000084FF0000B21F00701AC46ACE844
:100C8000C009ACE8C009ACE8C009ACE8C0098D46B1
:100C900070472DE9F04106460024D6E90170F56859
:100CA0008046304603E04146B847641C3046A847BA
:100CB0000028F8D12046BDE8F08110B50446AFF316
:100CC00000802046BDE81040FFF757BA0048704743
:100CD000F000002090EA010F48BF81F0004100F1D0
:100CE0002E82421A3CBF801A89184FEAD0524FF028
:100CF0007F4C1CEA410FA2EBD15318BF9CEA026F54
:100D000000F03B804FF0004C4CEA00204CEA0121FF
:100D100021FA03FC10EB0C0C1ED202F1FF325FEA49
:100D20001C2040EBC25038BF70471CF07F0F4FEAC9
:100D3000400C18BFBCF17F4F38BF7047C3F1200390
:100D4000994008BF20F00100BCF17F4F38BF7047C9
:100D5000A0F1C04000F0DDB94FEA3C00000A40EBD2
:100D6000C25028BF1CF0FF0F4FEA400CE6D018BF5E
:100D7000BCF17F4F38BF7047EAE79CEA026F05D0AD
:100D800010EA5C0F08BF00F00040704710B500F09B
:100D90007AF900BF64FBBE3E4FF47F0C1CEAD01210
:100DA0001EBF1CEAD11392EA0C0F93EA0C0F00F05D
:100DB000858090EA010F48BF42F4807240F4000C35
:100DC00041F400002CF07F4120F07F4000B58142CB
:100DD000A2EB03020FF2081CACEB504EC0F1000076
:100DE0009EF800E04FEA4E0E00FB0EFC38BF4900B3
:100DF0004FEA2C1C02F5FA020CFB0EF34FEACE1E52
:100E00004FEA112C4FEAC1210EEB635E42EB224206
:100E10000EFB0CFC4FEA1C5300FB03114FEA112C94
:100E20004FEA01310EFB0CFC4FEADC4C00FB0C11CD
:100E3000C14228BF09184CEB03335DF804EB10EBFB
:100E4000410143EBC250B2F57C0F38BF704729D542
:100E500012F0F00F1CBF00F1C04000F000407047DE
:100E6000008182838485868788898B8C8D8E8F9183
:100E70009293959697999A9C9D9FA0A2A3A5A7A8A7
:100E8000AAACAEB0B2B3B5B7B9BCBEC0C2C5C7C9D3
:100E9000CCCED1D4D7D9DCDFE2E6E9ECF0F3F7FA37
:100EA000FE0000004FEA400C0CF1807CBCF17E4F4C
:100EB00028BF7047B0F1C04000F02BB990EA010F95
:100EC0000CEAD11348BF42F48072624538BF6345D3
:100ED00007D213F47F0F16D080EA010000F0004023
:100EE000704710B500F0CFF8097EFC3E00F005B861
:100EF00080EA010000F00040704780EA010000F045
:100F0000004000F006B912F47F0F04BF024870479A
:100F100080EA010000F0FDB80000C07FC10DD1F1F2
:100F20009E0206DB4FEA002343F0004323FA02F05F
:100F30007047004207D54FEA4001B1F1FE4F02D29F
:100F40004FF00000704710B500F09DF849922480E2
:100F5000002070476FEA200070470000B0FA80F36D
:100F600010FA03F2C3F19D030AD0D90501EB122058
:100F7000530638BF704700F1010008BF20F00100A0
:100F8000704700004FF47F0C1CEAD0121EBF1CEA11
:100F9000D11392EA0C0F93EA0C0F00F0478090EA0D
:100FA000010F48BF42F480724FF0004C4CEA002021
:100FB0004CEA012102EB0302A0FB0113A2F500029F
:100FC000002918BF43F001035B0028BF4FEA330339
:100FD00042EB22425FEA132C4CEBC2502EBFBCEB1B
:100FE000436FB2F57C0F70474FEA036CBCF1004FC2
:100FF00008BF20F00100B2F57C0F38BF70470BD559
:1010000082F0FF0212F5803FC8BF704700F1C04078
:10101000D8BF00F00040704700F5000C5FEA4C0CB0
:1010200048BF7047B0F1C04000F073B890EA010FBC
:101030000CEAD11348BF42F48072624538BF634561
:1010400004D280EA010000F00040704710B500F0C3
:101050001AF800BF8900013E00F007B800F009B897
:101060005FEA410C5FEA1C6C08D080EA010000F0E6
:1010700050B85FEA400C5FEA1C6CF6D14FF00040BC
:10108000A0F5800070470EF1020E2EF0030E5EF800
:10109000044B244204D44FEA4102B2F17F4F11D8ED
:1010A0004FEA4003B3F17F4F0CD80ED14FEAD07C0A
:1010B000B2F17F4F0CEB4C0C0CF1020C08BF4CEB67
:1010C000D17C04E04FF0080C01E04FEAD17C0CEB3E
:1010D0004C0324FA03F404F00704B4F1040C06D220
:1010E0000EEB840CBDE810404CF0010C6047DFE8CB
:1010F0000CF0070802024FF00040A0F5800010BD80
:101100000846420018BFD2F1807288BF00F000404C
:1011100010BDFF2141EAD050C005704780F000406B
:1011200090EA010F7FF5DDAD81F0004100F007B8D6
:1011300090EA010F48BF81F000413FF5D2AD421A5D
:1011400004D882F00042A0EB020011444FEAD052D2
:101150004FF07F4C1CEA410FA2EBD15318BF9CEA21
:10116000026F4AD04FF0004C4CEA00204CEA0121BB
:1011700021FA03FCB0EB0C0C0FD412F0FE0F36D0AA
:101180005FEA4C001DD5001240EBC25038BF7047DB
:101190001CF03F0F18BF70470BE0A2F101025FEA9D
:1011A0001C2040EBC25038BF70471CF07F0F18BFA7
:1011B0007047C3F12003994014BF401E20F0010086
:1011C000704780084FEA122308BF7047B0FA80FCCE
:1011D000A2EB0C02CCF1280C60FA0CF093EA122F6F
:1011E00004BF00EBC25070474FEAC3707047130A48
:1011F0005FEADC1008BF7047F6E79CEA026F04D094
:1012000010EA5C0F08BF0020704710B5FFF73BFFE6
:1012100040DFF63E81F00040704700003C120008BD
:1012200000000020280000002801000864120008C7
:10123000280000202807000044010008FC60DAF2C2
:1012400066B6BEE0FEF6EE3E9C7A9E8E010002007F
:10125000000000000000000000000000000000008E
:04126000000000008A
:04000005080000ED02
:00000001FF
