:020000040800F2
:10000000E8480020E9010008ED010008EF010008C0
:10001000F1010008F3010008F501000800000000EC
:10002000000000000000000000000000F7010008D0
:10003000F9010008000000006F020008754F000879
:10004000FF010008FF010008FF010008193B00083C
:10005000FF010008FF010008FF010008FF01000880
:10006000FF010008FF010008FF010008FF01000870
:10007000FF010008FF010008FF010008FF01000860
:10008000FF010008FF010008FF010008FF01000850
:1000900089590008FF010008FF010008FF0100085E
:1000A000FF010008FF010008FF010008FF01000830
:1000B000914F000815550008B5560008FF010008CB
:1000C000FF010008FF010008FF010008FF01000810
:1000D000FF01000879570008FF010008FF01000830
:1000E000FF010008FF0100080558000800F002F8B1
:1000F00000F06BF80AA090E8000C82448344AAF157
:100100000107DA4501D100F060F8AFF2090EBAE854
:100110000F0013F0010F18BFFB1A43F0010318473B
:1001200084840000A48400000A444FF0000C10F8FE
:10013000013B13F0070408BF10F8014B1D1108BF65
:1001400010F8015B641E05D010F8016B641E01F805
:10015000016BF9D113F0080F1EBF10F8014BAD1C55
:100160000C1B09D16D1E58BF01F801CBFAD505E073
:1001700014F8016B01F8016B6D1EF9D59142D6D3CD
:10018000704700000023002400250026103A28BFF5
:1001900078C1FBD8520728BF30C148BF0B607047F9
:1001A000642900F08F81752900F08C81782900F096
:1001B000C581632900F01983732900F01E83002094
:1001C00070471FB51FBD10B510BD00F049FB1146AB
:1001D000FFF7F7FF05F0E2FF00F067FB03B4FFF75E
:1001E000F2FF03BC05F0ABFE08480047FEE7FEE760
:1001F000FEE7FEE7FEE7FEE7FEE7FEE7FEE7FEE7D7
:1002000003480449044A054B70470000ED0000080C
:10021000E8420020E8480020E8440020E8440020AC
:10022000EFF3108072B6704780F310887047204C4F
:10023000204D25604FF0000484F309881E4C4FF0D8
:10024000010525701D4C4FF08055256062B6FEE714
:1002500030B41A4C4FF08055256030BC704730B434
:10026000164C4FF08055256030BC704700BF72B609
:10027000EFF3098028B1203880E8F00F10490968B1
:10028000086000B50F4880475DF804EB0E480F4941
:100290000A7802700A480E490A680260106890E8FD
:1002A000F00F203080F309884EF0040E62B67047DC
:1002B00020ED00E00000FFFFA201002004ED00E0BF
:1002C000A8010020E12D00089701002098010020DE
:1002D000B0010020704753EA020C00F069802DE95C
:1002E000F04B4FF00006002B1FBFB3FA83F503FA63
:1002F00005F424FA05F65E4012BF1643B2FA82F501
:1003000002FA05F4C5F120051EBF22FA05FC44EAF5
:100310000C04203556EA044C4FEA144418BF641C00
:100320004FF000084FF00009904271EB030C39D3F5
:10033000002919BFB1FA81F701FA07F6B0FA80F780
:1003400000FA07F6C7F120071EBF20FA07FC46EAAD
:100350000C062037B6FBF4FCA7EB0507103F07F0AF
:100360001F0BCBF120060CFA0BFB2CFA06F644BF50
:10037000B3460026202FA4BF5E464FF0000B5BEA79
:10038000060C08BF4FF0010B19EB0B09ABFB027C0D
:1003900048EB0608C01B06FB02CC0BFB03CC71EB41
:1003A0000C01C1E70B46024641464846BDE8F08BCA
:1003B00013B54FF000004FF00001AFF30080BDE82F
:1003C0001C40704710B54C1084EA530404D54042D9
:1003D000C1F1000138BF491E1B4204D55242C3F18E
:1003E000000338BF5B1EFFF776FF14F0804F04D088
:1003F0004042C1F1000138BF491E14F0004F04D043
:100400005242C3F1000338BF5B1E10BD0FB4044954
:1004100010B503AA029800F0F5F910BC5DF814FBC2
:100420003C00002070B5044685690068C10601D50E
:10043000302600E02026C00707D070BDD4E9012196
:1004400030469047206A401C20626D1EF6D570BD74
:1004500070B5044685690078C00707D170BDD4E93E
:10046000012120209047206A401C20626D1EF6D595
:1004700070BD70B50C460546012A05D02878800667
:1004800000D5EA69002302E0012305E05B1C9342EA
:1004900002D2E05C0028F9D1A869E618C01AA86168
:1004A000286A184428622846FFF7BCFF04E0D5E913
:1004B000012114F8010B9047B442F8D32846FFF706
:1004C000C7FF70BD2DE9F04106460024106875296C
:1004D000314616A510D0AFF30080002802DA404262
:1004E00013A507E031688A0701D512A502E0490784
:1004F00004D511A5012401E0AFF3008000210A22F8
:1005000006F1240709E0B0FBF2FCB0FBF2F302FBBA
:100510001C00303078541846491C0028F3D123467B
:100520002A463046BDE8F04100F0FCB8000000006B
:100530002D0000002B0000002000000070B50446D4
:100540000D4621461068AFF300802188090502D5C9
:100550000F4A7A4402E00E4A7A440E32002104F136
:10056000240305E000F00F060009965D5E54491C67
:100570000028F7D120780023000704D5702D02D081
:1005800009B1022311322046BDE8704000F0CAB81C
:10059000407F00002DE9F05F894604464FF0000AD5
:1005A000DFF874B1FB44C0F820A02046E16888471A
:1005B000002874D0252806D0D4E901219047206A6C
:1005C000401C2062F1E700265F462046E16888472C
:1005D0002028054607DB312D05D2781910F8200CAC
:1005E00008B10643F1E7B00701D526F00406C4F8C8
:1005F0001CA00027C4F818A02A2D09D0284605F011
:1006000097FC38B304EB8708303DC8F8185019E060
:1006100059F8041B204604EB87029161E168884782
:10062000012F054618D1E069002820DA26F02006BF
:100630001DE0D8F8180000EB800005EB40003038D2
:10064000C8F818002046E1688847054605F070FCA8
:100650000028EED1012F0AD02E2D08D12046E168C6
:1006600088477F1C0546022F46F02006C4DBA069A0
:10067000002803DA404246F00106A061F00701D0ED
:1006800026F010066C2D0BD0682D09D04C2D39D0DA
:100690006A2D35D0742D35D07A2D33D016E038E060
:1006A000E1682F4620468847B842054609D16C2F9D
:1006B00026D04FF48060E16806432046884705460F
:1006C00004E06C2F1AD04FF4807006430DB3A5F1EF
:1006D0004100192802D8203546F400664A462946CA
:1006E000204626604E46FFF75BFD80B101280BD007
:1006F000F61D26F0070000F1080956E74020E4E760
:100700008020D8E70020D6E706F104094DE7284607
:1007100052E7206ABDE8F09F167F000070477047DF
:10072000704770472DE9F0470D46994692460446BA
:1007300000F124080168880604D5E06921F0100161
:10074000216000E00120A84201DD471B00E00027F6
:10075000A1697A1902EB0900081AA0612078C00685
:1007600002D42046FFF75EFE002608E0D4E901210E
:100770001AF806009047206A401C761C20624E45FD
:10078000F4DB2078C0060AD52046FFF74BFE06E0D2
:10079000D4E9012130209047206A401C2062381E95
:1007A000A7F10107F4DC07E0D4E9012118F80500FE
:1007B0009047206A401C2062281EA5F10105F3DC49
:1007C0002046FFF745FE2078000602D50220BDE84E
:1007D000F0870120FBE710B5436913B1AFF3008048
:1007E00001E0FFF746FE012010BD127800F1240160
:1007F0000A7000224A700122EDE711684FF0FF32C3
:10080000E9E70000074B70B50D467B4400F011F896
:100810000446284600F020F810B14FF0FF3070BDBC
:10082000204670BDE358000001694A1C0261087847
:10083000704700B58FB0CDE9013100210591054920
:100840007944CDE9031011466846FFF7A3FE0FB0C7
:1008500000BD0000E5FFFFFF007B00F08000704757
:10086000754600F02BF8AE4605006946534620F069
:100870000700854618B020B5FFF7C2FCBDE8204050
:100880004FF000064FF000074FF000084FF0000B4C
:1008900021F00701AC46ACE8C009ACE8C009ACE8FF
:1008A000C009ACE8C0098D46704710B50446AFF3E7
:1008B00000802046BDE81040FFF790BC004870471C
:1008C0008442002010B5FF2000F017F80446552C94
:1008D00001D1002010BD5521FF2000F03AF8FF2083
:1008E00000F00BF80446552C01D10020F2E701205E
:1008F000F0E710B500F00AFF10BD70B50446002601
:1009000000F0C0FF2546E11704EB11610912A02297
:1009100002EB4101C8B200F081FF00F0FFFFE117D8
:1009200004EB11610912A4EB0121C8B200F076FFBB
:1009300000F0F4FF00F0A6FFA12000F06FFF00F030
:10094000EDFF002000F032FF064600F0C1FF304608
:1009500070BD70B504460E4600F094FF2546E117C1
:1009600004EB11610912A02202EB4101C8B200F0B0
:1009700055FF00F0D3FFE11704EB11610912A4EB5E
:100980000121C8B200F04AFF00F0C8FF304600F075
:1009900045FF00F0C3FF00F09BFF0A2005F046FB77
:1009A00070BD00004548806940F0080043498861F7
:1009B0004348006820F0F000414908603F488069E2
:1009C00040F400703D4988610846C06840F40070FA
:1009D000C8600846C06820F40070C86008464068D7
:1009E00020F4404048600846406840F400404860B9
:1009F00034480068344908403249086008460068B5
:100A000008600846006820F480700860081D0068CF
:100A100020F00200091D08600846006820F46020EC
:100A200008600846006840F46020086008460068D6
:100A300040F4801008600846006820F400600860F8
:100A400020482830006820F470001E4928310860D2
:100A50000846006808601B480C30006820F0380029
:100A600018490C3108600846006840F038000860FA
:100A70001448001D006840F001001249091D08607B
:100A80000846006840F00800086000BF0D48001DDF
:100A9000006800F008000028F8D10A48001D00682E
:100AA00040F004000749091D086000BF0548001D0B
:100AB000006800F004000028F8D1704700100240E0
:100AC000040C014004240140FFFFF0000C48806941
:100AD00040F008000A4988610A48006820F00F00C9
:100AE000084908600846006840F0030008600548AF
:100AF0000830006840F4807002490831086070478F
:100B000000100240040C014010B5044624B1012C31
:100B100007D0022C15D10AE01021012003F0C4FEF9
:100B200010E04FF48051022003F066FE0AE010212D
:100B3000012003F0B9FE4FF48051022003F05CFE67
:100B400000E000BF00BF10BD0146CAB20B1243EA6D
:100B50000220704710B5002405E0A8480068005D39
:100B6000A7490855641CA74800888442F5D3A448C7
:100B70004068A5494860A24880688860A14800880C
:100B80001F280FD00220FFF7BFFF00209C490860FC
:100B9000487B1A22052103F0D7FE0021012003F033
:100BA000B5FE10BD9648C07B282803D09448C07B72
:100BB0002A2816D19248407C01069148807C41EA5F
:100BC00000418F48C07C41EA00208D49097D0843DF
:100BD0008E4908608A48C17D807D41EA00208C49A9
:100BE0000860874800688B4988426FD18448407B01
:100BF00089490968884207D88148807B012803DB3E
:100C00007F48807B10280DDD0220FFF77DFF7C49A7
:100C1000487B2422052103F097FE0021012003F0E8
:100C200075FEE8E07648C07B25285FD01BDC1528E0
:100C30006FD00EDC08286DD006DC00285BD00328BE
:100C400030D0042867D176E00A286ED01228F9D176
:100C50002DE01A380A285ED2DFE800F0392EB17D87
:100C600033B1B1B1B1438A286FD00EDC552867D0BB
:100C700006DC282844D02A284ED02F28E2D155E07F
:100C80005A2829D08828DDD176E0A8286DD004DC48
:100C90008F286FD09E28D5D173E0AA287BD0AF28AB
:100CA000D0D182E05649487B03F00EFC95E05449D0
:100CB000487B03F0E1FA90E05149487B03F018FCCF
:100CC0008BE04F49487B03F013FC86E086E04C49FB
:100CD000487B03F021FB80E04949487B03F012FB8D
:100CE0007BE04749487B03F0ABFB76E04449487B17
:100CF00003F058FB71E04249487B03F001FC6CE0D3
:100D00003F49487B42490A684049096803F00EFBA5
:100D100063E01BE024E052E03949487B3C490A6823
:100D20003A49096803F028FC57E02FE03449487B32
:100D300003F002FC51E03249487B03F085FA4CE0B5
:100D40002F49487B03F0BCFA47E029E02C49487B57
:100D500003F0B6FA41E02A49487B03F0B1FA3CE0DF
:100D60002749487B03F0ACFA37E02549487B03F07C
:100D7000A7FA32E01EE00EE02149487B03F0A0FA1A
:100D80002BE01F49487B03F09BFA26E01C49487B77
:100D900003F096FA21E01A49487B03F091FA1CE02F
:100DA0001749487B03F08CFA17E01549487B03F09C
:100DB00087FA12E01249487B03F082FA0DE0022024
:100DC000FFF7A2FE0E49487B2022052103F0BCFD5F
:100DD0000021012003F09AFD00BF0CE00220FFF784
:100DE00093FE0749487B2022052103F0ADFD002139
:100DF000012003F08BFD00BFD3E60000DC020020E1
:100E000054420020E002002074420020E40200204E
:100E1000E8020020555342434403002008B5002057
:100E2000009022E19748008800F00F009649087072
:100E30000846007800287CD19448006894490880CE
:100E40000846008800F030009249088090480088E9
:100E500000F440508E4908808C4909684BF6BF72F7
:100E600001EA020080F4005080F0200040F40041CC
:100E700041F08001854A11608248008800F010002E
:100E800090BB1046006848F60F7108401146086094
:100E900000F076FD7D4909684BF6BF7201EA020059
:100EA0007B49098801F4805109B180F48050784968
:100EB000098801F4005109B180F40050754909888E
:100EC00001F0100109B180F010007249098801F0A9
:100ED000200109B180F0200081B241F4004141F0CD
:100EE00080016A4A116008BDFFE76848006880B267
:100EF0000090BDF8000000F40060B0B363480068E3
:100F0000C0F30E0048F68F7108406049086003F096
:100F10002FFD5E4909684BF6BF7201EA02005C4989
:100F2000098801F4805109B180F48050584909883A
:100F300000E056E001F4005109B180F40050554939
:100F4000098801F0100109B180F0100051490988A9
:100F500001F0200109B180F0200081B241F400418C
:100F600041F08001494A1160BDE7FFE7BDF800008C
:100F700000F40040002878D044480068C0F30E0018
:100F800048F68F7108404149086002F089FC3F49EA
:100F900009684BF6BF7201EA02003D49098801F475
:100FA000805109B180F480503949098801F4005119
:100FB00009B180F400503749098801F0100109B1E6
:100FC00080F010003349098801F0200109B180F058
:100FD000200081B241F4004141F080012B4A1160B0
:100FE00081E7294800782C4901EB8000D0F8000CFB
:100FF00080B20090BDF8000000F40040C0B122486B
:10100000007801EB8000D0F8000CC0F30E0048F629
:101010008F7108401C4909781F4A02EB8101C1F811
:10102000000C19490978491E1C4A52F821008047D2
:10103000BDF8000000F08000B8B1134800781649F0
:1010400001EB8000D0F8000C48F60F7108400E4903
:101050000978114A02EB8101C1F8000C0A490978AC
:10106000491E0F4A52F82100804708484430006862
:1010700080B20449088000F4004000287FF4D2AE1A
:1010800000BF30E708030020F8010020005C0040AA
:101090000C0200200E020020005000402803002017
:1010A0000C0300200B4A02EB8001D1F8001C01F474
:1010B000804171B102EB8001D1F8001C48F68F72BB
:1010C00011404CF280021143024B03EB8002C2F844
:1010D000001C7047005000400B4A02EB8001D1F821
:1010E000001C01F0400171B102EB8001D1F8001C3D
:1010F00048F68F72114048F2C0021143024B03EBD5
:101100008002C2F8001C704700500040084A02EB01
:101110008001D1F8001C48F68F62114048F280022D
:101120001143034B03EB8002C2F8001C7047000020
:10113000005000402DE9F0472848006800F11005F4
:101140002E8826480068077AD6B9042F18D124487B
:10115000007801280FD100212248006880B2801C4D
:10116000214A42F8101030202049088000BF00209A
:101170001B49087003E0072710201C49088027E05E
:10118000AC88A64201D8042000E002200746B44201
:1011900000D93446A0B2A96888478046002000F0F4
:1011A00021FA8146A2B24946404604F06FFCA1B242
:1011B000002003F06BFB2888001B288068882044EF
:1011C000688030200949088000020949088000BF72
:1011D000024909680F72BDE8F0870000FC01002099
:1011E000F6010020505C0040006000400E0200202C
:1011F0000C0200202DE9F0412848006800F110049D
:101200002688A068C0B1BEB1A588B54200D93546D0
:10121000A8B2A168884707462088401B20806088C4
:1012200028446080002000F0AFF98046AAB2414611
:10123000384602F05DFB00BF208850B14FF44050AB
:10124000174908800021084603F020FB302015498B
:1012500008802088A188884204DB03200F490968A0
:10126000087218E02088002804DD05200B49096871
:10127000087210E0208870B90620084909680872D1
:1012800000210948006880B2801C084A42F810100A
:10129000302004490880BDE8F0810000FC010020F6
:1012A0000C0200200E020020505C00400060004054
:1012B0002DE9F84F9B48006845780027BA46062D6F
:1012C0001BD198480068007800F07F00002813D1F7
:1012D000944909688878012803D193490968CF693E
:1012E0000AE0022803D1904909680F6A04E0032844
:1012F00002D18D4909684F6A94E0002D64D1894874
:101300000068408800285FD186480068C0880228AD
:101310005AD1844800680079002855D18148006876
:10132000007800F07F0028B97E480068808808B9FE
:101330007E4F77E07B480068007800F07F0001284E
:1013400010D1784909684879774909688A69002184
:101350009047002866D173480068807A002861D0E1
:10136000724F5FE06F480068007800F07F0002284D
:1013700058D16C480068407900F00F066948006851
:10138000407900F0700967480068407900F08000FB
:1013900038B1674901EB8600D0F8000C00F0300846
:1013A00006E0634901EB8600D0F8000C00F44058D9
:1013B00060480078B04235D9B9F1000F32D1B8F1A8
:1013C000000F2FD0594F2DE0082D07D15548006848
:1013D000007800F07F0028BB574F23E00A2D21D171
:1013E00050480068007800F07F0001281AD14D486D
:1013F0000068807AB0B14B480068408890B949488D
:101400000068007970B947480068C088012809D190
:10141000444909684879444909688A690021904724
:1014200000B9464F57B13F480068A0F812A03D48A8
:10143000006887610020B84700240FE0394A12682D
:101440005078394A1268116988470446032C05D13F
:101450000920344909680872BDE8F88F31480068EE
:10146000008A4FF6FF71884204D109202D4909688E
:101470000872F1E7022C03D02A480068008A20B9DC
:101480000820284909680872E6E7264800680078BD
:1014900000F08000E0B323480068C0880090214835
:1014A0000068008A0099884204D91E49009809689A
:1014B000088223E01B480068008A1A490968C98825
:1014C00088421BDA17480068008A1749096891F8B2
:1014D0002C10884203DA0020194908700EE01148E8
:1014E0000068008A1049096891F82C1090FBF1F20D
:1014F00001FB120010B90120114908700A48006868
:1015000090F82C10074800688182FFF713FE07E06F
:10151000FFE70320034909680872000309490880AE
:1015200000BF99E7FC01002000020020114C0008D8
:101530000050004048030020954B0008E54B000890
:10154000F60100200C02002010B500F00FFE10BDC7
:1015500010B500F05FFE10BD10B503A0FEF756FFFA
:1015600003200849086010BD75736220656E7465BC
:1015700072206C6F7720706F776572206D6F646575
:101580000D0A0000D803002001460548006880B21B
:1015900000EBC100001D034A32F8100080B2704712
:1015A000505C00400060004001460648006880B280
:1015B00000EBC100801D044A32F81000C0F309009E
:1015C00070470000505C0040006000400146044A43
:1015D00002EB8100D0F8000C00F44050704700008E
:1015E0000050004001460548006880B200EBC10091
:1015F000034A32F8100080B270470000505C00408F
:101600000060004001460F48006820F01F000D4AAE
:10161000106010460068084310600A482C380068C3
:1016200040F48000074A2C3A106000BF0548343867
:10163000006800F002000028F8D002481830006866
:1016400080B270473424014070B506460B46002432
:10165000002505E03046FFF7D5FF0444681CC5B2FD
:101660009D42F7DBB4FBF3F080B270BD014629B9AF
:101670000120034A12681082002070470148FCE7ED
:10168000FC0100204403002070B50A480468001DD6
:101690000568001D0668344454B1082206492046F6
:1016A00000F0A6F9042204491031284600F0A0F900
:1016B00070BD0000E8F7FF1FEE02002010B500200B
:1016C0000F4908600F48006820F070400D4908601D
:1016D0000846006840F04050086000200A49C1F800
:1016E0009C01022004F0D8FC01200549086002207A
:1016F00004F0D2FC00200449C1F8980110BD00009C
:1017000098812142000C0140008021420F488069ED
:1017100040F008000D4988610D48006820F07F40C6
:101720000B4908600846006840F04C5008600848C3
:101730000C30006840F0C00005490C310860012001
:10174000044908600449C1F89C0170470010024038
:10175000000C0140988121420080214210B50020F8
:101760000F4908600F48006820F070400D4908607C
:101770000846006840F04050086001200A49C1F85E
:101780009C01022004F088FC012005490860022029
:1017900004F082FC00200449C1F8980110BD00004B
:1017A00098812142000C01400080214270B505461D
:1017B00000241748006820F070401549086008466A
:1017C000006840F000400860002616E00020114943
:1017D0000860022004F060FC01200F49C1F8980164
:1017E0006006040E0B487C38006808B1601CC4B267
:1017F000012004F051FC701CC6B2082EE6DB15B9BE
:10180000FFF7ACFF01E0FFF759FF204670BD000075
:10181000000C0140988121420080214270B50446AD
:101820001548006820F070401349086008460068B9
:1018300040F040500860002010490860002517E083
:10184000E0090E49091D08606006040E022004F03C
:1018500023FC01200A49C1F89801022004F01CFC75
:10186000002006490860022004F016FC681CC5B27E
:10187000082DE5DB70BD0000000C0140988121427D
:101880000080214210B50F48006820F070400D49DB
:1018900008600846006840F04050086001200A498E
:1018A00008600A49C1F89801042004F0F5FB002003
:1018B00005490860042004F0EFFB00200349C1F84B
:1018C000980110BD000C01409C8121420080214202
:1018D00010B50F48006820F070400D4908600846B8
:1018E000006840F04050086000200A4908600A493A
:1018F000C1F89C01042004F0CFFB012005490860D9
:101900000549C1F89C01042004F0C6FB10BD00008D
:10191000000C0140988121420080214210B5002432
:101920001448006820F070401249086008460068BA
:1019300040F00040086001200F49086004F0ACFB53
:1019400001200E49C1F8980104F0A6FB07E0601CD5
:10195000C4B2FA2C03DDFFF7BBFF012010BD06481F
:10196000803800680028F2D10349091F086000BFD1
:10197000F4E70000000C01409C81214200802142DC
:1019800010B518480068047A022C01D0042C05D147
:10199000FFF7D0FB13480068047A1CE0062C19D12D
:1019A00010480068407805280ED10E48006800787D
:1019B00000F07F0040B90B490968C87802F0BCFE0E
:1019C00009490968086A80470849096888688047A2
:1019D000082400E00824034909680C7201F09CFF08
:1019E00010BD0000FC0100200802002000020020C1
:1019F00030B50B46002100BF16E00A24B4EB107F7F
:101A000005D9302404EB107403F8114005E041249B
:101A100004EB10740A3C03F81140000100254C004F
:101A2000641C1D554C1CE1B29142E6DB30BD014601
:101A3000CA1701EB92729210A1EB820292B9642054
:101A400091FBF0F200FB121050B94FF4C87091FBFB
:101A5000F0F200FB121008B9012070470020FCE7EB
:101A60000120FAE70020F8E701464906084A926992
:101A700042F00102064B9A61064A526822F0E06287
:101A8000044B5A601A4652680A435A607047000075
:101A900000100240000001402148806940F004002D
:101AA0001F4988610846806940F010008861084637
:101AB000806940F0200088611A48006820F00F001B
:101AC000184908600846006840F008000860164899
:101AD000406820F0FF00144948600846406840F024
:101AE000880048600846C06840F48070C8600846B6
:101AF000C06840F40070C8600C48006820F4706052
:101B00000A4908600846006840F400600860074819
:101B10000C30006840F0040004490C310860704744
:101B20000010024000080140001001400014014074
:101B300010B5044614B101202149087020480078EE
:101B400048B32048006850B11E48001D006830B1FD
:101B50001D48006818B11D48006801281BD10A20E3
:101B600004F064FA0020164908701648006808B9A5
:101B7000012010BD1348001D006808B90220F8E7D5
:101B80001148006808B90320F3E7104800680128ED
:101B900014D10420EDE70B48006801280ED1094854
:101BA000001D0068012809D107480068012805D1F7
:101BB0000648006810B90120014908700020D8E7E4
:101BC00026000020200122420881224200012142F9
:101BD0000A48806940F01000084988610848006898
:101BE0000020074908600846006840F0333008606C
:101BF0000846C06840F0FF00C8607047001002400F
:101C00000010014010B5012004490860052004F0CF
:101C100043FA00200249C1F8900110BD9081214291
:101C20000080214210B51B48806940F00800194926
:101C300088610846806940F0100088610846806924
:101C400040F0010088610120FFF70EFF1248006894
:101C500012490840104908600846006810490843C6
:101C60000D4908600F4840680F4908400D49486019
:101C7000084640680D4908430A494860282006493B
:101C8000143108601020091F08604FF4E050054926
:101C9000086110BD00100240000C0140FF0F00FF62
:101CA0000030330000100140FF00F0FF003303005C
:101CB00000F00101064A1160C0F34001054AC2F874
:101CC000AC11C0F38001024A083211607047000075
:101CD000A80122420000224270B506460D460024AB
:101CE00012E046FA04F000F001000A490860002002
:101CF0000949C1F89401052004F0CEF901200549F5
:101D000008310860601CC4B2082CEADB2846FFF7E3
:101D1000CFFF70BD8C8121420080214210B5074C5D
:101D200007A0FEF773FBA07A18B105200A490860E6
:101D300002E001200849086010BD00003842002080
:101D40006C65617665206C6F7720706F77657220A7
:101D50006D6F64650D0A0000D80300200120014961
:101D600008607047840122420020014908607047E2
:101D700084012242014621B1012904D0022906D161
:101D800003E0002070470020FCE70120FAE7012073
:101D9000F8E72DE9F047064614461D46DDE90889B7
:101DA00036B900274A462146404603F0D9FE02E0F4
:101DB0000120BDE8F08700BF0FB10120F9E7002046
:101DC000F7E72DE9F047064614461D46DDE9088988
:101DD00036B900274A462146404603F02DFF02E06F
:101DE0000120BDE8F08700BF0FB10120F9E7002016
:101DF000F7E7000070B50546002414480068007835
:101E000000F07F00212810D1FE2D0ED10F48006870
:101E1000408850B90D480068808830B90B48006888
:101E2000C088012801D10A4C01E0022070BD0CB924
:101E30000220FBE705480068846100210348006830
:101E400041820020A0470020F0E70000FC010020B4
:101E50006D16000810B504460249204602F0B0FE97
:101E600010BD0000A803002010B50446024920461A
:101E700002F0A6FE10BD0000A003002070B50546CC
:101E800006480068C478052C01DD002070BD0448B8
:101E900000EBC401284602F093FEF7E7FC010020A6
:101EA000B00300200246002901DD02207047002A0D
:101EB00001DD0220FAE70020F8E7000010B5044633
:101EC00011480068007800F07F0021281AD1FF2C0B
:101ED00018D10D4800684088A0B90B480068808878
:101EE00080B909480068C08860B90120FFF7F4F89C
:101EF0000220FFF7D7F8054805490860002005498A
:101F0000087010BD0220FCE7FC010020555342433D
:101F100054420020D802002010B5002032498872B7
:101F20003248C079324909684872002002F0FCFB4F
:101F30004FF40071002002F0D7FC2021002002F0B5
:101F4000B3FC1821002002F01FFC2A4890F82C1046
:101F5000002002F02BFC5821002002F087FC00201A
:101F6000FFF7D4F8002002F067FC0021012002F006
:101F7000BBFC9821012002F079FC2021012002F015
:101F800093FC0021012002F037FC0021022002F026
:101F9000ABFCD821022002F0F7FB164890F82C1079
:101FA000022002F003FC4FF44051022002F024FC16
:101FB0000021022002F078FC0E4890F82C1000203E
:101FC00002F0F4FB002002F037FC002002F0B4FB2A
:101FD00001200949086009480949086000200949A9
:101FE000087003F0D5FC10BD38420020288400089A
:101FF000FC0100204C030020D8030020555342432D
:1020000054420020D80200207047704710B5FFF7F7
:102010003BFB002005490968887201F0A1FC03F030
:10202000F5FC00200249086010BD0000FC01002002
:10203000D803002000B5002015490861C8601420AD
:10204000486100208861C8610846006840F00100CE
:102050000860084640680F4908400D494860084636
:1020600000680D4908400A4908600846006820F4E5
:10207000802008600846406820F4FE004860002088
:10208000886000214FF0006000F058F800BD0000AB
:10209000001002400000FFF8FFFFF6FE2DE9F041BE
:1020A0000746884614461D46284600F033F8C5F119
:1020B000040007FA00F60F20284100EA0800064352
:1020C00006F00F06E21704EBD2625211920002F101
:1020D000E022D2F800212146E31704EBD3635B1121
:1020E000A4EB431C012303FA0CF31A432046E31725
:1020F00004EBD3635B119B0003F1E023C3F80021E1
:102100000348005D40EA061001490855BDE8F0812A
:1021100000E400E00146072323EA01021202054B16
:1021200018684FF6FF031840034B18431043014B48
:10213000186070470CED00E00000FA05024A0A4002
:102140000243024B1A60704780FFFF1F08ED00E05A
:1021500010B5044800680449884202D00220FEF706
:10216000D3FC10BD544200205553424310B52448BF
:10217000007840F0100022490870224800780228B8
:102180001BD003282ED0042802D0052834D100E02B
:1021900000BF00201B4908704FF44051022002F09C
:1021A0002BFB0220FFF712FAB0F5805F04D14FF449
:1021B0004051022002F020FB1FE01348C07B28287A
:1021C0000ED10F48007840F002000D4908700E490A
:1021D000487B0E490A680E49096802F0A7F800BF5B
:1021E00000BF0AE00121002002F090FB4FF44051B3
:1021F000022002F001FB00E000BF00BF10BD0000A4
:1022000035020020D802002054420020E8020020BD
:10221000E402002010B52348007840F01000214966
:1022200008702148C47B21480168022003F000FCAB
:102230001F4908801F48007810B1012822D102E010
:10224000FEF788FC2CE02A2C0ED11648007840F0CE
:102250000100144908701449487B17490A68174956
:10226000096802F089F91BE00120FEF74DFC0E49D8
:10227000487B2422052102F067FB0021022002F0A6
:1022800045FB0DE00220FEF73FFC0749487B242276
:10229000052102F059FB0021022002F037FB00BFAC
:1022A00000BF10BD3502002054420020DC02002097
:1022B000E0020020D8020020E8020020E402002012
:1022C00010B508480068807A58B1052006490860B2
:1022D0000120FEF701FF0220FEF7E4FE0020034983
:1022E000087010BDFC010020D8030020D802002097
:1022F0000420014908607047D8030020704700009F
:1023000070B502264748006844784648006800785F
:1023100000F07F00002844D1092C03D102F0F8FC22
:1023200006465FE0052C14D13E480068C0787F283F
:102330000BDC3C480068807838B93A4800688088EF
:1023400018B938480068807A08B1082565E0002689
:1023500048E0032C0ED133480068C078012807D12B
:1023600030480068808818B902F0F6FC064639E06B
:10237000022637E0012C35D12A480068C0780128B0
:102380000DD128480068808848B926480068407AFE
:1023900000F0200018B102F047FB064622E00226BA
:1023A00020E020480068007800F07F00012805D177
:1023B0000B2C17D102F04CFD064613E019480068BB
:1023C000007800F07F0002280BD1012C03D102F02D
:1023D0002BFB064606E0032C04D102F0D1FC064696
:1023E00000E002264EB1E0B20F4A126851698847F8
:1023F0000646032E01D109250FE00EB108250CE099
:10240000062500210948006880B2801C084A42F86D
:10241000101030200749088000BF024909680D727A
:1024200070BD0000FC01002000020020505C004054
:10243000006000400E02002010B500F015F800F01A
:10244000B3FF00F0DBFF00F0FBFF00F083FF00F0C4
:1024500055FF01F08FF801F033F801F059F800F062
:102460008DFD00F007F810BD00200149088070477D
:10247000DC0100207047000006480078012808D1E0
:1024800005480078FF2804D203480078401C024920
:1024900008707047A20100209501002010B50024AB
:1024A0001A480078012830D1FDF7BAFE04461848D2
:1024B000007820B116480078401E1549087014486D
:1024C0000078F8B913480078E0B901F0B5F812487F
:1024D0001249097850F82100114908600F48007826
:1024E0001049097888420DD00D480068806B401C67
:1024F0000B49096888630C480068401C0A49086059
:10250000FDF7ADFE2046FDF78FFE10BDA2010020B5
:102510009501002096010020D02200209801002083
:10252000B0010020970100207C01002070B5054615
:1025300000260F48007808B1002070BDFDF770FE3E
:1025400006460C480468006820B10A4800684068E4
:10255000084908603046FDF767FE3CB10120207055
:10256000002020816560204600F0BAFE2046E4E7A6
:1025700095010020800100202DE9F04105460F461D
:1025800014464FF000082878012804D0012020705C
:102590000020BDE8F0813648007818B10220207094
:1025A0000020F6E73348007818B10D202070002095
:1025B000EFE7FDF735FE80466E6846B100206860A3
:1025C0004046FDF731FE002020703046E1E72A4802
:1025D000006890F8300040F002002749096881F84F
:1025E000300000202449096881F831002248006841
:1025F000C762284600F036FE4046FDF715FE00F0A3
:10260000E1FFFDF70DFE80461B48006890F83100A1
:1026100020B101280DD002280AD105E01648006833
:10262000066A002020700DE000260E20207009E0D0
:1026300000BF29461048006800F0FEFD00260A2071
:10264000207000BF00BF00200B49096881F83000EE
:102650000949096881F8310007490968C8610649D4
:10266000096808624046FDF7DFFD304691E700004B
:102670009501002096010020A801002070B50446B5
:102680000D4600262078012801D0012070BDFDF7FD
:10269000C7FD0646A07A60B10023022229462046E3
:1026A00000F088FD3046FDF7BFFD00F08BFF0020F5
:1026B000ECE7606820B13046FDF7B6FD1420E5E791
:1026C00065603046FDF7B0FD0020DFE710B500245F
:1026D0000B480078012811D1FDF7A2FD04460948F6
:1026E000007840B908480078FF2804D206480078EE
:1026F000401C054908702046FDF796FD10BD0000FE
:10270000A2010020950100209601002010B50024B0
:1027100013480078012821D1FDF782FD04461148B5
:102720000078C0B10F480078401E0E490870084676
:10273000007860B90C48007828B92046FDF774FD90
:1027400000F040FF0AE02046FDF76EFD06E020465F
:10275000FDF76AFD02E02046FDF766FD10BD0000B2
:10276000A2010020960100209501002070B50546C9
:1027700000260F48007808B1002070BDFDF750FD1D
:1027800006460C480468006820B10A4800684068A2
:10279000084908603046FDF747FD3CB10320207032
:1027A000258100206060204600F09AFD2046E4E785
:1027B00095010020800100202DE9F04105460E46DC
:1027C000144600272878032803D001202070BDE894
:1027D000F0813148007810B102202070F7E72F48CF
:1027E000007810B10D202070F1E7FDF719FD0746C4
:1027F000288940B12889401E28813846FDF714FDFC
:1028000000202070E3E72648006890F8300040F090
:1028100001002349096881F8300000202049096837
:1028200081F831001E480068C662284600F01AFD93
:102830003846FDF7F9FC00F0C5FEFDF7F1FC074650
:102840001748006890F8310020B1012809D002280B
:1028500006D102E0002020700BE00E20207008E07E
:1028600000BF29460E48006800F0E6FC0A202070F0
:1028700000BF00BF00200A49096881F830000849FC
:10288000096881F8310006490968C8613846FDF7D2
:10289000CBFC00BF9BE700009501002096010020C3
:1028A000A801002070B5044600252078032801D037
:1028B000012070BDFDF7B4FC0546A07A60B100238D
:1028C00001221946204600F075FC2846FDF7ACFCB5
:1028D00000F078FE0020ECE720894FF6FF71884277
:1028E00007D22089401C20812846FDF79DFC00204E
:1028F000DFE72846FDF798FC3320DAE710B50B48F0
:10290000007890B900F098FE0948007809490870ED
:1029100009480749097850F8210008490860084625
:10292000006807490860FDF782FC10BDA201002085
:102930009801002097010020D0220020B001002043
:10294000A801002010B50024022000F04BFAFDF78A
:1029500067FC044600200B4908602046FDF764FC34
:10296000642000F03FFAFDF75BFC04460548006870
:10297000054908600120054908702046FDF754FC10
:1029800010BD0000A40100208C0100209401002053
:10299000704700002DE9FE4F06460F4690461C4644
:1029A0004FF00009FDF73CFC81461F48007828B134
:1029B0004846FDF739FC3C20BDE8FE8F1B4850F827
:1029C000240060BB0120194941F824004846FDF766
:1029D0002BFC002342463946304600F05FF9824620
:1029E0000020009001900346024651460290204686
:1029F00000F038FE054635B90D48007801280CD1A5
:102A000000F0E0FD09E0FDF70BFC814600200749DE
:102A100041F824004846FDF707FC2846CCE7484625
:102A2000FDF702FC2820C7E795010020D0220020F6
:102A3000A20100202DE9F04F85B081468A469346D9
:102A40001C46DDE90F78129D00200390FDF7E8FB9E
:102A500003902348007830B10398FDF7E5FB3C2054
:102A600005B0BDE8F08F1F4850F8240088BB012056
:102A70001C4941F824000398FDF7D6FB2A4641463D
:102A8000384600F0FFFE2B465A465146484600F0B5
:102A900005F904901198CDE9008002953A46204648
:102AA0000E9B049900F0DEFD064636B90E4800780C
:102AB00001280CD100F086FD09E0FDF7B1FB039081
:102AC0000020084941F824000398FDF7ADFB30468B
:102AD000C6E7FFE70398FDF7A7FB2820C0E7000043
:102AE00095010020D0220020A201002070477047ED
:102AF0002DE9F04106460F4614464FF000081548F0
:102B0000007818B112202070BDE8F081FDF788FB35
:102B10008046FF2E03D11048006890F832600F48BD
:102B200050F826502DB94046FDF77EFB432020701B
:102B3000EAE7012D05D14046FDF776FB43202070E2
:102B4000E2E7EF644046FDF76FFB0020207000BF16
:102B5000DAE7000095010020A8010020D022002023
:102B600070B505460026FDF75BFB0646234850F886
:102B7000254024B93046FDF757FB462070BD012C97
:102B800004D13046FDF750FB4320F7E794F83000BE
:102B900000F0080060B314F8300F00F0F700207068
:102BA00014F83009F8B9E06AC8B93434A078144987
:102BB000097808431249087020781249085C617846
:102BC000084314F834190F4A50543046FDF72CFBD3
:102BD0000D480078012809D100F0F4FC06E03046E9
:102BE000FDF722FB02E03046FDF71EFB0020C5E7A3
:102BF0003046FDF719FB4420C0E70000D02200203A
:102C0000990100209A010020A201002070470000D5
:102C10002DE9F04707460D464FF0000A00202860D6
:102C20006860FDF7FDFA8246FF2F03D1194800685E
:102C300090F83270184850F827402CB95046FDF7EC
:102C4000F3FA4320BDE8F087012C04D15046FDF78C
:102C5000EBFA4320F6E7207C00F0010020B9504653
:102C6000FDF7E2FA4520EDE70026D4F80C90D4F801
:102C700008805046FDF7D8FA00E0761C58F8041B8F
:102C80000029FAD0B0002860A9EB06008000686037
:102C90000020D7E7A8010020D022002070B504460C
:102CA00010464FF080750560051F28462C606FF0B8
:102CB0000106051F28462E604FF01236051F2846D4
:102CC0002E604FF00336051F28462E604FF0023667
:102CD000051F28462E607610051F28462E60051F0A
:102CE000284629604FF01136051F28462E604FF008
:102CF0001036051F28462E604FF00936051F28465E
:102D00002E604FF00836051F28462E604FF007361C
:102D1000051F28462E604FF00636051F28462E60F8
:102D20004FF00536051F28462E604FF00436051F6C
:102D300028462E6070BD00002DE9F04105464FF099
:102D40000008FDF76DFA8046FF2D05D12048006888
:102D500090F83250012608E01D48006890F83200D3
:102D6000A84201D1012600E000261A4850F825406B
:102D70002CB94046FDF758FA4820BDE8F081012CF7
:102D800004D14046FDF750FA4320F6E794F834703A
:102D90001148C05D94F8351088430F49C85508465E
:102DA000C05D30B994F836100C48007888430B4960
:102DB000087094F8300040F0080084F83000404675
:102DC000FDF732FA012E01D100F0FCFB0020D4E720
:102DD000A8010020D02200209A01002099010020A3
:102DE0007047000070B5054600261748007800B10E
:102DF00070BD1648007800B1FAE71DB3FDF710FA70
:102E000006461348006890F834401248005D1049A7
:102E1000096891F8351088430E4908550846005D49
:102E200040B90B48006890F836100B48007888438A
:102E30000949087006480068C5623046FDF7F4F994
:102E400000F0C0FB00BFD3E79501002096010020F1
:102E5000A80100209A0100209901002070B50026E9
:102E600000F072F8FDF7DCF9064631480068401CB6
:102E70002F4908603046FDF7D7F92E480078012821
:102E800053D12D48007820B1012804D0022809D15F
:102E900003E001250BE0002509E00125012026497A
:102EA000087004E0012500202349087000BF00BF1E
:102EB00005B970BD2148046833E0FDF7B1F9064655
:102EC000E06A50B3E06A401EE062E06A28BB94F812
:102ED000300000F0370040B114F8300F00F0C800A7
:102EE000207001206070303C02E0002084F8310046
:102EF00094F8300000F0080078B93434A078104914
:102F0000097808430E49087020780E49085C6178FA
:102F1000084314F834190B4A505464693046FDF7DD
:102F200083F994F832003F28C7D100BFC1E7000001
:102F3000C0010020A2010020B8010020B40100203F
:102F4000990100209A01002010B506480088401C15
:102F5000044908800846008818B10020088000F065
:102F600003F810BDDC01002010B503480068FFF72E
:102F700099FC0446204610BDD00100202DE9F04107
:102F80004FF42071224800F0EBFA4021214800F074
:102F9000E7FA002514E0681C86B205EB85001C49A1
:102FA00001EBC00406EB860001EBC0076420207033
:102FB000002084F82500E76017A02062681C85B215
:102FC0000F2DE8D305EB8500114901EBC004642007
:102FD0002070002084F82500E0600FA0206200200F
:102FE0000E4908600E49088010200E4908800848E4
:102FF0000D4908600120FFF7B9FB0C49086000206B
:10300000FFF7B4FB0A49086000F014F8BDE8F0814E
:1030100038280020B82C00203F000000C801002004
:10302000C6010020C4010020D4010020CC010020F2
:10303000D001002000B587B00320002180220A4B78
:10304000CDE90132CDE903104FF6FD700B46074A7A
:1030500000900748FFF7EEFC06AA06A10020FFF744
:1030600047FD07B000BD0000B82A0020B42C0020A6
:10307000F130000875432F4F532D494920546D728C
:103080000000000070B50B46032580F82550012B89
:1030900005D1154EC5693668354445610CE0856932
:1030A0002DB9114EC56936683544456104E00E4EB0
:1030B0008569366835444561057D05F007040B4D8B
:1030C00005EBC4010D682DB908600025C560012518
:1030D0008D8006E00A680860C26010618D886D1CF2
:1030E0008D800025056170BDC8010020B82C00202E
:1030F00008B500BF00BF6A4600211A480068FFF704
:103100005BFBFFF7E3FA18480068401C16490860AB
:103110000846007800F00708144800EBC8073C6830
:103120001AE0E668104960690968884213D12046B0
:1031300000F01EF894F82400022804D10121204652
:10314000FFF7A0FF02E0022084F82500656815B1B2
:103150002046A168A8473446002CE2D1FFF7D6FAF2
:10316000C9E70000D0010020C8010020B82C0020D1
:1031700030B5057D05F007040D4D05EBC4031D6852
:10318000854205D1C168196039B100250D6104E09F
:103190000169C268CA6002B11161012580F8255039
:1031A0000025C56005619D886D1E9D8030BD0000B5
:1031B000B82C00202DE9F04F05460F469046994661
:1031C000A87A19490E5C05F10B00805D11F800B07A
:1031D0000BEBC60000F0FF0A144850F82A4000200C
:1031E0002034E0602760207C20EA0800207484F806
:1031F0001190207C203C00F0080068B994F836005B
:103200000B49097808430A4908700A48805D94F818
:1032100035100843074988552946204600F00CF828
:103220005046BDE8F08F000016830008D022002031
:10323000990100209A01002010B590F8342001F186
:103240000B039B5C90F83540A34301F10B04A3549E
:1032500023469B5C23B98B7A90F83640A3438B724C
:1032600010BD000010B51B4A1268D061194A1268DF
:1032700092F8343000F10B02D25C164B1B6893F8C5
:1032800035301A43134B1B6893F8344000F10B039D
:103290001A55827A0F4B1B6893F836301A438272A4
:1032A0000C4A126892F834100B4A525C094B1B68A6
:1032B00093F835309A43084B5A541A46525C42B937
:1032C000044A126892F83630044A12789A43034B43
:1032D0001A7010BDA80100209A0100209901002059
:1032E000014600228A72002005E0002301F10B0252
:1032F0001354421CD0B20828F7D370472DE9F0418F
:103300005021114800F02CF900250DE0681C86B210
:103310000D4800EB051400EB0617002020706760D5
:103320000AA0E060681C85B2042DEFD3064800EBCC
:10333000051400202070606004A0E0600248044989
:103340000860BDE8F0810000801E00203F00000002
:103350008401002070B5C821114800F001F9002354
:103360000FE0581C85B203EB83000D4901EB80048C
:1033700005EB850001EB8006002020706660581C7C
:1033800083B2092BEDD303EB8300054901EB8004E5
:1033900000202070606008460249086070BD00008F
:1033A000B81D00208001002000200A4908600A4959
:1033B00008700A4908700A4908700A4908700A49E1
:1033C00008600A4908600A4908600A4908600A4911
:1033D00008707047C0010020950100209601002070
:1033E000A3010020A20100207C010020A4010020F4
:1033F000900100208C0100209401002000210A4A45
:103400001170002004E00021084A1154411CC8B288
:103410000828F8D30021064A1170064A1170064A9E
:103420001160064A11607047990100209A0100203E
:103430009701002098010020B0010020A801002081
:1034400070B54FF47C71194800F08AF84FF4807120
:10345000174800F085F8002413E0601CC5B2C4EBE7
:10346000C40000EB4000114901EB8003C5EBC5002F
:1034700000EB400001EB80065E610EA0D864601C8A
:10348000C4B20B2CE9D3C4EBC40000EB40000749E5
:1034900001EB80030020586106A0D8640020064993
:1034A000086002480549086070BD0000D023002074
:1034B000D02200203F000000B4010020AC01002019
:1034C00000B587B00320002180220A4BCDE90132EC
:1034D000CDE903104FF6FF703F23074A00900748DD
:1034E000FFF7A8FA06AA06A13F20FFF701FB07B0E5
:1034F00000BD0000D0200020CC2200209937000819
:1035000075432F4F532D49492049646C65000000D5
:1035100000B587B00320002180220A4BCDE901329B
:10352000CDE903104FF6FE703E23074A009007488E
:10353000FFF780FA06AA06A13E20FFF7D9FA07B0E6
:1035400000BD0000D01E0020CC200020C1370008A4
:1035500075432F4F532D4949205374617400000067
:1035600004E0002200F8012B4A1E91B20029F8D194
:10357000704700002DE9F04178211048FFF7F0FF77
:1035800000240DE0601C86B204EB44000B4901EB03
:10359000C00506EB460001EBC0072F60601C84B23B
:1035A000042CEFD304EB4400044901EBC0050020D8
:1035B0002860084602490860BDE8F081C027002065
:1035C000BC01002010B50024FCF72AFE0446134875
:1035D0000078F8B912480078E0B900F02DF81148E9
:1035E0001149097850F82100104908600E48007808
:1035F0000F49097888420DD00C480068806B401C48
:103600000A49096888630B480068401C094908603A
:10361000FCF71EFE2046FCF707FE10BD95010020BA
:1036200096010020D022002098010020B001002047
:10363000970100207C0100200649074A1278885C27
:103640000649095C034A515C01EBC001044A117050
:103650007047000016830008990100209A0100209D
:10366000980100202DE9F84F05460F4690469946EF
:10367000DDE90AAB00200090FCF7D2FD00903F4846
:103680000468002C74D0183454F8040C3B490860CA
:103690000098FCF7C9FD44F8187CA5760020207638
:1036A0006076606144F814BC44F80CAC44F8108CAB
:1036B0000C9824F8080C24F8069C0020E077E81009
:1036C000207705F00700E076217F01208840A07771
:1036D000E17E01208840607700206060E060A060AB
:1036E0002062A0626062E062206325A06063183CF3
:1036F000002606E0002104F1500040F82610701C5E
:10370000C6B2002EF6D02046FFF742F92046FFF75A
:10371000EDF9FCF785FD00901A4840F825401A485D
:10372000006860610020A0611748006810B1164869
:1037300000688461144804603434A078134909781F
:1037400008431249087020781149085C61780843E1
:1037500014F834190E4A50540E480078401C0D4994
:1037600008700098FCF760FD0020BDE8F88FFFE7C7
:103770000098FCF759FD4220F7E70000AC0100205B
:103780003F000000D0220020B40100209901002059
:103790009A010020A3010020002400BF00BFFCF715
:1037A0003FFD044605480068401C04490860204667
:1037B000FCF73AFDFFF79BF9F1E70000A4010020B8
:1037C000002400BF02E0C820FFF70CFB1948007876
:1037D0000028F8D0184800686421B0FBF1F01649C1
:1037E00008600846006828B9002014490870FF20C6
:1037F000FFF7A2FA00BFFCF713FD0446104800686B
:103800001049086000200E4908602046FCF70CFDB6
:103810000C48006808490968B0FBF1F0C0F1640089
:1038200006490870FFF7F2F900F00EF86420FFF780
:10383000D9FAE0E7940100208C01002088010020E3
:10384000A4010020900100207CB5002514E0694609
:103850002846FFF7DDF9064666B9094850F82540C5
:1038600044B1012C06D0D4E9020100EB8100606470
:103870000198A064681CC5B23F2DE8D97CBD00004A
:10388000D022002002F0010343B102F002032BB169
:1038900002E0491E002308C00029FAD17047000049
:1038A00010B511480068047A022C01D0042C01D113
:1038B000082412E0032C01D0052C05D1FDF79AFC59
:1038C00009480068047A08E0072C05D1074909680F
:1038D000C8688047082400E00824034909680C727E
:1038E00000F01AF810BD0000FC01002000020020CA
:1038F000F0B5561C7510074E06EB41042B4605E04B
:1039000034F8047B20F8017B401C5B1E002BF7D1B0
:10391000F0BD00000060004010B50D4890F82C107C
:10392000002000F043FF0B480068007A082805D10A
:1039300040020949088010200849088005480068AD
:10394000007A092801D1012010BD0020FCE7000009
:103950004C030020FC0100200C0200200E0200207D
:1039600001210B48016000200A4A1080104600889F
:10397000074A10600020121D10604FF4E050054A05
:10398000108010460088024A106000207047000036
:10399000405C00400602002070B50026002400258F
:1039A0003A4806883604001D008806443848B6FBAD
:1039B000F0F438480088A0423AD036490C8040F2F2
:1039C000B2750EE02846FEF732F830B1B4F5B77F95
:1039D00002D3A4F5B77402E006E0A4F26D14681CEB
:1039E00085B2B4F5B67FEDD800BF2B4885800025A1
:1039F00016E029498888FEF71AF830B1012D04D164
:103A00001D2C01D31D3C09E00CE02448405DA04280
:103A100003D82248405D241A00E003E0681C85B208
:103A20001C2CE6D200BF681C1B498871601CC87141
:103A30001748B6FBF0F100FB11644FF46160B4FB72
:103A4000F0F0154908704FF46160B4FBF0F100FB31
:103A500011403C21B0FBF1F00F4948704FF4616018
:103A6000B4FBF0F100FB11403C21B0FBF1F201FB93
:103A70001200094988700B46DA799979988800F024
:103A80000FF805490872002070BD0000182800409A
:103A90008051010032000020E40C00200A8300085D
:103AA000F0B503460C461546642093FBF0F0C6B211
:103AB000642093FBF0F700FB1730C1B2132E02DD38
:103AC00001F16400C1B20846CF1701EB977701EB13
:103AD000A707BAB2072092FBF0F700FB172082B2CB
:103AE0005719601EDFF82CC01CF80000384482B261
:103AF000CF1701EB9777BF10A1EB87071FB9032CF6
:103B000001DA501E82B2072092FBF0F700FB17206B
:103B1000C0B2F0BDFE8200080EB51948008800F062
:103B2000010008B1FFF738FF1548008800F00200D7
:103B3000B8B11348008820F0020011490880FFF74F
:103B40002BFF104880780F4949780E4A1278CDE94A
:103B5000002102900B48C379827981880AA0FCF782
:103B600055FC0748008840F6FA710840044908806F
:103B700000BF0348008800F020000028F9D00EBDE7
:103B800004280040E40C0020416C61726D205469EF
:103B90006D653A25642D25642D25642025643A251C
:103BA000643A25640A0000001CB5002458480088C7
:103BB00045F2500188427DD05648C06940F080509F
:103BC0005449C8610846C06940F00060C861524865
:103BD000006840F48070504908604E48006A40F424
:103BE00080304C4908620846006A20F48030086240
:103BF0000846006A40F00100086204E0601CC4B29C
:103C00000A2002F013FA4348006A00F0020008B9E3
:103C1000FA2CF3DBFA2C01DB01201CBD3D48006AC5
:103C200040F480703B4908620846006A40F4004056
:103C3000086200BF3948008800F020000028F9D051
:103C400000BF3648008800F008000028F9D033484B
:103C5000001F008840F001003049091F088000BFA4
:103C60002E48008800F020000028F9D02B4800885A
:103C700040F01000294908800020091D088047F6FF
:103C8000FF70091D088037200A2116230822CDE97C
:103C90000010032140F2DE7000F04AF81F4800884F
:103CA00020F010001D49088000BF1C48008800F06B
:103CB000200000E009E00028F7D045F25000144948
:103CC000088017A0FCF7A2FB18E000BF134800888B
:103CD00000F008000028F9D01048001F008840F0CC
:103CE00001000E49091F088000BF0C48008800F041
:103CF00020000028F9D00DA0FCF788FB0223032246
:103D000000210846FEF7CAF9FFF746FE002084E7C7
:103D1000046C004000100240007000400428004085
:103D200046495253542054494D450A004F4B0A000E
:103D30002DE9F04F06460F4690469946DDE909AB5E
:103D4000002440F2B270864203DB40F63300864224
:103D500002DD0120BDE8F08F40F2B2750AE028468E
:103D6000FDF765FE10B13048044401E02F480444DB
:103D7000681C85B2B542F2DB781EC7B2002510E0A0
:103D80002B48405D40F2A321484304EBC014304669
:103D9000FDF74DFE18B1012D01D126480444681CE1
:103DA00085B2BD42ECDBA8F1010040F2A3214843FB
:103DB00004EBC014C9EB4910C0EB092004EB00145C
:103DC000CAEB0A1004EB80045C441B48C06940F055
:103DD00080501949C8610846C06940F00060C86158
:103DE0001648006840F48070144908601448008840
:103DF00040F0100012490880114918310C80200C45
:103E0000091F08800E48008820F010000C49088027
:103E100000BF0B48008800F020000028F9D0FFF711
:103E2000BBFD002096E700000085E2018033E10140
:103E30000A83000880510100001002400070004019
:103E4000042800402DE9FC4104460D461646494829
:103E5000007890B9484850F82400A5FB0010474A64
:103E6000C2E90010444850F82400A6FB0010444A60
:103E7000C2E9001001203F4908703E48007801283F
:103E80005CD14048006820BB3B4830F8240080B239
:103E90003D490968CDE9001038480CC82046FDF7B7
:103EA00078FFC7B22FB13948007840F00800374991
:103EB0000870402234480168812001F0D0FD2E486E
:103EC00050F8240040382F490860402030490860ED
:103ED00012E02D4800682E4A126881184022812085
:103EE00001F0BDFD27480068403826490860284891
:103EF00000684030264908604021012000F0C6FCDF
:103F00003021012000F0D0FC1C48D0E900304022D4
:103F10009A1840F100001949C1E900201848D0E979
:103F20000010403960F10000154AC2E9001019483C
:103F30008068403817498860FDF716FF1048D0E9BF
:103F40000010002359405840014310D100200D4972
:103F500008600F4908600021084A11605160032081
:103F60000D490870002003490870FDF7F7FEBDE811
:103F7000FC810000340200201802002038020020DA
:103F800040020020200200203002002035020020E4
:103F90002402002074420020D802002010B52D48D1
:103FA000C06940F002002B49C8610846806940F0B2
:103FB000080088612848006820F00F002649086042
:103FC0000846006840F00800086023480C3000688C
:103FD00040F0010020490C31086042F210701F4986
:103FE00008804720091F08801C481038008840F0CE
:103FF00001001A49103908800846008840F0300056
:104000000880084600880880081D0088091D08806F
:104010000846008840F480700880104820380088E6
:1040200040F008000D49203908800846008840F01B
:104030000100088009482C38008820F00100074959
:104040002C39088002231D2203210120FEF726F8C7
:1040500010BD000000100240000C01402C04004084
:1040600010B50020154B1B7803F040032BB3144B05
:104070001B68190E124B1B68C3F30742D343DBB214
:104080008B420BD151B90E4B1B88C3F307210C4B4C
:104090001A78D343DBB28B4200D1084620B1074BDC
:1040A0001B7803F0800343B9044B1B7823F04003D3
:1040B000024C23700023034C237010BD2800002005
:1040C0002C0000203000002070B50546072D01D0DF
:1040D0002E4805702D48007808284ED2DFE800F001
:1040E00004111A202B384E4F2948006828B900F0D7
:1040F00053F806202549087002E00520234908707E
:1041000041E000F049F804202049087001202049CE
:10411000086038E002201D4948700320087032E032
:104120001A484078401E194948700846407808B936
:104130000420087027E01748006884B244F0100497
:10414000144804600520114908700A2048701AE0DC
:104150000E484078401E0D4948700846407858B9CE
:104160000C48006884B224F010040A480460062059
:10417000087000200649086005E000BF00BF062067
:104180000249087000BF00BF70BD0000DD030020C1
:10419000E0030020405C004010B50748006884B28E
:1041A00024F0040404480460FDF7B8FD4FF43F40D8
:1041B0000149086010BD0000405C00402DE9F0415D
:1041C00004460D4617461E46B8191C4951F82410DE
:1041D000884213D92A2D02D10220FCF795FC002039
:1041E000FCF792FC21220521204600F0ADFB0021C6
:1041F000012000F08BFB0020BDE8F08110488168B1
:10420000104850F824007043814214D02A2D03D165
:104210000220FCF779FC02E00020FCF775FC08495D
:10422000487B2422052100F08FFB0021012000F0B3
:104230006DFB0020E0E70120DEE700001C0200200B
:10424000544200201802002010B504462046FDF715
:1042500091FD68B10749487B3A22022100F074FBC6
:104260000121084600F052FB0020FCF74DFC10BD78
:1042700000BFFCE75442002070B506460C48007CA5
:1042800000F0010010B10B4C05250BE00EB90A4CF3
:1042900000E00A4C0648C07C242802DC0448C57CA7
:1042A00000E024252946204601F04AFA70BD0000AE
:1042B00054420020580200205D02002082020020AB
:1042C00010B504460E48806818B90020FCF71CFCA5
:1042D0000BE00B48007B00F0800018B10020FCF7D9
:1042E00013FC02E00220FCF70FFC0549487B20226A
:1042F000052100F029FB0021012000F007FB10BD83
:104300005442002010B504460821024801F018FA72
:1043100010BD0000AA02002010B504460421024886
:1043200001F00EFA10BD0000A602002070B506468E
:104330000C4615461948007820BB1949487B2B4686
:1043400022462821FFF73AFF00B970BD1448007BD0
:1043500000F0800040B10220104908702A46214632
:104360003046FFF76FFD0CE00220FCF7CDFB0C4957
:10437000487B2422052100F0E7FA0121084600F0DD
:10438000C5FAE2E705480078022804D12A4621460A
:104390003046FFF757FD00BFD7E70000D8020020E6
:1043A0005442002010B504462046FDF7E3FC68B1F6
:1043B0001F49487B3A22022100F0C6FA0121084633
:1043C00000F0A4FA0020FCF79FFB10BD194850F83C
:1043D0002400401E000E18490870164850F82400AA
:1043E000401E000C4870134830F82400401E000A9C
:1043F0008870104810F82400401EC8700F4850F80C
:104400002400000E08710D4850F82400000C48717B
:104410000A4830F82400000A8871084810F824007F
:10442000C8710821044801F08BF900BFCDE70000F6
:10443000544200201C020020C40200201802002068
:1044400010B504462046FDF795FC68B11A49487B33
:104450003A22022100F078FA0121084600F056FACB
:104460000020FCF751FB10BD144850F82400000E4A
:1044700013490871114850F82400000C48710F4886
:1044800030F82400000A88710C4810F82400C87124
:104490000C4850F82400000C48720A4830F82400F8
:1044A000000A8872074810F82400C8720C210448DA
:1044B00001F046F900BFD6E7544200201C0200205C
:1044C000CC0200201802002070B505460648C07CCA
:1044D000122802DC0448C47C00E012242146034870
:1044E00001F02EF970BD000054420020B2020020FD
:1044F00010B504460121002000F008FA10BD0000AC
:1045000010B504462046FDF735FC68B10949487BE3
:104510003A22022100F018FA0121084600F0F6F9CB
:104520000020FCF7F1FA10BD0121002000F0EEF9A7
:1045300000BFF8E75442002010B504460D488068DB
:1045400048B90C48007C00F0040020B9012100208B
:1045500000F0DCF90CE00220FCF7D6FA0549487BB4
:104560002422052100F0F0F90021012000F0CEF90D
:1045700010BD00005442002070B506460C4615469A
:104580001948007820BB1949487B2B4622462A212E
:10459000FFF714FE00B970BD1448007B00F08000E6
:1045A00040B90120104908704FF44051022000F03A
:1045B00023F90CE00020FCF7A7FA0C49487B2422E1
:1045C000052100F0C1F90021012000F09FF9E2E788
:1045D00005480078012804D12A462146304601F0DA
:1045E000E3FB00BFD7E70000D802002054420020C0
:1045F00000B52848806940F00800264988610846CF
:10460000C06940F48040C86123480068C0F31300CB
:104610002149086008460068204908431E4908608F
:104620001D480830006840F460401B4908310860AC
:104630001B4800881A4908800846008840F400702A
:1046400008800846008840F480700880084600888A
:1046500040F004000880084600880880084600886A
:1046600040F0020008800846008840F00100088001
:104670000846008840F03800088008460088088016
:104680000846008840F040000880FF2000F00AF84B
:1046900000BD000000100240040C01400000B0BB4F
:1046A000003800400246002107E0481C81B24FF666
:1046B000FE70814201DD002070470F48008800F045
:1046C00002000028F1D00C48001D0280002107E004
:1046D000481C81B24FF6FE70814201DD0020EBE7FD
:1046E0000548008800F001000028F1D00248001DB4
:1046F0000088C0B2E0E700000838004000F0070082
:10470000084909884FF6C7721140064A11801146C0
:10471000098841EAC00111801146098841F0400131
:1047200011807047003800404FF6F8710140014A8F
:1047300011607047505C004030B501460F4B1A784D
:10474000002014E003060E4C04EB9353D3F8003C16
:1047500048F68F74234048F280042343C4B22343B5
:104760000406074D05EB9454C4F8003C401C9042ED
:10477000E8D341F08003034C236030BD48030020A0
:10478000005000404C5C004010B54A105300054AF0
:10479000126892B202EBC002121D034C44F81230B0
:1047A00010BD0000505C00400060004010B50246A3
:1047B0000F48006880B200EBC200801D0D4C04EB76
:1047C00040033E290BDD481101F01F040CB9441EC3
:1047D000A0B24FF4004444EA80241C6007E0481073
:1047E00001F001040CB1441CA0B284021C6010BD95
:1047F000505C00400060004030B50E4C04EB80037C
:10480000D3F8003C4BF68F7403EA040201F48053A2
:104810000BB182F4805201F400530BB182F40052C8
:1048200042F4004343F08003024D05EB8004C4F8DA
:10483000003C30BD0050004010B50B4B03EB800234
:10484000D2F8002C4BF68F7302EA030181F48051F9
:1048500081F4005141F4004242F08002024C04EB2A
:104860008003C3F8002C10BD0050004010B54A1062
:104870005200044B1B689BB203EBC003024C44F88C
:10488000132010BD505C004000600040044A1268D4
:1048900092B202EBC002921C024B43F81210704716
:1048A000505C00400060004030B50E4C04EB8003CB
:1048B000D3F8003C48F6BF7403EA040201F0100389
:1048C0000BB182F0100201F020030BB182F0200244
:1048D00042F4004343F08003024D05EB8004C4F82A
:1048E000003C30BD0050004010B5074B03EB800288
:1048F000D2F8002C48F68F131A400A43024C04EBFE
:104900008003C3F8002C10BD0050004070B5054670
:104910000C460A480A490860084605730D228120A2
:1049200001F09DF80520074908702CB1042008709B
:1049300030210120FFF7B8FF70BD000055534253EE
:1049400074420020D8020020014B99701A737047FE
:10495000B20200200548406820F480000349486006
:104960000846C06940F40000C8617047001002406A
:1049700038B501242948006880B2001D284931F863
:10498000100080B201EB4000009026480068007AD9
:10499000092832D0009800782249096808700098E8
:1049A000401C0090009800781E49096848700098E3
:1049B000401C0090009800EB44000090009931F8F2
:1049C000020B0091FCF7C0F816490968488000986E
:1049D00000EB44000090009931F8020B0091FCF7C5
:1049E000B3F8104909688880009800EB44000090F3
:1049F000009800880B490968C880012009490968A6
:104A0000087208480068C08810B9FDF779FC01E019
:104A1000FCF74EFCFEF780FF38BD0000505C004004
:104A200000600040FC0100202DE9F0475448006878
:104A3000007800F07F08B8F1000F0AD150480068F4
:104A4000407A00F0DF004E49096848720020BDE856
:104A5000F087B8F1020F7CD149480068408818B946
:104A600047480068007908B10220F0E7DFF81491A8
:104A700043480068477927F080052C464048006885
:104A8000407900F0800038B13F4901EB8400D0F854
:104A9000000C00F0300606E03B4901EB8400D0F842
:104AA000000C00F4405699F80000A84204D91EB149
:104AB00033480068807A08B90220C8E707F0800010
:104AC00080B1314901EB8400D0F8000C00F03000D7
:104AD00010284BD1E0B2FCF7FFFAE0B23021FFF72B
:104AE000E3FE43E0284901EB8400D0F8000C00F419
:104AF0004050B0F5805F39D1E4B9244A92F82C10C7
:104B0000E0B2FFF753FE204A02EB8401D1F8001C0B
:104B10004BF68F7201EA020080F4805080F400505E
:104B200040F4004141F08001174B03EB8402C2F8CE
:104B3000001C1BE0E0B2FCF7B5FA134A02EB84015B
:104B4000D1F8001C4BF68F7201EA020080F480500D
:104B500000E011E080F4005040F4004141F0800199
:104B6000094B03EB8402C2F8001C00BF0849096826
:104B70004869804700206AE700BF022067E700001D
:104B8000FC01002048030020005000404C0300209E
:104B90000802002010B504462CB901200649096816
:104BA0000882002010BD054909680868804702484E
:104BB00000680A30F6E70000FC010020080200202F
:104BC00010B5024606480068438A32B98888C01A80
:104BD000034C24682082002010BD08681844FBE7BD
:104BE000FC01002010B504462CB9012006490968D3
:104BF0000882002010BD054909688868804702487E
:104C000000680C30F6E70000FC01002008020020DC
:104C100010B504462CB902203949096808820020E1
:104C200010BD00203749088035480068007800F042
:104C30007F0018BB32490968487A00F0200131B181
:104C40003049097841F002012E4A117005E02D49E2
:104C5000097801F0FD012B4A117000F0400131B1DB
:104C60002849097841F00101264A117005E02549DB
:104C7000097801F0FE01234A11703AE020480068EB
:104C8000007800F07F00012801D11E48C8E71C48C9
:104C90000068007800F07F00022828D1184A1268C6
:104CA000517901F00F0001F080027AB1164B03EB4D
:104CB0008002D2F8002C02F03002102A16D1114ADC
:104CC000127842F001020F4B1A700FE00E4B03EB0B
:104CD0008002D2F8002C02F44052B2F5805F05D178
:104CE000084A127842F00102064B1A7001E00020D7
:104CF00096E70649096808698047024890E700007E
:104D0000FC010020F40100200050004008020020B7
:104D100010B50E480068C0780D494978884213DC08
:104D20000A480068807878B908480068808858B9CF
:104D300006480068C078054909688872054909680D
:104D400048688047002010BD0220FCE7FC010020DD
:104D5000480300200802002010B507480068407A88
:104D600040F0200004490968487204490968C8698C
:104D70008047002010BD0000FC0100200802002038
:104D80002DE9F0412E480068467926F080073C4620
:104D90002B480068407900F0800038B1294901EBC8
:104DA0008400D0F8000C00F0300506E0254901EB46
:104DB0008400D0F8000C00F4405523480078A0424D
:104DC00008D91F480068408820B91DB11C480068F8
:104DD000807A10B90220BDE8F08106F08000A0B111
:104DE000184A02EB8401D1F8001C48F6BF7201EAB0
:104DF000020080F0100040F4004141F08001114BAE
:104E000003EB8402C2F8001C14E00E4A02EB84019A
:104E1000D1F8001C4BF68F7201EA020080F480503A
:104E200040F4004141F08001064B03EB8402C2F8DC
:104E3000001C00BF05490968886980470020CAE74F
:104E4000FC01002000500040480300200802002020
:104E500010B5174B1B68D978154B1B685879154B43
:104E60001B689A699047044611480068807AE8B147
:104E70003CB90F480068007918B90D48006880787F
:104E800008B1022010BD8CB90B490968C868804779
:104E900007480068407906490968C87204480068F4
:104EA000C0780349096808730020EBE70220E9E7AE
:104EB000FC010020000200200802002030B504465A
:104EC0000025FDF7B7F81F48006840F480301D4901
:104ED000086000BF1B480068400C0028FAD04FF45F
:104EE000806018494860A01EC4B20846406840EA85
:104EF000844048600846406840F48030486012486A
:104F0000006840F03200104908600E48006840F028
:104F100080700C49086000BF0A480068400E0028F5
:104F2000FAD00848406840F002000649486005E0B1
:104F300004484068C0F3870505F00305022DF7D14A
:104F400030BD0000001002400020024010B50848AB
:104F5000006884B244F0080405480460006884B224
:104F600044F0040402480460FCF7F6FA10BD0000A7
:104F7000405C004010B505480078012805D1FDF7D8
:104F80007BFAFDF76BFFFDF789FA10BDA201002047
:104F900010B54FF08040008A00F0010000287BD05F
:104FA000F7480088401C80B2F5490880FA2809D1EA
:104FB00000200880F348006808B9012000E00020C4
:104FC000F0490860F0480078022851D1EF48007895
:104FD00008284CD2DFE800F0040E1A1F291B353FC9
:104FE000EB4800780A2190FBF1F0EA49085CEA49B5
:104FF00008703CE0E64800780A2190FBF1F201FBE2
:105000001200E449085CE449087030E000BF022067
:10501000E14908702BE0DE4840780A2190FBF1F06E
:10502000DC49085CDC49087021E0D94840780A2155
:1050300090FBF1F201FB1200D649085CD6490870DA
:1050400015E0D34880780A2190FBF1F0D149085C43
:10505000D14908700BE0CE4880780A2190FBF1F22C
:1050600001FB1200CB49085CCB49087000BFF4E19A
:10507000C5480078032875D1C848007868282FD023
:1050800019DC38286FD00DDC182855D005DC022833
:105090006AD010282ED168E005E2222870D030288E
:1050A000F8D13EE042286CD052286BD05A2878D0F4
:1050B0006228EFD1A4E0A82871D008DC7A2846D075
:1050C00090286DD0982816D0A228E3D18CE0B02883
:1050D0001CD0C22870D0E0286FD0E228DAD19BE043
:1050E0000020AF490870AB484078AE4908700020F6
:1050F000AD490860E4E00020A9490870A54880781F
:10510000A84908700020A8490860D9E00020A449F7
:105110000870A048C078A34908700020A249086020
:10512000CEE000209E4908709A4800799D49087099
:1051300000209D490860C3E0002099490870954807
:10514000407998490870002097490860B8E000202D
:10515000934908708F4880799249087000209249DD
:105160000860ADE0D6E00FE06EE000208C490870EA
:105170008848C0798B49087000208B4908609FE0FF
:1051800056E01BE025E00CE00020854908708148CE
:10519000007A8449087000208349086090E077E035
:1051A00082E000207E4908707A48407A7D49087084
:1051B00000207D49086083E052E05DE000207849EE
:1051C00008707448007877490870002076490860B4
:1051D00076E00020724908706E48407C7149087082
:1051E0000020714908606BE06A4840786C4908709B
:1051F000684800786B49087000206B4908605FE0E0
:10520000644840786649087062484078654908708B
:1052100000206549086053E05E48407860490870A6
:105220005C4880785F49087000205F49086047E06B
:10523000584840785A4908705648C078594908700B
:105240000020594908603BE05248407854490870B2
:1052500050480079534908700020534908602FE0F6
:105260004C4840784E4908704A4840794D4908708A
:1052700000204D49086023E04648407848490870BE
:10528000444880794749087000204749086017E082
:1052900040484078424908703E48C079414908700A
:1052A0000020414908600BE03A4840783C490870CA
:1052B0003848007A3B49087000203B49086000BF2D
:1052C00000BF3648007810B90120374908602F48E0
:1052D000007808281DD2DFE800F0040506071C1C32
:1052E0000B1700BF00BF00BFFF202B49087010E064
:1052F0002B48007820B12A4800782749087002E03E
:1053000000202549087004E02648007822490870EA
:1053100000BFA2E01C480078042870D11B48007828
:10532000082818D2DFE800F00418485F6C7079860E
:105330001E480088B0F57A7F0ADD1C4800884FF4CB
:105340007A7190FBF1F01349085C1349087002E090
:105350000020114908707FE014480088642827DD88
:10536000124800884FF47A7190FBF1F201FB1200B1
:10537000642190FBF1F00749085C074908701AE0C6
:105380002400002080012242040000201800002098
:10539000E40C002005000020170000201900002068
:1053A0001A0000201B000020A08121421C000020C8
:1053B0000020414908704FE0404800880A280EDD6F
:1053C0003E480088642190FBF1F201FB12000A21A3
:1053D00090FBF1F03A49085C3749087002E0002080
:1053E0003549087038E0354800880A2190FBF1F211
:1053F00001FB12003249085C2F4908702CE02CE0B8
:1054000000202D49087027E02D482E490988405C6E
:1054100040F00100284908701EE02B48006802F0A7
:10542000EFFD80B2642190FBF1F02549085C224930
:10543000087011E02448006802F0E2FD80B26421A7
:1054400090FBF1F201FB12000A2190FBF1F01C49E4
:10545000085C1949087000BF00BF1C48007801288B
:1054600021DD1A48007805281DDA1948017812480C
:105470000078FCF731FCFCF7C5FB15480078401CB0
:105480001349087011480078032805D108460078B0
:10549000042801D1062008700D480078072802DD95
:1054A00000200B4908704FF08040008A20F0010076
:1054B0004FF08041088210BD170000201C00002022
:1054C000050000201E000020200000200400002015
:1054D0001800002070B505460C460D48C06940F024
:1054E00001000B49C861880485850485808940F0E6
:1054F0000100890488810846008820F001000880A6
:1055000002231C2200210846FCF7C8FD70BD0000E4
:10551000001002406149088800F00101F9B16049BA
:10552000097801F08001D1B15D49097821F01001BD
:105530005B4A11701146097801F00F0121B911463B
:10554000097841F0400111705549097801F00F01C7
:105550000E2905DA52490978491C514A11700AE0AE
:105560004F49097821F080014D4A117011460978A0
:1055700001F0F001117000F00801002913D0494931
:10558000096889B145491031098841F40071434ADD
:10559000103211800021121D11804149097841F01B
:1055A00010013F4A117074E03C492C3109883E4A91
:1055B00011803A491031098821F40071374A1032BC
:1055C00011803749097801F0100100295BD0344976
:1055D000097801F08001E9B333490988B1F5967F74
:1055E0000DDD31490988B1F5487F08DA2F4909688E
:1055F00049002E4A116011460968116043E02A49AA
:105600000988B1F5AF6F0FDD27490988B1F5E16F62
:105610000ADA264909684900244A116011460968D6
:1056200041F0010111602EE01F49098840F69802FF
:10563000914228DD1C49098840F62822914222DA4D
:105640001B490978491C1A4A11701549097801F05B
:10565000F00100E002E0124A117014E012490988DA
:1056600041F2680291420EDD0F49098841F25C2245
:10567000914208DA0A49097841F08001084A11701C
:1056800000210B4A11700649097821F01001044AE3
:1056900011700021014A1180704700001004004081
:1056A00028000020008121422A0000202C00002038
:1056B0003000002010B50C48008800F0010058B1FF
:1056C0000A490869804700200749143108804FF4CF
:1056D0007A7005491C3108800348008820F00100D9
:1056E0000149088010BD000010080040880000201B
:1056F00070B505460C461048C06940F004000E49DC
:10570000C8610E480580001F04800C4820380088BE
:1057100040F0010009492039088008482C380088E9
:1057200040F0010005492C39088002231E22032184
:105730000846FCF7B3FC70BD001002402C08004086
:1057400070B505460C4622462946812000F087F9AF
:1057500030210120FFF7A8F803200549087005480B
:105760008068001B034988600020087370BD00003A
:10577000D80200207442002010B5FCF77DFE1E48C0
:10578000008800F0200010B31B48001D0088C4B240
:105790001A48008800F40040C8B91848008800F48E
:1057A000804060B10A2C03D000201449088020E01A
:1057B0001248008840F400401049088019E00D2C80
:1057C00006D10E48008840F480400C49088010E063
:1057D0000A480088C0F30D0009490C5407480088A6
:1057E000401C0649088008460088C72801DD0020C3
:1057F0000880FCF753FE10BD003801404000002037
:10580000EE1C00200348006840F480200149086035
:10581000704700001404014010B5084808490860AA
:1058200002200968087207480749086007480849C4
:105830000860054909680868804710BD38420020A3
:10584000FC0100204C030020000200207C0300200B
:105850000802002010B50D48006840F480200B4974
:1058600008600A480830006840F480200749083181
:1058700008600223142200210120FCF70FFC022300
:105880002A2200210846FCF709FC10BD0004014053
:1058900010B537480068374908800846008800F48A
:1058A000004035490988084008B1FBF7B7FA31488C
:1058B000008800F4806030490988084030B14FF614
:1058C000FF302B4908602D494868804729480088E7
:1058D00000F4005028490988084018B14DF6FF70BF
:1058E000234908602348008800F480502249098831
:1058F000084030B14EF6FF701D4908600020FEF7E9
:10590000E3FB1C48008800F400601B49098808403C
:1059100060B11B48007810B1FFF718FB02E00220CD
:10592000FEF7D2FB4FF2FF70114908601148008862
:1059300000F4007010490988084040B14FF6FF504C
:105940000B4908600F480078401C0E490870094850
:10595000008800F4807008490988084030B14FF68B
:10596000FF60034908600720FEF7AEFB10BD000092
:10597000445C004008030020060200204C03002085
:10598000DC0300200A03002010B5FFF781FF10BDE3
:1059900010B502A0FAF73AFD10BD000055534220A1
:1059A0004E6F74436F6E666967757265640D0A00A9
:1059B0001249896941F00401104A916138B11049D6
:1059C000096889B221F002010D4A116014E00C4906
:1059D000096889B241F00201094A11600949096860
:1059E00021F47F21074A11601146096841F44C31C6
:1059F00011600021044A116070470000001002404D
:105A0000405C004004080140B001214200200649EA
:105A100008604FF43F400549088008460088024965
:105A2000091F086000207047445C00400602002007
:105A30002DE9F04104460E46002504F07F00FBF7F7
:105A4000B3FD054604F07F00FBF79EFD07462A469E
:105A500039463046FDF74CFF2846BDE8F0812DE978
:105A6000F04104460E46154604F07F00FBF7BAFDF0
:105A70000746AAB23946304600F008F8A9B204F049
:105A80007F00FEF703FF0020BDE8F081F0B514466B
:105A900004F1010C4FEA6C07DFF824C00CEB410362
:105AA0003D460AE00678401C90F800C046EA0C2209
:105AB00023F8022B9B1C401C6D1E002DF2D1F0BD63
:105AC0000060004010B50446240300F00FF900F018
:105AD000A9F800200B4908602020FEF7E3FDC4F37D
