:020000040800F2
:10000000680E0020810200088502000887020008AF
:10001000890200088B0200088D0200080000000021
:100020000000000000000000000000008F02000837
:1000300091020008000000009302000895020008E9
:10004000970200089702000897020008970200082C
:10005000970200089702000897020008970200081C
:10006000970200089702000897020008970200080C
:1000700097020008970200089702000897020008FC
:1000800097020008970200089702000897020008EC
:100090009B210008970200089702000897020008B9
:1000A00097020008970200089702000897020008CC
:1000B00097020008970200089702000897020008BC
:1000C00097020008970200089702000897020008AC
:1000D000970200087D0800089702000897020008B0
:1000E00097020008970200088D21000800F002F82E
:1000F00000F0B0F80AA090E8000C82448344AAF112
:100100000107DA4501D100F0A5F8AFF2090EBAE80F
:100110000F0013F0010F18BFFB1A43F0010318473B
:10012000E0470000004800000A444FF0000C10F8BF
:10013000013B13F0070408BF10F8014B1D1108BF65
:1001400010F8015B641E05D010F8016B641E01F805
:10015000016BF9D113F0080F1EBF10F8014BAD1C55
:100160000C1B09D16D1E58BF01F801CBFAD505E073
:1001700014F8016B01F8016B6D1EF9D59142D6D3CD
:10018000704700000023002400250026103A28BFF5
:1001900078C1FBD8520728BF30C148BF0B607047F9
:1001A0006E2902F01187702903F06580662904F03A
:1001B000E282652904F0DF82672904F0DC8261298C
:1001C000AFF3008003681B0A28BF41F08001692952
:1001D00002F01C85642902F01985752902F0168544
:1001E0006F2902F0F287782903F03180E92902F0C3
:1001F0008D87E42902F08A87F52902F08787EF29A5
:1002000002F0EF87F82903F030800368DB0928BF8C
:1002100041F08001632903F09582732903F09A82EB
:10022000E32903F0A582F32903F0AA820020704796
:100230001FB503F0FBFA04000020002103F0E2FFE9
:10024000401C60600020002103F0C6FFE0601FBD7D
:1002500010B510BD03F0BCFA1146FFF7E9FF00F03E
:100260002BF803F095FB03B4FFF7F2FF03BC00F09B
:10027000F7FA000030BF72B662B680F308887047A4
:1002800008480047FEE7FEE7FEE7FEE7FEE7FEE779
:10029000FEE7FEE7FEE7FEE703480449044A054B94
:1002A00070470000ED00000868080020680E00207C
:1002B000680A0020680A002000240027092000F0B6
:1002C00076FA482000F016F94FF4E131482000F0AA
:1002D00010FB00F0F5F83FA002F08CFC41A002F00A
:1002E00089FC47A002F086FC4FF4E16000F03AF987
:1002F000002001F0A2FF4FF42F7000F033F901202D
:1003000001F09BFF01F04DFF01F06EFF01F010F9CD
:100310005EE040480068874211D03E480068C7B29E
:10032000052F06D13CA002F065FC00203E49086084
:1003300005E03EA002F05EFC01203B490860404819
:10034000008800F40040C0B13D480088C0F30D06AD
:1003500031463CA002F03AF8002505E03F49485DEF
:1003600002F01FF8681C85B2B542F7DB3CA002F032
:100370002DF80020324908802AE0601C84B241F246
:10038000883094FBF0F100FB114028B936A002F050
:100390001DF83EA002F01AF8C82094FBF0F100FB13
:1003A000114010B93FA002F011F81E2094FBF0F1AB
:1003B00000FB114048B91C48001F006808B9012023
:1003C00000E000201849091F08600A2000F0CAF860
:1003D0009FE700004E414E4F2053544D33320D0ADB
:1003E00000000000555342205669727475616C20FC
:1003F000555341525420544553540D0A00000000F7
:1004000055534220436F6E6E656374696E672E2E7E
:100410002E0D0A002001002055534220436F6E6EBE
:1004200065637465640D0A008401224255534220BD
:10043000646973436F6E6E65637465640D0A0000D2
:10044000280000200D0AC4FAB7A2CBCDB5C4CFFB5B
:10045000CFA2CEAA3A25640D0A0D0A00DC060020C0
:100460000D0A0D0A000000000D0A4E414E4F2053A8
:10047000544D3332BFAAB7A2B0E5555342D0E9C4B8
:10048000E2B4AEBFDACAB5D1E90D0A00D5FDB5E3D5
:10049000D4ADD7D340414C49454E54454B0D0A0D80
:1004A0000A000000C7EBCAE4C8EBCAFDBEDD2CD2CF
:1004B000D4BBD8B3B5BCFCBDE1CAF80D0A0000003E
:1004C0000A48806940F010000849886108480068BF
:1004D0000020074908600846006840F03330086093
:1004E0000846C06840F0FF00C86070470010024036
:1004F000001001404FF0E021096921F004014FF0A4
:10050000E0221161C21700EB5272C2F3C702234B03
:100510001A701946097801EB4102C2EBC1114FF67E
:10052000FF7202EAC1011E4A1180704701461B4A50
:1005300012784A434FF0E0235A6100229A61012267
:100540001A6100BF4FF0E022106900F001021AB1F9
:1005500000F48032002AF5D000224FF0E0231A6127
:100560009A61704701460E4A12884A434FF0E023D1
:100570005A6100229A6101221A6100BF4FF0E02205
:10058000106900F001021AB100F48032002AF5D09F
:1005900000224FF0E0231A619A61704700000020AA
:1005A00002000020A34A0A400243A34B1A6070478E
:1005B0000146072323EA010212029F4B1B1D186804
:1005C0004FF6FF0318409D4B184310439A4B1B1DD9
:1005D000186070472DE9F0410746884614461D46CD
:1005E0002846FFF7E5FFC5F1040007FA00F60F20E3
:1005F000284100EA0800064306F00F06E21704EB64
:10060000D2625211920002F1E022D2F8002121467A
:10061000E31704EBD3635B11A4EB431C012303FA40
:100620000CF31A432046E31704EBD3635B119B00E2
:1006300003F1E023C3F800218148005D40EA061081
:100640007F490855BDE8F08170B504460B46CE17CA
:1006500001EB9676C6F38700CE1701EB9676B610BF
:10066000A1EB8606B606350E764B9B6943F0010377
:10067000744EB3614FEAB63353F820300F26AE40C4
:10068000B343714E46F82030334653F8203004FA15
:1006900005F61E436C4B43F820606C4B1B6801262B
:1006A0008E403343694E336002F0010343B1674B20
:1006B0000C331B6801268E403343644E0C36336086
:1006C00002F0020343B1614B08331E6801238B40E3
:1006D0001E435E4B08331E6070BD00B500205949B3
:1006E0000861C8601420486100208861C86108461C
:1006F000006840F00100086008464068544908401E
:100700005049486008460068524908404D49086011
:100710000846006820F4802008600846406820F4FD
:10072000FE0048600020886000214FF00060FFF765
:1007300039FF00BD10B540480830006840F00400A3
:100740003D49083108603F48C06940F080503D494C
:10075000C8614148406840F480703F49486008469D
:10076000006840F0040008600846006840F002009D
:100770000860FFF77FFD10BD3048001D2E49091DA0
:1007800008607047014649062E4A926942F001020C
:100790002C4B9A612C4A083A526822F0E0622A4BAC
:1007A000083B5A601A4652680A435A60704730B58F
:1007B00004460025FFF791FF2248006840F480308E
:1007C0002049086000BF1F480068400C0028FAD08C
:1007D0004FF480601B494860A01EC4B208464068C0
:1007E00040EA844048600846406840F480304860F1
:1007F0001A48006840F03200184908601148006843
:1008000040F080700F49086000BF0E480068400E3D
:100810000028FAD00B48406840F0020009494860BF
:1008200005E008484068C0F3870505F00305022D80
:10083000F7D130BD80FFFF1F08ED00E00000FA0592
:1008400000E400E000100240080001400004014004
:100850000000FFF8FFFFF6FE00700040002002409D
:1008600000BF704700BF584A128802F04002002AB9
:10087000F9D0C2B2544B1B1D1A80704752490988E7
:1008800001F0200111B35049091D0988C8B24F4930
:10089000098801F40041C9B94C49098801F4804133
:1008A00061B10A2803D00021484A118020E047495D
:1008B000098841F40041454A118019E00D2806D10C
:1008C0004249098841F48041404A118010E03F4983
:1008D0000988C1F30D013E4A50543C490988491C1E
:1008E0003A4A118011460988C72901DD002111808B
:1008F00070472DE9F05F05460E46300103F0DCFD40
:100900008146344905FB01F003F0D6FD8246494695
:1009100003F0F0FC0746384603F0AEFD84B22046F3
:1009200003F0CAFD8346394603F0A6FE82464FF027
:10093000834103F0D5FD814603F09EFD80464FF6CE
:10094000FF7000EA041404EB080084B222488069B6
:1009500040F00400204988610846806940F48040E6
:1009600088611E48006820F47F601C4908600846C2
:10097000006840F40B6008601748C06840F480408D
:100980001549C8600846C06820F48040C8600E4819
:1009900008300480001D008842F20C0108430A4917
:1009A0000C3108800846008840F4807008800846B2
:1009B000008840F0200008800223252203210846F9
:1009C000FFF708FEBDE8F09F003801400800002056
:1009D0002C01002040420F0000100240040801409A
:1009E00010B504462CB90120F64909680882002098
:1009F00010BDF549096808688047F24800680A3068
:100A0000F6E710B5EF480068C078F04949788842A9
:100A100013DCEC480068807878B9EA480068808880
:100A200058B9E8480068C078E64909688872E6491C
:100A3000096848688047002010BD0220FCE710B517
:100A400004462CB90120DF4909680882002010BD46
:100A5000DD49096888688047DA4800680C30F6E7A5
:100A600010B5D84B1B68D978D64B1B685879D84B32
:100A70001B689A6990470446D2480068807AE8B1BA
:100A80003CB9D0480068007918B9CE480068807831
:100A900008B1022010BD8CB9CB490968C8688047ED
:100AA000C84800684079C7490968C872C5480068E5
:100AB000C078C449096808730020EBE70220E9E721
:100AC00010B504462CB90220BE49096808820020EE
:100AD00010BD0020BF490880BA480068007800F0C7
:100AE0007F0018BBB7490968487A00F0200131B18E
:100AF000B849097841F00201B64A117005E0B549DC
:100B0000097801F0FD01B34A117000F0400131B1E4
:100B1000B049097841F00101AE4A117005E0AD49D4
:100B2000097801F0FE01AB4A11703AE0A54800686F
:100B3000007800F07F00012801D1A648C8E7A1484D
:100B40000068007800F07F00022828D19D4A1268D2
:100B5000517901F00F0001F080027AB19E4B03EB56
:100B60008002D2F8002C02F03002102A16D1994AE5
:100B7000127842F00102974B1A700FE0964B03EB8C
:100B80008002D2F8002C02F44052B2F5805F05D109
:100B9000904A127842F001028E4B1A7001E0002058
:100BA00096E789490968086980478A4890E72DE9EE
:100BB000F04784480068007800F07F08B8F1000F23
:100BC0000AD180480068407A00F0DF007D4909685A
:100BD00048720020BDE8F087B8F1020F7ED1794855
:100BE0000068408818B977480068007908B1022089
:100BF000F0E7DFF8D89173480068477927F080055F
:100C00002C4670480068407900F0800038B1724985
:100C100001EB8400D0F8000C00F0300606E06E49CD
:100C200001EB8400D0F8000C00F4405699F8000065
:100C3000A84204D91EB163480068807A08B902202E
:100C4000C8E707F0800080B1634901EB8400D0F869
:100C5000000C00F0300010284BD1E0B201F01DF87C
:100C6000E0B2302100F09FFE43E05B4901EB8400DD
:100C7000D0F8000C00F44050B0F5805F39D1E4B9F1
:100C8000564A92F82C10E0B201F091F8524A02EB69
:100C90008401D1F8001C4BF68F7201EA020080F447
:100CA000805080F4005040F4004141F080014A4BF4
:100CB00003EB8402C2F8001C1BE0E0B200F0D5FF99
:100CC000454A02EB8401D1F8001C4BF68F7201EA11
:100CD000020080F4805080F4005000E00FE040F407
:100CE000004141F080013C4B03EB8402C2F8001C40
:100CF00000BF354909684869804700206AE700BF9E
:100D0000022067E72DE9F0412E480068467926F079
:100D100080073C462B480068407900F0800038B1DD
:100D20002D4901EB8400D0F8000C00F0300506E0FE
:100D3000294901EB8400D0F8000C00F44055234809
:100D40000078A04208D91F480068408820B91DB12A
:100D50001C480068807A10B90220BDE8F08106F0D6
:100D60008000A0B11C4A02EB8401D1F8001C48F6B7
:100D7000BF7201EA020080F0100040F4004141F02F
:100D80008001154B03EB8402C2F8001C14E0124AE8
:100D900002EB8401D1F8001C4BF68F7201EA0200CD
:100DA00080F4805040F4004141F080010A4B03EB95
:100DB0008402C2F8001C00BF0349096888698047A3
:100DC0000020CAE714000020200000209800002026
:100DD000180000200A000020005000409C00002065
:100DE00010B5F7480068407A40F02000F4490968DF
:100DF0004872F4490968C8698047002010BD10B5E1
:100E00000246EF480068438A32B98888C01AEC4C21
:100E100024682082002010BD08681844FBE72DE9F3
:100E2000F041E748006800F110042688A068C0B1CE
:100E3000BEB1A588B54200D93546A8B2A168884799
:100E400007462088401B208060882844608000205E
:100E500000F07FFF8046AAB24146384600F03EFDD2
:100E600000BF208850B14FF44050D749088000217E
:100E7000084600F07AFF3020D44908802088A188F5
:100E8000884204DB0320CE490968087218E02088F4
:100E9000002804DD0520CA490968087210E020888E
:100EA00070B90620C649096808720021C848006860
:100EB00080B2801CC74A42F810103020C349088015
:100EC000BDE8F0812DE9F047BD48006800F110054C
:100ED0002E88BB480068077AD6B9042F18D1BE48BF
:100EE000007801280FD10021B948006880B2801C29
:100EF000B84A42F810103020B449088000BF0020E2
:100F0000B549087003E007271020B049088027E0A2
:100F1000AC88A64201D8042000E002200746B44273
:100F200000D93446A0B2A96888478046002000F066
:100F300005FF8146A2B24946404600F0B5FCA1B289
:100F4000002000F012FF2888001B288068882044B9
:100F5000688030209D49088000029B49088000BFBE
:100F6000974909680F72BDE8F08770B5022694486A
:100F70000068447892480068007800F07F000028FC
:100F800044D1092C03D1FFF73CFD06465FE0052C58
:100F900014D18B480068C0787F280BDC8848006833
:100FA000807838B986480068808818B98448006815
:100FB000807A08B1082565E0002648E0032C0ED1B0
:100FC0007F480068C078012807D17D480068808884
:100FD00018B9FFF705FF064639E0022637E0012C75
:100FE00035D177480068C07801280DD17448006871
:100FF000808848B972480068407A00F0200018B133
:10100000FFF7D5FD064622E0022620E06C48006886
:10101000007800F07F00012805D10B2C17D1FFF7D5
:101020001FFD064613E066480068007800F07F0068
:1010300002280BD1012C03D1FFF7B9FD064606E0CB
:10104000032C04D1FFF75EFE064600E002264EB1F7
:10105000E0B2624A1268516988470646032E01D100
:1010600009250FE00EB108250CE00625002158489F
:10107000006880B2801C574A42F810103020534953
:10108000088000BF4E4909680D7270BD2DE9F84F08
:101090004B48006845780027BA46062D1BD14848C2
:1010A0000068007800F07F00002813D144490968E7
:1010B0008878012803D149490968CF690AE00228E4
:1010C00003D1464909680F6A04E0032802D1434965
:1010D00009684F6AADE0002D67D139480068408843
:1010E000002862D136480068C08802285DD13448A3
:1010F00000680079002858D131480068007800F075
:101100007F0030B92E480068808810B9AFF24F6771
:101110008FE02B480068007800F07F00012811D193
:101120002749096848792D4909688A69002190474B
:1011300000287ED122480068807A002879D0AFF25A
:101140007F6776E01E480068007800F07F00022884
:101150006FD11B480068407900F00F0618480068FE
:10116000407900F0700916480068407900F080006E
:1011700038B11B4901EB8600D0F8000C00F03008B4
:1011800006E0174901EB8600D0F8000C00F4405847
:1011900014480078B0424CD9B9F1000F49D1B8F1E8
:1011A000000F46D0AFF2E76743E0082D1CD104489A
:1011B0000068007800F07F00D8BBAFF2DB7738E042
:1011C0001400002020000020240000202600002021
:1011D000505C0040006000400C000020180000201F
:1011E00000500040980000200A2D22D1C548006818
:1011F000007800F07F0001281BD1C2480068807A87
:10120000B8B1C0480068408898B9BE480068007905
:1012100078B9BC480068C08801280AD1B949096872
:101220004879B94909688A690021904708B9AFF23D
:10123000F17757B1B3480068A0F812A0B148006830
:1012400087610020B84700240FE0AE4A126850784A
:10125000AD4A1268116988470446032C05D109205C
:10126000A84909680872BDE8F88FA6480068008A96
:101270004FF6FF71884204D10920A249096808721B
:10128000F1E7022C03D09F480068008A20B90820AB
:101290009C4909680872E6E79A480068007800F0FF
:1012A0008000E0B397480068C088009095480068C7
:1012B000008A0099884204D99249009809680882F6
:1012C00023E090480068008A8E490968C9888842EE
:1012D0001BDA8C480068008A8B49096891F82C1049
:1012E000884203DA0020894908700EE085480068CA
:1012F000008A8549096891F82C1090FBF1F201FBF6
:10130000120010B90120814908707F48006890F8E8
:101310002C107C4800688182FFF7D4FD07E0FFE7CE
:10132000032078490968087200037949088000BFE2
:1013300099E710B5774890F82C10002000F037FDA1
:1013400070480068007A082805D14002704908807A
:101350001020714908806B480068007A092801D183
:10136000012010BD0020FCE738B501246B4800685F
:1013700080B2001D6A4931F8100080B201EB4000D4
:10138000009060480068007A092832D00098007800
:101390005C49096808700098401C0090009800782B
:1013A0005849096848700098401C0090009800EB6C
:1013B00044000090009931F8020B009100F0A0FE6B
:1013C000504909684880009800EB4400009000995B
:1013D00031F8020B009100F093FE4A4909688880B9
:1013E000009800EB44000090009800884549096887
:1013F000C880012043490968087242480068C088D3
:1014000010B9FFF7B2FD01E0FFF740FEFFF791FFD3
:1014100038BD30B50146434B1A78002014E003066E
:10142000414C04EB9353D3F8003C48F68F742340AF
:1014300048F280042343C4B2234304063A4D05EB2B
:101440009454C4F8003C401C9042E8D341F080031F
:10145000324C241F236030BD10B52A480068047A3E
:10146000022C01D0042C05D1FFF72CFD2548006883
:10147000047A1CE0062C19D122480068407805281F
:101480000ED120480068007800F07F0040B91D4967
:101490000968C878FFF7BDFF24490968086A8047D2
:1014A0001949096888688047082400E0082415491C
:1014B00009680C72FFF73DFF10BD10B511480068B8
:1014C000047A022C01D0042C01D1082412E0032C50
:1014D00001D0052C05D1FFF7A2FC0A480068047A68
:1014E00008E0072C05D108490968C8688047082426
:1014F00000E00824034909680C72FFF71AFF10BDC9
:101500007047000014000020180000200C0000208C
:10151000240000209C00002026000020505C004099
:101520000060004098000020005000402000002093
:1015300010B5084808490860022009680872074881
:1015400007490860074808490860054909680868AC
:10155000804710BDF4010020140000209C000020F2
:1015600018000020CC0000202000002008B500203A
:10157000009022E1C448008800F00F00C3490870C1
:101580000846007800287CD1C1480068C14908801D
:101590000846008800F03000BF490880BD48008838
:1015A00000F44050BB490880B94909684BF6BF7246
:1015B00001EA020080F4005080F0200040F4004175
:1015C00041F08001B24A1160AF48008800F010007D
:1015D00090BB1046006848F60F710840114608603D
:1015E000FFF73AFFAA4909684BF6BF7201EA020009
:1015F000A849098801F4805109B180F48050A549B7
:10160000098801F4005109B180F40050A249098809
:1016100001F0100109B180F010009F49098801F024
:10162000200109B180F0200081B241F4004141F075
:101630008001974A116008BDFFE79548006880B2B5
:101640000090BDF8000000F40060B0B3904800685E
:10165000C0F30E0048F68F7108408D490860FFF70F
:1016600083FE8B4909684BF6BF7201EA0200894983
:10167000098801F4805109B180F4805085490988B6
:1016800000E056E001F4005109B180F400508249B5
:10169000098801F0100109B180F010007E49098825
:1016A00001F0200109B180F0200081B241F4004135
:1016B00041F08001764A1160BDE7FFE7BDF8000008
:1016C00000F40040002878D071480068C0F30E0094
:1016D00048F68F7108406E490860FFF7EEFE6C49CE
:1016E00009684BF6BF7201EA02006A49098801F4F1
:1016F000805109B180F480506649098801F4005195
:1017000009B180F400506449098801F0100109B161
:1017100080F010006049098801F0200109B180F0D3
:10172000200081B241F4004141F08001584A11602B
:1017300081E756480078594901EB8000D0F8000C49
:1017400080B20090BDF8000000F40040C0B14F48E6
:10175000007801EB8000D0F8000CC0F30E0048F6D2
:101760008F710840494909784C4A02EB8101C1F860
:10177000000C46490978491E494A52F82100804721
:10178000BDF8000000F08000B8B14048007843493F
:1017900001EB8000D0F8000C48F60F7108403B497F
:1017A00009783E4A02EB8101C1F8000C37490978FB
:1017B000491E3C4A52F821008047354844300068B1
:1017C00080B23149088000F4004000287FF4D2AE96
:1017D00000BF30E710B500244AE047F6FF702C49FF
:1017E000443108602848008800F00F00274908703D
:1017F00008460078294901EB8000D0F8000C84B23B
:1018000004F40040C8B12148007801EB8000D0F812
:10181000000CC0F30E0048F68F7108401B49097890
:101820001E4A02EB8101C1F8000C18490978491ED3
:101830001B4A52F8210080471AE004F08000B8B13A
:1018400012480078154901EB8000D0F8000C48F6EA
:101850000F7108400D490978104A02EB8101C1F867
:10186000000C0A490978491E0E4A52F821008047A7
:1018700007484430006880B20349088000F4004003
:101880000028AAD110BD0000480000201000002050
:10189000005C004024000020260000200050004092
:1018A0007000002054000020F0B5144604F1010C33
:1018B0004FEA6C07DFF848C00CEB41033D460AE0F5
:1018C0000678401C90F800C046EA0C2223F8022B50
:1018D0009B1C401C6D1E002DF2D1F0BDF0B5561CB6
:1018E0007510074E06EB41042B4605E034F8047BE7
:1018F00020F8017B401C5B1E002BF7D1F0BD0000DF
:1019000000600040FA4908607047F948006880B2FA
:101910007047F749091D08607047F548001D0068C9
:1019200080B27047F2480830006880B27047F049D2
:101930000C3108607047EE480C30006880B2704788
:101940004FF6F8710140EA4A103211607047E848DA
:101950001030006880B27047E64B03EB8002C2F89B
:10196000001C70470146E34A02EB8100D0F8000CEE
:1019700080B2704710B5DF4B03EB8002D2F8002C29
:1019800048F68F131A400A43DA4C04EB8003C3F87D
:10199000002C10BD0146D74A02EB8100D0F8000CA4
:1019A00000F4C060704730B5D24C04EB8003D3F82C
:1019B000003C48F6BF7403EA040201F010030BB1C7
:1019C00082F0100201F020030BB182F0200242F4F9
:1019D000004343F08003C74D05EB8004C4F8003C8E
:1019E00030BD30B5C34C04EB8003D3F8003C4BF65C
:1019F0008F7403EA040201F480530BB182F4805225
:101A000001F400530BB182F4005242F4004343F05E
:101A10008003B84D05EB8004C4F8003C30BD30B500
:101A200003460C461846FFF79DFF0546012C07D1DB
:101A300025F48050AF4A02EB8301C1F8000C08E0A6
:101A4000022C06D125F01000AA4A02EB8301C1F84E
:101A5000000C30BD0146A74A02EB8100D0F8000C13
:101A600000F0300070470146A24A02EB8100D0F836
:101A7000000C00F44050704710B59E4B03EB800201
:101A8000D2F8002C48F6BF7302EA030181F010017E
:101A900081F0200141F4004242F08002954C04EBB9
:101AA0008003C3F8002C10BD10B5924B03EB8002ED
:101AB000D2F8002C4BF68F7302EA030181F48051B7
:101AC00081F4005141F4004242F08002894C04EB61
:101AD0008003C3F8002C10BD864A02EB8001D1F8C8
:101AE000001C41F4807148F68F72114048F2800268
:101AF0001143804B03EB8002C2F8001C70477D4A03
:101B000002EB8001D1F8001C48F68F62114048F2C8
:101B100080021143774B03EB8002C2F8001C704730
:101B2000744A02EB8001D1F8001C48F68F62114024
:101B300048F2800211436F4B03EB8002C2F8001C95
:101B400070476C4A02EB8001D1F8001C41F48071AF
:101B500048F68F72114048F280021143654B03EB47
:101B60008002C2F8001C7047624A02EB8001D1F883
:101B7000001C41F4807148F68F72114048F28002D7
:101B800011435C4B03EB8002C2F8001C7047594ABA
:101B900002EB8001D1F8001C48F68F62114048F238
:101BA00080021143534B03EB8002C2F8001C7047C4
:101BB0000146504A02EB8100D0F8000C00F03000E2
:101BC000102801D1012070470020FCE70146494A56
:101BD00002EB8100D0F8000C00F44050B0F5805FBB
:101BE00001D1012070470020FCE7424A02EB80014E
:101BF000D1F8001CC1F30E0148F68F7211403D4B25
:101C000003EB8002C2F8001C70473A4A02EB8001E5
:101C1000D1F8001C48F60F721140364B03EB8002DE
:101C2000C2F8001C7047334A02EB8001D1F8001C57
:101C300048F68F7211404CF2800211432D4B03EB9A
:101C40008002C2F8001C70472A4A02EB8001D1F8DA
:101C5000001C48F68F72114048F2C0021143254B18
:101C600003EB8002C2F8001C7047224A02EB80019D
:101C7000D1F8001C01F4804171B102EB8001D1F870
:101C8000001C48F68F7211404CF280021143194B30
:101C900003EB8002C2F8001C7047164A02EB800179
:101CA000D1F8001C01F0400171B102EB8001D1F8C4
:101CB000001C48F68F72114048F2C00211430D4BD0
:101CC00003EB8002C2F8001C704710B5094B03EB10
:101CD0008002D2F8002C48F68F731A4048F2800335
:101CE0001A430A43034C04EB8003C3F8002C10BDD5
:101CF000405C0040005000400146FC4A02EB81007D
:101D0000D0F8000C00F00F00704710B54A105200D8
:101D1000F74B1B689BB203EBC003F64C44F813204F
:101D200010BD10B54A105300F14A126892B202EB8E
:101D3000C002121DEF4C44F8123010BD0146EC48B1
:101D4000006880B200EBC100EA4A32F8100080B2AD
:101D500070470146E648006880B200EBC100001DF4
:101D6000E44A32F8100080B27047E14A126892B239
:101D700002EBC002921CDF4B43F812107047024680
:101D80003E290BDD481101F01F030BB9431E98B229
:101D90004FF4004343EA8023136007E0481001F04A
:101DA00001030BB1431C98B283021360704710B556
:101DB0000246CF48006880B200EBC200801DCD4CC7
:101DC00004EB40033E290BDD481101F01F040CB960
:101DD000441EA0B24FF4004444EA80241C6007E093
:101DE000481001F001040CB1441CA0B284021C6034
:101DF00010BD0146BE48006880B200EBC100801CE7
:101E0000BC4A32F81000C0F3090070470146B848D8
:101E1000006880B200EBC100801DB64A32F81000A5
:101E2000C0F30900704730B54B105B00B04C24681C
:101E3000A4B204EBC004AF4D45F8143053105C005D
:101E4000AB4B1B689BB203EBC0031B1D45F8134053
:101E500030BD10B54A105200A54B1B689BB203EB76
:101E6000C003A44C44F8132010BD10B54A10530011
:101E70009F4A126892B202EBC002121D9D4C44F8B8
:101E8000123010BD01469A48006880B200EBC100D4
:101E9000984A32F8100080B27047014694480068B2
:101EA00080B200EBC100001D924A32F8100080B2EF
:101EB000704730B50B46012B1FD18D49096889B297
:101EC00001EBC001891C8B4D05EB41043E2A0BDD63
:101ED000511102F01F050DB94D1EA9B24FF4004576
:101EE00045EA8125256007E0511002F001050DB19A
:101EF0004D1CA9B28D0225600AE0022B08D17C4955
:101F0000096889B201EBC001891C7A4C44F81120A0
:101F1000012B1FD17649096889B201EBC001891DE7
:101F2000744D05EB41043E2A0BDD511102F01F05F3
:101F30000DB94D1EA9B24FF4004545EA8125256033
:101F400007E0511002F001050DB14D1CA9B28D0240
:101F500025600AE0022B08D16549096889B201EBC6
:101F6000C001891D634C44F8112030BD30B50346D3
:101F700001291FD15E48006880B200EBC300801CBD
:101F80005C4D05EB40043E2A0BDD501102F01F05AD
:101F90000DB9451EA8B24FF4004545EA80252560DD
:101FA00007E0501002F001050DB1451CA8B28502F2
:101FB00025600AE0022908D14D48006880B200EB94
:101FC000C300801C4B4C44F8102030BD30B5034694
:101FD00001291FD14648006880B200EBC300801D74
:101FE000444D05EB40043E2A0BDD501102F01F0565
:101FF0000DB9451EA8B24FF4004545EA802525607D
:1020000007E0501002F001050DB1451CA8B2850291
:1020100025600AE0022908D13548006880B200EB4B
:10202000C300801D334C44F8102030BD01463048B9
:10203000006880B200EBC100801C2E4A32F810000C
:10204000C0F30900704701462948006880B200EBE0
:10205000C100801D274A32F81000C0F30900704704
:1020600001462348006880B200EBC100801D214A70
:1020700032F8100000F47C4008B1012070471C4881
:10208000006880B200EBC100801C1A4A32F81000D0
:10209000C0F3090008B10220F0E70020EEE710B518
:1020A000012910D1114B03EB8002D2F8002C48F625
:1020B0008F731A4048F2C0031A430C4C04EB8003A0
:1020C000C3F8002C11E002290FD1084B03EB80026A
:1020D000D2F8002C48F68F731A404CF280031A4352
:1020E000024C04EB8003C3F8002C10BD00500040EC
:1020F000505C004000600040024641EA0220704708
:102100000146CAB20B1243EA0220704700201D4963
:1021100008604FF43F401C49088008460088194970
:10212000091F0860002070472DE9F04104460E4663
:10213000154604F07F00FFF701FE0746AAB23946B4
:102140003046FFF7B1FBA9B204F07F00FFF70DFEA8
:102150000020BDE8F0812DE9F04104460E4600253F
:1021600004F07F00FFF752FE054604F07F00FFF702
:10217000F0FD07462A4639463046FFF7AFFB2846B2
:10218000BDE8F081445C00401E0000209D480068CE
:1021900040F480209B490860704710B500F022FA97
:1021A00010BD9948406820F480009749486008466F
:1021B000C06940F40000C861704710B593A000F0FA
:1021C00019FD03209849086010BD10B5974C98A0E0
:1021D00000F010FDA07A18B105209349086002E0D4
:1021E00001209149086010BD10B586481438006878
:1021F00040F4802083491439086082480C38006814
:1022000040F480207F490C39086002231422002109
:102210000120FEF7DFF902232A2200210846FEF7FB
:10222000D9F910BD10B504461CB187A000F0E2FC3E
:1022300002E08BA000F0DEFC10BD7349896941F01B
:102240000401714A916138B18B49096889B221F062
:102250000201894A116014E08749096889B241F096
:102260000201854A11608549096821F47F21834A6A
:1022700011601146096841F44C3111600021804A17
:102280001160704730B50B46002100BF16E00A24EC
:10229000B4EB107F05D9302404EB107403F811401F
:1022A00005E0412404EB10740A3C03F811400001DE
:1022B00000254C00641C1D554C1CE1B29142E6DB2C
:1022C00030BD70B56F480468001D0568001D0668C4
:1022D000344454B108226C492046FFF7D3FF04224E
:1022E000694910312846FFF7CDFF70BD10B50020B9
:1022F0006649A1F80204A1F8000465490880654810
:10230000017965A000F076FC6248417968A000F090
:1023100071FC604881796DA000F06CFC5D4801683B
:1023200071A000F067FC012010BD30B503460A46DD
:10233000002133E0585C564C248804F400445CBB14
:10234000534C248804F4804464B10A2803D0002448
:102350004F4D2C8020E04E4C248844F400444C4DDA
:102360002C8019E00D2806D1494C248844F480447F
:10237000474D2C8010E0464C2488C4F30D04604D7A
:102380002855434C2488641C414D2C802C462488BD
:10239000C72C01DD00242C804C1CE1B29142C9DB2A
:1023A00030BD3A49B1F80014384A50541146B1F8DA
:1023B0000014491CA2F800141146B1F80014B1F53C
:1023C000806F02D10021A2F8001470470FB438B515
:1023D00005A800904B48009A049900F0F9FB0020F2
:1023E0000090484800F012FD85B2002405E0454900
:1023F000085DFFF7D6FF601C84B2AC42F7DB38BC47
:102400005DF814FB14040140001002407573622053
:10241000656E746572206C6F7720706F77657220BF
:102420006D6F64650D0A000020010020F40100209A
:102430006C65617665206C6F7720706F77657220B0
:102440006D6F64650D0A00007573622070756C6CA9
:1024500020757020656E61626C650D0A00000000D9
:102460007573622070756C6C20757020646973617F
:10247000626C650D0A000000405C004004080140E9
:10248000B0012142E8F7FF1F2C00002010020020BD
:1024900028000020900000206C696E65636F6469FD
:1024A0006E672E666F726D61743A25640D0A0000C6
:1024B0006C696E65636F64696E672E7061726974B2
:1024C00079747970653A25640D0A00006C696E654F
:1024D000636F64696E672E64617461747970653AC4
:1024E00025640D0A000000006C696E65636F646905
:1024F0006E672E626974726174653A25640D0A0014
:10250000DC0600201406002070B53248B0F8020442
:102510003049B1F80014884200D170BD2D48B0F8A0
:1025200002042C49B1F80014884208DA2948B0F8AE
:1025300000042849B1F80214401A84B205E0254885
:10254000B0F80204C0F5806084B2402C00DD402465
:102550002048B0F80254B0F8020420441D49A1F804
:1025600002040846B0F80204B0F5806F02DB0020D8
:10257000A1F80204174948192246C021FFF794F92F
:1025800021460120FFF7F1FB0120FFF775FA00BF9C
:10259000C3E710B510490320FFF7DDFD84B2E1B2B7
:1025A0000D48FFF7C2FE0320FFF77EFA10BD10B5FD
:1025B0000A48006805280CD1094801680068401CD9
:1025C000074A1060052904D1002011460860FFF772
:1025D0009BFF10BD10020020A40700202001002056
:1025E0004400002010B588B000246948006869499B
:1025F00008800846008800F4007067490988084090
:1026000050B14FF6FF506249086064480078401CA2
:1026100062490870FFF7CBFF5E48008800F4004075
:102620005D490988084008B1FEF7A0FF59480088B5
:1026300000F4806058490988084030B14FF6FF30F7
:10264000534908605649486880475248008800F45A
:10265000005051490988084018B14DF6FF704C49A7
:1026600008604C48008800F480504B4909880840B5
:1026700030B14EF6FF7046490860002000F039FA8C
:102680004448008800F4006043490988084060B16C
:102690004448007810B100F0D6F902E0022000F0C2
:1026A00028FA4FF2FF703A4908603A48008800F46F
:1026B0008070394909880840002866D04FF6FF60CD
:1026C00033490860081D006800F40040002856D017
:1026D00035480068401C34490860084600680328F3
:1026E00050D92B48001F006800F00800002849D18D
:1026F0002748001F006880B22C490860002408E0C9
:102700002B4901EB8400D0F8000C80B24DF8240076
:10271000641C082CF4D32548006840F001002349CC
:1027200008600846006880B21949091F08601F4800
:10273000006820F001001D4908600846006880B26A
:102740001349091F086000BF1148006800F4806049
:102750000028F9D04FF6FF300D490860002408E04A
:102760005DF8240080B2124A02EB8401C1F8000C2B
:10277000641C082CF4D300200B49086002E0002000
:1027800009490860072000F0B4F908B010BD000046
:10279000445C0040480000201E0000204A00002049
:1027A0009C000020240100204C000020500000204C
:1027B0000050004010B5FFF784FD002083490968F0
:1027C000887200F017F9FFF7A1FC0020804908602B
:1027D00010BD10B500207D49096888727D48C07918
:1027E0007A4909684872002078490968C872FFF779
:1027F000A7F84FF400710020FFF7BCF8102100206B
:10280000FFF7D1F840210020FFF78BFA802100204C
:10281000FFF77BFA0020FFF783F96F4890F82C1040
:102820000020FFF7C4FA0020FFF73EF90021012045
:10283000FFF7A0F8C0210120FFF767FA202101204F
:10284000FFF7B1F800210120FFF7CBF84FF4C0618A
:102850000220FFF78FF84FF480710220FFF755FA3E
:1028600000210220FFF7BDF820210220FFF79BF88E
:1028700000210320FFF77EF84FF488710320FFF753
:1028800050FA40210320FFF792FA4FF44051032001
:10289000FFF7A7F800210320FFF785F80020FEF7D7
:1028A000B8FD01204A49086010BD4C48817A11B139
:1028B0000521474A11607047042045490860704768
:1028C00010B547480078202804D1FFF70FFD0020FD
:1028D0004349087010BD7047014629B908203B4A9A
:1028E00012681082002070473E48FCE7014629B973
:1028F0000820364A12681082002070473948FCE7E9
:1029000070B504460025212C09D1304800680078B4
:1029100000F07F00212810D1AFF22F050DE0202C10
:102920000BD12A480068007800F07F00212801D1EF
:10293000AFF25B0520202A4908700DB9022070BD56
:1029400022480068856100212048006841820020FB
:10295000A8470020F3E701461C480068007800F013
:102960007F00212807D1022901D1002070472229A8
:1029700001D10020FAE70220F8E710B504461A4911
:102980002046FEF73CFA10BD10B504461749204614
:10299000FEF735FA10BD70B505460C480068C478DE
:1029A000042C01DD002070BD114800EBC401284655
:1029B000FEF725FAF7E70246002901DD02207047FD
:1029C000012A01DD0220FAE70020F8E714000020C8
:1029D000200100208C4700089C000020F40100200A
:1029E0008C00002090000020F0000020F800002063
:1029F0000001002010B50120FFF714FC01246D48F0
:102A0000046000206C490880084600886949086015
:102A10000020091D08604FF4E0506749088008460F
:102A2000008864490860002010BD10B5012061498C
:102A300008600020091D0860FFF7F4FB03205D49D2
:102A40000860002010BD38B50025002000905948CE
:102A5000006884B200BF09E0584901EB8500D0F856
:102A6000000C80B2564941F825006D1C082DF3D3A7
:102A700044F480644F48046044F00104046024F08E
:102A80000104046000BF4B48001D006800F4806032
:102A90000028F8D04FF6FF304649091D0860002590
:102AA00009E0474850F8250080B2444A02EB85010E
:102AB000C1F8000C6D1C082DF3D344F008043D4808
:102AC0000460006884B244F004043A480460FFF7EC
:102AD00074FB38BD10B53748006884B224F0040494
:102AE00034480460FFF771FB4FF43F403149086000
:102AF00010BD70B50546072D01D03248057031482C
:102B0000007808284ED2DFE800F004111A202B3894
:102B10004E4F2D48006828B9FFF7DCFF06202949F1
:102B2000087002E005202749087041E0FFF7D2FF56
:102B300004202449087001202349086038E002205D
:102B4000204948700320087032E01E484078401E3B
:102B50001C4948700846407808B90420087027E0EE
:102B60001448006884B244F0100412480460052040
:102B7000144908700A2048701AE012484078401E34
:102B8000104948700846407858B90A48006884B22D
:102B900024F01004074804600620087000200A4949
:102BA000086005E000BF00BF06200649087000BFAE
:102BB00000BF70BD405C00401E000020005000407F
:102BC000E4070020250100202801002070470000B4
:102BD0001CB50C46064B7B4469460090204600F02D
:102BE0000CFA04460020694600F01AFA20461CBD83
:102BF000470400000FB4044910B503AA029800F07E
:102C000015FA10BC5DF814FB040000202DE9F0411A
:102C10000646002410687529314616A510D000F02C
:102C20003FF9002802DA404213A507E031688A071D
:102C300001D512A502E0490704D511A5012401E040
:102C400000F037F900210A2206F1240709E0B0FB61
:102C5000F2FCB0FBF2F302FB1C0030307854184653
:102C6000491C0028F3D123462A463046BDE8F041EE
:102C700000F051B9000000002D0000002B00000002
:102C8000200000002DE9F05F894604464FF0000A5D
:102C9000DFF874B1FB44C0F820A02046E168884703
:102CA000002874D0252806D0D4E901219047206A55
:102CB000401C2062F1E700265F462046E168884715
:102CC0002028054607DB312D05D2781910F8200C95
:102CD00008B10643F1E7B00701D526F00406C4F8B1
:102CE0001CA00027C4F818A02A2D09D0284601F0FE
:102CF0006CFA38B304EB8708303DC8F8185019E077
:102D000059F8041B204604EB87029161E16888476B
:102D1000012F054618D1E069002820DA26F02006A8
:102D20001DE0D8F8180000EB800005EB40003038BB
:102D3000C8F818002046E1688847054601F045FAC2
:102D40000028EED1012F0AD02E2D08D12046E168AF
:102D500088477F1C0546022F46F02006C4DBA06989
:102D6000002803DA404246F00106A061F00701D0D6
:102D700026F010066C2D0BD0682D09D04C2D39D0C3
:102D80006A2D35D0742D35D07A2D33D016E038E049
:102D9000E1682F4620468847B842054609D16C2F86
:102DA00026D04FF48060E1680643204688470546F8
:102DB00004E06C2F1AD04FF4807006430DB3A5F1D8
:102DC0004100192802D8203546F400664A462946B3
:102DD000204626604E46FDF7E3F980B101280BD06E
:102DE000F61D26F0070000F1080956E74020E4E749
:102DF0008020D8E70020D6E706F104094DE72846F1
:102E000052E7206ABDE8F09F931B000010B5431CF9
:102E100002E010F8011B71B18107FAD14FF00132C5
:102E200002C88C1A8C4314EAC211F9D0C01A0A06DF
:102E300003D0C01E10BDC01A10BD0A0401D0801EF0
:102E400010BD0902FCD0401E10BD7047704770478E
:102E5000704770B5044685690068C10601D5302603
:102E600000E02026C00707D070BDD4E9012130461C
:102E70009047206A401C20626D1EF6D570BD70B56B
:102E8000044685690078C00707D170BDD4E90121E7
:102E900020209047206A401C20626D1EF6D570BD30
:102EA00009684A0501D540B27047C905FCD500B292
:102EB000704709684A0501D5C0B27047C905FCD5FD
:102EC00080B2704770B50C460546012A05D02878B7
:102ED000800600D5EA69002302E0012305E05B1CBF
:102EE000934202D2E05C0028F9D1A869E618C01A22
:102EF000A861286A184428622846FFF7AAFF04E060
:102F0000D5E9012114F8010B9047B442F8D32846C3
:102F1000FFF7B5FF70BD2DE9F0470D469946924683
:102F2000044600F124080168880604D5E06921F010
:102F30001001216000E00120A84201DD471B00E0F4
:102F40000027A1697A1902EB0900081AA06120780C
:102F5000C00602D42046FFF77CFF002608E0D4E933
:102F600001211AF806009047206A401C761C206256
:102F70004E45F4DB2078C0060AD52046FFF769FFEE
:102F800006E0D4E9012130209047206A401C2062ED
:102F9000381EA7F10107F4DC07E0D4E9012118F895
:102FA00005009047206A401C2062281EA5F10105FB
:102FB000F3DC2046FFF763FF2078000602D50220ED
:102FC000BDE8F0870120FBE711680268006A53053D
:102FD00001D508700AE0D30501D5088006E0130684
:102FE00003D5C217C1E9000200E008600120704764
:102FF00001694A1C02610878704700B58FB0CDE9BD
:1030000001310021059105497944CDE903101146AC
:103010006846FFF737FE0FB000BD0000E5FFFFFF79
:103020000A6802F8010B0A6070470000074B70B590
:103030000D467B44FFF7E1FF0446284600F0A4FB61
:1030400010B14FF0FF3070BD204670BD2FD8FFFF8C
:103050002DE9FF5F15468A460446DFF8AC80F84448
:103060000027D8E900103E46CDE9001010E03AF8FC
:1030700016106A4602A800F08BFB411C07D021788D
:10308000890603D5E269391891420DD80744761CA8
:103090002078800602D5E069B84205DDAE42E6DB65
:1030A0003AF816000028E2D1A069C01BA0612046B2
:1030B000FFF7CFFED8E90010CDE90010002017E09F
:1030C0003AF818106A4602A800F062FBB0F1FF3F20
:1030D00081460BD000250DF1080B05E0D4E9012154
:1030E0001BF8050090476D1C4D45F7D308F1010012
:1030F000B0428046E4DB206A384420622046FFF775
:10310000BEFEBDE8FF9F0000DA1700002DE9F04188
:103110008046D21D22F007020025D2E90002F529DF
:1031200015A614D0011E72F1000106DA0023D0EBBF
:10313000030063EB020211A608E0D8F800108B0729
:1031400001D50FA602E0490701D50EA601251146BB
:10315000002408F1240704E000F098F830323A55D2
:10316000641C50EA0102F7D12B4632462146404604
:10317000BDE8F041FFF7CFBE000000002D000000C9
:103180002B0000002000000030B4002100F12404D6
:1031900008E002F00705D208303542EA4372DB0846
:1031A0006554491C52EA0305F3D10468002310A2B8
:1031B000250707D5A40600D421B1C46901230DA2B7
:1031C000641EC46130BCFFF7A6BE10B5044621469C
:1031D0001068FFF76EFE02462046BDE8104000234F
:1031E000D2E7D21D22F00701D1E90023CCE700008D
:1031F0000000000030000000F0B40D460188090511
:1032000002D5214C7C4402E01F4C7C440E3400214A
:1032100000F1240608E002F00F071209E75D42EA18
:1032200003721B097754491C52EA0307F3D1027851
:103230000023120704D5702D06D009B102231134E2
:103240002246F0BCFFF767BE01231034F8E770B5E3
:1032500004460D4621461068FFF72BFE024629461C
:103260002046BDE870400023C6E7D21D22F00703C8
:10327000D3E90023C0E70368126843F0200303602A
:103280000823C3610023B7E73C16000030B5B0F156
:103290000A024FEA900E71F100034EEA817EB0EB14
:1032A0000E0061EB91014FEA101E4EEA017E10EB19
:1032B0000E0041EB11114FEA102E4EEA016E10EB99
:1032C0000E0041EB11214FEA104E4EEA014E10EB79
:1032D0000E0041EB1141401841F100014FEAD000CE
:1032E00040EA41704FEAD10110EB80054FEA8104BA
:1032F00044EA907444EB01046D1944EB0404521B3E
:10330000A3414FF0000348BF0A3200D530BD401C36
:1033100041F1000130BD70472DE9FF4F0C461E46BC
:103320004FF0FF378BB0D2E90001DDF860800A90E2
:103330008A46C1F30A5505B93D46002108464FF0BB
:103340000000BAF1000F00F4400005DA00EB800045
:103350004FF4400101EA50004FEA9059B9F1010FD2
:1033600000DDB9460A9850EA4A000ED044F61050E3
:10337000A5F2FF3545432F14B8F1000F1ED075425A
:10338000291E1EDDC9F100021CE0B8F1010F4FF04B
:10339000000001D0302103E0F24305E02154401C3D
:1033A000B042FBDB30460022002121540B99C1F8CA
:1033B0000880C1E900200FB0BDE8F08FBD1B6D1C77
:1033C000DEE74A4600DA694206A800F073FA06AB67
:1033D00093E8070003AB83E8070050460A9900F022
:1033E00025FB8DE80700A0F500501F3800900398DA
:1033F000002D09DD42F21F014A46084403A903904B
:10340000684600F084FD08E0A0F500504A461F38E9
:1034100003A90390684600F08EFD8DE807000004C4
:10342000000C03D04FF0FF30410800E01046B8F127
:10343000000F03D00022009215461EE0751E05D431
:10344000FFF724FF303262556D1EF9D5B3460122D5
:10345000084302D000227F1C04E02078302801D1EC
:1034600000227F1E002A099786D01DE0112D07DA61
:10347000FFF70CFF303262556D1C50EA0102F5D1A6
:10348000084302D00098C8B10EE00021681E05E094
:10349000235C625C63542254401E491C8142F7DB6A
:1034A000AB46A81B401E0990002004F80B000B98A7
:1034B000099AC0F80880C0E9002B7CE711264FF07C
:1034C000000859E72DE9F04F88460446D21D22F046
:1034D000070191B0D1E90001CDE90A0100F061FED8
:1034E00002460B98C00F01D02D2007E0206881070D
:1034F00001D52B2002E0202101EAC000032A099017
:1035000001D0072A05DB03464146204600F092F928
:103510000BE12078800601D5E06900E00620B8F1D3
:10352000650F814606D0B8F1660F18D0B8F1670F65
:1035300070D131E00020B9F1110F009001DB1123AF
:1035400001E009F101030AAA01A90CA8FFF7E4FEB2
:10355000DDE90C70002609F10105834647E00120F2
:103560004B4600904FF000470AAA01A90CA8FFF7AC
:10357000D3FEDDE90DB00C995D46002610B909F1C6
:1035800001000D18B9EB050003D4C0F1FF3609F1B5
:103590000105A5EB09002BE0B9F1010F01DA4FF0AD
:1035A00001090020B9F1110F0090484601DD1123F7
:1035B00000E003460AAA01A90CA8FFF7ADFEDDE969
:1035C0000C704D4600268346207800070AD4AB4590
:1035D00000DA5D4601A8012D04DD411911F8011C36
:1035E000302907D04F4502DA17F1040F04DA012021
:1035F00082460FE06D1EEEE7002F02DCED1B3E441D
:1036000003E0781CA84200DD7D1CB81B00F1010A14
:103610004FF000472078000703D4AA4501DB4FF0A4
:10362000FF3A0021B7F1004F0DF143088DF8431028
:1036300024D002202B23002F01DA7F422D230A21E0
:10364000021EA0F1010000DC5FB197FBF1FC97FBCB
:10365000F1F201FB1C7C17460CF1300C08F801CD8F
:10366000EEE7A8F1010003702188090501D5452185
:1036700000E06521A0F1010800F8011C09980FA9DC
:10368000A1EB0807FF1D00B10120411901EBEA7011
:10369000A1693844081A401EA0612078C00602D4EF
:1036A0002046FFF7D6FB099828B1D4E901219047BD
:1036B000206A401C20622078C00622D52046FFF7F1
:1036C000C8FB1EE0002E04DBB34502DD01A8805DCF
:1036D00000E03020D4E901219047206A401C20629C
:1036E000761CAAF101005FEA000A0AD100F09EF8F8
:1036F000C0680168405CD4E901219047206A401C01
:103700002062281EA5F10105DCDC07E0D4E90121D7
:1037100018F8010B9047206A401C2062381EA7F160
:103720000107F3DC2046FFF7AAFB032011B043E6B4
:1037300010B5436913B1AFF3008001E0FFF7C2FB9E
:10374000012010BD127800F124010A7000224A7095
:103750000122EDE711684FF0FF32E9E710B5436948
:1037600013B1AFF3008001E0FFF772FC012010BD40
:10377000128800F1240182840022C2840122EDE734
:1037800011684FF0FF32E9E7007B00F080007047DE
:1037900070B516460C46054600F040F8036893F8ED
:1037A0000101012806D0FF2C0FD8185D68B1012057
:1037B0002C7070BDD3F807013246214603F207137F
:1037C00003442846BDE8704018474FF0FF3070BDF5
:1037D000754600F0E7F8AE4605006946534620F00E
:1037E0000700854618B020B5FCF756FDBDE820401F
:1037F0004FF000064FF000074FF000084FF0000BAD
:1038000021F00701AC46ACE8C009ACE8C009ACE85F
:10381000C009ACE8C0098D467047000010B500F043
:1038200005F8001D10BD00BFDD090000004870470D
:10383000240800202DE9F0411F46044603260168B4
:10384000072A01F4006004DB08B116A505E016A5FF
:1038500003E008B115A500E015A521F010002060D7
:10386000A069C01EA0610FB1401EA0612046FFF7F5
:10387000F0FA4FB1D4E9012138469047206A401C44
:103880002062C01C206206E0206AFAE7D4E9012128
:1038900015F8010B9047761EF8D22046FFF7EFFA95
:1038A000BDE8F0814E414E006E616E00494E46000B
:1038B000696E66002DE9F047814616468AB03348A6
:1038C00078440DC88DE80D0030487844801C03AC66
:1038D0000DC884E80D0041F69B300844372190FB69
:1038E000F1F290FBF1F5A5F1800501FB12041B3C00
:1038F00002D56442012000E00020DFF890A080465D
:103900000027FA44AAF1BE0A0DE0E00709D03246CA
:10391000684607EB47010AEB810100F00CFB8DE8DC
:10392000070064107F1C002CEFD1184F7F44AC3F80
:1039300018E0E80714D007EB04100DF1180A90E81E
:103940000E008AE80E00C068F04201D19819089074
:10395000324606A903A800F0EEFA03AB83E807009D
:103960006D10641C002DE4D132466946B8F1000F99
:1039700003A802D000F0CBFA01E000F0DCFAC9E9BC
:103980000001C9F808200AB0BDE8F0872410000043
:1039900010B50446AFF300802046BDE81040FCF7A8
:1039A00062BC000000487047040800204FF0013C52
:1039B00050F8042B51F8043B9A4221D1A2EB0C039E
:1039C000934313EACC1317D150F8042B51F8043B5E
:1039D0009A4215D1A2EB0C03934313EACC130BD1FB
:1039E00050F8042B51F8043B9A4209D1A2EB0C0386
:1039F000934313EACC13DBD04FF00000704700BFB5
:103A0000D01A01BAB1FA81F101F0180122FA01F0DD
:103A1000CB40C1F12001DBB2C0B2C01A2CFA01F3D5
:103A2000D11A914311EAC311E6D170475FEA400C05
:103A300008BF91F0000F4FEA8C234FEAC12243EAFE
:103A400051514FEA1C5018BF00F5F0404FEA3000CA
:103A500018BF41F000415FEA6C5C00F02980BCF1C6
:103A6000FF3F08BF40F080407047130C06BF1204B0
:103A70004FF0100C4FF0000C130E04BF12020CF1AB
:103A8000080C130F04BF12010CF1040C930F04BFB8
:103A900092000CF1020CD30F04BF52000CF1010C88
:103AA00011464FF00002A0F11F00A0EB0C00704780
:103AB00011F0004F08BF704731F000413FF4D5AF1F
:103AC0000B0C06BF09044FF0100C4FF0000C0B0E4E
:103AD00004BF09020CF1080C0B0F04BF09010CF123
:103AE000040C8B0F04BF89000CF1020CCB0F04BF38
:103AF00049000CF1010CCCF12003A0EB0C0022FAE0
:103B000003F302FA0CF241EA030100F101007047ED
:103B100020F07F4C80EA030023F07F47ACEB0703E3
:103B200003F57C5300F0004003F1FF032DE98049C9
:103B30004FEA154B09B44FEA144325EA0B4E24EA29
:103B400003480FF2042606EB132749083E785FEA84
:103B5000320203FB0667C7F5000707FB06F64FEACC
:103B600054374FEAD64606F1020607FB066CCCF145
:103B7000005C4FEA1C472CEA074C07FB06F40CFBE1
:103B800006F504EB15464FEA961634BF00204FF0B9
:103B900000404FEAD13706FB07FC4FEA1C4C0CFBF8
:103BA0000BF7D21B03FB0CF761EB07010CFB0EF7C5
:103BB000B0EB074072EB17420CFB08F734BFA2EBE7
:103BC0000742B2EB074261EB17414FEA0C444FEA60
:103BD000910706FB07FC4FEA1C4C0CFB0BF7B0EB04
:103BE000C74072EB573203FB0CF734BFA2EBC7425E
:103BF000B2EBC74261EB57310CFB0EF7B0EBC700DD
:103C000072EB57720CFB08F734BFA2EBC702B2EBA2
:103C1000C70261EB5771039F4FEA816141EA92113C
:103C200004EBCC044FEAD1374FEA826206FB07FC73
:103C300042EA90124FEA80604FEA1C4C0CFB0BF7F3
:103C4000D21B03FB0CF761EB07010CFB0EF7B0EB8B
:103C5000074072EB17420CFB08F734BFA2EB074298
:103C6000B2EB074261EB17414FEA8C554FEA9107DF
:103C700004EB9C2406FB07FC4FEA1C4C0CFB0BF7E7
:103C8000B0EBC74072EB573203FB0CF734BFA2EB2B
:103C9000C742B2EBC74261EB57310CFB0EF7B0EBFA
:103CA000C70072EB57720CFB08F734BFA2EBC702D8
:103CB000B2EBC70261EB577115EB4C254FEA8161FE
:103CC00041EA92114FEA82624FEAD13742EA9012FA
:103CD00006FB07FC44F100044FEA80604FEA1C4CED
:103CE0000CFB0BF7D21B03FB0CF761EB07010CFB82
:103CF0000EF7B0EB074072EB17420CFB08F734BF2E
:103D0000A2EB0742B2EB074261EB174115EB1C1522
:103D10004FEA813141EA92414FEA823242EA9042CF
:103D20004FEA80304FEA0C7644F1000448EA03433E
:103D30004EEA0B484FF0000EB2EB080C71EB030794
:103D400024BF624639464EEB0E0E4FF0000B0018B2
:103D5000524149414BEB0B0BB2EB080C71EB0307E3
:103D60007BF1000B24BF624639464EEB0E0E4FF03E
:103D7000000B0018524149414BEB0B0BB2EB080C06
:103D800071EB03077BF1000B24BF624639464EEB13
:103D90000E0E51EA020718BF46F0010616EB0E762A
:103DA00055F1000254F1000103D5BDE88901BDE8D9
:103DB0000088BDE88901BDE80048B619524141EBD1
:103DC0000101A3F10103704780807F7E7D7C7B7AB7
:103DD0007978777676757473727171706F6E6E6DB7
:103DE0006C6C6B6A6A69686867666665646463635D
:103DF00062616160605F5F5E5E5D5D5C5C5B5B5AE3
:103E00005A5959585857575656555555545453534F
:103E100052525251515050504F4F4F4E4E4D4D4DAA
:103E20004C4C4C4B4B4B4A4A4A49494948484847F5
:103E30004747474646464545454444444443434333
:103E40004342424242414141002B26D4770021D0D7
:103E50001CB54FEA370703B44FF010004FF01001C4
:103E60004FF000000FBCBDE810400BF1010BBBF19F
:103E7000010F08BF5FEA170722BF12F1010211F11B
:103E800001014FF0004143F1000300F0004043EA1C
:103E900000007047F9D35708DAE746EA064613F1FF
:103EA000400F4FEA16461FDD13F1200FDFBF164308
:103EB0000A46002120335B42C8D0C3F1200746EAFE
:103EC000064602FA07F74FEA164646EA0706C3F126
:103ED000200722FA03F201FA07F721FA03F14FF063
:103EE000000342EA0702B1E746EA020646EA06464E
:103EF0004FEA164646EA0106BCBF46EA0646360CBD
:103F00004FF000034FF000024FF000019EE72DE953
:103F1000C048934630B491E8380007C831EA400CF5
:103F200048BF34EA430C03D5FFF7F2FDFFF78CFFDF
:103F3000F0BCBDE800882DE9C048934630B491E854
:103F4000380007C810F0804F08BF13F0804F03D12E
:103F500000F005F8FFF778FFF0BCBDE8008820F01E
:103F60007F4780EA030023F07F4C07EB0C03A3F5A7
:103F70007C5300F00040A3F1FE0392F0000F00F02C
:103F8000B38095F0000F00F077802DE901494FEAEA
:103F900011404FEA144621EA004800FB06FC24EADF
:103FA000064708FB06F607FB08F800FB07F718EBC7
:103FB00006484CEB164C4FEA124B18EB07484FEAF9
:103FC00015464CEB174022EA0B4E0BFB06FC25EA8C
:103FD00006470EFB06F607FB0EFE0BFB07F71EEB74
:103FE000064E4CEB164C4FF000061EEB074E4CEB0A
:103FF000174B18EB0B0840F1000018EB0E0B58EBB9
:10400000000840F100008F1A4FF000013CBFC94387
:10401000661B14BFB5EB040C00213CBFC943F61B63
:104020004FEA17444EEA8E0E27EA04454FEA1C4732
:1040300004FB07622CEA074C05FB07F70CFB05F6AF
:1040400004FB0CFC16EB074642EB174216EB0C4642
:1040500042EB1C421BEB060658EB0202414146EACA
:104060009E0601D5BDE80189B619524141EB010117
:10407000A3F10103BDE801894FEA14454FEA114756
:1040800024EA054621EA074C05FB07F406FB07F77F
:104090000CFB06F105FB0CFC11EB074144EB17444C
:1040A0004FEA124711EB0C4144EB1C4422EA074C47
:1040B00005FB07F206FB07F70CFB06F605FB0CFCFD
:1040C00016EB074642EB174216EB0C4642EB1C453B
:1040D0006A1854F1000148BF7047B619524141EBCC
:1040E0000101A3F10103704795F0000F37D04FEAAB
:1040F00011424FEA144721EA024624EA074C02FB28
:1041000007F106FB07F70CFB06F402FB0CFC14EBB3
:10411000074441EB17414FEA154714EB0C4441EBC0
:104120001C4125EA074C02FB07F506FB07F70CFBD1
:1041300006F602FB0CFC16EB074645EB174516EBA3
:104140000C4645EB1C42121951F1000148BF704763
:10415000B619524141EB0101A3F1010370474FEA47
:1041600014454FEA114724EA054621EA074C05FBAE
:1041700007F106FB07F70CFB06F24FF0000605FB04
:104180000CFC12EB074241EB174112EB0C4251EBD6
:104190001C4148BF7047921841EB0101A3F1010394
:1041A0007047490050EAC12018BF04204A0D18BFCB
:1041B00040F0010040F2FF72B2EB515F08BF40F0E7
:1041C0000200012808BF0520704730380A2801D2B4
:1041D000012070470020704710B500290AD00878E8
:1041E000002807D005487844FFF7E0FB002801D0FD
:1041F000002010BD0248784410BD00003A070000BE
:104200003207000010B500290AD00878002807D02E
:1042100005487844FFF7CAFB002801D0002010BDF4
:104220000248784410BD00002A0700002207000061
:1042300090EA010F48BF81F0004100F12E82421A3E
:104240003CBF801A89184FEAD0524FF07F4C1CEACD
:10425000410FA2EBD15318BF9CEA026F00F03B80E4
:104260004FF0004C4CEA00204CEA012121FA03FCFB
:1042700010EB0C0C1ED202F1FF325FEA1C2040EB67
:10428000C25038BF70471CF07F0F4FEA400C18BF78
:10429000BCF17F4F38BF7047C3F12003994008BF7E
:1042A00020F00100BCF17F4F38BF7047A0F1C04043
:1042B00000F0DDB94FEA3C00000A40EBC25028BFD5
:1042C0001CF0FF0F4FEA400CE6D018BFBCF17F4F47
:1042D00038BF7047EAE79CEA026F05D010EA5C0F2E
:1042E00008BF00F00040704710B500F07AF900BF39
:1042F00064FBBE3E4FF47F0C1CEAD0121EBF1CEACA
:10430000D11392EA0C0F93EA0C0F00F0858090EA2B
:10431000010F48BF42F4807240F4000C41F40000E9
:104320002CF07F4120F07F4000B58142A2EB0302D8
:104330000FF2081CACEB504EC0F100009EF800E0FC
:104340004FEA4E0E00FB0EFC38BF49004FEA2C1C12
:1043500002F5FA020CFB0EF34FEACE1E4FEA112CC7
:104360004FEAC1210EEB635E42EB22420EFB0CFCD6
:104370004FEA1C5300FB03114FEA112C4FEA0131A5
:104380000EFB0CFC4FEADC4C00FB0C11C14228BFB9
:1043900009184CEB03335DF804EB10EB410143EBE0
:1043A000C250B2F57C0F38BF704729D512F0F00F1C
:1043B0001CBF00F1C04000F00040704700818283C4
:1043C0008485868788898B8C8D8E8F919293959624
:1043D00097999A9C9D9FA0A2A3A5A7A8AAACAEB0AE
:1043E000B2B3B5B7B9BCBEC0C2C5C7C9CCCED1D4B3
:1043F000D7D9DCDFE2E6E9ECF0F3F7FAFE000000E3
:104400004FEA400C0CF1807CBCF17E4F28BF704716
:10441000B0F1C04000F02BB990EA010F0CEAD113C3
:1044200048BF42F48072624538BF634507D213F437
:104430007F0F16D080EA010000F00040704710B5F1
:1044400000F0CFF8097EFC3E00F005B880EA0100DC
:1044500000F00040704780EA010000F0004000F0EA
:1044600006B912F47F0F04BF0248704780EA0100CA
:1044700000F0FDB80000C07FC10DD1F19E0206DB47
:104480004FEA002343F0004323FA02F07047004252
:1044900007D54FEA4001B1F1FE4F02D24FF00000C4
:1044A000704710B500F09DF84992248000207047B5
:1044B0006FEA200070470000B0FA80F310FA03F2B0
:1044C000C3F19D030AD0D90501EB1220530638BF72
:1044D000704700F1010008BF20F0010070470000A4
:1044E0004FF47F0C1CEAD0121EBF1CEAD11392EAD3
:1044F0000C0F93EA0C0F00F0478090EA010F48BFC1
:1045000042F480724FF0004C4CEA00204CEA01214A
:1045100002EB0302A0FB0113A2F50002002918BF61
:1045200043F001035B0028BF4FEA330342EB224212
:104530005FEA132C4CEBC2502EBFBCEB436FB2F5BD
:104540007C0F70474FEA036CBCF1004F08BF20F0AE
:104550000100B2F57C0F38BF70470BD582F0FF0227
:1045600012F5803FC8BF704700F1C040D8BF00F0CF
:104570000040704700F5000C5FEA4C0C48BF7047E4
:10458000B0F1C04000F073B890EA010F0CEAD1130B
:1045900048BF42F48072624538BF634504D280EA66
:1045A000010000F00040704710B500F01AF800BF9D
:1045B0008900013E00F007B800F009B85FEA410C3D
:1045C0005FEA1C6C08D080EA010000F050B85FEA96
:1045D000400C5FEA1C6CF6D14FF00040A0F5800063
:1045E00070470EF1020E2EF0030E5EF8044B2442CB
:1045F00004D44FEA4102B2F17F4F11D84FEA400391
:10460000B3F17F4F0CD80ED14FEAD07CB2F17F4F7F
:104610000CEB4C0C0CF1020C08BF4CEBD17C04E011
:104620004FF0080C01E04FEAD17C0CEB4C0324FA6C
:1046300003F404F00704B4F1040C06D20EEB840C6E
:10464000BDE810404CF0010C6047DFE80CF00708B3
:1046500002024FF00040A0F5800010BD0846420065
:1046600018BFD2F1807288BF00F0004010BDFF215A
:1046700041EAD050C005704780F0004090EA010F39
:104680007FF5DDAD81F0004100F007B890EA010F41
:1046900048BF81F000413FF5D2AD421A04D882F004
:1046A0000042A0EB020011444FEAD0524FF07F4C81
:1046B0001CEA410FA2EBD15318BF9CEA026F4AD00B
:1046C0004FF0004C4CEA00204CEA012121FA03FC97
:1046D000B0EB0C0C0FD412F0FE0F36D05FEA4C009A
:1046E0001DD5001240EBC25038BF70471CF03F0F81
:1046F00018BF70470BE0A2F101025FEA1C2040EBFB
:10470000C25038BF70471CF07F0F18BF7047C3F10D
:104710002003994014BF401E20F00100704780081C
:104720004FEA122308BF7047B0FA80FCA2EB0C02DC
:10473000CCF1280C60FA0CF093EA122F04BF00EBC6
:10474000C25070474FEAC3707047130A5FEADC102B
:1047500008BF7047F6E79CEA026F04D010EA5C0FCE
:1047600008BF0020704710B5FFF73BFF40DFF63E63
:1047700081F000407047FEF7A5BE12010002020062
:104780000040830440570002010203010902430074
:10479000020100C0320904000001020201000524E8
:1047A0000010010524010001042402020524060072
:1047B00001070582030800FF09040100020A000046
:1047C00000070503024000000705810240000004C5
:1047D0000309042603530054004D0069006300726E
:1047E000006F0065006C0065006300740072006F6C
:1047F000006E006900630073003203530054004DE3
:104800000033003200200056006900720074007509
:104810000061006C00200043004F004D002000505C
:10482000006F0072007400200020000400000800E7
:104830000000000000000200010000100000000065
:1048400000000000303132333435363738394142D8
:1048500043444546403058003031323334353637E2
:104860003839616263646566403078000240000058
:10487000000000A00000000005400000000000C88B
:10488000000000000C4000000000409C0000000000
:10489000194000000020BCBE0000000034400000B1
:1048A000BFC91B8E00000004B5400000504BCFD0A4
:1048B0006607E2CF010000006C4100003E8251AA71
:1048C000DFEEA73401000000D9420000DCB5A0E211
:1048D0003A301F97FFFFFFFFB4450000FD25A0C839
:1048E000E9A3C14FFFFFFFFFFF3F00000000008072
:1048F00000000000FF3F00000000008000000000FA
:104900004C4A0008000000202C010000280100088B
:10491000C44A00082C0100203C0D0000840100085E
:104920001C00000043000000F8FFFFFF0C00000027
:104930000E0000000F0000002E000000100100001B
:1049400043000000F8FFFFFF00404040404040406F
:104950004040414141414140404040404040404052
:1049600040404040404040404005020202020202F6
:104970000202020202020202022020202020202045
:104980002020200202020202020290909090909059
:104990001010101010101010101010101010101017
:1049A000101010100202020202028888888888888B
:1049B0000808080808080808080808080808080877
:1049C000080808080202020240000000000000007F
:1049D00000000000000000000000000000000000D7
:1049E00000000000000000000000000000000000C7
:1049F00000000000000000000000000000000000B7
:104A000000000000000000000000000000000000A6
:104A10000000000000000000000000000000000096
:104A20000000000000000000000000000000000086
:104A30000000000000000000000000000000000076
:104A4000000000000000000000000000012A141A0D
:104A500003531254124D1233021F321309250C1C3A
:104A6000080115040A1193245133C20112081A04D3
:104A70000713B5271B08D30413C1281B08D7041339
:104A800001291B0857041AB7041A7B041A89041A4F
:104A9000970441324029442AAB280915741AB91CDD
:104AA000137A473308121A8C0832431ACF0832049B
:104AB0001AD30832261AF90829E0222A73201A2963
:044AC000924100001F
:04000005080000ED02
:00000001FF
