:020000040800F2
:100000003807002095010008990100089B010008AD
:100010009D0100089F010008A101000800000000E8
:10002000000000000000000000000000A301000824
:10003000A501000800000000A7010008A9010008B0
:10004000C9020008AB010008AB010008AB010008C1
:10005000AB010008AB010008AB010008AB010008D0
:10006000AB010008AB010008AB010008AB010008C0
:10007000AB010008AB010008AB010008AB010008B0
:10008000AB010008AB010008AB010008AB010008A0
:10009000AB010008AB010008AB010008AB01000890
:1000A000AB010008AB010008AB010008AB01000880
:1000B000AB010008AB010008AB010008AB01000870
:1000C000AB010008AB010008AB010008AB01000860
:1000D000AB01000885060008AB010008AB01000871
:1000E000AB010008AB010008AB01000800F002F80A
:1000F00000F03AF80AA090E8000C82448344AAF188
:100100000107DA4501D100F02FF8AFF2090EBAE885
:100110000F0013F0010F18BFFB1A43F0010318473B
:10012000800C0000A00C0000103A24BF78C878C1F1
:10013000FAD8520724BF30C830C144BF04680C60ED
:10014000704700000023002400250026103A28BF35
:1001500078C1FBD8520728BF30C148BF0B60704739
:100160001FB51FBD10B510BD00F043FB1146FFF7D2
:10017000F7FF00F02BF800F061FB03B4FFF7F2FF8C
:1001800003BC00F071FA000030BF72B662B680F3B3
:100190000888704708480047FEE7FEE7FEE7FEE7ED
:1001A000FEE7FEE7FEE7FEE7FEE7FEE70348044959
:1001B000044A054B70470000ED000008380100209C
:1001C000380700203803002038030020092000F001
:1001D000F2F9482000F092F84FF4E131482000F0A5
:1001E0008CFA00F013F80020074908604FF496706D
:1001F00000F0BCF803225F217F2000F021F802E02C
:10020000012001490860FBE7800122420A48806919
:1002100040F010000849886108480068002007493C
:1002200008600846006840F0333008600846C0683F
:1002300040F0FF00C860704700100240001001400D
:1002400070B506460C4615462848C06940F4006063
:100250002649C8612648007830402549087025485D
:10026000006840EAC51023490860084600684FF658
:10027000807108401F4908600846006820430860F4
:10028000081F00681A49097808431A49091F0860BD
:100290000846006840F08000086002230022032125
:1002A000184600F09BF800201249091D0860081F3D
:1002B000006840F40070091F086070BD00F07F0105
:1002C0000C4A121F1160704700B509480078FFF70B
:1002D000F5FF00200749091D08600748006808B9B4
:1002E000012000E000200449086000BD0010024029
:1002F00000000020042C0040840122424FF0E02145
:10030000096921F004014FF0E0221161C21700EBEE
:100310005272C2F3C702234B1A701946097801EBD7
:100320004102C2EBC1114FF6FF7202EAC1011E4A3F
:100330001180704701461B4A12784A434FF0E02370
:100340005A6100229A6101221A6100BF4FF0E02237
:10035000106900F001021AB100F48032002AF5D0D1
:1003600000224FF0E0231A619A61704701460E4A5D
:1003700012884A434FF0E0235A6100229A61012219
:100380001A6100BF4FF0E022106900F001021AB1BB
:1003900000F48032002AF5D000224FF0E0231A61E9
:1003A0009A6170470200002004000020A34A0A401E
:1003B0000243A34B1A6070470146072323EA010258
:1003C00012029F4B1B1D18684FF6FF0318409D4BF0
:1003D000184310439A4B1B1D186070472DE9F041DC
:1003E0000746884614461D462846FFF7E5FFC5F137
:1003F000040007FA00F60F20284100EA080006432F
:1004000006F00F06E21704EBD2625211920002F1DD
:10041000E022D2F800212146E31704EBD3635B11FD
:10042000A4EB431C012303FA0CF31A432046E31701
:1004300004EBD3635B119B0003F1E023C3F80021BD
:100440008148005D40EA06107F490855BDE8F0810B
:1004500070B504460B46CE1701EB9676C6F38700BF
:10046000CE1701EB9676B610A1EB8606B606350ED2
:10047000764B9B6943F00103744EB3614FEAB63388
:1004800053F820300F26AE40B343714E46F820306B
:10049000334653F8203004FA05F61E436C4B43F8FC
:1004A00020606C4B1B6801268E403343694E3360DD
:1004B00002F0010343B1674B0C331B6801268E40E9
:1004C0003343644E0C36336002F0020343B1614B98
:1004D00008331E6801238B401E435E4B08331E60A9
:1004E00070BD00B5002059490861C86014204861FA
:1004F00000208861C8610846006840F0010008607B
:100500000846406854490840504948600846006819
:10051000524908404D4908600846006820F4802090
:1005200008600846406820F4FE00486000208860AB
:1005300000214FF00060FFF739FF00BD10B54048C3
:100540000830006840F004003D49083108603F4829
:10055000C06940F080503D49C8614148406840F45E
:1005600080703F4948600846006840F00400086019
:100570000846006840F002000860FFF705FE10BD65
:100580003048001D2E49091D086070470146490684
:100590002E4A926942F001022C4B9A612C4A083A89
:1005A000526822F0E0622A4B083B5A601A465268B1
:1005B0000A435A60704730B504460025FFF791FFA3
:1005C0002248006840F480302049086000BF1F487E
:1005D0000068400C0028FAD04FF480601B49486046
:1005E000A01EC4B20846406840EA844048600846FD
:1005F000406840F4803048601A48006840F032009B
:10060000184908601148006840F080700F49086080
:1006100000BF0E480068400E0028FAD00B48406822
:1006200040F002000949486005E008484068C0F30E
:10063000870505F00305022DF7D130BD80FFFF1FB0
:1006400008ED00E00000FA0500E400E000100240C0
:1006500008000140000401400000FFF8FFFFF6FE23
:10066000007000400020024000BF704700BF584AA1
:10067000128802F04002002AF9D0C2B2544B1B1D6E
:100680001A8070475249098801F0200111B350497E
:10069000091D0988C8B24F49098801F40041C9B948
:1006A0004C49098801F4804161B10A2803D0002136
:1006B000484A118020E04749098841F40041454AF1
:1006C000118019E00D2806D14249098841F4804182
:1006D000404A118010E03F490988C1F30D013E4AAC
:1006E00050543C490988491C3A4A118011460988EE
:1006F000C72901DD0021118070472DE9F05F054613
:100700000E46300100F0ECF98146344905FB01F05A
:1007100000F0E6F98246494600F000F907463846FF
:1007200000F0BEF984B2204600F0DAF9834639467B
:1007300000F0B6FA82464FF0834100F0E5F98146B9
:1007400000F0AEF980464FF6FF7000EA041404EBA7
:10075000080084B22248806940F004002049886182
:100760000846806940F4804088611E48006820F493
:100770007F601C4908600846006840F40B60086010
:100780001748C06840F480401549C8600846C068F2
:1007900020F48040C8600E4808300480001D0088A6
:1007A00042F20C0108430A490C31088008460088CF
:1007B00040F4807008800846008840F020000880DF
:1007C0000223252203210846FFF708FEBDE8F09F1B
:1007D000003801400C0000201000002040420F00B3
:1007E000001002400408014070477047704770478E
:1007F0007047754600F02CF8AE4605006946534632
:1008000020F00700854618B020B5FFF7CFFCBDE803
:1008100020404FF000064FF000074FF000084FF067
:10082000000B21F00701AC46ACE8C009ACE8C009F8
:10083000ACE8C009ACE8C0098D46704710B5044665
:10084000AFF300802046BDE81040FFF796BC0000E3
:1008500000487047D800002090EA010F48BF81F09F
:10086000004100F12E82421A3CBF801A89184FEADB
:10087000D0524FF07F4C1CEA410FA2EBD15318BF6E
:100880009CEA026F00F03B804FF0004C4CEA0020E5
:100890004CEA012121FA03FC10EB0C0C1ED202F1F0
:1008A000FF325FEA1C2040EBC25038BF70471CF09B
:1008B0007F0F4FEA400C18BFBCF17F4F38BF704725
:1008C000C3F12003994008BF20F00100BCF17F4F25
:1008D00038BF7047A0F1C04000F0DDB94FEA3C00DE
:1008E000000A40EBC25028BF1CF0FF0F4FEA400C3B
:1008F000E6D018BFBCF17F4F38BF7047EAE79CEAEB
:10090000026F05D010EA5C0F08BF00F0004070478E
:1009100010B500F07AF900BF64FBBE3E4FF47F0CC7
:100920001CEAD0121EBF1CEAD11392EA0C0F93EA04
:100930000C0F00F0858090EA010F48BF42F48072EE
:1009400040F4000C41F400002CF07F4120F07F4087
:1009500000B58142A2EB03020FF2081CACEB504E33
:10096000C0F100009EF800E04FEA4E0E00FB0EFCC6
:1009700038BF49004FEA2C1C02F5FA020CFB0EF3BB
:100980004FEACE1E4FEA112C4FEAC1210EEB635EF7
:1009900042EB22420EFB0CFC4FEA1C5300FB0311FE
:1009A0004FEA112C4FEA01310EFB0CFC4FEADC4CF4
:1009B00000FB0C11C14228BF09184CEB03335DF852
:1009C00004EB10EB410143EBC250B2F57C0F38BF92
:1009D000704729D512F0F00F1CBF00F1C04000F0A5
:1009E00000407047008182838485868788898B8C4C
:1009F0008D8E8F919293959697999A9C9D9FA0A288
:100A0000A3A5A7A8AAACAEB0B2B3B5B7B9BCBEC0D7
:100A1000C2C5C7C9CCCED1D4D7D9DCDFE2E6E9EC78
:100A2000F0F3F7FAFE0000004FEA400C0CF1807C76
:100A3000BCF17E4F28BF7047B0F1C04000F02BB929
:100A400090EA010F0CEAD11348BF42F4807262456C
:100A500038BF634507D213F47F0F16D080EA010038
:100A600000F00040704710B500F0CFF8097EFC3E62
:100A700000F005B880EA010000F00040704780EA0D
:100A8000010000F0004000F006B912F47F0F04BF2F
:100A90000248704780EA010000F0FDB80000C07F06
:100AA000C10DD1F19E0206DB4FEA002343F0004363
:100AB00023FA02F07047004207D54FEA4001B1F136
:100AC000FE4F02D24FF00000704710B500F09DF8C5
:100AD00049922480002070476FEA20007047000090
:100AE000B0FA80F310FA03F2C3F19D030AD0D905DE
:100AF00001EB1220530638BF704700F1010008BF18
:100B000020F00100704700004FF47F0C1CEAD01267
:100B10001EBF1CEAD11392EA0C0F93EA0C0F00F0EF
:100B2000478090EA010F48BF42F480724FF0004CBA
:100B30004CEA00204CEA012102EB0302A0FB011366
:100B4000A2F50002002918BF43F001035B0028BF93
:100B50004FEA330342EB22425FEA132C4CEBC250C4
:100B60002EBFBCEB436FB2F57C0F70474FEA036CAE
:100B7000BCF1004F08BF20F00100B2F57C0F38BF78
:100B800070470BD582F0FF0212F5803FC8BF704757
:100B900000F1C040D8BF00F00040704700F5000CE5
:100BA0005FEA4C0C48BF7047B0F1C04000F073B82A
:100BB00090EA010F0CEAD11348BF42F480726245FB
:100BC00038BF634504D280EA010000F0004070475E
:100BD00010B500F01AF800BF8900013E00F007B818
:100BE00000F009B85FEA410C5FEA1C6C08D080EAAB
:100BF000010000F050B85FEA400C5FEA1C6CF6D1CF
:100C00004FF00040A0F5800070470EF1020E2EF06C
:100C1000030E5EF8044B244204D44FEA4102B2F1C1
:100C20007F4F11D84FEA4003B3F17F4F0CD80ED15C
:100C30004FEAD07CB2F17F4F0CEB4C0C0CF1020C64
:100C400008BF4CEBD17C04E04FF0080C01E04FEA08
:100C5000D17C0CEB4C0324FA03F404F00704B4F148
:100C6000040C06D20EEB840CBDE810404CF0010CD5
:100C70006047DFE80CF0070802024FF00040A0F5E3
:100C8000800010BD0846420018BFD2F1807288BFB4
:100C900000F0004010BDFF2141EAD050C005704770
:100CA00080F0004090EA010F7FF5DDAD81F000415A
:100CB00000F007B890EA010F48BF81F000413FF50E
:100CC000D2AD421A04D882F00042A0EB02001144D7
:100CD0004FEAD0524FF07F4C1CEA410FA2EBD153A8
:100CE00018BF9CEA026F4AD04FF0004C4CEA00203B
:100CF0004CEA012121FA03FCB0EB0C0C0FD412F0EA
:100D0000FE0F36D05FEA4C001DD5001240EBC250FA
:100D100038BF70471CF03F0F18BF70470BE0A2F1BF
:100D200001025FEA1C2040EBC25038BF70471CF044
:100D30007F0F18BF7047C3F12003994014BF401EB6
:100D400020F00100704780084FEA122308BF704767
:100D5000B0FA80FCA2EB0C02CCF1280C60FA0CF08B
:100D600093EA122F04BF00EBC25070474FEAC370E2
:100D70007047130A5FEADC1008BF7047F6E79CEA89
:100D8000026F04D010EA5C0F08BF0020704710B556
:100D9000FFF73BFF40DFF63E81F000407047000068
:100DA000C00D00080000002010000000280100080D
:100DB000D00D0008100000202807000044010008A2
:100DC0007F000000000000000000000000000000A4
:04000005080000ED02
:00000001FF
