:020000040800F2
:100000006007002095010008990100089B01000885
:100010009D0100089F010008A101000800000000E8
:10002000000000000000000000000000A301000824
:10003000A501000800000000A7010008A9010008B0
:10004000AB010008AB010008AB010008AB010008E0
:10005000AB010008AB010008AB010008AB010008D0
:10006000AB010008AB010008AB010008AB010008C0
:10007000AB010008AB010008AB010008AB010008B0
:10008000AB010008AB010008AB010008AB010008A0
:10009000AB010008AB010008AB010008AB01000890
:1000A000AB010008AB010008AB010008AB01000880
:1000B000AB0100082B06000801020008AB01000894
:1000C000AB010008AB010008AB010008AB01000860
:1000D000AB010008550D0008AB010008AB0100089A
:1000E000AB010008AB010008AB01000800F002F80A
:1000F00000F03AF80AA090E8000C82448344AAF188
:100100000107DA4501D100F02FF8AFF2090EBAE885
:100110000F0013F0010F18BFFB1A43F0010318473B
:100120005013000070130000103A24BF78C878C143
:10013000FAD8520724BF30C830C144BF04680C60ED
:10014000704700000023002400250026103A28BF35
:1001500078C1FBD8520728BF30C148BF0B60704739
:100160001FB51FBD10B510BD00F0ABFE1146FFF767
:10017000F7FF00F02BF800F0C9FE03B4FFF7F2FF21
:1001800003BC00F0D9FD000030BF72B662B680F348
:100190000888704708480047FEE7FEE7FEE7FEE7ED
:1001A000FEE7FEE7FEE7FEE7FEE7FEE70348044959
:1001B000044A054B70470000ED0000086001002074
:1001C000600700206003002060030020092000F089
:1001D0005AFD4FF4E131482000F0F7FD482000F0CF
:1001E000F5FB00F0D5FB00F0ABF900F021FB41F688
:1001F0001F41132000F0A4FB00F0BCF900BFFEE794
:1002000010B5C448008800F00100002871D000F04B
:10021000D1FAC14908700846007800286AD008461B
:10022000007868282ED018DC38286FD00CDC18280D
:1002300054D004DC02286AD010282DD168E022288E
:1002400071D03028F9D13EE042286DD052286CD0D0
:100250005A2879D06228F0D1A5E0A82867D008DC18
:100260007A2848D090286ED0982816D0A228E4D1B9
:100270008DE0B0281CD0C22871D0E02870D0E228D0
:10028000DBD19CE00020A5490870A5484078A5492D
:1002900008700020A4490860E5E000209F4908702C
:1002A0009F4880789F49087000209F490860DAE0E5
:1002B00000209A4908709A48C0789A49087000202E
:1002C00099490860CFE0002094490870944800796B
:1002D00094490870002094490860C4E000208F49C8
:1002E00008708F4840798F49087000208E49086057
:1002F000B9E007E1B8E000208849087088488079B3
:1003000088490870002088490860ACE010E06EE081
:100310000020824908708248C07982490870002014
:10032000814908609FE056E01BE025E00CE082E098
:1003300000207A4908707A48007A7A4908700020CB
:10034000794908608FE082E00020744908707448A1
:10035000407A7449087000207349086083E052E0D5
:100360005DE000206D4908706D4800786D490870A7
:1003700000206D49086076E00020684908706848F0
:10038000407C684908700020674908606BE0644859
:10039000407862490870624800786249087000201D
:1003A000614908605FE05E4840785C4908705C48DD
:1003B00040785C49087000205B49086053E0584869
:1003C0004078564908705648807856490870002091
:1003D0005549086047E052484078504908705048F5
:1003E000C0785049087000204F4908603BE04C48F5
:1003F00040784A4908704A4800794A490870002004
:10040000494908602FE0464840784449087044480C
:1004100040794449087000204349086023E040487F
:1004200040783E4908703E4880793E490870002077
:100430003D49086017E03A48407838490870384824
:10044000C079384908700020374908600BE034480B
:100450004078324908703248007A324908700020EA
:100460003149086000BF02E001202F4908602F4891
:100470000078062804D1294800782D49087007E043
:100480002A480078072803D12648007828490870B0
:100490002848007828B125480178002000F00FFA9C
:1004A00005E0224801782248007800F008FA00F0C0
:1004B00024FA2048007808B9012000E000201D49F6
:1004C00008700846007850B918480078401C174951
:1004D000087008460078082801D1062008701648E0
:1004E0000078401C1449087008460078FA2809D1A1
:1004F000002008701148006808B9012000E00020C1
:100500000E4908600348008820F001000149088076
:1005100010BD000010080040120000201400002050
:100520000000002013000020A081214215000020BF
:100530001600002017000020180000208001224231
:100540000A48806940F0100008498861084800683E
:100550000020074908600846006840F03330086012
:100560000846C06840F0FF00C860704700100240B5
:100570000010014010B5A648C06940F00200A4492F
:10058000C8610846806940F008008861A148006899
:1005900020F00F009F4908600846006840F00800FE
:1005A00008609C480C30006840F0010099490C310B
:1005B000086042F21070984908804720091F08809F
:1005C00095481038008840F00100934910390880A0
:1005D0000846008840F030000880084600880880FF
:1005E000081D0088091D08800846008840F48070B6
:1005F000088089482038008840F008008649203962
:1006000008800846008840F00100088082482C38A5
:10061000008840F0010080492C39088002231D2207
:100620000321012000F042FA10BD7B491C390888E3
:1006300000F00101F9B17949097801F08001D1B1E7
:100640007649097821F01001744A11701146097831
:1006500001F00F0121B91146097841F040011170F4
:100660006E49097801F00F010E2905DA6B49097806
:10067000491C6A4A11700AE06849097821F0800132
:10068000664A11701146097801F0F001117000F00E
:100690000801002913D06249096889B15E490C3903
:1006A000098841F400715C4A0C3A11800021121D46
:1006B00011805A49097841F01001584A117074E0CC
:1006C000554910310988574A118053490C39098816
:1006D00021F40071504A0C3A11805049097801F018
:1006E000100100295BD04D49097801F08001E9B380
:1006F0004C490988B1F5967F0DDD4A490988B1F565
:10070000487F08DA484909684900474A116011469C
:100710000968116043E043490988B1F5AF6F0FDD07
:1007200040490988B1F5E16F0ADA3F490968490093
:100730003D4A11601146096841F0010111602EE047
:100740003849098840F69802914228DD35490988E0
:1007500040F62822914222DA34490978491C334A6A
:1007600011702E49097801F0F00100E002E02B4AF7
:10077000117014E02B49098841F2680291420EDDA4
:100780002849098841F25C22914208DA2349097814
:1007900041F08001214A11700021244A11701F4943
:1007A000097821F010011D4A117000211A4A1C3AE3
:1007B0001180704710B50020184B1B7803F04003E0
:1007C0002BB3194B1B68190E174B1B68C3F3074259
:1007D000D343DBB28B420BD151B9134B1B88C3F30C
:1007E0000721114B1A78D343DBB28B4200D1084664
:1007F00020B10A4B1B7803F0800343B9074B1B78E9
:1008000023F04003054C23700023084C237010BDD7
:1008100000100240000C01402C0400401C0000208D
:10082000008121421E000020200000202400002022
:1008300010B53848806940F008003649886108469C
:10084000806940F0100088610846806940F001002E
:100850008861012000F002FA2F4800682F49084003
:100860002D490860084600682D4908432A49086058
:100870002C4840682C4908402A494860084640688E
:100880002A49084327494860282023491431086031
:100890001020091F08604FF4E0502249086110BD84
:1008A00000F00101224A1160C0F34001214AC2F860
:1008B000AC11C0F380011E4A08321160704770B558
:1008C00006460D46002412E046FA04F000F001004E
:1008D0001949086000201949C1F89401052000F069
:1008E00091F80120144908310860601CC4B2082C3A
:1008F000EADB2846FFF7D4FF70BD10B501200E4992
:10090000091D0860052000F07DF800200B49C1F8A2
:10091000900110BD00100240000C0140FF0F00FFCD
:100920000030330000100140FF00F0FF00330300EF
:10093000A8012242000022428C81214200802142F3
:1009400070B505460C461048C06940F004000E49D9
:10095000C8610E480580001F04800C4820380088BC
:1009600040F0010009492039088008482C380088E7
:1009700040F0010005492C39088002231E22032182
:10098000002000F093F870BD001002402C080040D9
:100990000C48806940F008000A4988610A480068EC
:1009A00020F00F00084908600846006840F0030086
:1009B000086005480830006840F48070024908313A
:1009C0000860704700100240040C01404FF0E02125
:1009D000096921F004014FF0E0221161C21700EB18
:1009E0005272C2F3C702234B1A701946097801EB01
:1009F0004102C2EBC1114FF6FF7202EAC1011E4A69
:100A00001180704701461B4A12784A434FF0E02399
:100A10005A6100229A6101221A6100BF4FF0E02260
:100A2000106900F001021AB100F48032002AF5D0FA
:100A300000224FF0E0231A619A61704701460E4A86
:100A400012884A434FF0E0235A6100229A61012242
:100A50001A6100BF4FF0E022106900F001021AB1E4
:100A600000F48032002AF5D000224FF0E0231A6112
:100A70009A6170472600002028000020A34A0A40FF
:100A80000243A34B1A6070470146072323EA010281
:100A900012029F4B1B1D18684FF6FF0318409D4B19
:100AA000184310439A4B1B1D186070472DE9F04105
:100AB0000746884614461D462846FFF7E5FFC5F160
:100AC000040007FA00F60F20284100EA0800064358
:100AD00006F00F06E21704EBD2625211920002F107
:100AE000E022D2F800212146E31704EBD3635B1127
:100AF000A4EB431C012303FA0CF31A432046E3172B
:100B000004EBD3635B119B0003F1E023C3F80021E6
:100B10008148005D40EA06107F490855BDE8F08134
:100B200070B504460B46CE1701EB9676C6F38700E8
:100B3000CE1701EB9676B610A1EB8606B606350EFB
:100B4000764B9B6943F00103744EB3614FEAB633B1
:100B500053F820300F26AE40B343714E46F8203094
:100B6000334653F8203004FA05F61E436C4B43F825
:100B700020606C4B1B6801268E403343694E336006
:100B800002F0010343B1674B0C331B6801268E4012
:100B90003343644E0C36336002F0020343B1614BC1
:100BA00008331E6801238B401E435E4B08331E60D2
:100BB00070BD00B5002059490861C8601420486123
:100BC00000208861C8610846006840F001000860A4
:100BD0000846406854490840504948600846006843
:100BE000524908404D4908600846006820F48020BA
:100BF00008600846406820F4FE00486000208860D5
:100C000000214FF00060FFF739FF00BD10B54048EC
:100C10000830006840F004003D49083108603F4852
:100C2000C06940F080503D49C8614148406840F487
:100C300080703F4948600846006840F00400086042
:100C40000846006840F002000860FFF79DFA10BDFA
:100C50003048001D2E49091D0860704701464906AD
:100C60002E4A926942F001022C4B9A612C4A083AB2
:100C7000526822F0E0622A4B083B5A601A465268DA
:100C80000A435A60704730B504460025FFF791FFCC
:100C90002248006840F480302049086000BF1F48A7
:100CA0000068400C0028FAD04FF480601B4948606F
:100CB000A01EC4B20846406840EA84404860084626
:100CC000406840F4803048601A48006840F03200C4
:100CD000184908601148006840F080700F490860AA
:100CE00000BF0E480068400E0028FAD00B4840684C
:100CF00040F002000949486005E008484068C0F338
:100D0000870505F00305022DF7D130BD80FFFF1FD9
:100D100008ED00E00000FA0500E400E000100240E9
:100D200008000140000401400000FFF8FFFFF6FE4C
:100D3000007000400020024000BF704700BF584ACA
:100D4000128802F04002002AF9D0C2B2544B1B1D97
:100D50001A8070475249098801F0200111B35049A7
:100D6000091D0988C8B24F49098801F40041C9B971
:100D70004C49098801F4804161B10A2803D000215F
:100D8000484A118020E04749098841F40041454A1A
:100D9000118019E00D2806D14249098841F48041AB
:100DA000404A118010E03F490988C1F30D013E4AD5
:100DB00050543C490988491C3A4A11801146098817
:100DC000C72901DD0021118070472DE9F05F05463C
:100DD0000E46300100F0ECF98146344905FB01F084
:100DE00000F0E6F98246494600F000F90746384629
:100DF00000F0BEF984B2204600F0DAF983463946A5
:100E000000F0B6FA82464FF0834100F0E5F98146E2
:100E100000F0AEF980464FF6FF7000EA041404EBD0
:100E2000080084B22248806940F0040020498861AB
:100E30000846806940F4804088611E48006820F4BC
:100E40007F601C4908600846006840F40B60086039
:100E50001748C06840F480401549C8600846C0681B
:100E600020F48040C8600E4808300480001D0088CF
:100E700042F20C0108430A490C31088008460088F8
:100E800040F4807008800846008840F02000088008
:100E90000223252203210846FFF708FEBDE8F09F44
:100EA00000380140300000203400002040420F0094
:100EB00000100240040801407047704770477047B7
:100EC0007047754600F02CF8AE460500694653465B
:100ED00020F00700854618B020B5FFF767F9BDE898
:100EE00020404FF000064FF000074FF000084FF091
:100EF000000B21F00701AC46ACE8C009ACE8C00922
:100F0000ACE8C009ACE8C0098D46704710B504468E
:100F1000AFF300802046BDE81040FFF72EB9000077
:100F200000487047FC00002090EA010F48BF81F0A4
:100F3000004100F12E82421A3CBF801A89184FEA04
:100F4000D0524FF07F4C1CEA410FA2EBD15318BF97
:100F50009CEA026F00F03B804FF0004C4CEA00200E
:100F60004CEA012121FA03FC10EB0C0C1ED202F119
:100F7000FF325FEA1C2040EBC25038BF70471CF0C4
:100F80007F0F4FEA400C18BFBCF17F4F38BF70474E
:100F9000C3F12003994008BF20F00100BCF17F4F4E
:100FA00038BF7047A0F1C04000F0DDB94FEA3C0007
:100FB000000A40EBC25028BF1CF0FF0F4FEA400C64
:100FC000E6D018BFBCF17F4F38BF7047EAE79CEA14
:100FD000026F05D010EA5C0F08BF00F000407047B8
:100FE00010B500F07AF900BF64FBBE3E4FF47F0CF1
:100FF0001CEAD0121EBF1CEAD11392EA0C0F93EA2E
:101000000C0F00F0858090EA010F48BF42F4807217
:1010100040F4000C41F400002CF07F4120F07F40B0
:1010200000B58142A2EB03020FF2081CACEB504E5C
:10103000C0F100009EF800E04FEA4E0E00FB0EFCEF
:1010400038BF49004FEA2C1C02F5FA020CFB0EF3E4
:101050004FEACE1E4FEA112C4FEAC1210EEB635E20
:1010600042EB22420EFB0CFC4FEA1C5300FB031127
:101070004FEA112C4FEA01310EFB0CFC4FEADC4C1D
:1010800000FB0C11C14228BF09184CEB03335DF87B
:1010900004EB10EB410143EBC250B2F57C0F38BFBB
:1010A000704729D512F0F00F1CBF00F1C04000F0CE
:1010B00000407047008182838485868788898B8C75
:1010C0008D8E8F919293959697999A9C9D9FA0A2B1
:1010D000A3A5A7A8AAACAEB0B2B3B5B7B9BCBEC001
:1010E000C2C5C7C9CCCED1D4D7D9DCDFE2E6E9ECA2
:1010F000F0F3F7FAFE0000004FEA400C0CF1807CA0
:10110000BCF17E4F28BF7047B0F1C04000F02BB952
:1011100090EA010F0CEAD11348BF42F48072624595
:1011200038BF634507D213F47F0F16D080EA010061
:1011300000F00040704710B500F0CFF8097EFC3E8B
:1011400000F005B880EA010000F00040704780EA36
:10115000010000F0004000F006B912F47F0F04BF58
:101160000248704780EA010000F0FDB80000C07F2F
:10117000C10DD1F19E0206DB4FEA002343F000438C
:1011800023FA02F07047004207D54FEA4001B1F15F
:10119000FE4F02D24FF00000704710B500F09DF8EE
:1011A00049922480002070476FEA200070470000B9
:1011B000B0FA80F310FA03F2C3F19D030AD0D90507
:1011C00001EB1220530638BF704700F1010008BF41
:1011D00020F00100704700004FF47F0C1CEAD01291
:1011E0001EBF1CEAD11392EA0C0F93EA0C0F00F019
:1011F000478090EA010F48BF42F480724FF0004CE4
:101200004CEA00204CEA012102EB0302A0FB01138F
:10121000A2F50002002918BF43F001035B0028BFBC
:101220004FEA330342EB22425FEA132C4CEBC250ED
:101230002EBFBCEB436FB2F57C0F70474FEA036CD7
:10124000BCF1004F08BF20F00100B2F57C0F38BFA1
:1012500070470BD582F0FF0212F5803FC8BF704780
:1012600000F1C040D8BF00F00040704700F5000C0E
:101270005FEA4C0C48BF7047B0F1C04000F073B853
:1012800090EA010F0CEAD11348BF42F48072624524
:1012900038BF634504D280EA010000F00040704787
:1012A00010B500F01AF800BF8900013E00F007B841
:1012B00000F009B85FEA410C5FEA1C6C08D080EAD4
:1012C000010000F050B85FEA400C5FEA1C6CF6D1F8
:1012D0004FF00040A0F5800070470EF1020E2EF096
:1012E000030E5EF8044B244204D44FEA4102B2F1EB
:1012F0007F4F11D84FEA4003B3F17F4F0CD80ED186
:101300004FEAD07CB2F17F4F0CEB4C0C0CF1020C8D
:1013100008BF4CEBD17C04E04FF0080C01E04FEA31
:10132000D17C0CEB4C0324FA03F404F00704B4F171
:10133000040C06D20EEB840CBDE810404CF0010CFE
:101340006047DFE80CF0070802024FF00040A0F50C
:10135000800010BD0846420018BFD2F1807288BFDD
:1013600000F0004010BDFF2141EAD050C005704799
:1013700080F0004090EA010F7FF5DDAD81F0004183
:1013800000F007B890EA010F48BF81F000413FF537
:10139000D2AD421A04D882F00042A0EB0200114400
:1013A0004FEAD0524FF07F4C1CEA410FA2EBD153D1
:1013B00018BF9CEA026F4AD04FF0004C4CEA002064
:1013C0004CEA012121FA03FCB0EB0C0C0FD412F013
:1013D000FE0F36D05FEA4C001DD5001240EBC25024
:1013E00038BF70471CF03F0F18BF70470BE0A2F1E9
:1013F00001025FEA1C2040EBC25038BF70471CF06E
:101400007F0F18BF7047C3F12003994014BF401EDF
:1014100020F00100704780084FEA122308BF704790
:10142000B0FA80FCA2EB0C02CCF1280C60FA0CF0B4
:1014300093EA122F04BF00EBC25070474FEAC3700B
:101440007047130A5FEADC1008BF7047F6E79CEAB2
:10145000026F04D010EA5C0F08BF0020704710B57F
:10146000FFF73BFF40DFF63E81F000407047000091
:10147000901400080000002034000000280100083B
:10148000C4140008340000202C07000044010008A8
:10149000FC60DAF266B6BEE0FEF6EE3E9C7A9E8E08
:1014A0000100000000060000000000000000000035
:1014B000000000000000000000000000000000002C
:0414C0000000000028
:04000005080000ED02
:00000001FF
