:020000040800F2
:1000000048BC0020790E0008BD040008BF040008A9
:10001000C3040008C7040008CB0400080000000067
:10002000000000000000000000000000CF040008F5
:10003000D104000800000000D3040008D504000823
:10004000930E0008930E0008930E0008930E00080C
:10005000930E0008930E0008930E0008930E0008FC
:10006000930E0008930E0008930E0008930E0008EC
:10007000930E0008930E0008930E0008930E0008DC
:10008000930E0008930E0008930E0008930E0008CC
:100090001F380008930E0008930E0008930E000806
:1000A000930E0008930E0008930E0008930E0008AC
:1000B000930E0008930E0008930E0008930E00089C
:1000C000930E0008930E0008930E0008930E00088C
:1000D000930E0008ED0D0008930E0008930E000823
:1000E000930E0008930E000811380008930E0008C4
:1000F000930E0008930E0008930E0008930E00085C
:10010000930E0008930E0008930E0008930E00084B
:10011000930E0008930E0008930E0008930E00083B
:10012000930E0008930E0008930E0008930E00082B
:1001300000F002F800F05FF80AA090E8000C82449A
:100140008344AAF10107DA4501D100F054F8AFF277
:10015000090EBAE80F0013F0010F18BFFB1A43F0A5
:1001600001031847FC4D00001C4E00000A444FF0EC
:10017000000C10F8013B13F0070408BF10F8014B06
:100180001D1108BF10F8015B641E05D010F8016B4B
:10019000641E01F8016BF9D113F0080F1EBF10F8AF
:1001A000014BAD1C0C1B09D16D1E58BF01F801CBD2
:1001B000FAD505E014F8016B01F8016B6D1EF9D555
:1001C0009142D6D37047000000230024002500266A
:1001D000103A28BF78C1FBD8520728BF30C148BFAA
:1001E0000B607047782904F07D85002070471FB5AB
:1001F0001FBD10B510BD04F02DFE1146FFF7F7FF2F
:1002000000F008F804F04BFE03B4FFF7F2FF03BC64
:1002100000F092FD002400254FF4A06001F0D0FB17
:1002200000F020FD4FF4165000F094FD00F044FA69
:1002300000F05CFA5AA004F015FD5DA004F012FD78
:1002400061A004F00FFD64A004F00CFD00F074FB4D
:10025000644800884EF61771884203D062A004F00B
:1002600001FD18E065490020654AC2E900104FF41D
:100270000070644908600846D0F800C01046624625
:100280000023D0E90071384604F0C8FC5E490860DC
:100290005EA004F0E7FC4FF4E16000F020FD0020D8
:1002A00003F019FB4FF4967000F019FD012003F0E4
:1002B00012FB5DA004F0D6FC4FF4007001F0A8FE24
:1002C0005E490860402001F0A3FE5D49086003F02C
:1002D000CDFA03F0A8FA02F06DFC4FF4E16000F0F3
:1002E000FEFC5CE0012000F0FAFC564800788642F3
:1002F00021D05448007800F0010010B152A004F061
:10030000B1FC5048007800F0020010B153A004F096
:10031000A9FC4C48007800F0040010B154A004F08F
:10032000A1FC4848007800F0080010B154A004F087
:1003300099FC444806785648006881450ED05448D8
:100340000068052803D153A004F08CFC02E055A0FE
:1003500004F088FC4E48006800F0FF09681CC5B234
:10036000C82D1CD100255448006808B9012000E0C0
:100370000020514908603348007800F0100020B197
:10038000002405204249086006E0601CC4B20A2C23
:1003900002DD00203E49086000202A490870A1E7DC
:1003A0004E414E4F2053544D33320D0A0000000091
:1003B0005553422043617264205265616465722026
:1003C000544553540D0A000041544F4D40414C498F
:1003D000454E54454B0D0A00323031382F332F3201
:1003E000370D0A00160000205732355131323820BF
:1003F0004572726F72210D0A0000000000D04C009F
:100400006800002070000020740000205350492034
:10041000464C4153482053697A653A313633383473
:100420004B420D0A0000000055534220436F6E6E90
:10043000656374696E672E2E2E0D0A0088000020F9
:10044000340100208D0000205553422057726974FA
:10045000696E672E2E2E0D0A0000000055534220B3
:1004600052656164696E672E2E2E0D0A0000000031
:10047000555342205772697465204572720D0A0007
:10048000555342205265616420204572720D0A0066
:100490003002002055534220436F6E6E65637465D1
:1004A000640D0A0055534220446973436F6E6E65B4
:1004B000637465640D0A000080012242704700BF2A
:1004C000FEE700BFFEE700BFFEE700BFFEE77047A4
:1004D00070477047704700000CB5002001900090F5
:1004E0006C48006840F480306A49086000BF694881
:1004F000006800F4003000900198401C01900098C2
:1005000018B90198B0F5A06FF1D16248006800F405
:10051000003010B10120009001E000200090009810
:10052000012843D15C48006840F010005A49086037
:100530000846006820F0030008600846006840F0A4
:1005400002000860534840685249486008464068C5
:1005500048600846406840F480604860084640684B
:1005600020F47C1048600846406840F4E810486079
:100570000846006840F08070086000BF4548006889
:1005800000F000700028F9D04248406820F00300D5
:10059000404948600846406840F00200486000BF9B
:1005A0003C48406800F00C000828F9D10CBD10B59B
:1005B000FFF792FF10BD10B53648006840F001000B
:1005C0003449086008464068344908403149486069
:1005D00008460068324908402E490860084600680D
:1005E00020F4802008600846406820F4FE0048603F
:1005F0004FF41F008860FFF7DAFF4FF000602949D1
:10060000086010BD10B5002100200022214B5B685E
:1006100003F00C0121B1042906D0082928D107E0F4
:10062000214B224C236027E01F4B204C236023E00A
:10063000184B5B6803F47010164B5B6803F4803250
:10064000022303EB904022B9194B4343174C23601C
:100650000DE0104B5B6803F4003323B1144B4343AC
:10066000124C236003E0104B4343104C236003E023
:100670000D4B0E4C236000BF00BF064B5B68C3F3FD
:1006800003130C4CE15C094B1B68CB40074C236007
:1006900010BD000000100240002002400000FFF8E2
:1006A000FFFFF6FE08ED00E000127A0000000020D7
:1006B00000093D000400002008B50121102000F0D1
:1006C00017FFFF20ADF8000010208DF80300032075
:1006D0008DF802006946044800F04EFCFF210248F4
:1006E00000F0F7FC08BD00000010014008B5012132
:1006F000342000F0FDFE4FF44070ADF800004820BB
:100700008DF8030069463D4800F036FC0420ADF842
:10071000000048208DF803006946394800F02CFCA1
:100720000120ADF8000028208DF803006946354807
:1007300000F022FC08BD10B5044614B10120324976
:1007400008703148007800283BD04FF480712B4866
:1007500000F0A5FC80B14FF40071284800F09FFC28
:1007600050B10421264800F09AFC28B10121254807
:1007700000F095FC012824D10A2000F0B0FA0020F6
:10078000214908704FF480711C4800F088FC08B9BA
:10079000012010BD4FF40071184800F080FC08B92A
:1007A0000220F6E70421164800F079FC08B903207E
:1007B000EFE70121134800F072FC01281CD104204E
:1007C000E7E74FF480710D4800F069FC012813D170
:1007D00041020A4800F063FC01280DD104210848B9
:1007E00000F05DFC012807D10121064800F057FC0C
:1007F00010B90120044908700020CAE70010014028
:1008000000140140000801401400002070B50546A6
:10081000002405E0601CC4B2C82C01DD002070BDBE
:100820000221324801F089FA0028F3D029462F48E6
:1008300001F030FA002405E0601CC4B2C82C01DDD0
:100840000020ECE70121294801F077FA0028F3D0D5
:10085000264801F021FAC0B2E1E708B501210820DD
:1008600000F046FE0121880300F04FFE4FF4604087
:10087000ADF8000018208DF8030003208DF8020069
:1008800069461B4800F078FB4FF46041184800F0BF
:1008900020FC0020174908804FF482704880002017
:1008A00088800220C88001200881400248813820C9
:1008B00088810020C881072008820C4801F014F9C3
:1008C00001210A4801F0B5F9FF20FFF79FFF08BD9D
:1008D00010B50446074884810146044801F004F934
:1008E0000121024801F0A5F910BD000000380040C8
:1008F000000C01403C02002010B500240020D34928
:1009000008609020FFF782FF0020FFF77FFF0020A4
:10091000FFF77CFF0020FFF779FFFF20FFF776FF4E
:1009200044EA0024FF20FFF771FF04430120C84977
:10093000C1F8B001204610BD08B50121082000F023
:10094000D7FD4FF48050ADF8000010208DF8030063
:1009500003208DF802006946BE4800F00DFB4FF4FD
:100960008051BC4800F0B5FBFFF777FF0820FFF788
:10097000AFFFFFF7C1FFB849088008BD10B50024DC
:100980000020B24908600520FFF740FFFF20FFF775
:100990003DFF04460120AE49C1F8B001204610BD1C
:1009A00010B504460020A94908600120FFF72EFF7A
:1009B0002046FFF72BFF0120A549C1F8B00110BD6B
:1009C00010B50020A14908600620FFF71FFF012095
:1009D0009F49C1F8B00110BD10B500209B490860C7
:1009E0000420FFF713FF01209949C1F8B00110BDA1
:1009F0002DE9F04106460C46174600209349086051
:100A00000320FFF703FFC4F30740FFF7FFFEC4F323
:100A10000720FFF7FBFEE0B2FFF7F8FE002505E038
:100A2000FF20FFF7F3FE7055681C85B2BD42F7DB6F
:100A3000012086490860BDE8F08110B500BFFFF7CE
:100A40009DFF00F001000028F9D110BD2DE9F04113
:100A500006460C461746FFF7B3FF00207B490860A7
:100A60000220FFF7D3FEC4F30740FFF7CFFEC4F325
:100A70000720FFF7CBFEE0B2FFF7C8FE002504E039
:100A8000705DFFF7C3FE681C85B2BD42F8DB012034
:100A90006E490860FFF7D1FFBDE8F0812DE9F04114
:100AA00007460E461446F0B2C0F58075AC4200DC35
:100AB000254612E02A4631463846FFF7C7FFAC42CA
:100AC00000D10BE02F442E44601B84B2B4F5807F2C
:100AD00002DD4FF4807500E02546EBE700BFBDE87E
:100AE000F08110B5044621465CA004F0BBF8240355
:100AF000FFF766FFFFF7A1FF0020544908602020A0
:100B0000FFF784FEC4F30740FFF780FEC4F307201D
:100B1000FFF77CFEE0B2FFF779FE01204C49C1F8F7
:100B2000B001FFF78AFF10BD2DE9F05F83468846CC
:100B300016464FF4805001F06BFA8246BAF1000F6E
:100B400001D1BDE8F09F4FEA1837C8F30B09C9F58A
:100B50008054A64200DC344641E039034FF4805211
:100B60005046FFF745FF002508E009EB05001AF89D
:100B70000000FF2800D003E0681C85B2A542F4DB2A
:100B800000BFA54215DA3846FFF7ABFF002507E0A6
:100B90001BF8050005EB09010AF80100681C85B285
:100BA000A542F5DB39034FF480525046FFF776FF3C
:100BB00004E0224641465846FFF770FFA64200D1A6
:100BC0000EE07F1C4FF00009A344A044301B86B206
:100BD000B6F5805F02DD4FF4805400E03446BCE798
:100BE00000BF504601F008FA00BFAAE710B5FFF7B2
:100BF000E7FEFFF722FF002014490860C720FFF737
:100C000005FE01201249C1F8B001FFF716FF10BD23
:100C100010B500200D490860B920FFF7F7FD01204D
:100C20000B49C1F8B001032000F035F810BD10B534
:100C3000002006490860AB20FFF7E8FD01200449C9
:100C4000C1F8B001032000F026F810BDB0812142A8
:100C500000802142000C01401600002066653A2504
:100C6000780D0A0010B56FF0040000F0F8FE2E4871
:100C700000682E49B0FBF1F02D4908700846007855
:100C800000EB4001C1EBC0104FF6FF7101EAC0005C
:100C90002849088010BD0146254A12784A434FF082
:100CA000E0235A6100229A611A46126942F0010259
:100CB0001A6100BF4FF0E022106900F001021AB182
:100CC00000F48032002AF5D04FF0E022126922F0C1
:100CD00001024FF0E0231A6100229A617047014639
:100CE000144A12884A434FF0E0235A6100229A6165
:100CF0001A46126942F001021A6100BF4FF0E02269
:100D0000106900F001021AB100F48032002AF5D017
:100D10004FF0E022126922F001024FF0E0231A6145
:100D200000229A61704700000000002000127A0043
:100D3000180000201A00002000BF704700BF4A4A78
:100D4000128802F04002002AF9D0C2B2464B1B1DA5
:100D50001A80704710B586B00446012144F20400A1
:100D600000F0C6FB4FF40070ADF8140003208DF8BE
:100D7000160018208DF8170005A93C4800F0FCF873
:100D80004FF48060ADF8140004208DF8170005A919
:100D9000364800F0F1F825208DF8000003208DF88A
:100DA00001008DF8020001208DF80300684600F074
:100DB0000CFE01940020ADF80800ADF80A00ADF873
:100DC0000C00ADF810000C20ADF80E0001A926486B
:100DD00000F035FC012240F22551234800F0C7FC09
:100DE0000121214800F0B7FC06B010BD10B540F25B
:100DF00025511D4800F0A0FD10B31B4800F01CFD5C
:100E0000C4B21B48008800F40040C8B918480088E4
:100E100000F4804060B10A2C03D0002014490880FF
:100E200020E01348008840F400401149088019E090
:100E30000D2C06D10E48008840F480400C490880F3
:100E400010E00B480088C0F30D000A490C54084814
:100E50000088401C0649088008460088C72801DD34
:100E60000020088010BD000000380140000801404B
:100E7000200000204E020020094880470948004712
:100E8000FEE7FEE7FEE7FEE7FEE7FEE7FEE7FEE73A
:100E9000FEE7FEE704480549054A064B7047000097
:100EA000B70500083101000848B6002048BC002002
:100EB00048B8002048B8002010B50446CC48844209
:100EC00008D10121042000F02DFB0021042000F0B6
:100ED00029FB46E0C748844208D10121082000F0E0
:100EE00021FB0021082000F01DFB3AE0C2488442AB
:100EF00008D10121102000F015FB0021102000F086
:100F000011FB2EE0BD48844208D10121202000F0D1
:100F100009FB0021202000F005FB22E0B8488442B4
:100F200008D10121402000F0FDFA0021402000F00E
:100F3000F9FA16E0B348844208D10121802000F07C
:100F4000F1FA0021802000F0EDFA0AE0AE48844278
:100F500007D10121801500F0E5FA0021A01500F06D
:100F6000E1FA10BD10B50121084600F0DBFA0021BE
:100F7000012000F0D7FA10BD2DE9F041024600250E
:100F80000026002000230024002791F803C00CF065
:100F90000F0591F803C00CF0100CBCF1000F03D04A
:100FA00091F802C04CEA050591F800C0BCF1000FB1
:100FB00031D0146800202BE04FF0010C0CFA00F344
:100FC000B1F800C00CEA03069E4220D183004FF026
:100FD0000F0C0CFA03F7BC4305FA03FC4CEA0404BB
:100FE00091F803C0BCF1280F06D14FF0010C0CFAA8
:100FF00000FCC2F814C00AE091F803C0BCF1480F2D
:1010000005D14FF0010C0CFA00FCC2F810C0401CD6
:101010000828D1D31460B1F800C0BCF1FF0F34DD53
:10102000546800202EE000F1080C4FF0010808FA87
:101030000CF3B1F800C00CEA03069E4221D18300F4
:101040004FF00F0C0CFA03F7BC4305FA03FC4CEA13
:10105000040491F803C0BCF1280F05D100F1080C7D
:1010600008FA0CF8C2F8148091F803C0BCF1480FDC
:1010700007D100F1080C4FF0010808FA0CF8C2F88B
:101080001080401C0828CED35460BDE8F0814FF694
:10109000FF710180022181700421C17070470246F6
:1010A000002093680B400BB1012000E00020704746
:1010B0000146886880B2704702460020D3680B4022
:1010C0000BB1012000E0002070470146C86880B2E3
:1010D000704701617047416170470AB1016100E0EA
:1010E00041617047C16070474FF480320A438261AA
:1010F0008161826182698269704702460020434BA8
:1011000018684FF68073184040EA021008433F4BBE
:10111000186070473E49C8617047F0B50A46002321
:1011200000240021002500F00046B6F1004F02D156
:10113000364EF16901E0354E7168C0F3034583B264
:1011400000F44016B6F5401F08D121F070612F4E13
:10115000766826F070662D4F7E6012E000F48016EF
:10116000B6F5801F06D1032606FA05F4A14341F027
:10117000706106E0460D360103FA06F6B14341F010
:10118000706122B1460D360103FA06F6314300F0D4
:101190000046B6F1004F02D11C4EF16101E01B4E3A
:1011A0007160F0BD30B500228B071C0F0F2303FACE
:1011B00004F2164B08338C1053F824309343134C2D
:1011C00008348D1044F8253023468C1053F8243011
:1011D0008C07240F00FA04F423430C4C08348D10C0
:1011E00044F8253030BD0A49DC3108607047000002
:1011F00000080140000C01400010014000140140B3
:1012000000180140001C0140002001400000014086
:1012100000002042DF48006840F00100DD4908601E
:1012200008464068DC490840DA49486008460068DA
:10123000DA490840D74908600846006820F4802051
:1012400008600846406820F4FE0048604FF41F0024
:1012500088607047CF49096821F48031CD4A116018
:101260001146096821F480211160B0F5803F03D058
:10127000B0F5802F0ED106E0C649096841F48031EF
:10128000C44A116007E0C349096841F4A021C14A7A
:10129000116000E000BF00BF704710B5014600229A
:1012A000002300204A11012A02D1BA4C236806E02B
:1012B000022A02D1B74C236A01E0B64C636A01F0FE
:1012C0001F02012494401C400CB1012000E00020CA
:1012D00010BD38B5002000900024002500BF31204B
:1012E000FFF7DBFF05460098401C00900098B0F522
:1012F000A06F01D0002DF2D03120FFF7CEFF08B152
:10130000012400E00024204638BD01460020A14A07
:10131000106820F0F80040EAC10010607047A04952
:1013200008607047024600209A4B586820F47C10F1
:1013300042EA01031843974B586070479849086682
:10134000704701460020934A506820F0030008438C
:10135000506070478F48406800F00C0070470146AD
:1013600000208C4A506820F0F0000843506070471D
:1013700001460020874A506820F4E060084350602E
:10138000704701460020834A506820F4605040EACC
:10139000C1005060704729B17E4A527A02437D4BAA
:1013A0005A7204E07B4A527A82437A4B5A727047EF
:1013B0007B49D8310860704701460020754A506863
:1013C00020F440400843506070470021714A2032A9
:1013D0001170704A82F82010012802D004280AD126
:1013E00004E001216B4A2032117005E00521694AB1
:1013F0002032117000E000BF00BF704769490860EB
:1014000070476449096A0143624A1162704765493D
:1014100044390860704730B50021002200240023C1
:101420005C4D6D6805F00C0121B1042905D0082937
:1014300023D105E05C4D056022E05B4D05601FE0B7
:10144000544D6D6805F47012524D6D6805F480348A
:10145000022505EB92421CB9544D554305600BE043
:101460004C4D6D6805F400351DB1504D5543056078
:1014700002E04D4D5543056002E04B4D056000BF55
:1014800000BF444D6D6805F0F0010909484D6B5CE3
:101490000568DD4045603F4D6D6805F4E061090A6F
:1014A000434D6B5C4568DD4085603A4D6D6805F4E1
:1014B0006051C90A3E4D6B5C4568DD40C560354DE5
:1014C0006D6805F44041890B3A4D6B5CC568B5FB0E
:1014D000F3F5056130BD29B12E4A526902432D4B07
:1014E0005A6104E02B4A526982432A4B5A61704781
:1014F00029B1284A92690243264B9A6104E0254AA1
:1015000092698243234B9A61704729B1214AD2697B
:101510000243204BDA6104E01E4AD26982431D4B2C
:10152000DA61704729B11B4AD2680243194BDA606D
:1015300004E0184AD2688243164BDA60704729B13A
:10154000144A12690243134B1A6104E0114A1269EA
:101550008243104B1A617047124940390860704746
:101560000F49C86470470B49C87170470948406A01
:1015700040F0807007494862704701460020054AE4
:1015800092680A400AB1012000E00020704701493A
:1015900088727047001002400000FFF8FFFFF6FE5F
:1015A000000042428004424200127A0000093D00DD
:1015B000220000203200002010B50446FB4884427F
:1015C00009D101218803FFF7ADFF00214FF48040CE
:1015D000FFF7A8FF32E0F648844209D10121480410
:1015E000FFF7ADFF00214FF40030FFF7A8FF25E023
:1015F000F048844209D101218804FFF7A0FF0021AF
:101600004FF48020FFF79BFF18E0EB48844209D19C
:101610000121C804FFF793FF00214FF40020FFF7DA
:101620008EFF0BE0E548844208D101210805FFF751
:1016300086FF00214FF48010FFF781FF10BD2DE9D8
:10164000F04786B005460E460024A24600BFA146DC
:101650000027B08900B100BF2F462C8A4CF6FF70DE
:101660000440F08804432C82AC894EF6F310044009
:10167000B08831890843718908430443AC81AC8A3E
:101680004FF6FF400440B0890443AC8201A8FFF745
:10169000C2FEC648874202D1DDF810A001E0DDF8A5
:1016A0000CA0A88900F4004040B10AEBCA0000EB8E
:1016B0000A1031684900B0FBF1F807E00AEBCA00F4
:1016C00000EB0A1031688900B0FBF1F86420B8FB28
:1016D000F0F004012009642101FB1089A88900F4BD
:1016E000004040B1322000EBC900B0FBF1F000F047
:1016F0000700044308E0322000EB09106421B0FB2E
:10170000F1F000F00F0004432C8106B0BDE8F08733
:101710004FF41651016000218180C18001810C21AC
:10172000418100218181704710B502460020108A56
:101730004FF2FF0318400B884C8823438C882343C7
:10174000CC8823431843108210BD002101804180C2
:101750008180C180704721B1828942F40052828128
:1017600004E082894DF6FF731A4082817047F0B51C
:101770000346002400260025002040F66A17B942DF
:1017800000D100BF1846C1F3421401F01F06012723
:1017900007FA06F5012C01D10C3004E0022C01D12E
:1017A000103000E014301AB107682F43076002E0E0
:1017B0000768AF430760F0BD1AB1838A0B43838289
:1017C00002E0838A8B4383827047028A4FF6F0736C
:1017D0001A400282028A0A430282704782894FF2CB
:1017E000FF731A40828182890A438281704721B146
:1017F000828942F00202828104E082894FF6FD7301
:101800001A4082817047028A4FF6DF731A400282C3
:10181000028A0A430282704721B1028A42F480425E
:10182000028204E0028A4BF6FF731A40028270477C
:10183000C1F308028280704701468888C0F308001F
:101840007047818941F0010181817047028BD2B2DA
:101850000283028B42EA012202837047028B02F468
:101860007F420283028B0A430283704721B1828A3E
:1018700042F02002828204E0828A4FF6DF731A402F
:101880008282704721B1828A42F01002828204E093
:10189000828A4FF6EF731A408282704721B1828AA2
:1018A00042F00802828204E0828A4FF6F7731A40FF
:1018B0008282704721B1828942F40042828103E032
:1018C0008289C2F30E028281704721B1828A42F47A
:1018D0000062828204E0828A4FF2FF731A408282A1
:1018E0007047828A4FF6FB731A408282828A0A43CB
:1018F0008282704721B1828A42F00202828204E031
:10190000828A4FF6FD731A40828270470246002099
:10191000B1F5007F00D100BF13880B400BB101204F
:1019200000E00020704701F40072B2F5007F00D1A2
:1019300000BFCA430280704770B5024600240023EE
:101940000025002040F66A16B14200D100BFC1F365
:10195000421501F01F03012606FA03F3012D02D1FF
:101960009689334006E0022D02D1168A334001E009
:10197000968A33400C12012606FA04F41688344085
:1019800013B10CB1012000E0002070BD10B50022A1
:10199000002340F66A14A14200D100BF0A120124BC
:1019A0009440A3B2DC43048010BD00000038014025
:1019B0000044004000480040004C004000500040FF
:1019C00031490143314A1160704770B5002100234D
:1019D0000F22C47804B32D4C246804F4E064C4F5E9
:1019E000E064210AC1F10403CA40447804FA03F117
:1019F0008478144021430901254C0678A1550478C8
:101A000004F01F050124AC4005786D11AD0005F10F
:101A1000E025C5F8004109E0047804F01F05012421
:101A2000AC401C4D0678761145F8264070BD1A4A28
:101A30000A400243154B1B1F1A60704739B1134A05
:101A4000121D12680243114B1B1D1A6006E00F4A5B
:101A5000121D126882430D4B1B1D1A60704704282B
:101A600008D14FF0E021096941F004014FF0E02274
:101A7000116107E04FF0E021096921F004014FF006
:101A8000E0221161704700000000FA050CED00E053
:101A900000E400E080E100E080FFFF1F10B5044695
:101AA000BE48844208D101218014FFF73BFD00218C
:101AB000A014FFF737FD16E0B948844208D1012190
:101AC0000014FFF73CFD00212014FFF738FD0AE069
:101AD000B448844207D10121C013FFF730FD002133
:101AE000E013FFF72CFD10BD10B50022028802F4B0
:101AF00041520B884C8823438C882343CC88234352
:101B00000C8923434C8923438C892343CC89234369
:101B10001A430280838B4FF2FF74234083830B8A26
:101B2000038210BD2DE9F04F85B005460C464FF0FD
:101B3000000902274FF000084FF0010B0026B246C3
:101B4000A88B4FF240010840A88302202884B5F8F2
:101B50001C90A068022801D100BF38E0A08810B90D
:101B60004FF0010B01E04FF0020B8D48854200D190
:101B700000E000BF6846FFF74EFCDDF800A0E088FB
:101B8000B0F5007F0AD14FEA1A2000EB8000400038
:101B9000A168B0FBF1F0401D86B20BE04FEA4B109C
:101BA000BAFBF0F000EB80004000A168B0FBF1F060
:101BB000401D86B20A20B6FBF0F606F00108A6EB3F
:101BC0000800C0F34F074FF6FF7000EA0828022F05
:101BD00001DBFF2F02DD02274FF00008E08840EA1A
:101BE000080038432884A088A189084361880843F5
:101BF0002188084340F4006040EA0909A5F81C90D8
:101C000005B0BDE8F08F0021018041808180C18056
:101C1000018141818181C1810721018270470021B9
:101C2000018041808180C180022181600021818109
:101C3000704721B1028842F04002028004E002882D
:101C40004FF6BF731A400280704721B1828B42F475
:101C50008062828304E0828B4FF6FF331A408283D6
:101C6000704730B5002400230C110125A540ABB20C
:101C70001AB185881D43858002E085889D43858053
:101C800030BD1AB183880B43838002E083888B4385
:101C900083807047818170470146888970474FF67D
:101CA000FF62914204D0028842F48072028004E014
:101CB00002884FF6FF631A400280704721B1828884
:101CC00042F00402828004E082884FF6FB731A40DF
:101CD0008280704702884FF2FF731A4002800288A8
:101CE0000A4302807047018841F4805101807047A7
:101CF00021B1028842F40052028004E002884DF6CD
:101D0000FF731A400280704702460020012901D06B
:101D1000108B00E0908A70470146088A7047B1F541
:101D2000804F04D1028842F48042028004E002889D
:101D30004BF6FF731A400280704702460020138959
:101D40000B400BB1012000E000207047CA43028124
:101D50007047F0B50246002000240023002501F062
:101D60000F070126BE40B4B20B1101269E40B3B24C
:101D7000968806EA03051689264016B10DB10120A2
:101D800000E00020F0BD10B5002201F00F04012397
:101D9000A3409AB2D343038110BD0000003001403C
:101DA00000380040003C0040002044490860091D04
:101DB0000860091D0860091D086041483F49143149
:101DC0000860704700213D498279002A3AD00A46CE
:101DD000126803689A430B461A600A1D126803686A
:101DE0009A430B1D1A60027911440A6803681A436A
:101DF0000A60324A0832126803689A432F4B08334C
:101E00001A601A1D126803689A432C4B0C331A602F
:101E10004279102A0ED11A1F126803681A43274B01
:101E200008331A601A1D126803681A43234B0C33D7
:101E30001A600DE02149427911440A6803681A4387
:101E40000A6005E0027911440A6803689A430A604F
:101E500070470021016001710C21417100218171E5
:101E600070471649103109680143144A1032116055
:101E7000704701460020114A143212680A400AB124
:101E8000012000E0002070470C49143108607047C1
:101E9000014600200022094B1B6803EA0102074BA0
:101EA00014331B680B4013B10AB1012000E000207D
:101EB0007047024914310860704700000004014077
:101EC000FFFF0F0070B503460C4603E014F8015BFA
:101ED00003F8015B151EA2F10102F7D170BD30B508
:101EE000034601E003F8011B141EA2F10102F9D11F
:101EF00030BD00B55A494FF42862C8680021FFF789
:101F0000EEFF57494FF4284288680021FFF7E7FFAA
:101F100001205349087400BD0022002106E050480A
:101F2000C06830F8110000B1521C491CB1F5A86F0F
:101F3000F5D3642050434FF4A863B0FBF3F0C0B274
:101F400070472DE9F04106460024A0464448007C35
:101F500010B94349086880471EB94FF0FF30BDE80B
:101F6000F081C6F34F1506F01F0008B1681C85B25A
:101F700040F23F541AE03A48C06830F8140020B9E3
:101F800008F101001FFA80F801E04FF00008A845B1
:101F90000BD1002705E03248C068E11920F8115044
:101FA0007F1CAF42F7D36001D9E7641E002CE2DA50
:101FB0004FF0FF30D3E770B505462948007C20B9C3
:101FC000274908688047012070BDB5F5284F11D218
:101FD00069092348C06830F81120002406E0002079
:101FE0001F4BDB680E1923F81600641C9442F6DBC5
:101FF0000020E9E70220E7E770B5044604B970BDA8
:1020000017488068251A2846FFF7D5FF00BFF6E776
:1020100070B505462846FFF794FF0446601C08B9D2
:10202000002070BD0E4880682044FAE770B506466F
:102030000C462046FFF785FF0546681C08B90020BE
:1020400070BD07498968481922463146FFF73AFFB3
:102050003046FFF7D1FF024880682844F0E70000CF
:102060003800002010B504462CB90120F649096853
:102070000882002010BDF549096808688047F248C9
:1020800000680A30F6E710B5EF480068C078F049FC
:102090004978884213DCEC480068807878B9EA48CF
:1020A0000068808858B9E8480068C078E64909683F
:1020B0008872E649096848688047002010BD022000
:1020C000FCE710B504462CB90120DF4909680882F5
:1020D000002010BDDD49096888688047DA4800683B
:1020E0000C30F6E710B5D84B1B68D978D64B1B6877
:1020F0005879D84B1B689A6990470446D2480068C3
:10210000807AE8B13CB9D0480068007918B9CE4867
:102110000068807808B1022010BD8CB9CB490968ED
:10212000C8688047C84800684079C7490968C872CC
:10213000C5480068C078C449096808730020EBE707
:102140000220E9E710B504462CB90220BE4909680F
:102150000882002010BD0020BF490880BA480068EE
:10216000007800F07F0018BBB7490968487A00F092
:10217000200131B1B849097841F00201B64A117025
:1021800005E0B549097801F0FD01B34A117000F08E
:10219000400131B1B049097841F00101AE4A1170F6
:1021A00005E0AD49097801F0FE01AB4A11703AE053
:1021B000A5480068007800F07F00012801D1A648FA
:1021C000C8E7A1480068007800F07F00022828D105
:1021D0009D4A1268517901F00F0001F080027AB136
:1021E0009E4B03EB8002D2F8002C02F03002102A42
:1021F00016D1994A127842F00102974B1A700FE0FB
:10220000964B03EB8002D2F8002C02F44052B2F558
:10221000805F05D1904A127842F001028E4B1A700D
:1022200001E0002096E789490968086980478A48E3
:1022300090E72DE9F04784480068007800F07F08B7
:10224000B8F1000F0AD180480068407A00F0DF0042
:102250007D49096848720020BDE8F087B8F1020F97
:102260007ED179480068408818B9774800680079BD
:1022700008B10220F0E7DFF8D89173480068477989
:1022800027F080052C4670480068407900F08000F7
:1022900038B1724901EB8400D0F8000C00F0300630
:1022A00006E06E4901EB8400D0F8000C00F44056C3
:1022B00099F80000A84204D91EB163480068807AEA
:1022C00008B90220C8E707F0800080B1634901EB3C
:1022D0008400D0F8000C00F0300010284BD1E0B2A0
:1022E00001F01DF8E0B2302100F09FFE43E05B49B1
:1022F00001EB8400D0F8000C00F44050B0F5805F92
:1023000039D1E4B9564A92F82C10E0B201F091F8B4
:10231000524A02EB8401D1F8001C4BF68F7201EA9D
:10232000020080F4805080F4005040F4004141F0FD
:1023300080014A4B03EB8402C2F8001C1BE0E0B2B0
:1023400000F0D5FF454A02EB8401D1F8001C4BF6A2
:102350008F7201EA020080F4805080F4005000E0A7
:102360000FE040F4004141F080013C4B03EB84025C
:10237000C2F8001C00BF3549096848698047002041
:102380006AE700BF022067E72DE9F0412E480068A8
:10239000467926F080073C462B480068407900F0DB
:1023A000800038B12D4901EB8400D0F8000C00F01A
:1023B000300506E0294901EB8400D0F8000C00F458
:1023C000405523480078A04208D91F48006840883B
:1023D00020B91DB11C480068807A10B90220BDE800
:1023E000F08106F08000A0B11C4A02EB8401D1F814
:1023F000001C48F6BF7201EA020080F0100040F4B1
:10240000004141F08001154B03EB8402C2F8001C2F
:1024100014E0124A02EB8401D1F8001C4BF68F72D3
:1024200001EA020080F4805040F4004141F0800154
:102430000A4B03EB8402C2F8001C00BF0349096881
:10244000886980470020CAE754000020600000200F
:10245000A0010020580000204C0000200050004047
:10246000A401002010B5F7480068407A40F0200031
:10247000F44909684872F4490968C869804700202E
:1024800010BD10B50246EF480068438A32B988880B
:10249000C01AEC4C24682082002010BD0868184443
:1024A000FBE72DE9F041E748006800F110042688B9
:1024B000A068C0B1BEB1A588B54200D93546A8B262
:1024C000A168884707462088401B208060882844F0
:1024D0006080002000F07FFF8046AAB24146384667
:1024E00000F03EFD00BF208850B14FF44050D74966
:1024F00008800021084600F07AFF3020D449088087
:102500002088A188884204DB0320CE49096808722C
:1025100018E02088002804DD0520CA4909680872EF
:1025200010E0208870B90620C649096808720021A9
:10253000C848006880B2801CC74A42F8101030209A
:10254000C3490880BDE8F0812DE9F047BD48006827
:1025500000F110052E88BB480068077AD6B9042F11
:1025600018D1BE48007801280FD10021B948006871
:1025700080B2801CB84A42F810103020B44908805C
:1025800000BF0020B549087003E007271020B049BC
:10259000088027E0AC88A64201D8042000E0022091
:1025A0000746B44200D93446A0B2A968884780469D
:1025B000002000F005FF8146A2B24946404600F0E7
:1025C000B5FCA1B2002000F012FF2888001B288073
:1025D00068882044688030209D49088000029B491B
:1025E000088000BF974909680F72BDE8F08770B591
:1025F000022694480068447892480068007800F009
:102600007F00002844D1092C03D1FFF73CFD06468A
:102610005FE0052C14D18B480068C0787F280BDC64
:1026200088480068807838B986480068808818B97A
:1026300084480068807A08B1082565E0002648E0F3
:10264000032C0ED17F480068C078012807D17D484F
:102650000068808818B9FFF705FF064639E00226B2
:1026600037E0012C35D177480068C07801280DD1BA
:1026700074480068808848B972480068407A00F061
:10268000200018B1FFF7D5FD064622E0022620E023
:102690006C480068007800F07F00012805D10B2C01
:1026A00017D1FFF71FFD064613E066480068007863
:1026B00000F07F0002280BD1012C03D1FFF7B9FDF8
:1026C000064606E0032C04D1FFF75EFE064600E056
:1026D00002264EB1E0B2624A126851698847064646
:1026E000032E01D109250FE00EB108250CE00625C7
:1026F00000215848006880B2801C574A42F81010E8
:1027000030205349088000BF4E4909680D7270BDE2
:102710002DE9F84F4B48006845780027BA46062D4A
:102720001BD148480068007800F07F00002813D1D2
:10273000444909688878012803D149490968CF6963
:102740000AE0022803D1464909680F6A04E0032819
:1027500002D1434909684F6AADE0002D67D139487D
:1027600000684088002862D136480068C088022886
:102770005DD1344800680079002858D1314800689C
:10278000007800F07F0030B92E480068808810B9CA
:10279000AFF24F678FE02B480068007800F07F00B1
:1027A000012811D12749096848792D4909688A69A2
:1027B0000021904700287ED122480068807A0028B6
:1027C00079D0AFF27F6776E01E480068007800F0AD
:1027D0007F0002286FD11B480068407900F00F0687
:1027E00018480068407900F0700916480068407980
:1027F00000F0800038B11B4901EB8600D0F8000CD6
:1028000000F0300806E0174901EB8600D0F8000C14
:1028100000F4405814480078B0424CD9B9F1000F88
:1028200049D1B8F1000F46D0AFF2E76743E0082D79
:102830001CD104480068007800F07F00D8BBAFF2DC
:10284000DB7738E0540000206000002064000020A6
:1028500066000020505C0040006000404E000020F8
:102860005800002000500040A00100200A2D22D175
:10287000C5480068007800F07F0001281BD1C248DD
:102880000068807AB8B1C0480068408898B9BE48EE
:102890000068007978B9BC480068C08801280AD16E
:1028A000B94909684879B94909688A690021904796
:1028B00008B9AFF2F17757B1B3480068A0F812A099
:1028C000B148006887610020B84700240FE0AE4A95
:1028D00012685078AD4A1268116988470446032C83
:1028E00005D10920A84909680872BDE8F88FA648F3
:1028F0000068008A4FF6FF71884204D10920A2497E
:1029000009680872F1E7022C03D09F480068008A2A
:1029100020B908209C4909680872E6E79A480068CF
:10292000007800F08000E0B397480068C08800900D
:1029300095480068008A0099884204D99249009815
:102940000968088223E090480068008A8E49096877
:10295000C98888421BDA8C480068008A8B4909685C
:1029600091F82C10884203DA0020894908700EE0A3
:1029700085480068008A8549096891F82C1090FB09
:10298000F1F201FB120010B90120814908707F4863
:10299000006890F82C107C4800688182FFF7D4FD15
:1029A00007E0FFE7032078490968087200037949C6
:1029B000088000BF99E710B5774890F82C100020E8
:1029C00000F037FD70480068007A082805D1400201
:1029D000704908801020714908806B480068007AAF
:1029E000092801D1012010BD0020FCE738B50124E1
:1029F0006B48006880B2001D6A4931F8100080B24F
:102A000001EB4000009060480068007A092832D04D
:102A1000009800785C49096808700098401C009094
:102A2000009800785849096848700098401C009048
:102A3000009800EB44000090009931F8020B0091DF
:102A400000F0A0FE504909684880009800EB44005F
:102A50000090009931F8020B009100F093FE4A4972
:102A600009688880009800EB440000900098008876
:102A700045490968C88001204349096808724248ED
:102A80000068C08810B9FFF7B2FD01E0FFF740FE13
:102A9000FFF791FF38BD30B50146434B1A7800204F
:102AA00014E00306414C04EB9353D3F8003C48F682
:102AB0008F74234048F280042343C4B223430406A6
:102AC0003A4D05EB9454C4F8003C401C9042E8D3C6
:102AD00041F08003324C241F236030BD10B52A48DA
:102AE0000068047A022C01D0042C05D1FFF72CFDDC
:102AF00025480068047A1CE0062C19D12248006899
:102B0000407805280ED120480068007800F07F004A
:102B100040B91D490968C878FFF7BDFF2449096815
:102B2000086A80471949096888688047082400E0D6
:102B30000824154909680C72FFF73DFF10BD10B558
:102B400011480068047A022C01D0042C01D1082419
:102B500012E0032C01D0052C05D1FFF7A2FC0A4896
:102B60000068047A08E0072C05D108490968C8689C
:102B70008047082400E00824034909680C72FFF725
:102B80001AFF10BD704700005400002058000020BC
:102B90004E00002064000020A401002066000020F8
:102BA000505C004000600040A00100200050004048
:102BB0006000002010B50848084908600220096834
:102BC000087207480749086007480849086005492E
:102BD00009680868804710BD98B50020540000209F
:102BE000A401002058000020D40100206000002033
:102BF00008B50020009022E1C448008800F00F00D2
:102C0000C34908700846007800287CD1C148006894
:102C1000C14908800846008800F03000BF4908809C
:102C2000BD48008800F44050BB490880B949096894
:102C30004BF6BF7201EA020080F4005080F02000E1
:102C400040F4004141F08001B24A1160AF48008871
:102C500000F0100090BB1046006848F60F71084065
:102C600011460860FFF73AFFAA4909684BF6BF72A0
:102C700001EA0200A849098801F4805109B180F4F1
:102C80008050A549098801F4005109B180F4005031
:102C9000A249098801F0100109B180F010009F4994
:102CA000098801F0200109B180F0200081B241F4CF
:102CB000004141F08001974A116008BDFFE7954847
:102CC000006880B20090BDF8000000F40060B0B36E
:102CD00090480068C0F30E0048F68F7108408D4997
:102CE0000860FFF783FE8B4909684BF6BF7201EA63
:102CF00002008949098801F4805109B180F48050AB
:102D00008549098800E056E001F4005109B180F4DA
:102D100000508249098801F0100109B180F01000CB
:102D20007E49098801F0200109B180F0200081B2BC
:102D300041F4004141F08001764A1160BDE7FFE7B0
:102D4000BDF8000000F40040002878D07148006809
:102D5000C0F30E0048F68F7108406E490860FFF717
:102D6000EEFE6C4909684BF6BF7201EA02006A493F
:102D7000098801F4805109B180F4805066490988BE
:102D800001F4005109B180F400506449098801F050
:102D9000100109B180F010006049098801F020019C
:102DA00009B180F0200081B241F4004141F080017E
:102DB000584A116081E756480078594901EB800074
:102DC000D0F8000C80B20090BDF8000000F4004084
:102DD000C0B14F48007801EB8000D0F8000CC0F380
:102DE0000E0048F68F710840494909784C4A02EBB9
:102DF0008101C1F8000C46490978491E494A52F838
:102E000021008047BDF8000000F08000B8B14048C4
:102E10000078434901EB8000D0F8000C48F60F71B0
:102E200008403B4909783E4A02EB8101C1F8000C99
:102E300037490978491E3C4A52F8210080473548F5
:102E40004430006880B23149088000F40040002816
:102E50007FF4D2AE00BF30E710B500244AE047F659
:102E6000FF702C49443108602848008800F00F00AA
:102E70002749087008460078294901EB8000D0F8FE
:102E8000000C84B204F40040C8B12148007801EB82
:102E90008000D0F8000CC0F30E0048F68F71084097
:102EA0001B4909781E4A02EB8101C1F8000C184940
:102EB0000978491E1B4A52F8210080471AE004F0A5
:102EC0008000B8B112480078154901EB8000D0F8B5
:102ED000000C48F60F7108400D490978104A02EBC2
:102EE0008101C1F8000C0A490978491E0E4A52F8BE
:102EF0002100804707484430006880B203490880B9
:102F000000F400400028AAD110BD0000600100209C
:102F100050000020005C004064000020660000209B
:102F2000005000408001002064010020F0B51446EC
:102F300004F1010C4FEA6C07DFF848C00CEB4103C9
:102F40003D460AE00678401C90F800C046EA0C2294
:102F500023F8022B9B1C401C6D1E002DF2D1F0BDEE
:102F6000F0B5561C7510074E06EB41042B4605E0E4
:102F700034F8047B20F8017B401C5B1E002BF7D14A
:102F8000F0BD000000600040FA4908607047F94851
:102F9000006880B27047F749091D08607047F5481E
:102FA000001D006880B27047F2480830006880B2A7
:102FB0007047F0490C3108607047EE480C300068EB
:102FC00080B270474FF6F8710140EA4A1032116042
:102FD0007047E8481030006880B27047E64B03EB5A
:102FE0008002C2F8001C70470146E34A02EB8100F0
:102FF000D0F8000C80B2704710B5DF4B03EB8002B5
:10300000D2F8002C48F68F131A400A43DA4C04EB2E
:103010008003C3F8002C10BD0146D74A02EB8100A3
:10302000D0F8000C00F4C060704730B5D24C04EB0F
:103030008003D3F8003C48F6BF7403EA040201F0B1
:1030400010030BB182F0100201F020030BB182F0EB
:10305000200242F4004343F08003C74D05EB800497
:10306000C4F8003C30BD30B5C34C04EB8003D3F84A
:10307000003C4BF68F7403EA040201F480530BB159
:1030800082F4805201F400530BB182F4005242F4F6
:10309000004343F08003B84D05EB8004C4F8003CC6
:1030A00030BD30B503460C461846FFF79DFF054678
:1030B000012C07D125F48050AF4A02EB8301C1F8FF
:1030C000000C08E0022C06D125F01000AA4A02EB01
:1030D0008301C1F8000C30BD0146A74A02EB810014
:1030E000D0F8000C00F0300070470146A24A02EB15
:1030F0008100D0F8000C00F44050704710B59E4B92
:1031000003EB8002D2F8002C48F6BF7302EA0301F9
:1031100081F0100181F0200141F4004242F0800270
:10312000954C04EB8003C3F8002C10BD10B5924BF6
:1031300003EB8002D2F8002C4BF68F7302EA0301F6
:1031400081F4805181F4005141F4004242F0800248
:10315000894C04EB8003C3F8002C10BD864A02EBB7
:103160008001D1F8001C41F4807148F68F72114043
:1031700048F280021143804B03EB8002C2F8001C2E
:1031800070477D4A02EB8001D1F8001C48F68F623F
:10319000114048F280021143774B03EB8002C2F8E2
:1031A000001C7047744A02EB8001D1F8001C48F6FD
:1031B0008F62114048F2800211436F4B03EB800293
:1031C000C2F8001C70476C4A02EB8001D1F8001C69
:1031D00041F4807148F68F72114048F28002114329
:1031E000654B03EB8002C2F8001C7047624A02EB99
:1031F0008001D1F8001C41F4807148F68F721140B3
:1032000048F2800211435C4B03EB8002C2F8001CC1
:103210007047594A02EB8001D1F8001C48F68F62D2
:10322000114048F280021143534B03EB8002C2F875
:10323000001C70470146504A02EB8100D0F8000C98
:1032400000F03000102801D1012070470020FCE779
:103250000146494A02EB8100D0F8000C00F44050CE
:10326000B0F5805F01D1012070470020FCE7424AA1
:1032700002EB8001D1F8001CC1F30E0148F68F72F9
:1032800011403D4B03EB8002C2F8001C70473A4AE4
:1032900002EB8001D1F8001C48F60F721140364B4A
:1032A00003EB8002C2F8001C7047334A02EB800136
:1032B000D1F8001C48F68F7211404CF28002114385
:1032C0002D4B03EB8002C2F8001C70472A4A02EB28
:1032D0008001D1F8001C48F68F72114048F2C002FC
:1032E0001143254B03EB8002C2F8001C7047224AB1
:1032F00002EB8001D1F8001C01F4804171B102EBB6
:103300008001D1F8001C48F68F7211404CF2800207
:103310001143194B03EB8002C2F8001C7047164A98
:1033200002EB8001D1F8001C01F0400171B102EB09
:103330008001D1F8001C48F68F72114048F2C0029B
:1033400011430D4B03EB8002C2F8001C704710B50F
:10335000094B03EB8002D2F8002C48F68F731A4019
:1033600048F280031A430A43034C04EB8003C3F87A
:10337000002C10BD405C0040005000400146FC4A5B
:1033800002EB8100D0F8000C00F00F00704710B580
:103390004A105200F74B1B689BB203EBC003F64C7C
:1033A00044F8132010BD10B54A105300F14A1268BA
:1033B00092B202EBC002121DEF4C44F8123010BD65
:1033C0000146EC48006880B200EBC100EA4A32F8DE
:1033D000100080B270470146E648006880B200EBFA
:1033E000C100001DE44A32F8100080B27047E14A83
:1033F000126892B202EBC002921CDF4B43F812102B
:10340000704702463E290BDD481101F01F030BB93E
:10341000431E98B24FF4004343EA8023136007E051
:10342000481001F001030BB1431C98B283021360F2
:10343000704710B50246CF48006880B200EBC2006A
:10344000801DCD4C04EB40033E290BDD481101F0FB
:103450001F040CB9441EA0B24FF4004444EA802477
:103460001C6007E0481001F001040CB1441CA0B23C
:1034700084021C6010BD0146BE48006880B200EBAB
:10348000C100801CBC4A32F81000C0F3090070472C
:103490000146B848006880B200EBC100801DB64A02
:1034A00032F81000C0F30900704730B54B105B00D4
:1034B000B04C2468A4B204EBC004AF4D45F81430FE
:1034C00053105C00AB4B1B689BB203EBC0031B1D8E
:1034D00045F8134030BD10B54A105200A54B1B688B
:1034E0009BB203EBC003A44C44F8132010BD10B5ED
:1034F0004A1053009F4A126892B202EBC002121D9A
:103500009D4C44F8123010BD01469A48006880B2C4
:1035100000EBC100984A32F8100080B270470146B3
:103520009448006880B200EBC100001D924A32F856
:10353000100080B2704730B50B46012B1FD18D496A
:10354000096889B201EBC001891C8B4D05EB410470
:103550003E2A0BDD511102F01F050DB94D1EA9B217
:103560004FF4004545EA8125256007E0511002F03F
:1035700001050DB14D1CA9B28D0225600AE0022B98
:1035800008D17C49096889B201EBC001891C7A4CD9
:1035900044F81120012B1FD17649096889B201EB4B
:1035A000C001891D744D05EB41043E2A0BDD51110C
:1035B00002F01F050DB94D1EA9B24FF4004545EAB2
:1035C0008125256007E0511002F001050DB14D1C69
:1035D000A9B28D0225600AE0022B08D1654909686D
:1035E00089B201EBC001891D634C44F8112030BD44
:1035F00030B5034601291FD15E48006880B200EB58
:10360000C300801C5C4D05EB40043E2A0BDD5011CD
:1036100002F01F050DB9451EA8B24FF4004545EA5A
:103620008025256007E0501002F001050DB1451C12
:10363000A8B2850225600AE0022908D14D48006839
:1036400080B200EBC300801C4B4C44F8102030BD0E
:1036500030B5034601291FD14648006880B200EB0F
:10366000C300801D444D05EB40043E2A0BDD501184
:1036700002F01F050DB9451EA8B24FF4004545EAFA
:103680008025256007E0501002F001050DB1451CB2
:10369000A8B2850225600AE0022908D135480068F1
:1036A00080B200EBC300801D334C44F8102030BDC5
:1036B00001463048006880B200EBC100801C2E4AF1
:1036C00032F81000C0F3090070470146294800682D
:1036D00080B200EBC100801D274A32F81000C0F311
:1036E0000900704701462348006880B200EBC10022
:1036F000801D214A32F8100000F47C4008B10120FE
:1037000070471C48006880B200EBC100801C1A4A58
:1037100032F81000C0F3090008B10220F0E70020E1
:10372000EEE710B5012910D1114B03EB8002D2F85E
:10373000002C48F68F731A4048F2C0031A430C4C11
:1037400004EB8003C3F8002C11E002290FD1084BD1
:1037500003EB8002D2F8002C48F68F731A404CF22B
:1037600080031A43024C04EB8003C3F8002C10BD05
:1037700000500040505C004000600040024641EABA
:10378000022070470146CAB20B1243EA022070477A
:1037900000201D4908604FF43F401C49088008463E
:1037A00000881949091F0860002070472DE9F04181
:1037B00004460E46154604F07F00FFF701FE07465B
:1037C000AAB239463046FFF7B1FBA9B204F07F0038
:1037D000FFF70DFE0020BDE8F0812DE9F041044621
:1037E0000E46002504F07F00FFF752FE054604F068
:1037F0007F00FFF7F0FD07462A4639463046FFF7BF
:10380000AFFB2846BDE8F081445C00405E0000202C
:103810006448006840F4802062490860704710B531
:1038200000F018FD10BD6048406820F480005E493B
:1038300048600846C06940F40000C861704710B590
:103840005AA001F00FFA03205F49086010BD10B5BF
:103850005E4C5FA001F006FAA07A18B105205A4923
:10386000086002E001205849086010BD0EB54FF411
:103870008020FEF71EFB4FF48020009008208DF87A
:10388000050001208DF806006846FEF79BFA14201B
:103890008DF8080001208DF8090000208DF80A003D
:1038A00001208DF80B0002A8FEF78FF82A208DF872
:1038B000080000208DF8090002A8FEF786F80EBD6A
:1038C00010B504461CB148A001F0CCF902E04CA0B0
:1038D00001F0C8F910BD3449896941F00401324A48
:1038E000916138B14C49096889B221F002014A4A14
:1038F000116014E04849096889B241F00201464A62
:1039000011604649096821F47F21444A116011463B
:10391000096841F44C3111600021414A116070473F
:1039200030B50B46002100BF16E00A24B4EB107F2F
:1039300005D9302404EB107403F8114005E041244C
:1039400004EB10740A3C03F81140000100254C0000
:10395000641C1D554C1CE1B29142E6DB30BD70B5D4
:1039600030480468001D0568001D0668344454B1E1
:1039700008222D492046FFF7D3FF04222A4910319F
:103980002846FFF7CDFF70BD00202849086070472A
:10399000012026490860704710B525A001F062F9A2
:1039A00010BD000014040140001002407573622035
:1039B000656E746572206C6F7720706F776572200A
:1039C0006D6F64650D0A00003002002098B500207C
:1039D0006C65617665206C6F7720706F77657220FB
:1039E0006D6F64650D0A00007573622070756C6CF4
:1039F00020757020656E61626C650D0A0000000024
:103A00007573622070756C6C2075702064697361C9
:103A1000626C650D0A000000405C00400408014033
:103A2000B0012142E8F7FF1F460100208401224235
:103A3000555342204E6F74436F6E666967757265A9
:103A4000640D0A000146002211B1012902D100E0F3
:103A500002E001E00120704700BF1046FBE72DE9BE
:103A6000F047064614461D46DDE9088936B90027A9
:103A70004A4621464046FDF757F802E00120BDE8DE
:103A8000F08700BF0FB10120F9E70020F7E72DE92B
:103A9000F047064614461D46DDE9088936B9002779
:103AA0004A4621464046FCF7A3FF02E00120BDE85C
:103AB000F08700BF0FB10120F9E70020F7E70146CA
:103AC00021B1012904D0022906D103E0002070476A
:103AD0000020FCE70120FAE70120F8E72DE9FC418E
:103AE00004460D4616469F48007890B99E4850F807
:103AF0002400A5FB00109D4AC2E900109A4850F826
:103B00002400A6FB00109A4AC2E900100120954942
:103B100008709448007801285CD19648006820BB62
:103B2000914830F8240080B293490968CDE900102B
:103B30008E480CC82046FFF7AAFFC7B22FB18F48A6
:103B4000007840F008008D49087040228A480168DA
:103B50008120FFF72BFE844850F824004038854927
:103B6000086040208649086012E083480068844A63
:103B70001268811840228120FFF718FE7D480068F6
:103B800040387C4908607E48006840307C490860C5
:103B900040210120FFF72BFC30210120FFF745FADF
:103BA0007248D0E9003040229A1840F100006F4975
:103BB000C1E900206E48D0E90010403960F10000F2
:103BC0006B4AC2E900106F48806840386D498860D0
:103BD000FFF7DAFE6648D0E900100023594058404C
:103BE000014310D100206349086065490860002145
:103BF0005E4A1160516003206349087000205949F2
:103C00000870FFF7C5FEBDE8FC812DE9FC470446BE
:103C10000D4616465D48006800F1400A514800789C
:103C200090B9514850F82400A5FB0010584AC2E949
:103C300000104D4850F82400A6FB0010554AC2E978
:103C400000100120474908704648007801286FD1CC
:103C500000205149086012E04F4801680068401C8C
:103C60004D4A10604D480068415C43480068474A2F
:103C70001268815445480068401C44490860434824
:103C800000685045E8D34248D0E9003044490988EB
:103C9000591840F100003E4AC2E900103D48D0E901
:103CA00000203F490988511A60F10000394AC2E9F1
:103CB00000102D4850F824703A460023354903C9B6
:103CC00000F035FF00214A404B401A4322D100202A
:103CD0002E490860244830F8240080B2264909683B
:103CE000CDE90010204850F824102948D0E90030D0
:103CF0005F1A60F100033A462046FFF7B0FE00F07D
:103D0000FF09B9F1000F05D01C48007840F004000D
:103D10001A4908701B48806821490988401A1949C6
:103D200088604FF440510220FFF79DF9FFF72CFE09
:103D30001848D0E90010002359405840014303D0EF
:103D40001148007804280AD1002010490860012198
:103D500000F028F8002003490870FFF719FEBDE8BD
:103D6000FC8700008C0000207000002090000020E4
:103D70009800002078000020880000208D0000209E
:103D80007C000020D4B500203001002080000020FD
:103D9000A0000020A80000208400002034010020A2
:103DA0003801002070B505460C46FD48FD49086005
:103DB000084605730D228120FFF7F8FC0520FA491B
:103DC00008702CB10420087030210120FFF72DF974
:103DD00070BD10B5F548007840F01000F349087048
:103DE000F148007802281BD003282ED0042802D0E6
:103DF000052834D100E000BF0020EB4908704FF4E3
:103E000040510220FFF72FF90220FFF76EF9B0F5BD
:103E1000805F04D14FF440510220FFF724F91FE0E6
:103E2000E348C07B28280ED1E048007840F002002B
:103E3000DE490870DE49487BDE490A68DE490968C8
:103E400000F069FD00BF00BF0AE001210020FFF77C
:103E5000A9FF4FF440510220FFF705F900E000BF31
:103E600000BF10BD10B5044624B1012C07D0022CB0
:103E700015D10AE010210120FFF7D7F810E04FF428
:103E800080510220FFF7EFF80AE010210120FFF730
:103E9000CCF84FF480510220FFF7E5F800E000BFB6
:103EA00000BF10BD10B5002405E0C4480068005DE7
:103EB000BF490855641CC24800888442F5D3BC48F9
:103EC0004068B8494860BA4880688860BC48008843
:103ED0001F280FD00220FFF7C5FF0020B44908605B
:103EE000487B1A22052100F02EFC00210120FFF75B
:103EF00059FF10BDAE48C07B282803D0AC48C07B1A
:103F00002A2816D1AA48407C0106A948807C41EAAB
:103F10000041A748C07C41EA0020A549097D08432B
:103F2000A5490860A248C17D807D41EA0020A149E1
:103F300008609F480068A34988426FD19C48407B35
:103F4000A1490968884207D89948807B012803DB8A
:103F50009748807B10280DDD0220FFF783FF9449EE
:103F6000487B2422052100F0EEFB00210120FFF711
:103F700019FFE8E08E48C07B25285FD01BDC1528A0
:103F80006FD00EDC08286DD006DC00285BD003283B
:103F900030D0042867D176E00A286ED01228F9D1F3
:103FA0002DE01A380A285ED2DFE800F0392EB17D04
:103FB00033B1B1B1B1438A286FD00EDC552867D038
:103FC00006DC282844D02A284ED02F28E2D155E0FC
:103FD0005A2829D08828DDD176E0A8286DD004DCC5
:103FE0008F286FD09E28D5D173E0AA287BD0AF2828
:103FF000D0D182E06E49487B00F038FC95E06C49F6
:10400000487B00F085FB90E06949487B00F03DFC6F
:104010008BE06749487B00F038FC86E086E0644925
:10402000487B00F015FC80E06149487B00F017FCFC
:104030007BE05F49487B00F08AFB76E05C49487B87
:1040400000F0C1FB71E05A49487B00F007FD6CE0CD
:104050005749487B57490A685749096800F05BFC93
:1040600063E01BE024E052E05149487B51490A6873
:104070005149096800F086FC57E02FE04C49487B25
:1040800000F0B7FC51E04A49487B00F001FD4CE0EC
:104090004749487B00F012FD47E029E04449487B4E
:1040A00000F00CFD41E04249487B00F007FD3CE098
:1040B0003F49487B00F002FD37E03D49487B00F076
:1040C000FDFC32E01EE00EE03949487B00F0F6FCD2
:1040D0002BE03749487B00F0F1FC26E03449487B6F
:1040E00000F0ECFC21E03249487B00F0E7FC1CE0EA
:1040F0002F49487B00F0E2FC17E02D49487B00F097
:10410000DDFC12E02A49487B00F0D8FC0DE00220DB
:10411000FFF7A8FE2649487B2022052100F013FB6B
:1041200000210120FFF73EFE00BF0CE00220FFF758
:1041300099FE1F49487B2022052100F004FB002145
:104140000120FFF72FFE00BFD3E610B51748007817
:1041500040F01000154908701548C47B17480168E5
:104160000220FFF73AFB164908800F48007810B18B
:10417000012839D102E0FFF795FE43E02A2C25D132
:104180000A48007840F00100084908700849487B57
:1041900008490A680849096800F0F4FB32E00000A9
:1041A00055534253D4B50020300100208D0000202B
:1041B000B4B50020400100203C0100203401002063
:1041C00038010020555342439C0100200120FFF795
:1041D00049FE1949487B2422052100F0B4FA002148
:1041E0000220FFF7DFFD0DE00220FFF73BFE124942
:1041F000487B2422052100F0A6FA00210220FFF7C7
:10420000D1FD00BF00BF10BD70B505460C4622466B
:1042100029468120FFF7CAFA30210120FEF705FF69
:1042200003200649087006488068001B044988601E
:104230000020087370BD0000B4B5002030010020DC
:10424000D4B5002010B5FFF7C4FD10BD10B5FFF7C1
:104250007CFF10BD10B53748006837490880084614
:10426000008800F4004035490988084008B1FEF78D
:10427000BFFC3148008800F480603049098808405C
:1042800030B14FF6FF302B4908602D494868804710
:104290002948008800F4005028490988084018B1CE
:1042A0004DF6FF70234908602348008800F48050D1
:1042B00022490988084030B14EF6FF701D49086058
:1042C000002000F0BBF91C48008800F400601B4986
:1042D0000988084060B11B48007810B100F08EF9E1
:1042E00002E0022000F0AAF94FF2FF7011490860C5
:1042F0001148008800F4007010490988084040B156
:104300004FF6FF500B4908600F480078401C0E49DB
:1043100008700948008800F480700849098808403E
:1043200030B14FF6FF6003490860072000F086F9BE
:1043300010BD0000445C0040600100205E000020D1
:10434000A4010020340200206201002010B5FFF714
:1043500006FB00208C490968887200F02DF9FFF7F0
:1043600017FA00208949086010BD10B5002088495F
:1043700088728848C0798449096848720020FEF72D
:1043800021FE4FF400710020FEF736FE20210020B0
:10439000FEF74BFE18210020FFF705F87E4890F845
:1043A0002C100020FFF745F858210020FEF7EFFF02
:1043B0000020FEF7F7FE0020FEF7B8FE00210120E6
:1043C000FEF71AFE98210120FEF7E1FF20210120CF
:1043D000FEF72BFE00210120FEF745FE0021022002
:1043E000FEF70AFED8210220FEF7DDFF6A4890F8AA
:1043F0002C100220FFF71DF84FF440510220FEF769
:1044000032FE00210220FEF710FE634890F82C10C7
:104410000020FFF70EF80020FEF788FE0020FEF7D0
:104420003AFB0120594908605C485D49086000205A
:104430005C490870FFF7B0FA10BD10B5524800682B
:10444000807A58B10520514908600120FEF767FFC6
:104450000220FEF74CFF00205249087010BD10B535
:104460004F4800684D49884202D00220FFF7FAFC0D
:1044700010BD0420454908607047704770470146E9
:1044800029B90120404A126810820020704746482E
:10449000FCE770B5054600243B480068007800F052
:1044A0007F00212811D1FE2D0FD1374800684088A8
:1044B00058B935480068808838B933480068C088E2
:1044C000012802D1AFF2490401E0022070BD0CB90D
:1044D0000220FBE72C480068846100212A4800681C
:1044E00041820020A0470020F0E710B5044626488E
:1044F0000068007800F07F0021281AD1FF2C18D125
:10450000214800684088A0B91F480068808880B9A9
:104510001D480068C08860B90120FEF700FF022036
:10452000FEF7E5FE1D481E49086000201D49087081
:1045300010BD0220FCE70246002901DD0220704781
:10454000002A01DD0220FAE70020F8E710B5044652
:1045500016492046FDF795FF10BD10B504461449D5
:104560002046FDF78EFF10BD70B505460648006871
:10457000C478052C01DD002070BD0E4800EBC4019D
:104580002846FDF77EFFF7E75400002030020020A8
:1045900098B50020CA4E0008A4010020555342439C
:1045A000B4B50020300100209C010020F80100205B
:1045B0000002002008020020012151480160002073
:1045C000504A1080104600884D4A10600020121D8D
:1045D00010604FF4E0504B4A108010460088484A63
:1045E0001060002070470120454908600020091D27
:1045F00008600320091F08600020704710B540487C
:10460000006884B244F008043D480460006884B245
:1046100044F004043A480460FFF711F910BD10B5E6
:104620003748006884B224F0040435480460FFF77A
:104630000EF94FF43F403249086010BD70B5054691
:10464000072D01D0304805702F48007808284ED239
:10465000DFE800F004111A202B384E4F2B48006879
:1046600028B9FFF7DCFF06202749087002E0052083
:104670002549087041E0FFF7D2FF04202249087065
:1046800001202249086038E002201F4948700320B9
:10469000087032E01C484078401E1B4948700846AC
:1046A000407808B90420087027E01548006884B2F3
:1046B00044F01004124804600520134908700A20D1
:1046C00048701AE010484078401E0F49487008466C
:1046D000407858B90A48006884B224F010040848A9
:1046E00004600620087000200849086005E000BF4B
:1046F00000BF06200449087000BF00BF70BD000065
:10470000405C00405E00002035020020380200209E
:1047100070B50646F948007C00F0010010B1F84C75
:1047200005250BE00EB9F74C00E0F74CF348C07CD0
:10473000242802DCF148C57C00E0242529462046D7
:10474000FFF762FD70BDF14B99701A73704710B599
:1047500004462046FFF7B3F968B1E849487B3A229E
:104760000221FFF7F0FF01210846FFF71BFB0020A5
:10477000FFF778FB10BDE64850F82400000EE5492D
:104780000871E34850F82400000C4871E04830F804
:104790002400000A8871DE4810F82400C871DE4841
:1047A00050F82400000C4872DB4830F82400000A5E
:1047B0008872D94810F82400C8720C21D548FFF738
:1047C00023FD00BFD6E710B504462046FFF777F972
:1047D00068B1CA49487B3A220221FFF7B4FF0121A0
:1047E0000846FFF7DFFA0020FFF73CFB10BDC84882
:1047F00050F82400401E000EC8490870C44850F804
:104800002400401E000C4870C14830F82400401EAF
:10481000000A8870BE4810F82400401EC870BE48C8
:1048200050F82400000E0871BB4850F82400000C1A
:104830004871B94830F82400000A8871B64810F869
:104840002400C8710821B548FFF7DEFC00BFCDE7A2
:1048500010B504460421B248FFF7D6FC10BD10B5D0
:1048600004460821AF48FFF7CFFC10BD70B50546E0
:10487000A248C07C122802DCA048C47C00E01224BC
:104880002146A248FFF7C0FC70BD10B504460121C7
:104890000020FFF787FA10BD2DE9F04104460D46D0
:1048A00017461E46B8199A4951F82410884213D960
:1048B0002A2D02D10220FFF7D5FA0020FFF7D2FA05
:1048C000212205212046FFF73EFF00210120FFF7AE
:1048D00069FA0020BDE8F081884881688E4850F868
:1048E00024007043814214D02A2D03D10220FFF707
:1048F000B9FA02E00020FFF7B5FA8049487B24228C
:104900000521FFF720FF00210120FFF74BFA0020CF
:10491000E0E70120DEE770B506460C461546824802
:10492000007820BB7549487B2B4622462821FFF79B
:10493000B3FF00B970BD7148007B00F0800040B14A
:104940000220794908702A4621463046FFF7C6F80A
:104950000CE00220FFF786FA6849487B24220521F3
:10496000FFF7F1FE01210846FFF71CFAE2E76E4867
:104970000078022804D12A4621463046FFF7AEF8D7
:1049800000BFD7E770B506460C4615466648007866
:1049900020BB5A49487B2B4622462A21FFF77CFF41
:1049A00000B970BD5548007B00F0800040B901207F
:1049B0005D4908704FF440510220FEF754FB0CE0B3
:1049C0000020FFF74FFA4D49487B24220521FFF7CD
:1049D000BAFE00210120FFF7E5F9E2E7524800782E
:1049E000012804D12A4621463046FFF70EF900BFC0
:1049F000D7E710B504464148806848B93F48007C75
:104A000000F0040020B901210020FFF7CBF90CE0F1
:104A10000220FFF727FA3949487B24220521FFF7B6
:104A200092FE00210120FFF7BDF910BD10B504462C
:104A30003248806868B10220FFF714FA2F49487B9A
:104A400020220521FFF77FFE00210120FFF7AAF9B0
:104A500003E001210020FFF7A5F910BD10B50446C1
:104A60002046FFF72CF868B12449487B3A220221FE
:104A7000FFF769FE01210846FFF794F90020FFF7D0
:104A8000F1F910BD01210020FFF78CF900BFF8E714
:104A900010B504462046FFF712F868B11749487B65
:104AA0003A220221FFF74FFE01210846FFF77AF96B
:104AB0000020FFF7D7F910BD00BFFCE710B5044692
:104AC0000E48806818B90020FFF7CCF90BE00B48BE
:104AD000007B00F0800018B10020FFF7C3F902E06E
:104AE0000220FFF7BFF90549487B20220521FFF787
:104AF0002AFE00210120FFF755F910BDB4B50020B2
:104B0000B0000020B5000020DA0000200A010020DB
:104B10007400002024010020700000201C010020EF
:104B2000FE0000200201002030010020704753EAFF
:104B3000020C00F069802DE9F04B4FF00006002BCD
:104B40001FBFB3FA83F503FA05F424FA05F65E40B5
:104B500012BF1643B2FA82F502FA05F4C5F1200538
:104B60001EBF22FA05FC44EA0C04203556EA044C28
:104B70004FEA144418BF641C4FF000084FF00009BE
:104B8000904271EB030C39D3002919BFB1FA81F7B8
:104B900001FA07F6B0FA80F700FA07F6C7F1200726
:104BA0001EBF20FA07FC46EA0C062037B6FBF4FCD1
:104BB000A7EB0507103F07F01F0BCBF120060CFAFF
:104BC0000BFB2CFA06F644BFB3460026202FA4BFE9
:104BD0005E464FF0000B5BEA060C08BF4FF0010B7E
:104BE00019EB0B09ABFB027C48EB0608C01B06FB6C
:104BF00002CC0BFB03CC71EB0C01C1E70B46024668
:104C000041464846BDE8F08B13B54FF000004FF029
:104C10000001AFF30080BDE81C40704710B54C1098
:104C200084EA530404D54042C1F1000138BF491E53
:104C30001B4204D55242C3F1000338BF5B1EFFF78D
:104C400076FF14F0804F04D04042C1F1000138BF1C
:104C5000491E14F0004F04D05242C3F1000338BF84
:104C60005B1E10BD0FB4044910B503AA029800F0F2
:104C7000C3F810BC5DF814FB1C0000202DE9F041C6
:104C80000E460446002020622046E168884730B383
:104C9000252805D0D4E901219047206A401CF2E77D
:104CA000E168204600278847050018D0A5F141009B
:104CB000192802D820354FF400673246294620468D
:104CC0002760FBF78FFA40B1012804D0F61D26F0CB
:104CD00007060836D8E7361DD6E72846DAE7206A01
:104CE000BDE8F08170B504460D4621461068AFF36B
:104CF00000802188090502D50F4A7A4402E00E4A55
:104D00007A440E32002104F1240305E000F00F067E
:104D10000009965D5E54491C0028F7D120780023D5
:104D2000000704D5702D02D009B1022311322046AC
:104D3000BDE8704000F006B83A02000070477047C6
:104D4000704770472DE9F0470D4699469246044654
:104D500000F124080168880604D5E06921F01001FB
:104D6000216000E00120A84201DD471B00E0002790
:104D7000A1697A1902EB0900081AA0612078C0061F
:104D800002D42046AFF30080002608E0D4E90121D8
:104D90001AF806009047206A401C761C20624E4597
:104DA000F4DB2078C0060AD52046AFF3008006E089
:104DB000D4E9012130209047206A401C2062381E2F
:104DC000A7F10107F4DC07E0D4E9012118F8050098
:104DD0009047206A401C2062281EA5F10105F3DCE3
:104DE0002046AFF300802078000602D50220BDE8FF
:104DF000F0870120FBE70000074B70B50D467B44B0
:104E000000F011F80446284600F020F810B14FF0E9
:104E1000FF3070BD204670BD3BBFFFFF01694A1CDB
:104E200002610878704700B58FB0CDE901310021EB
:104E3000059105497944CDE9031011466846FFF70D
:104E40001DFF0FB000BD0000E5FFFFFF007B00F07D
:104E500080007047754600F02BF8AE4605006946A5
:104E6000534620F00700854618B020B5FCF712F82D
:104E7000BDE820404FF000064FF000074FF000085B
:104E80004FF0000B21F00701AC46ACE8C009ACE8DC
:104E9000C009ACE8C009ACE8C0098D46704710B540
:104EA0000446AFF300802046BDE81040FBF7ACB9E4
:104EB00000487047E4B500201201000200000040E5
:104EC00083042057000201020301090220000101AE
:104ED00000C03209040000020806500407058102E0
:104EE00040000007050202400000040309041A0301
:104EF0007F5EDE5D1F66FC7F3575505BD179628019
:104F0000096750966C51F853200341004C0049004A
:104F100045004E00540045004B0020005300440063
:104F20006153FB8B615368561003530054002000FB
:104F30004D00610073007300303132333435363741
:104F400038394142434445464030580030313233CD
:104F500034353637383961626364656640307800CD
:104F6000804F0008000000203C0200006C01000897
:104F7000685000083C0200200CBA0000C80100087C
:104F80001184A24A04100A01020304060708090159
:104F9000E317EF291A691E250204060813F31E14ED
:104FA00008191F14081803142018AB026E2035804E
:104FB000020221281E414C49454E54454B20534482
:104FC00020466C617368204469736B202020312E69
:104FD00030202529978925AB504926292442036290
:104FE00006627002150A19F221021702141A0353FD
:104FF0001254124D12331232123102113013454243
:105000000C1808852B040A154D2041230301134D6C
:10501000431B086B04137B441B087D041A93041A7A
:10502000EB041B37453C19041A5B041A690441322E
:1050300040293C1A3B20A94C9A5F101A730C13B8F4
:105040004E3308121ACA0832201AEA0832041AEE3D
:10505000082A1AF14A4F181344012A20101A28105E
:085060007210199351000000C9
:0400000508000131BD
:00000001FF
