:020000040800F2
:1000000008440020D5010008D9010008DB010008E0
:10001000DD010008DF010008E10100080000000028
:10002000000000000000000000000000E3010008E4
:10003000E501000800000000E7010008E9010008F0
:10004000EB010008EB010008EB010008EB010008E0
:10005000EB010008EB010008EB010008EB010008D0
:10006000EB010008EB010008EB010008EB010008C0
:10007000EB010008EB010008EB010008EB010008B0
:10008000EB010008EB010008EB010008EB010008A0
:10009000C3280008EB010008EB010008EB01000891
:1000A000EB010008EB010008EB010008EB01000880
:1000B000EB010008EB010008EB010008EB01000870
:1000C000EB010008EB010008EB010008EB01000860
:1000D000EB010008030E0008EB010008EB0100082B
:1000E000EB010008EB010008B528000800F002F859
:1000F00000F05AF80AA090E8000C82448344AAF168
:100100000107DA4501D100F04FF8AFF2090EBAE865
:100110000F0013F0010F18BFFB1A43F0010318473B
:10012000A0420000C04200000A444FF0000C10F84A
:10013000013B13F0070408BF10F8014B1D1108BF65
:1001400010F8015B641E05D010F8016B641E01F805
:10015000016BF9D113F0080F1EBF10F8014BAD1C55
:100160000C1B09D16D1E58BF01F801CBFAD505E073
:1001700014F8016B01F8016B6D1EF9D59142D6D3CD
:10018000704700000023002400250026103A28BFF5
:1001900078C1FBD8520728BF30C148BF0B607047F9
:1001A0001FB51FBD10B510BD03F0E0FD1146FFF7F0
:1001B000F7FF00F02BF803F012FE03B4FFF7F2FF95
:1001C00003BC00F00FFE000030BF72B662B680F3D1
:1001D0000888704708480047FEE7FEE7FEE7FEE7AD
:1001E000FEE7FEE7FEE7FEE7FEE7FEE70348044919
:1001F000044A054B70470000ED000008083E00204F
:100200000844002008400020084000200024002569
:10021000092000F08EFD482000F02EFC4FF4E13163
:10022000482000F029FE00F02DF900F045F958A013
:1002300003F05EFD5AA003F05BFD00F093FA5E4808
:1002400000884EF61471884203D05CA003F050FD84
:1002500018E04FF4001100205C4AC2E900100813B6
:100260005B4908600846D0F800C01046624600238B
:10027000D0E90071384603F017FD5649086056A0D2
:1002800003F036FD4FF4E16000F02EFC002002F098
:1002900068FB4FF4967000F027FC012002F061FB30
:1002A00053A003F025FD4FF4007000F003FF554903
:1002B0000860402000F0FEFE5349086002F028FB71
:1002C00002F003FB01F0C8FC4FF4E16000F00CFC0D
:1002D0005CE0012000F008FC4C480078864221D008
:1002E0004A48007800F0010010B149A003F000FD79
:1002F0004648007800F0020010B14AA003F0F8FC74
:100300004248007800F0040010B14BA003F0F0FC6C
:100310003E48007800F0080010B14BA003F0E8FC64
:100320003A4806784C48006881450ED04A48006833
:10033000052803D149A003F0DBFC02E04BA003F049
:10034000D7FC4548006800F0FF09681CC5B2C82DFD
:100350001CD100254A48006808B9012000E00020AF
:10036000474908602948007800F0100020B10024B7
:1003700005203949086006E0601CC4B20A2C02DD81
:10038000002035490860002020490870A1E70000DE
:100390004E414E4F2053544D33320D0A00000000A1
:1003A0005553422043617264205265616465722036
:1003B000544553540D0A00000200002057323551B5
:1003C0003136204572726F72210D0A004000002004
:1003D000480000204C00002053504920464C415317
:1003E000482053697A653A323034384B420D0A005E
:1003F00055534220436F6E6E656374696E672E2E8F
:100400002E0D0A00600000200C0100206500002075
:100410005553422057726974696E672E2E2E0D0A4D
:10042000000000005553422052656164696E672EDA
:100430002E2E0D0A00000000555342205772697499
:1004400065204572720D0A00555342205265616461
:1004500020204572720D0A000802002055534220E8
:10046000436F6E6E65637465640D0A0055534220D8
:10047000446973436F6E6E65637465640D0A0000B2
:10048000800122420A48806940F0100008498861D2
:10049000084800680020074908600846006840F0E6
:1004A000333008600846C06840F0FF00C8607047FD
:1004B00000100240001001404548806940F00400EF
:1004C000434988610846806940F010008861084609
:1004D000806940F0200088613E48006820F00F00ED
:1004E0003C4908600846006840F0080008603A4847
:1004F000406820F0FF00384948600846406840F0F6
:10050000880048600846C06840F48070C8600846AB
:10051000C06840F40070C8603048006820F4706023
:100520002E4908600846006840F4006008602B48C7
:100530000C30006840F0040028490C310860704716
:1005400010B5044614B101202549087024480078EC
:1005500048B32448006850B12248001D006830B1FB
:100560002148006818B12148006801281BD10A20E1
:1005700000F0BAFA00201A4908701A48006808B951
:10058000012010BD1748001D006808B90220F8E7D7
:100590001548006808B90320F3E7144800680128EB
:1005A00014D10420EDE70F48006801280ED10D4852
:1005B000001D0068012809D10B480068012805D1F9
:1005C0000A48006810B90120054908700020D8E7E2
:1005D00000100240000801400010014000140140DA
:1005E0000000002020012242088122420001214215
:1005F0000246002107E0481C81B24FF6FE7081429E
:1006000001DD002070474348008800F00200002808
:10061000F1D04048001D0280002107E0481C81B253
:100620004FF6FE70814201DD0020EBE7394800887B
:1006300000F001000028F1D03648001D0088C0B24B
:10064000E0E700B53448806940F00800324988612D
:100650000846C06940F48040C86130480068C0F373
:1006600013002E490860084600682D4908432B49AD
:1006700008602A480830006840F460402749083183
:10068000086024480838008822490839088008464C
:10069000008840F4007008800846008840F48070AC
:1006A00008800846008840F004000880084600885A
:1006B00008800846008840F002000880084600884C
:1006C00040F0010008800846008840F038000880AB
:1006D0000846008808800846008840F040000880EE
:1006E000FF20FFF785FF00BD00F00700094908392A
:1006F00009884FF6C7721140064A083A1180114620
:10070000098841EAC00111801146098841F0400181
:10071000118070470838004000100240040C01406E
:100720000000B0BB10B500240020CD490860902027
:10073000FFF75EFF0020FFF75BFF0020FFF758FF89
:100740000020FFF755FFFF20FFF752FF44EA002487
:10075000FF20FFF74DFF04430120C249C1F8B0015B
:10076000204610BD10B5C048806940F00800BE4961
:100770008861BE48006820F47020BC4908600846C3
:10078000006840F440300860B8480830006840F421
:100790008050B64908310860FFF753FF0120FFF78A
:1007A000A3FFFFF7BFFFB249088010BD10B50024BA
:1007B0000020AB4908600520FFF71AFFFF20FFF774
:1007C00017FF04460120A749C1F8B001204610BD1B
:1007D00010B504460020A24908600120FFF708FF79
:1007E0002046FFF705FF01209E49C1F8B00110BD6A
:1007F00010B500209A4908600620FFF7F9FE012095
:100800009849C1F8B00110BD10B5002094490860A6
:100810000420FFF7EDFE01209249C1F8B00110BDA0
:100820002DE9F04106460C46174600208C49086029
:100830000320FFF7DDFEC4F30740FFF7D9FEC4F342
:100840000720FFF7D5FEE0B2FFF7D2FE002505E056
:10085000FF20FFF7CDFE7055681C85B2BD42F7DB67
:1008600001207F490860BDE8F08110B500BFFFF7A7
:100870009DFF00F001000028F9D110BD2DE9F041E5
:1008800006460C461746FFF7B3FF00207449086080
:100890000220FFF7ADFEC4F30740FFF7A9FEC4F343
:1008A0000720FFF7A5FEE0B2FFF7A2FE002504E057
:1008B000705DFFF79DFE681C85B2BD42F8DB01202C
:1008C00067490860FFF7D1FFBDE8F0812DE9F041ED
:1008D00007460E461446F0B2C0F58075AC4200DC07
:1008E000254612E02A4631463846FFF7C7FFAC429C
:1008F00000D10BE02F442E44601B84B2B4F5807FFE
:1009000002DD4FF4807500E02546EBE700BFBDE84F
:10091000F08110B504462403FFF76AFFFFF7A5FF37
:1009200000204F4908602020FFF762FEC4F3074013
:10093000FFF75EFEC4F30720FFF75AFEE0B2FFF7B1
:1009400057FE01204749C1F8B001FFF78EFF10BDE7
:100950002DE9F04781460F4616464FEA1738C7F390
:100960000B0ACAF58054A64200DC344644E04FEA44
:1009700008314FF480523F48FFF752FF002508E04E
:100980000AEB05003B49085CFF2800D003E0681C27
:1009900085B2A542F4DB00BFA54216DA4046FFF758
:1009A000B8FF002507E019F8050005EB0A01314AF8
:1009B0005054681C85B2A542F5DB4FEA08314FF46C
:1009C00080522C48FFF782FF04E022463946484611
:1009D000FFF77CFFA64200D10FE008F101084FF0BD
:1009E000000AA1442744301B86B2B6F5805F02DDC1
:1009F0004FF4805400E03446B9E700BFBDE8F0870B
:100A000010B5FFF7F5FEFFF730FF0020144908602E
:100A1000C720FFF7EDFD01201249C1F8B001FFF733
:100A200024FF10BD10B500200D490860B920FFF764
:100A3000DFFD01200B49C1F8B001032000F038F8B8
:100A400010BD10B5002006490860AB20FFF7D0FDAF
:100A500001200449C1F8B001032000F029F810BDBD
:100A6000B08121420080214200100240040C01406C
:100A700002000020140200204FF0E021096921F05B
:100A800004014FF0E0221161C21700EB5272C2F371
:100A9000C702234B1A701946097801EB4102C2EBD9
:100AA000C1114FF6FF7202EAC1011E4A1180704760
:100AB00001461B4A12784A434FF0E0235A61002254
:100AC0009A6101221A6100BF4FF0E022106900F024
:100AD00001021AB100F48032002AF5D000224FF052
:100AE000E0231A619A61704701460E4A12884A4310
:100AF0004FF0E0235A6100229A6101221A6100BF7F
:100B00004FF0E022106900F001021AB100F48032C7
:100B1000002AF5D000224FF0E0231A619A61704755
:100B20000400002006000020A34A0A400243A34B11
:100B30001A6070470146072323EA010212029F4B05
:100B40001B1D18684FF6FF0318409D4B18431043B8
:100B50009A4B1B1D186070472DE9F04107468846E7
:100B600014461D462846FFF7E5FFC5F1040007FAC5
:100B700000F60F20284100EA0800064306F00F06A1
:100B8000E21704EBD2625211920002F1E022D2F895
:100B900000212146E31704EBD3635B11A4EB431C54
:100BA000012303FA0CF31A432046E31704EBD36343
:100BB0005B119B0003F1E023C3F800218148005D35
:100BC00040EA06107F490855BDE8F08170B504463B
:100BD0000B46CE1701EB9676C6F38700CE1701EBD6
:100BE0009676B610A1EB8606B606350E764B9B6957
:100BF00043F00103744EB3614FEAB63353F820302B
:100C00000F26AE40B343714E46F82030334653F8BA
:100C1000203004FA05F61E436C4B43F820606C4B01
:100C20001B6801268E403343694E336002F0010396
:100C300043B1674B0C331B6801268E403343644E2F
:100C40000C36336002F0020343B1614B08331E6877
:100C500001238B401E435E4B08331E6070BD00B500
:100C6000002059490861C86014204861002088614B
:100C7000C8610846006840F0010008600846406806
:100C800054490840504948600846006852490840A5
:100C90004D4908600846006820F480200860084636
:100CA000406820F4FE0048600020886000214FF07A
:100CB0000060FFF739FF00BD10B5404808300068FC
:100CC00040F004003D49083108603F48C06940F0E9
:100CD00080503D49C8614148406840F480703F49B8
:100CE00048600846006840F0040008600846006854
:100CF00040F002000860FFF767FA10BD3048001DA1
:100D00002E49091D08607047014649062E4A92691E
:100D100042F001022C4B9A612C4A083A526822F0A8
:100D2000E0622A4B083B5A601A4652680A435A60EE
:100D3000704730B504460025FFF791FF2248006850
:100D400040F480302049086000BF1F480068400C14
:100D50000028FAD04FF480601B494860A01EC4B23E
:100D60000846406840EA844048600846406840F4CD
:100D7000803048601A48006840F032001849086026
:100D80001148006840F080700F49086000BF0E48AD
:100D90000068400E0028FAD00B48406840F002007E
:100DA0000949486005E008484068C0F3870505F038
:100DB0000305022DF7D130BD80FFFF1F08ED00E0D5
:100DC0000000FA0500E400E00010024008000140C5
:100DD000000401400000FFF8FFFFF6FE0070004035
:100DE00000200240014600BF704700BF584A1288E9
:100DF00002F04002002AF9D0C2B2554B1B1D1A80E6
:100E000070475349098801F0200111B35049091D69
:100E10000988C8B24F49098801F40041C9B94D4950
:100E2000098801F4804161B10A2803D00021494AB0
:100E3000118020E04749098841F40041454A11806A
:100E400019E00D2806D14349098841F48041414AFF
:100E5000118010E03F490988C1F30D013E4A50540A
:100E60003C490988491C3B4A118011460988C72919
:100E700001DD0021118070472DE9F05F05460E4627
:100E8000300103F0FDF88146344905FB01F003F021
:100E9000F7F88246494603F011F80746384603F052
:100EA000CFF884B2204603F0EBF88346394603F0CE
:100EB000C7F982464FF0834103F0F6F8814603F00C
:100EC000BFF880464FF6FF7000EA041404EB0800F8
:100ED00084B22348806940F00400214988610846B3
:100EE000806940F4804088611E48006820F47F607B
:100EF0001C4908600846006840F40B600860184808
:100F0000C06840F480401649C8600846C06820F4B4
:100F10008040C8600E4808300480001D008842F2FE
:100F20000C0108430A490C3108800846008840F447
:100F3000807008800846008840F020000880022366
:100F4000252203210846FFF707FEBDE8F09F0000B9
:100F5000003801400C0000201412002040420F0015
:100F6000001002400408014070B503460C4603E03F
:100F700014F8015B03F8015B151EA2F10102F7D121
:100F800070BD30B5034601E003F8011B141EA2F149
:100F90000102F9D130BD00B55A494FF42072C8683A
:100FA0000021FFF7EEFF57494FF4205288680021D7
:100FB000FFF7E7FF01205349087400BD002200211C
:100FC00006E05048C06830F8110000B1521C491CBE
:100FD000B1F5A07FF5D3642050434FF4A073B0FB6C
:100FE000F3F0C0B270472DE9F04106460024A04658
:100FF0004448007C10B94349086880471EB94FF047
:10100000FF30BDE8F081C6F34F1506F01F0008B1B0
:10101000681C85B240F23F141AE03A48C06830F8C4
:10102000140020B908F101001FFA80F801E04FF028
:101030000008A8450BD1002705E03248C068E11937
:1010400020F811507F1CAF42F7D36001D9E7641E2E
:10105000002CE2DA4FF0FF30D3E770B5054629489F
:10106000007C20B9274908688047012070BDB5F58C
:10107000205F11D269092348C06830F8112000248C
:1010800006E000201F4BDB680E1923F81600641CD5
:101090009442F6DB0020E9E70220E7E770B504465A
:1010A00004B970BD17488068251A2846FFF7D5FF98
:1010B00000BFF6E770B505462846FFF794FF0446E3
:1010C000601C08B9002070BD0E4880682044FAE713
:1010D00070B506460C462046FFF785FF0546681C9E
:1010E00008B9002070BD0749896848192246314671
:1010F000FFF73AFF3046FFF7D1FF024880682844E7
:10110000F0E700001000002010B504462CB90120C3
:10111000F64909680882002010BDF5490968086889
:101120008047F24800680A30F6E710B5EF480068DB
:10113000C078F0494978884213DCEC480068807830
:1011400078B9EA480068808858B9E8480068C078EB
:10115000E64909688872E6490968486880470020BE
:1011600010BD0220FCE710B504462CB90120DF4970
:1011700009680882002010BDDD4909688868804739
:10118000DA4800680C30F6E710B5D84B1B68D97800
:10119000D64B1B685879D84B1B689A699047044610
:1011A000D2480068807AE8B13CB9D048006800793C
:1011B00018B9CE480068807808B1022010BD8CB9FB
:1011C000CB490968C8688047C84800684079C74962
:1011D0000968C872C5480068C078C44909680873BE
:1011E0000020EBE70220E9E710B504462CB9022005
:1011F000BE4909680882002010BD0020BF49088050
:10120000BA480068007800F07F0018BBB749096849
:10121000487A00F0200131B1B849097841F0020163
:10122000B64A117005E0B549097801F0FD01B34AED
:10123000117000F0400131B1B049097841F001016D
:10124000AE4A117005E0AD49097801F0FE01AB4AE4
:1012500011703AE0A5480068007800F07F0001288E
:1012600001D1A648C8E7A1480068007800F07F00D7
:10127000022828D19D4A1268517901F00F0001F02F
:1012800080027AB19E4B03EB8002D2F8002C02F070
:101290003002102A16D1994A127842F00102974B77
:1012A0001A700FE0964B03EB8002D2F8002C02F488
:1012B0004052B2F5805F05D1904A127842F00102A7
:1012C0008E4B1A7001E0002096E789490968086989
:1012D00080478A4890E72DE9F04784480068007805
:1012E00000F07F08B8F1000F0AD180480068407A0A
:1012F00000F0DF007D49096848720020BDE8F087F2
:10130000B8F1020F7ED179480068408818B9774853
:101310000068007908B10220F0E7DFF8D89173483F
:101320000068477927F080052C46704800684079AE
:1013300000F0800038B1724901EB8400D0F8000C55
:1013400000F0300606E06E4901EB8400D0F8000C96
:1013500000F4405699F80000A84204D91EB1634831
:101360000068807A08B90220C8E707F0800080B1E1
:10137000634901EB8400D0F8000C00F03000102825
:101380004BD1E0B201F01DF8E0B2302100F09FFE39
:1013900043E05B4901EB8400D0F8000C00F44050BE
:1013A000B0F5805F39D1E4B9564A92F82C10E0B21A
:1013B00001F091F8524A02EB8401D1F8001C4BF67F
:1013C0008F7201EA020080F4805080F4005040F4F3
:1013D000004141F080014A4B03EB8402C2F8001C3B
:1013E0001BE0E0B200F0D5FF454A02EB8401D1F8E2
:1013F000001C4BF68F7201EA020080F4805080F4EA
:10140000005000E00FE040F4004141F080013C4B0F
:1014100003EB8402C2F8001C00BF35490968486923
:10142000804700206AE700BF022067E72DE9F0410E
:101430002E480068467926F080073C462B48006815
:10144000407900F0800038B12D4901EB8400D0F8DC
:10145000000C00F0300506E0294901EB8400D0F8CB
:10146000000C00F4405523480078A04208D91F48DA
:101470000068408820B91DB11C480068807A10B906
:101480000220BDE8F08106F08000A0B11C4A02EB0A
:101490008401D1F8001C48F6BF7201EA020080F016
:1014A000100040F4004141F08001154B03EB840231
:1014B000C2F8001C14E0124A02EB8401D1F8001CAF
:1014C0004BF68F7201EA020080F4805040F4004134
:1014D00041F080010A4B03EB8402C2F8001C00BFFC
:1014E00003490968886980470020CAE72C0000206A
:1014F0003800002078010020300000202400002067
:10150000005000407C01002010B5F7480068407A88
:1015100040F02000F44909684872F4490968C86934
:101520008047002010BD10B50246EF480068438A8E
:1015300032B98888C01AEC4C24682082002010BD83
:1015400008681844FBE72DE9F041E748006800F11E
:1015500010042688A068C0B1BEB1A588B54200D9E4
:101560003546A8B2A168884707462088401B2080DE
:10157000608828446080002000F07FFF8046AAB287
:101580004146384600F03EFD00BF208850B14FF480
:101590004050D74908800021084600F07AFF3020EB
:1015A000D44908802088A188884204DB0320CE49E2
:1015B0000968087218E02088002804DD0520CA495F
:1015C0000968087210E0208870B90620C6490968C9
:1015D00008720021C848006880B2801CC74A42F8DF
:1015E00010103020C3490880BDE8F0812DE9F04794
:1015F000BD48006800F110052E88BB480068077AD6
:10160000D6B9042F18D1BE48007801280FD1002187
:10161000B948006880B2801CB84A42F810103020E7
:10162000B449088000BF0020B549087003E00727CF
:101630001020B049088027E0AC88A64201D80420D9
:1016400000E002200746B44200D93446A0B2A9689F
:1016500088478046002000F005FF8146A2B2494637
:10166000404600F0B5FCA1B2002000F012FF28882F
:10167000001B288068882044688030209D490880AD
:1016800000029B49088000BF974909680F72BDE8B6
:10169000F08770B502269448006844789248006844
:1016A000007800F07F00002844D1092C03D1FFF717
:1016B0003CFD06465FE0052C14D18B480068C078DD
:1016C0007F280BDC88480068807838B98648006835
:1016D000808818B984480068807A08B1082565E0D8
:1016E000002648E0032C0ED17F480068C07801280E
:1016F00007D17D480068808818B9FFF705FF0646C6
:1017000039E0022637E0012C35D177480068C078EF
:1017100001280DD174480068808848B97248006873
:10172000407A00F0200018B1FFF7D5FD064622E010
:10173000022620E06C480068007800F07F00012855
:1017400005D10B2C17D1FFF71FFD064613E06648A5
:101750000068007800F07F0002280BD1012C03D133
:10176000FFF7B9FD064606E0032C04D1FFF75EFE45
:10177000064600E002264EB1E0B2624A12685169A4
:1017800088470646032E01D109250FE00EB1082532
:101790000CE0062500215848006880B2801C574A9A
:1017A00042F8101030205349088000BF4E490968A4
:1017B0000D7270BD2DE9F84F4B4800684578002741
:1017C000BA46062D1BD148480068007800F07F001B
:1017D000002813D1444909688878012803D1494970
:1017E0000968CF690AE0022803D1464909680F6AEF
:1017F00004E0032802D1434909684F6AADE0002D97
:1018000067D1394800684088002862D136480068AE
:10181000C08802285DD1344800680079002858D17A
:1018200031480068007800F07F0030B92E48006829
:10183000808810B9AFF24F678FE02B4800680078BE
:1018400000F07F00012811D12749096848792D4906
:1018500009688A690021904700287ED122480068E3
:10186000807A002879D0AFF27F6776E01E48006862
:10187000007800F07F0002286FD11B480068407993
:1018800000F00F0618480068407900F0700916480B
:101890000068407900F0800038B11B4901EB8600F8
:1018A000D0F8000C00F0300806E0174901EB860084
:1018B000D0F8000C00F4405814480078B0424CD9DD
:1018C000B9F1000F49D1B8F1000F46D0AFF2E76788
:1018D00043E0082D1CD104480068007800F07F0028
:1018E000D8BBAFF2DB7738E02C00002038000020B6
:1018F0003C0000203E000020505C004000600040A2
:101900002600002030000020005000407801002018
:101910000A2D22D1C5480068007800F07F00012818
:101920001BD1C2480068807AB8B1C04800684088BE
:1019300098B9BE480068007978B9BC480068C0888A
:1019400001280AD1B94909684879B94909688A69F9
:101950000021904708B9AFF2F17757B1B34800685A
:10196000A0F812A0B148006887610020B8470024A1
:101970000FE0AE4A12685078AD4A12681169884784
:101980000446032C05D10920A84909680872BDE85E
:10199000F88FA6480068008A4FF6FF71884204D18C
:1019A0000920A24909680872F1E7022C03D09F4878
:1019B0000068008A20B908209C4909680872E6E797
:1019C0009A480068007800F08000E0B3974800680B
:1019D000C088009095480068008A0099884204D920
:1019E000924900980968088223E090480068008ABC
:1019F0008E490968C98888421BDA8C480068008AC9
:101A00008B49096891F82C10884203DA0020894933
:101A100008700EE085480068008A8549096891F8D9
:101A20002C1090FBF1F201FB120010B9012081494A
:101A300008707F48006890F82C107C48006881820C
:101A4000FFF7D4FD07E0FFE7032078490968087233
:101A500000037949088000BF99E710B5774890F8EE
:101A60002C10002000F037FD70480068007A08282C
:101A700005D14002704908801020714908806B48E8
:101A80000068007A092801D1012010BD0020FCE780
:101A900038B501246B48006880B2001D6A4931F8EE
:101AA000100080B201EB4000009060480068007AAE
:101AB000092832D0009800785C49096808700098BD
:101AC000401C0090009800785849096848700098B8
:101AD000401C0090009800EB44000090009931F801
:101AE000020B009100F0A0FE504909684880009860
:101AF00000EB44000090009931F8020B009100F0D7
:101B000093FE4A4909688880009800EB44000090E1
:101B10000098008845490968C88001204349096840
:101B2000087242480068C08810B9FFF7B2FD01E0B2
:101B3000FFF740FEFFF791FF38BD30B50146434B3C
:101B40001A78002014E00306414C04EB9353D3F8B9
:101B5000003C48F68F74234048F280042343C4B20B
:101B6000234304063A4D05EB9454C4F8003C401C52
:101B70009042E8D341F08003324C241F236030BDF3
:101B800010B52A480068047A022C01D0042C05D133
:101B9000FFF72CFD25480068047A1CE0062C19D1BB
:101BA00022480068407805280ED120480068007857
:101BB00000F07F0040B91D490968C878FFF7BDFFF4
:101BC00024490968086A8047194909688868804774
:101BD000082400E00824154909680C72FFF73DFF4E
:101BE00010BD10B511480068047A022C01D0042CF5
:101BF00001D1082412E0032C01D0052C05D1FFF7F8
:101C0000A2FC0A480068047A08E0072C05D10849BC
:101C10000968C8688047082400E008240349096867
:101C20000C72FFF71AFF10BD704700002C00002057
:101C300030000020260000203C0000207C01002015
:101C40003E000020505C0040006000407801002011
:101C5000005000403800002010B5084808490860CE
:101C600002200968087207480749086007480849C0
:101C70000860054909680868804710BD5C3D002080
:101C80002C0000207C01002030000020AC0100204E
:101C90003800002008B50020009022E1C4480088E8
:101CA00000F00F00C34908700846007800287CD176
:101CB000C1480068C14908800846008800F030002B
:101CC000BF490880BD48008800F44050BB490880E7
:101CD000B94909684BF6BF7201EA020080F400506E
:101CE00080F0200040F4004141F08001B24A1160D0
:101CF000AF48008800F0100090BB1046006848F61E
:101D00000F71084011460860FFF73AFFAA490968B9
:101D10004BF6BF7201EA0200A849098801F480511C
:101D200009B180F48050A549098801F4005109B136
:101D300080F40050A249098801F0100109B180F037
:101D400010009F49098801F0200109B180F02000AE
:101D500081B241F4004141F08001974A116008BD11
:101D6000FFE79548006880B20090BDF8000000F4DD
:101D70000060B0B390480068C0F30E0048F68F7161
:101D800008408D490860FFF783FE8B4909684BF6D0
:101D9000BF7201EA02008949098801F4805109B142
:101DA00080F480508549098800E056E001F4005134
:101DB00009B180F400508249098801F0100109B18D
:101DC00080F010007E49098801F0200109B180F0FF
:101DD000200081B241F4004141F08001764A116057
:101DE000BDE7FFE7BDF8000000F40040002878D010
:101DF00071480068C0F30E0048F68F7108406E49C4
:101E00000860FFF7EEFE6C4909684BF6BF7201EA05
:101E100002006A49098801F4805109B180F48050B8
:101E20006649098801F4005109B180F40050644901
:101E3000098801F0100109B180F01000604909889B
:101E400001F0200109B180F0200081B241F400418D
:101E500041F08001584A116081E75648007859499D
:101E600001EB8000D0F8000C80B20090BDF80000BB
:101E700000F40040C0B14F48007801EB8000D0F87A
:101E8000000CC0F30E0048F68F71084049490978EC
:101E90004C4A02EB8101C1F8000C46490978491E01
:101EA000494A52F821008047BDF8000000F0800048
:101EB000B8B140480078434901EB8000D0F8000CED
:101EC00048F60F7108403B4909783E4A02EB810110
:101ED000C1F8000C37490978491E3C4A52F82100E4
:101EE000804735484430006880B23149088000F4AA
:101EF000004000287FF4D2AE00BF30E710B50024C8
:101F00004AE047F6FF702C494431086028480088B1
:101F100000F00F002749087008460078294901EBB6
:101F20008000D0F8000C84B204F40040C8B121480D
:101F3000007801EB8000D0F8000CC0F30E0048F6EA
:101F40008F7108401B4909781E4A02EB8101C1F8D4
:101F5000000C18490978491E1B4A52F82100804795
:101F60001AE004F08000B8B112480078154901EB7E
:101F70008000D0F8000C48F60F7108400D49097830
:101F8000104A02EB8101C1F8000C0A490978491E88
:101F90000E4A52F82100804707484430006880B25A
:101FA0000349088000F400400028AAD110BD0000B9
:101FB0003801002028000020005C00403C00002088
:101FC0003E00002000500040580100203C0100204D
:101FD000F0B5144604F1010C4FEA6C07DFF848C075
:101FE0000CEB41033D460AE00678401C90F800C027
:101FF00046EA0C2223F8022B9B1C401C6D1E002D70
:10200000F2D1F0BDF0B5561C7510074E06EB410439
:102010002B4605E034F8047B20F8017B401C5B1E56
:10202000002BF7D1F0BD000000600040FA490860C5
:102030007047F948006880B27047F749091D086089
:102040007047F548001D006880B27047F2480830BC
:10205000006880B27047F0490C3108607047EE4864
:102060000C30006880B270474FF6F8710140EA4AC0
:10207000103211607047E8481030006880B2704735
:10208000E64B03EB8002C2F8001C70470146E34AAE
:1020900002EB8100D0F8000C80B2704710B5DF4B26
:1020A00003EB8002D2F8002C48F68F131A400A4343
:1020B000DA4C04EB8003C3F8002C10BD0146D74A6C
:1020C00002EB8100D0F8000C00F4C060704730B51E
:1020D000D24C04EB8003D3F8003C48F6BF7403EA0B
:1020E000040201F010030BB182F0100201F0200392
:1020F0000BB182F0200242F4004343F08003C74D4D
:1021000005EB8004C4F8003C30BD30B5C34C04EB93
:102110008003D3F8003C4BF68F7403EA040201F409
:1021200080530BB182F4805201F400530BB182F45E
:10213000005242F4004343F08003B84D05EB8004A5
:10214000C4F8003C30BD30B503460C461846FFF7D6
:102150009DFF0546012C07D125F48050AF4A02EBC4
:102160008301C1F8000C08E0022C06D125F0100014
:10217000AA4A02EB8301C1F8000C30BD0146A74A10
:1021800002EB8100D0F8000C00F0300070470146EF
:10219000A24A02EB8100D0F8000C00F440507047D6
:1021A00010B59E4B03EB8002D2F8002C48F6BF73AB
:1021B00002EA030181F0100181F0200141F40042A4
:1021C00042F08002954C04EB8003C3F8002C10BD54
:1021D00010B5924B03EB8002D2F8002C4BF68F73B4
:1021E00002EA030181F4805181F4005141F400427C
:1021F00042F08002894C04EB8003C3F8002C10BD30
:10220000864A02EB8001D1F8001C41F4807148F647
:102210008F72114048F280021143804B03EB800221
:10222000C2F8001C70477D4A02EB8001D1F8001C07
:1022300048F68F62114048F280021143774B03EB5E
:102240008002C2F8001C7047744A02EB8001D1F88A
:10225000001C48F68F62114048F2800211436F4B18
:1022600003EB8002C2F8001C70476C4A02EB80014D
:10227000D1F8001C41F4807148F68F72114048F289
:1022800080021143654B03EB8002C2F8001C7047CB
:10229000624A02EB8001D1F8001C41F4807148F6DB
:1022A0008F72114048F2800211435C4B03EB8002B5
:1022B000C2F8001C7047594A02EB8001D1F8001C9B
:1022C00048F68F62114048F280021143534B03EBF2
:1022D0008002C2F8001C70470146504A02EB8100A0
:1022E000D0F8000C00F03000102801D10120704718
:1022F0000020FCE70146494A02EB8100D0F8000CBF
:1023000000F44050B0F5805F01D1012070470020FB
:10231000FCE7424A02EB8001D1F8001CC1F30E0138
:1023200048F68F7211403D4B03EB8002C2F8001C4F
:1023300070473A4A02EB8001D1F8001C48F60F7250
:102340001140364B03EB8002C2F8001C7047334A41
:1023500002EB8001D1F8001C48F68F7211404CF25C
:10236000800211432D4B03EB8002C2F8001C704722
:102370002A4A02EB8001D1F8001C48F68F72114006
:1023800048F2C0021143254B03EB8002C2F8001C47
:102390007047224A02EB8001D1F8001C01F4804111
:1023A00071B102EB8001D1F8001C48F68F72114028
:1023B0004CF280021143194B03EB8002C2F8001C5F
:1023C0007047164A02EB8001D1F8001C01F0400171
:1023D00071B102EB8001D1F8001C48F68F721140F8
:1023E00048F2C00211430D4B03EB8002C2F8001CFF
:1023F000704710B5094B03EB8002D2F8002C48F669
:102400008F731A4048F280031A430A43034C04EBCB
:102410008003C3F8002C10BD405C00400050004019
:102420000146FC4A02EB8100D0F8000C00F00F00DE
:10243000704710B54A105200F74B1B689BB203EB74
:10244000C003F64C44F8132010BD10B54A105300D9
:10245000F14A126892B202EBC002121DEF4C44F82E
:10246000123010BD0146EC48006880B200EBC1009C
:10247000EA4A32F8100080B270470146E648006828
:1024800080B200EBC100001DE44A32F8100080B2B7
:102490007047E14A126892B202EBC002921CDF4B15
:1024A00043F81210704702463E290BDD481101F037
:1024B0001F030BB9431E98B24FF4004343EA802335
:1024C000136007E0481001F001030BB1431C98B200
:1024D00083021360704710B50246CF48006880B28F
:1024E00000EBC200801DCD4C04EB40033E290BDD08
:1024F000481101F01F040CB9441EA0B24FF400446F
:1025000044EA80241C6007E0481001F001040CB18B
:10251000441CA0B284021C6010BD0146BE48006885
:1025200080B200EBC100801CBC4A32F81000C0F33E
:10253000090070470146B848006880B200EBC1004E
:10254000801DB64A32F81000C0F30900704730B55C
:102550004B105B00B04C2468A4B204EBC004AF4D38
:1025600045F8143053105C00AB4B1B689BB203EB77
:10257000C0031B1D45F8134030BD10B54A10520072
:10258000A54B1B689BB203EBC003A44C44F813207B
:1025900010BD10B54A1053009F4A126892B202EB68
:1025A000C002121D9D4C44F8123010BD01469A48DD
:1025B000006880B200EBC100984A32F8100080B287
:1025C000704701469448006880B200EBC100001DCE
:1025D000924A32F8100080B2704730B50B46012B9A
:1025E0001FD18D49096889B201EBC001891C8B4D4F
:1025F00005EB41043E2A0BDD511102F01F050DB918
:102600004D1EA9B24FF4004545EA8125256007E03B
:10261000511002F001050DB14D1CA9B28D022560CB
:102620000AE0022B08D17C49096889B201EBC0019C
:10263000891C7A4C44F81120012B1FD17649096876
:1026400089B201EBC001891D744D05EB41043E2A9E
:102650000BDD511102F01F050DB94D1EA9B24FF44B
:10266000004545EA8125256007E0511002F001058B
:102670000DB14D1CA9B28D0225600AE0022B08D1D4
:102680006549096889B201EBC001891D634C44F8B2
:10269000112030BD30B5034601291FD15E480068C6
:1026A00080B200EBC300801C5C4D05EB40043E2A69
:1026B0000BDD501102F01F050DB9451EA8B24FF4F5
:1026C000004545EA8025256007E0501002F001052D
:1026D0000DB1451CA8B2850225600AE0022908D187
:1026E0004D48006880B200EBC300801C4B4C44F89E
:1026F000102030BD30B5034601291FD1464800687F
:1027000080B200EBC300801D444D05EB40043E2A1F
:102710000BDD501102F01F050DB9451EA8B24FF494
:10272000004545EA8025256007E0501002F00105CC
:102730000DB1451CA8B2850225600AE0022908D126
:102740003548006880B200EBC300801D334C44F86C
:10275000102030BD01463048006880B200EBC10057
:10276000801C2E4A32F81000C0F309007047014661
:102770002948006880B200EBC100801D274A32F86A
:102780001000C0F30900704701462348006880B27A
:1027900000EBC100801D214A32F8100000F47C409B
:1027A00008B1012070471C48006880B200EBC100EE
:1027B000801C1A4A32F81000C0F3090008B1022048
:1027C000F0E70020EEE710B5012910D1114B03EB23
:1027D0008002D2F8002C48F68F731A4048F2C003EA
:1027E0001A430C4C04EB8003C3F8002C11E00229BF
:1027F0000FD1084B03EB8002D2F8002C48F68F7300
:102800001A404CF280031A43024C04EB8003C3F8D5
:10281000002C10BD00500040505C004000600040A3
:10282000024641EA022070470146CAB20B1243EA4F
:102830000220704700201D4908604FF43F401C49AA
:102840000880084600881949091F08600020704761
:102850002DE9F04104460E46154604F07F00FFF7CF
:1028600001FE0746AAB239463046FFF7B1FBA9B2CE
:1028700004F07F00FFF70DFE0020BDE8F0812DE998
:10288000F04104460E46002504F07F00FFF752FE9B
:10289000054604F07F00FFF7F0FD07462A4639465B
:1028A0003046FFF7AFFB2846BDE8F081445C0040AE
:1028B000360000205E48006840F480205C490860D3
:1028C000704710B500F00CFD10BD5A48406820F468
:1028D0008000584948600846C06940F40000C8615B
:1028E000704710B554A001F003FA0320594908605D
:1028F00010BD10B5584C59A001F0FAF9A07A18B1E2
:1029000005205449086002E001205249086010BDCA
:1029100010B547481438006840F480204449143901
:10292000086043480C38006840F4802040490C3966
:1029300008600223142200210120FEF70DF9022372
:102940002A2200210846FEF707F910BD10B50446FB
:102950001CB148A001F0CCF902E04CA001F0C8F98C
:1029600010BD3449896941F00401324A916138B19E
:102970004C49096889B221F002014A4A116014E009
:102980004849096889B241F00201464A1160464946
:10299000096821F47F21444A11601146096841F415
:1029A0004C3111600021414A1160704730B50B462F
:1029B000002100BF16E00A24B4EB107F05D93024B3
:1029C00004EB107403F8114005E0412404EB10748B
:1029D0000A3C03F81140000100254C00641C1D5501
:1029E0004C1CE1B29142E6DB30BD70B53048046862
:1029F000001D0568001D0668344454B108222D49A5
:102A00002046FFF7D3FF04222A4910312846FFF75A
:102A1000CDFF70BD0020284908607047012026497D
:102A20000860704710B525A001F062F910BD0000E4
:102A3000140401400010024075736220656E7465D5
:102A400072206C6F7720706F776572206D6F646590
:102A50000D0A0000080200205C3D00206C656176D4
:102A600065206C6F7720706F776572206D6F64657D
:102A70000D0A00007573622070756C6C20757020F3
:102A8000656E61626C650D0A00000000757362205E
:102A900070756C6C2075702064697361626C650D73
:102AA0000A000000405C004004080140B0012142DF
:102AB000E8F7FF1F1E0100208401224255534220E7
:102AC0004E6F74436F6E666967757265640D0A00B8
:102AD0000146002211B1012902D100E002E001E02B
:102AE0000120704700BF1046FBE72DE9F04706467E
:102AF00014461D46DDE9088936B900274A462146B5
:102B00004046FDF725FF02E00120BDE8F08700BF49
:102B10000FB10120F9E70020F7E72DE9F04706465D
:102B200014461D46DDE9088936B900274A46214684
:102B30004046FDF775FE02E00120BDE8F08700BFCA
:102B40000FB10120F9E70020F7E7014621B1012983
:102B500004D0022906D103E0002070470020FCE7E2
:102B60000120FAE70120F8E72DE9FC4104460D4673
:102B700016469F48007890B99E4850F82400A5FB5F
:102B800000109D4AC2E900109A4850F82400A6FBA4
:102B900000109A4AC2E90010012095490870944833
:102BA000007801285CD19648006820BB914830F835
:102BB000240080B293490968CDE900108E480CC802
:102BC0002046FFF7AAFFC7B22FB18F48007840F028
:102BD00008008D49087040228A4801688120FFF76B
:102BE00037FE844850F8240040388549086040206A
:102BF0008649086012E083480068844A1268811898
:102C000040228120FFF724FE7D48006840387C493F
:102C100008607E48006840307C49086040210120FF
:102C2000FFF737FC30210120FFF751FA7248D0E955
:102C3000003040229A1840F100006F49C1E900209D
:102C40006E48D0E90010403960F100006B4AC2E9DB
:102C500000106F48806840386D498860FFF7DAFEE1
:102C60006648D0E90010002359405840014310D174
:102C70000020634908606549086000215E4A1160D0
:102C80005160032063490870002059490870FFF71C
:102C9000C5FEBDE8FC812DE9FC4704460D461646FD
:102CA0005D48006800F1400A5148007890B95148E9
:102CB00050F82400A5FB0010584AC2E900104D4806
:102CC00050F82400A6FB0010554AC2E9001001206C
:102CD000474908704648007801286FD100205149C3
:102CE000086012E04F4801680068401C4D4A1060BF
:102CF0004D480068415C43480068474A1268815467
:102D000045480068401C44490860434800685045F5
:102D1000E8D34248D0E9003044490988591840F1C5
:102D200000003E4AC2E900103D48D0E900203F497A
:102D30000988511A60F10000394AC2E900102D4893
:102D400050F824703A460023354903C900F035FF96
:102D500000214A404B401A4322D100202E490860EE
:102D6000244830F8240080B226490968CDE90010D3
:102D7000204850F824102948D0E900305F1A60F14B
:102D800000033A462046FFF7B0FE00F0FF09B9F114
:102D9000000F05D01C48007840F004001A49087064
:102DA0001B48806821490988401A194988604FF4F6
:102DB00040510220FFF7A9F9FFF72CFE1848D0E98F
:102DC0000010002359405840014303D011480078B7
:102DD00004280AD1002010490860012100F028F8D9
:102DE000002003490870FFF719FEBDE8FC870000CA
:102DF00064000020480000206800002070000020CF
:102E000050000020600000206500002054000020D9
:102E1000983D002008010020580000207800002084
:102E2000800000205C0000200C0100201001002028
:102E300070B505460C46FD48FD4908600846057317
:102E40000D228120FFF704FD0520FA4908702CB1FE
:102E50000420087030210120FFF739F970BD10B54A
:102E6000F548007840F01000F3490870F148007808
:102E700002281BD003282ED0042802D0052834D1E4
:102E800000E000BF0020EB4908704FF440510220E1
:102E9000FFF73BF90220FFF77AF9B0F5805F04D124
:102EA0004FF440510220FFF730F91FE0E348C07BA8
:102EB00028280ED1E048007840F00200DE49087072
:102EC000DE49487BDE490A68DE49096800F069FD91
:102ED00000BF00BF0AE001210020FFF7A9FF4FF467
:102EE00040510220FFF711F900E000BF00BF10BD04
:102EF00010B5044624B1012C07D0022C15D10AE0EC
:102F000010210120FFF7E3F810E04FF48051022078
:102F1000FFF7FBF80AE010210120FFF7D8F84FF483
:102F200080510220FFF7F1F800E000BF00BF10BDA4
:102F300010B5002405E0C4480068005DBF4908558D
:102F4000641CC24800888442F5D3BC484068B84934
:102F50004860BA4880688860BC4800881F280FD045
:102F60000220FFF7C5FF0020B4490860487B1A2201
:102F7000052100F02EFC00210120FFF759FF10BDB4
:102F8000AE48C07B282803D0AC48C07B2A2816D185
:102F9000AA48407C0106A948807C41EA0041A74834
:102FA000C07C41EA0020A549097D0843A549086085
:102FB000A248C17D807D41EA0020A14908609F4868
:102FC0000068A34988426FD19C48407BA1490968A9
:102FD000884207D89948807B012803DB9748807B8B
:102FE00010280DDD0220FFF783FF9449487B24223F
:102FF000052100F0EEFB00210120FFF719FFE8E0BA
:103000008E48C07B25285FD01BDC15286FD00EDCD6
:1030100008286DD006DC00285BD0032830D00428B7
:1030200067D176E00A286ED01228F9D12DE01A383F
:103030000A285ED2DFE800F0392EB17D33B1B1B19C
:10304000B1438A286FD00EDC552867D006DC2828CB
:1030500044D02A284ED02F28E2D155E05A2829D032
:103060008828DDD176E0A8286DD004DC8F286FD0C9
:103070009E28D5D173E0AA287BD0AF28D0D182E09A
:103080006E49487B00F038FC95E06C49487B00F0C5
:1030900085FB90E06949487B00F03DFC8BE0674987
:1030A000487B00F038FC86E086E06449487B00F00D
:1030B00015FC80E06149487B00F017FC7BE05F492C
:1030C000487B00F08AFB76E05C49487B00F0C1FB5E
:1030D00071E05A49487B00F007FD6CE05749487B96
:1030E00057490A685749096800F05BFC63E01BE038
:1030F00024E052E05149487B51490A685149096826
:1031000000F086FC57E02FE04C49487B00F0B7FC0C
:1031100051E04A49487B00F001FD4CE04749487BBB
:1031200000F012FD47E029E04449487B00F00CFD27
:1031300041E04249487B00F007FD3CE03F49487BC5
:1031400000F002FD37E03D49487B00F0FDFC32E035
:103150001EE00EE03949487B00F0F6FC2BE03749D1
:10316000487B00F0F1FC26E03449487B00F0ECFCA1
:1031700021E03249487B00F0E7FC1CE02F49487B06
:1031800000F0E2FC17E02D49487B00F0DDFC12E086
:103190002A49487B00F0D8FC0DE00220FFF7A8FE8A
:1031A0002649487B2022052100F013FB0021012045
:1031B000FFF73EFE00BF0CE00220FFF799FE1F491B
:1031C000487B2022052100F004FB00210120FFF7AD
:1031D0002FFE00BFD3E610B51748007840F010006E
:1031E000154908701548C47B174801680220FFF78D
:1031F00046FB164908800F48007810B1012839D1E4
:1032000002E0FFF795FE43E02A2C25D10A4800781A
:1032100040F00100084908700849487B08490A68DD
:103220000849096800F0F4FB32E0000055534253AE
:10323000983D00200801002065000020783D002016
:1032400018010020140100200C01002010010020B2
:1032500055534243740100200120FFF749FE1949EC
:10326000487B2422052100F0B4FA00210220FFF758
:10327000DFFD0DE00220FFF73BFE1249487B2422D0
:10328000052100F0A6FA00210220FFF7D1FD00BFC2
:1032900000BF10BD70B505460C4622462946812068
:1032A000FFF7D6FA30210120FEF711FF032006496F
:1032B000087006488068001B044988600020087375
:1032C00070BD0000783D002008010020983D0020DE
:1032D00010B5FFF7C4FD10BD10B5FFF77CFF10BDA2
:1032E00010B537480068374908800846008800F460
:1032F000004035490988084008B1FEF7CBFC314849
:10330000008800F4806030490988084030B14FF6E9
:10331000FF302B4908602D494868804729480088BC
:1033200000F4005028490988084018B14DF6FF7094
:10333000234908602348008800F480502249098806
:10334000084030B14EF6FF701D490860002000F0C3
:10335000BBF91C48008800F400601B49098808403C
:1033600060B11B48007810B100F08EF902E0022035
:1033700000F0AAF94FF2FF70114908601148008867
:1033800000F4007010490988084040B14FF6FF5022
:103390000B4908600F480078401C0E490870094826
:1033A000008800F4807008490988084030B14FF661
:1033B000FF6003490860072000F086F910BD000097
:1033C000445C004038010020360000207C010020D1
:1033D0000C0200203A01002010B5FFF706FB002088
:1033E0008C490968887200F02DF9FFF723FA002054
:1033F0008949086010BD10B5002088498872884846
:10340000C0798449096848720020FEF72DFE4FF408
:1034100000710020FEF742FE20210020FEF757FE3B
:1034200018210020FFF711F87E4890F82C1000209A
:10343000FFF751F858210020FEF7FBFF0020FEF7B0
:1034400003FF0020FEF7C4FE00210120FEF726FE48
:1034500098210120FEF7EDFF20210120FEF737FE25
:1034600000210120FEF751FE00210220FEF716FE8A
:10347000D8210220FEF7E9FF6A4890F82C100220BC
:10348000FFF729F84FF440510220FEF73EFE0021DD
:103490000220FEF71CFE634890F82C100020FFF776
:1034A0001AF80020FEF794FE0020FEF746FB0120EC
:1034B000594908605C485D49086000205C49087013
:1034C000FFF7B0FA10BD10B552480068807A58B1C5
:1034D0000520514908600120FEF773FF0220FEF726
:1034E00058FF00205249087010BD10B54F480068C1
:1034F0004D49884202D00220FFF7FAFC10BD04209B
:1035000045490860704770477047014629B9012056
:10351000404A12681082002070474648FCE770B5A8
:10352000054600243B480068007800F07F00212811
:1035300011D1FE2D0FD137480068408858B9354861
:103540000068808838B933480068C088012802D1F3
:10355000AFF2490401E0022070BD0CB90220FBE784
:103560002C480068846100212A48006841820020BC
:10357000A0470020F0E710B5044626480068007810
:1035800000F07F0021281AD1FF2C18D121480068B3
:103590004088A0B91F480068808880B91D4800682D
:1035A000C08860B90120FEF70CFF0220FEF7F1FE93
:1035B0001D481E49086000201D49087010BD0220EA
:1035C000FCE70246002901DD02207047002A01DDE8
:1035D0000220FAE70020F8E710B504461649204615
:1035E000FDF7A1FF10BD10B5044614492046FDF7B4
:1035F0009AFF10BD70B5054606480068C478052CD2
:1036000001DD002070BD0E4800EBC4012846FDF727
:103610008AFFF7E72C000020080200205C3D002014
:10362000504300087C01002055534243783D002060
:103630000801002074010020D0010020D8010020E2
:10364000E00100200121514801600020504A108013
:10365000104600884D4A10600020121D10604FF483
:10366000E0504B4A108010460088484A1060002005
:1036700070470120454908600020091D08600320AB
:10368000091F08600020704710B54048006884B2E8
:1036900044F008043D480460006884B244F0040427
:1036A0003A480460FFF71DF910BD10B537480068AF
:1036B00084B224F0040435480460FFF71AF94FF48B
:1036C0003F403249086010BD70B50546072D01D056
:1036D000304805702F48007808284ED2DFE800F007
:1036E00004111A202B384E4F2B48006828B9FFF7D9
:1036F000DCFF06202749087002E0052025490870F4
:1037000041E0FFF7D2FF042022490870012022493E
:10371000086038E002201F4948700320087032E03A
:103720001C484078401E1B4948700846407808B93C
:103730000420087027E01548006884B244F01004A3
:10374000124804600520134908700A2048701AE0E6
:1037500010484078401E0F4948700846407858B9D4
:103760000A48006884B224F0100408480460062067
:10377000087000200849086005E000BF00BF06206F
:103780000449087000BF00BF70BD0000405C0040ED
:10379000360000200D0200201002002070B5064601
:1037A000F948007C00F0010010B1F84C05250BE051
:1037B0000EB9F74C00E0F74CF348C07C242802DC3B
:1037C000F148C57C00E0242529462046FFF762FD2C
:1037D00070BDF14B99701A73704710B504462046BE
:1037E000FFF7B3F968B1E849487B3A220221FFF7B5
:1037F000F0FF01210846FFF71BFB0020FFF778FBD5
:1038000010BDE64850F82400000EE5490871E34871
:1038100050F82400000C4871E04830F82400000AF9
:103820008871DE4810F82400C871DE4850F8240082
:10383000000C4872DB4830F82400000A8872D9482E
:1038400010F82400C8720C21D548FFF723FD00BFF3
:10385000D6E710B504462046FFF777F968B1CA49A4
:10386000487B3A220221FFF7B4FF01210846FFF707
:10387000DFFA0020FFF73CFB10BDC84850F82400D9
:10388000401E000EC8490870C44850F82400401E6D
:10389000000C4870C14830F82400401E000A8870AF
:1038A000BE4810F82400401EC870BE4850F82400DE
:1038B000000E0871BB4850F82400000C4871B9484C
:1038C00030F82400000A8871B64810F82400C87146
:1038D0000821B548FFF7DEFC00BFCDE710B5044670
:1038E0000421B248FFF7D6FC10BD10B504460821EC
:1038F000AF48FFF7CFFC10BD70B50546A248C07CAD
:10390000122802DCA048C47C00E012242146A24810
:10391000FFF7C0FC70BD10B5044601210020FFF781
:1039200087FA10BD2DE9F04104460D4617461E46A4
:10393000B8199A4951F82410884213D92A2D02D176
:103940000220FFF7D5FA0020FFF7D2FA2122052145
:103950002046FFF73EFF00210120FFF769FA002013
:10396000BDE8F081884881688E4850F82400704393
:10397000814214D02A2D03D10220FFF7B9FA02E0C8
:103980000020FFF7B5FA8049487B24220521FFF784
:1039900020FF00210120FFF74BFA0020E0E7012083
:1039A000DEE770B506460C4615468248007820BB17
:1039B0007549487B2B4622462821FFF7B3FF00B903
:1039C00070BD7148007B00F0800040B10220794951
:1039D00008702A4621463046FFF7C6F80CE0022060
:1039E000FFF786FA6849487B24220521FFF7F1FE9C
:1039F00001210846FFF71CFAE2E76E48007802282A
:103A000004D12A4621463046FFF7AEF800BFD7E77B
:103A100070B506460C4615466648007820BB5A49E4
:103A2000487B2B4622462A21FFF77CFF00B970BD58
:103A30005548007B00F0800040B901205D490870C6
:103A40004FF440510220FEF760FB0CE00020FFF72E
:103A50004FFA4D49487B24220521FFF7BAFE002189
:103A60000120FFF7E5F9E2E752480078012804D188
:103A70002A4621463046FFF70EF900BFD7E710B5BA
:103A800004464148806848B93F48007C00F0040083
:103A900020B901210020FFF7CBF90CE00220FFF74D
:103AA00027FA3949487B24220521FFF792FE00219D
:103AB0000120FFF7BDF910BD10B5044632488068FB
:103AC00068B10220FFF714FA2F49487B2022052114
:103AD000FFF77FFE00210120FFF7AAF903E0012193
:103AE0000020FFF7A5F910BD10B504462046FFF7EA
:103AF0002CF868B12449487B3A220221FFF769FE7D
:103B000001210846FFF794F90020FFF7F1F910BDF5
:103B100001210020FFF78CF900BFF8E710B504463B
:103B20002046FFF712F868B11749487B3A22022174
:103B3000FFF74FFE01210846FFF77AF90020FFF753
:103B4000D7F910BD00BFFCE710B504460E488068E9
:103B500018B90020FFF7CCF90BE00B48007B00F010
:103B6000800018B10020FFF7C3F902E00220FFF740
:103B7000BFF90549487B20220521FFF72AFE0021D5
:103B80000120FFF755F910BD783D00208800002086
:103B90008D000020B2000020E20000204C00002038
:103BA000FC00002048000020F4000020D600002087
:103BB000DA00002008010020704753EA020C00F0F0
:103BC00069802DE9F04B4FF00006002B1FBFB3FAC0
:103BD00083F503FA05F424FA05F65E4012BF164396
:103BE000B2FA82F502FA05F4C5F120051EBF22FAE9
:103BF00005FC44EA0C04203556EA044C4FEA144410
:103C000018BF641C4FF000084FF00009904271EBA0
:103C1000030C39D3002919BFB1FA81F701FA07F66D
:103C2000B0FA80F700FA07F6C7F120071EBF20FAA6
:103C300007FC46EA0C062037B6FBF4FCA7EB0507A9
:103C4000103F07F01F0BCBF120060CFA0BFB2CFAF0
:103C500006F644BFB3460026202FA4BF5E464FF0B1
:103C6000000B5BEA060C08BF4FF0010B19EB0B09C8
:103C7000ABFB027C48EB0608C01B06FB02CC0BFB2F
:103C800003CC71EB0C01C1E70B46024641464846A6
:103C9000BDE8F08B13B54FF000004FF00001AFF31B
:103CA0000080BDE81C40704710B54C1084EA5304F6
:103CB00004D54042C1F1000138BF491E1B4204D562
:103CC0005242C3F1000338BF5B1EFFF776FF14F0CA
:103CD000804F04D04042C1F1000138BF491E14F0AA
:103CE000004F04D05242C3F1000338BF5B1E10BD29
:103CF0000FB4044910B503AA029800F009F810BCEB
:103D00005DF814FB0800002070477047704770474B
:103D1000074B70B50D467B4400F011F80446284669
:103D200000F020F810B14FF0FF3070BD204670BD9C
:103D3000D1D0FFFF01694A1C02610878704700B5C5
:103D40008FB0CDE901310021059105497944CDE9D4
:103D500003101146684600F02EF80FB000BD0000B9
:103D6000E5FFFFFF007B00F080007047754600F024
:103D70003FF8AE4605006946534620F007008546E9
:103D800018B020B5FCF732FABDE820404FF000062D
:103D90004FF000074FF000084FF0000B21F0070133
:103DA000AC46ACE8C009ACE8C009ACE8C009ACE876
:103DB000C0098D4670472DE9F04106460024D6E93A
:103DC0000170F5688046304603E04146B847641C00
:103DD0003046A8470028F8D12046BDE8F08110B54C
:103DE0000446AFF300802046BDE81040FCF7E5B97B
:103DF00000487047A83D002090EA010F48BF81F0BD
:103E0000004100F12E82421A3CBF801A89184FEA05
:103E1000D0524FF07F4C1CEA410FA2EBD15318BF98
:103E20009CEA026F00F03B804FF0004C4CEA00200F
:103E30004CEA012121FA03FC10EB0C0C1ED202F11A
:103E4000FF325FEA1C2040EBC25038BF70471CF0C5
:103E50007F0F4FEA400C18BFBCF17F4F38BF70474F
:103E6000C3F12003994008BF20F00100BCF17F4F4F
:103E700038BF7047A0F1C04000F0DDB94FEA3C0008
:103E8000000A40EBC25028BF1CF0FF0F4FEA400C65
:103E9000E6D018BFBCF17F4F38BF7047EAE79CEA15
:103EA000026F05D010EA5C0F08BF00F000407047B9
:103EB00010B500F07AF900BF64FBBE3E4FF47F0CF2
:103EC0001CEAD0121EBF1CEAD11392EA0C0F93EA2F
:103ED0000C0F00F0858090EA010F48BF42F4807219
:103EE00040F4000C41F400002CF07F4120F07F40B2
:103EF00000B58142A2EB03020FF2081CACEB504E5E
:103F0000C0F100009EF800E04FEA4E0E00FB0EFCF0
:103F100038BF49004FEA2C1C02F5FA020CFB0EF3E5
:103F20004FEACE1E4FEA112C4FEAC1210EEB635E21
:103F300042EB22420EFB0CFC4FEA1C5300FB031128
:103F40004FEA112C4FEA01310EFB0CFC4FEADC4C1E
:103F500000FB0C11C14228BF09184CEB03335DF87C
:103F600004EB10EB410143EBC250B2F57C0F38BFBC
:103F7000704729D512F0F00F1CBF00F1C04000F0CF
:103F800000407047008182838485868788898B8C76
:103F90008D8E8F919293959697999A9C9D9FA0A2B2
:103FA000A3A5A7A8AAACAEB0B2B3B5B7B9BCBEC002
:103FB000C2C5C7C9CCCED1D4D7D9DCDFE2E6E9ECA3
:103FC000F0F3F7FAFE0000004FEA400C0CF1807CA1
:103FD000BCF17E4F28BF7047B0F1C04000F02BB954
:103FE00090EA010F0CEAD11348BF42F48072624597
:103FF00038BF634507D213F47F0F16D080EA010063
:1040000000F00040704710B500F0CFF8097EFC3E8C
:1040100000F005B880EA010000F00040704780EA37
:10402000010000F0004000F006B912F47F0F04BF59
:104030000248704780EA010000F0FDB80000C07F30
:10404000C10DD1F19E0206DB4FEA002343F000438D
:1040500023FA02F07047004207D54FEA4001B1F160
:10406000FE4F02D24FF00000704710B500F09DF8EF
:1040700049922480002070476FEA200070470000BA
:10408000B0FA80F310FA03F2C3F19D030AD0D90508
:1040900001EB1220530638BF704700F1010008BF42
:1040A00020F00100704700004FF47F0C1CEAD01292
:1040B0001EBF1CEAD11392EA0C0F93EA0C0F00F01A
:1040C000478090EA010F48BF42F480724FF0004CE5
:1040D0004CEA00204CEA012102EB0302A0FB011391
:1040E000A2F50002002918BF43F001035B0028BFBE
:1040F0004FEA330342EB22425FEA132C4CEBC250EF
:104100002EBFBCEB436FB2F57C0F70474FEA036CD8
:10411000BCF1004F08BF20F00100B2F57C0F38BFA2
:1041200070470BD582F0FF0212F5803FC8BF704781
:1041300000F1C040D8BF00F00040704700F5000C0F
:104140005FEA4C0C48BF7047B0F1C04000F073B854
:1041500090EA010F0CEAD11348BF42F48072624525
:1041600038BF634504D280EA010000F00040704788
:1041700010B500F01AF800BF8900013E00F007B842
:1041800000F009B85FEA410C5FEA1C6C08D080EAD5
:10419000010000F050B85FEA400C5FEA1C6CF6D1F9
:1041A0004FF00040A0F5800070470EF1020E2EF097
:1041B000030E5EF8044B244204D44FEA4102B2F1EC
:1041C0007F4F11D84FEA4003B3F17F4F0CD80ED187
:1041D0004FEAD07CB2F17F4F0CEB4C0C0CF1020C8F
:1041E00008BF4CEBD17C04E04FF0080C01E04FEA33
:1041F000D17C0CEB4C0324FA03F404F00704B4F173
:10420000040C06D20EEB840CBDE810404CF0010CFF
:104210006047DFE80CF0070802024FF00040A0F50D
:10422000800010BD0846420018BFD2F1807288BFDE
:1042300000F0004010BDFF2141EAD050C00570479A
:1042400080F0004090EA010F7FF5DDAD81F0004184
:1042500000F007B890EA010F48BF81F000413FF538
:10426000D2AD421A04D882F00042A0EB0200114401
:104270004FEAD0524FF07F4C1CEA410FA2EBD153D2
:1042800018BF9CEA026F4AD04FF0004C4CEA002065
:104290004CEA012121FA03FCB0EB0C0C0FD412F014
:1042A000FE0F36D05FEA4C001DD5001240EBC25025
:1042B00038BF70471CF03F0F18BF70470BE0A2F1EA
:1042C00001025FEA1C2040EBC25038BF70471CF06F
:1042D0007F0F18BF7047C3F12003994014BF401EE1
:1042E00020F00100704780084FEA122308BF704792
:1042F000B0FA80FCA2EB0C02CCF1280C60FA0CF0B6
:1043000093EA122F04BF00EBC25070474FEAC3700C
:104310007047130A5FEADC1008BF7047F6E79CEAB3
:10432000026F04D010EA5C0F08BF0020704710B580
:10433000FFF73BFF40DFF63E81F00040704712017F
:104340000002000000408304205700020102030124
:1043500009022000010100C0320904000002080621
:1043600050040705810240000007050202400000DA
:10437000040309041A037F5EDE5D1F66FC7F35754A
:10438000505BD1796280096750966C51F8532003D5
:1043900041004C00490045004E00540045004B00D0
:1043A0002000530044006153FB8B61536856100397
:1043B0005300540020004D006100730073000000A2
:1043C000E04300080000002014020000280100085B
:1043D000AC44000814020020F441000084010008ED
:1043E0001201C314EF13970F1B08BD0413DC121442
:1043F00020DC3A026E203580020221281E414C4901
:10440000454E54454B20534420466C61736820440C
:1044100069736B202020312E30202529978925AB08
:10442000504926292442036206627002150A420896
:10443000021702141A03531254124D12331232127D
:104440003102113013D1320C1808291C040A15D975
:10445000204123030113D9331B08F7041307351B2D
:104460000809041A1F041A77041AC3041AD9041A73
:10447000E7041AF504413240293CCBC7344C9AEB8F
:10448000101AFF0C133E433308121A50082A20FE5C
:10449000190832041A7408321A5A8E18131C012A89
:0C44A00020101AAE107210199351000089
:04000005080000ED02
:00000001FF
