:020000040800F2
:100000005007002095010008990100089B01000895
:100010009D0100089F010008A101000800000000E8
:10002000000000000000000000000000A301000824
:10003000A501000800000000A7010008A9010008B0
:10004000AB010008AB010008AB010008AB010008E0
:10005000AB010008AB010008AB010008AB010008D0
:10006000AB010008AB010008AB010008AB010008C0
:10007000AB010008AB010008AB010008AB010008B0
:10008000AB010008AB010008AB010008AB010008A0
:10009000AB010008AB010008AB010008AB01000890
:1000A000AB010008AB010008AB010008AB01000880
:1000B000AB01000837020008AB010008AB010008E3
:1000C000AB010008AB010008AB010008AB01000860
:1000D000AB0100085D0B0008AB010008AB01000894
:1000E000AB010008AB010008AB01000800F002F80A
:1000F00000F03AF80AA090E8000C82448344AAF188
:100100000107DA4501D100F02FF8AFF2090EBAE885
:100110000F0013F0010F18BFFB1A43F0010318473B
:10012000D8140000F8140000103A24BF78C878C131
:10013000FAD8520724BF30C830C144BF04680C60ED
:10014000704700000023002400250026103A28BF35
:1001500078C1FBD8520728BF30C148BF0B60704739
:100160001FB51FBD10B510BD00F0EAFD1146FFF729
:10017000F7FF00F02BF800F01CFE03B4FFF7F2FFCE
:1001800003BC00F0DDFC000030BF72B662B680F345
:100190000888704708480047FEE7FEE7FEE7FEE7ED
:1001A000FEE7FEE7FEE7FEE7FEE7FEE70348044959
:1001B000044A054B70470000ED0000085001002084
:1001C000500700205003002050030020092000F0B9
:1001D0005EFC4FF4E131482000F0FBFC482000F0C9
:1001E000F9FA00F0F5F800F045FA60A000F06AFDB9
:1001F00062A000F067FD0DE064A000F063FDC82080
:1002000000F020FB6548006808B9012000E00020EC
:100210006249086000F0C1F90028EDD101205F4972
:1002200008605FA000F04EFD41F61F41132000F072
:10023000A9FA00BFFEE710B55D48008800F0010094
:1002400000287DD05B480088401C5A490880084639
:100250000088B0F5FA7F16D10020088000F0BCF9C4
:10026000554908800846B0F90000002808DA084619
:100270000088404200B2088001205049087002E026
:1002800000204E4908704E480078042806D0052802
:100290000FD006281AD0072836D128E04748007822
:1002A00018B102204749087002E000204549087053
:1002B0002AE04148B0F900000A2190FBF1F090FBE0
:1002C000F1F04149085C3F4908701DE03A48B0F937
:1002D00000000A2190FBF1F090FBF1F201FB12000B
:1002E0003949085C40F00100364908700CE032489A
:1002F000B0F900000A2190FBF1F201FB1200324933
:10030000085C3049087000BF00BF2D4801782D48B7
:10031000007800F0F6F900F012FA29480078401C45
:100320002749087008460078082801D10420087081
:1003300026480088401C254908800846008800E0BF
:1003400013E0FA280BD10020088014480C3800680C
:1003500008B9012000E0002010490C390860144859
:10036000008820F001001249088010BD4E414E4F18
:100370002053544D33320D0A0000000044533138ED
:1003800042323020544553540D0A00004453313852
:10039000423230204572726F720D0A008C01224287
:1003A00044533138423230204F4B0D0A00000000D8
:1003B0001004004018000020120000201A00002045
:1003C000140000201500002000000020160000206E
:1003D0000A48806940F010000849886108480068B0
:1003E0000020074908600846006840F03330086084
:1003F0000846C06840F0FF00C86070470010024027
:100400000010014010B59648006820F0F0009449B3
:1004100008600846006840F03000086000209149FC
:10042000086040F2EE2000F0F1F901208E49C1F899
:10043000A4010F2000F0EAF910BD10B5002488488F
:10044000006820F0F000864908600846006840F027
:100450008000086004E0601CC4B2012000F0D6F9FE
:1004600080488038006808B1C82CF4DBC82C01DB58
:10047000012010BD002404E0601CC4B2012000F083
:10048000C5F978488038006808B9F02CF4DBF02C06
:1004900001DB0120EDE70020EBE710B570480068B4
:1004A00020F0F0006E4908600846006840F0300017
:1004B000086000206B490860022000F0A7F90120C5
:1004C0006949C1F8A4016648006820F0F000644959
:1004D00008600846006840F0800008600C2000F0CA
:1004E00095F960488038006808B1012400E00024D4
:1004F000322000F08BF9204610BD70B50026012592
:1005000008E0FFF7CAFF0446E00140EA6600C6B211
:10051000681CC5B2082DF4DD304670BD70B50446C8
:100520004F48006820F0F0004D4908600846006818
:1005300040F030000860012520E004F0010664105E
:100540006EB1002047490860022000F05FF90120E9
:100550004549C1F8A4013C2000F058F90CE0002006
:10056000404908603C2000F051F901203E49C1F8A3
:10057000A401022000F04AF9681CC5B2082DDCDD98
:1005800070BD10B5FFF73EFFFFF757FFCC20FFF718
:10059000C5FF4420FFF7C2FF10BD10B53348806986
:1005A00040F00800314988612D48006820F0F000D3
:1005B0002B4908600846006840F030000860284871
:1005C0000830006840F40070254908310860FFF7E2
:1005D00019FFFFF732FF10BD2DE9F84FFFF7D1FFEC
:1005E000FFF710FFFFF729FFCC20FFF797FFBE2092
:1005F000FFF794FFFFF781FF8346FFF77EFF044676
:10060000072C08DDE043C4B26FEA0B0000F0FF0BDB
:100610004FF0000A01E04FF0010AA1464FEA09201D
:100620000FFA80F909EB0B000FFA80F9484600F049
:100630006BFE009000F0F8FC074600220C4B00F027
:10064000F5FB054600F0C2FB0FFA80F9BAF1000F86
:1006500002D04846BDE8F88FC9F1000000B2F9E7C2
:10066000040C0140A481214200802142001002407C
:100670000000E43F10B53848806940F00800364972
:1006800088610846806940F01000886108468069EA
:1006900040F001008861012000F0E4F92F48006873
:1006A0002F4908402D490860084600682D49084335
:1006B0002A4908602C4840682C4908402A4948606B
:1006C000084640682A4908432749486028202349AA
:1006D000143108601020091F08604FF4E0502249CF
:1006E000086110BD00F00101224A1160C0F3400111
:1006F000214AC2F8AC11C0F380011E4A08321160D1
:10070000704770B506460D46002412E046FA04F024
:1007100000F001001949086000201949C1F894014E
:10072000052000F073F80120144908310860601CAE
:10073000C4B2082CEADB2846FFF7D4FF70BD10B521
:1007400001200E49091D0860052000F05FF8002017
:100750000B49C1F8900110BD00100240000C01408F
:10076000FF0F00FF0030330000100140FF00F0FFDA
:1007700000330300A8012242000022428C81214262
:100780000080214270B505460C461048C06940F013
:1007900002000E49C8610E480580001F04800C4805
:1007A0002038008840F001000949203908800848B5
:1007B0002C38008840F0010005492C3908800223BC
:1007C0001D220321002000F075F870BD00100240CA
:1007D0002C0400404FF0E021096921F004014FF0A2
:1007E000E0221161C21700EB5272C2F3C702234B21
:1007F0001A701946097801EB4102C2EBC1114FF69C
:10080000FF7202EAC1011E4A1180704701461B4A6D
:1008100012784A434FF0E0235A6100229A61012284
:100820001A6100BF4FF0E022106900F001021AB116
:1008300000F48032002AF5D000224FF0E0231A6144
:100840009A61704701460E4A12884A434FF0E023EE
:100850005A6100229A6101221A6100BF4FF0E02222
:10086000106900F001021AB100F48032002AF5D0BC
:1008700000224FF0E0231A619A6170471C000020AB
:100880001E000020A34A0A400243A34B1A6070478F
:100890000146072323EA010212029F4B1B1D186821
:1008A0004FF6FF0318409D4B184310439A4B1B1DF6
:1008B000186070472DE9F0410746884614461D46EA
:1008C0002846FFF7E5FFC5F1040007FA00F60F2000
:1008D000284100EA0800064306F00F06E21704EB81
:1008E000D2625211920002F1E022D2F80021214698
:1008F000E31704EBD3635B11A4EB431C012303FA5E
:100900000CF31A432046E31704EBD3635B119B00FF
:1009100003F1E023C3F800218148005D40EA06109E
:100920007F490855BDE8F08170B504460B46CE17E7
:1009300001EB9676C6F38700CE1701EB9676B610DC
:10094000A1EB8606B606350E764B9B6943F0010394
:10095000744EB3614FEAB63353F820300F26AE40E1
:10096000B343714E46F82030334653F8203004FA32
:1009700005F61E436C4B43F820606C4B1B68012648
:100980008E403343694E336002F0010343B1674B3D
:100990000C331B6801268E403343644E0C363360A3
:1009A00002F0020343B1614B08331E6801238B4000
:1009B0001E435E4B08331E6070BD00B500205949D0
:1009C0000861C8601420486100208861C861084639
:1009D000006840F00100086008464068544908403B
:1009E0005049486008460068524908404D4908602F
:1009F0000846006820F4802008600846406820F41B
:100A0000FE0048600020886000214FF00060FFF782
:100A100039FF00BD10B540480830006840F00400C0
:100A20003D49083108603F48C06940F080503D4969
:100A3000C8614148406840F480703F4948600846BA
:100A4000006840F0040008600846006840F00200BA
:100A50000860FFF799FB10BD3048001D2E49091DA5
:100A600008607047014649062E4A926942F0010229
:100A70002C4B9A612C4A083A526822F0E0622A4BC9
:100A8000083B5A601A4652680A435A60704730B5AC
:100A900004460025FFF791FF2248006840F48030AB
:100AA0002049086000BF1F480068400C0028FAD0A9
:100AB0004FF480601B494860A01EC4B208464068DD
:100AC00040EA844048600846406840F4803048600E
:100AD0001A48006840F03200184908601148006860
:100AE00040F080700F49086000BF0E480068400E5B
:100AF0000028FAD00B48406840F0020009494860DD
:100B000005E008484068C0F3870505F00305022D9D
:100B1000F7D130BD80FFFF1F08ED00E00000FA05AF
:100B200000E400E000100240080001400004014021
:100B30000000FFF8FFFFF6FE0070004000200240BA
:100B400000BF704700BF584A128802F04002002AD6
:100B5000F9D0C2B2544B1B1D1A8070475249098804
:100B600001F0200111B35049091D0988C8B24F494D
:100B7000098801F40041C9B94C49098801F4804150
:100B800061B10A2803D00021484A118020E047497A
:100B9000098841F40041454A118019E00D2806D129
:100BA0004249098841F48041404A118010E03F49A0
:100BB0000988C1F30D013E4A50543C490988491C3B
:100BC0003A4A118011460988C72901DD00211180A8
:100BD00070472DE9F05F05460E46300100F0ACFB92
:100BE0008146344905FB01F000F0A6FB82464946E8
:100BF00000F0A8FA0746384600F066FB84B22046AB
:100C000000F09AFB8346394600F076FC82464FF0AE
:100C1000834100F0A5FB814600F056FB80464FF66D
:100C2000FF7000EA041404EB080084B222488069D3
:100C300040F00400204988610846806940F4804003
:100C400088611E48006820F47F601C4908600846DF
:100C5000006840F40B6008601748C06840F48040AA
:100C60001549C8600846C06820F48040C8600E4836
:100C700008300480001D008842F20C0108430A4934
:100C80000C3108800846008840F4807008800846CF
:100C9000008840F020000880022325220321084616
:100CA000FFF708FEBDE8F09F003801402400002057
:100CB0002800002040420F000010024004080140BC
:100CC000704700000FB4044910B503AA029800F061
:100CD00009F810BC5DF814FB200000207047704735
:100CE00070477047074B70B50D467B4400F011F814
:100CF0000446284600F020F810B14FF0FF3070BDD8
:100D0000204670BD57FEFFFF01694A1C026108784A
:100D1000704700B58FB0CDE901310021059105493B
:100D20007944CDE903101146684600F02EF80FB063
:100D300000BD0000E5FFFFFF007B00F08000704772
:100D4000754600F03FF8AE4605006946534620F070
:100D50000700854618B020B5FFF728FABDE8204007
:100D60004FF000064FF000074FF000084FF0000B67
:100D700021F00701AC46ACE8C009ACE8C009ACE81A
:100D8000C009ACE8C0098D4670472DE9F041064620
:100D90000024D6E90170F5688046304603E04146FC
:100DA000B847641C3046A8470028F8D12046BDE863
:100DB000F08110B50446AFF300802046BDE8104036
:100DC000FFF7DBB900487047F00000204FEA41030D
:100DD0004FEA5353A3F58063D3F11E03C8BFD3F189
:100DE000210C0CDD4FF0004242EAC12242EA50528F
:100DF00032FA03FC8CEAE17CACEBE1707047102B1B
:100E0000C4BF0020704703F5787CBCF1FF3F04D0DD
:100E10006FF0004282EA2100704770B500F0B0F830
:100E20004992248000207047F2E70000DFF848C1B3
:100E300070B51CEA111E1EBF1CEA13159EEA0C0FAA
:100E400095EA0C0F00F06F8081EA030423EA4C134B
:100E50004EEAD47E21EA4C1141F4801143F4801310
:100E6000AE44A1FB024CA0FB0365AEF17F7E3619B8
:100E700055EB0C05A1FB034C4CF10003A0FB021C3D
:100E800016EB0C06654153F10003094218BF46F00A
:100E9000010613F4007F0BD14FEA03314FEA05300E
:100EA000340341EA155140EA16506FF003020AE09C
:100EB0004FEAC3214FEAC520F40241EA555140EA06
:100EC00056506FF0020202EB2E4201EB025585EA0A
:100ED000CE710AD05FEA440C18BF24F0004450F1F0
:100EE000000041F1000120EAD47040F2FE7C62452E
:100EF00000D270BDA84214BF4FF080444FF0404470
:100F0000002E08BF0024BEF1806FA8BFA1F1C04130
:100F1000BDE8704080F282804FF0000001F1C041D6
:100F200001F0004170479EEA0C0F0CEA131518BF40
:100F300095EA0C0F06D04FF0000081EA030E0EF088
:100F4000004170BD00F01CF88900013E00F007B8B8
:100F500000F009B84FEA430C5FEA5C5C08D081EA14
:100F6000030100F05BB84FEA410C5FEA5C5CF6D12C
:100F70004FF00000014970470000FF070000F87FB4
:100F80000EF1020E2EF0030E5EF8046B364205D40D
:100F9000012A43EB030515F5001F12D8012841EB88
:100FA000010C1CF5001F0CD80ED14FEAD17C15F5B1
:100FB000001F0CEB4C0C0CF1020C08BF4CEBD37C6B
:100FC00004E04FF0080C01E04FEAD37C0CEB4C0539
:100FD00026FA05F606F00706B6F1040C06D20EEB6B
:100FE000860CBDE870404CF0010C6047DFE80CF067
:100FF000090B02024FF000414FF00000A1F5002163
:1010000070BD19461046012851EB010418BFD4F5F4
:10101000001484BF002001F0004170BD0808A0F555
:1010200000114FEA3101704743004FEAD30C4FEAF9
:101030003C0C43401FBF40070CF1605113F0FE4FC2
:1010400070471CF0006F03D100200CF00041704786
:101050000CF0004343EA507010B540EACC0000F0B9
:1010600000FA00BF000000924FEA0001FFF7D6BF70
:101070004FF000414FF00000A1F500217047000043
:1010800090EA010F48BF81F0004100F14682421A08
:101090003CBF801A89184FEAD0524FF07F4C1CEAAF
:1010A000410FA2EBD15318BF9CEA026F00F03B80C6
:1010B0004FF0004C4CEA00204CEA012121FA03FCDD
:1010C00010EB0C0C1ED202F1FF325FEA1C2040EB49
:1010D000C25038BF70471CF07F0F4FEA400C18BF5A
:1010E000BCF17F4F38BF7047C3F12003994008BF60
:1010F00020F00100BCF17F4F38BF7047A0F1C04025
:1011000000F0F5B94FEA3C00000A40EBC25028BF9E
:101110001CF0FF0F4FEA400CE6D018BFBCF17F4F28
:1011200038BF7047EAE79CEA026F05D010EA5C0F0F
:1011300008BF00F00040704710B500F092F900BF02
:1011400064FBBE3E4FF47F0C1CEAD0121EBF1CEAAB
:10115000D11392EA0C0F93EA0C0F00F0858090EA0D
:10116000010F48BF42F4807240F4000C41F40000CB
:101170002CF07F4120F07F4000B58142A2EB0302BA
:101180000FF2081CACEB504EC0F100009EF800E0DE
:101190004FEA4E0E00FB0EFC38BF49004FEA2C1CF4
:1011A00002F5FA020CFB0EF34FEACE1E4FEA112CA9
:1011B0004FEAC1210EEB635E42EB22420EFB0CFCB8
:1011C0004FEA1C5300FB03114FEA112C4FEA013187
:1011D0000EFB0CFC4FEADC4C00FB0C11C14228BF9B
:1011E00009184CEB03335DF804EB10EB410143EBC2
:1011F000C250B2F57C0F38BF704729D512F0F00FFE
:101200001CBF00F1C04000F00040704700818283A5
:101210008485868788898B8C8D8E8F919293959605
:1012200097999A9C9D9FA0A2A3A5A7A8AAACAEB08F
:10123000B2B3B5B7B9BCBEC0C2C5C7C9CCCED1D494
:10124000D7D9DCDFE2E6E9ECF0F3F7FAFE000000C4
:101250004FEA400C0CF1807CBCF17E4F28BF7047F8
:10126000B0F1C04000F043B990EA010F0CEAD1138D
:1012700048BF42F48072624538BF634507D213F419
:101280007F0F16D080EA010000F00040704710B5D3
:1012900000F0E7F8097EFC3E00F005B880EA0100A6
:1012A00000F00040704780EA010000F0004000F0CC
:1012B0001EB912F47F0F04BF0248704780EA010094
:1012C00000F015B90000C07FC10DD1F19E0206DB10
:1012D0004FEA002343F0004323FA02F07047004234
:1012E00007D54FEA4001B1F1FE4F02D24FF00000A6
:1012F000704710B500F0B5F849922480002070477F
:101300006FEA20007047000010F0004148BF4042E3
:10131000B0FA80F310FA03F2C3F19D030BD051EA47
:10132000C35101EB1220530638BF704700F1010092
:1013300008BF20F001007047B0FA80F310FA03F202
:10134000C3F19D030AD0D90501EB1220530638BF23
:10135000704700F1010008BF20F001007047000055
:101360004FF47F0C1CEAD0121EBF1CEAD11392EA84
:101370000C0F93EA0C0F00F0478090EA010F48BF72
:1013800042F480724FF0004C4CEA00204CEA0121FC
:1013900002EB0302A0FB0113A2F50002002918BF13
:1013A00043F001035B0028BF4FEA330342EB2242C4
:1013B0005FEA132C4CEBC2502EBFBCEB436FB2F56F
:1013C0007C0F70474FEA036CBCF1004F08BF20F060
:1013D0000100B2F57C0F38BF70470BD582F0FF02D9
:1013E00012F5803FC8BF704700F1C040D8BF00F081
:1013F0000040704700F5000C5FEA4C0C48BF704796
:10140000B0F1C04000F073B890EA010F0CEAD113BC
:1014100048BF42F48072624538BF634504D280EA17
:10142000010000F00040704710B500F01AF800BF4E
:101430008900013E00F007B800F009B85FEA410CEE
:101440005FEA1C6C08D080EA010000F050B85FEA47
:10145000400C5FEA1C6CF6D14FF00040A0F5800014
:1014600070470EF1020E2EF0030E5EF8044B24427C
:1014700004D44FEA4102B2F17F4F11D84FEA400342
:10148000B3F17F4F0CD80ED14FEAD07CB2F17F4F31
:101490000CEB4C0C0CF1020C08BF4CEBD17C04E0C3
:1014A0004FF0080C01E04FEAD17C0CEB4C0324FA1E
:1014B00003F404F00704B4F1040C06D20EEB840C20
:1014C000BDE810404CF0010C6047DFE80CF0070865
:1014D00002024FF00040A0F5800010BD0846420017
:1014E00018BFD2F1807288BF00F0004010BDFF210C
:1014F00041EAD050C005704780F0004090EA010FEB
:101500007FF5C5AD81F0004100F007B890EA010F0A
:1015100048BF81F000413FF5BAAD421A04D882F0CD
:101520000042A0EB020011444FEAD0524FF07F4C32
:101530001CEA410FA2EBD15318BF9CEA026F4AD0BC
:101540004FF0004C4CEA00204CEA012121FA03FC48
:10155000B0EB0C0C0FD412F0FE0F36D05FEA4C004B
:101560001DD5001240EBC25038BF70471CF03F0F32
:1015700018BF70470BE0A2F101025FEA1C2040EBAC
:10158000C25038BF70471CF07F0F18BF7047C3F1BF
:101590002003994014BF401E20F0010070478008CE
:1015A0004FEA122308BF7047B0FA80FCA2EB0C028E
:1015B000CCF1280C60FA0CF093EA122F04BF00EB78
:1015C000C25070474FEAC3707047130A5FEADC10DD
:1015D00008BF7047F6E79CEA026F04D010EA5C0F80
:1015E00008BF0020704710B5FFF73BFF40DFF63E15
:1015F00081F000407047000018160008000000202D
:1016000028000000280100084016000828000020DB
:101610002807000044010008FC60DAF266B6BEE06C
:10162000FEF6EE3E9C7A9E8E010000000400000053
:1016300000000000000000000000000000000000AA
:04000005080000ED02
:00000001FF
