:020000040800F2
:1000000010330020E9010008ED010008EF010008AD
:10001000F1010008F3010008F501000800000000EC
:10002000000000000000000000000000F7010008D0
:10003000F901000800000000FB010008FD010008B4
:10004000FF010008FF010008FF010008FF01000890
:10005000FF010008FF010008FF010008FF01000880
:10006000FF010008FF010008FF010008FF01000870
:10007000FF010008FF010008FF010008FF01000860
:10008000FF010008FF010008FF010008FF01000850
:10009000FF010008FF010008FF010008FF01000840
:1000A000FF010008FF010008FF010008FF01000830
:1000B000FF010008FF010008290A0008FF010008ED
:1000C000FF010008FF010008FF010008FF01000810
:1000D000FF010008B50A0008FF010008FF01000841
:1000E000FF010008FF010008FF01000800F002F80E
:1000F00000F06BF80AA090E8000C82448344AAF157
:100100000107DA4501D100F060F8AFF2090EBAE854
:100110000F0013F0010F18BFFB1A43F0010318473B
:1001200034260000542600000A444FF0000C10F85A
:10013000013B13F0070408BF10F8014B1D1108BF65
:1001400010F8015B641E05D010F8016B641E01F805
:10015000016BF9D113F0080F1EBF10F8014BAD1C55
:100160000C1B09D16D1E58BF01F801CBFAD505E073
:1001700014F8016B01F8016B6D1EF9D59142D6D3CD
:10018000704700000023002400250026103A28BFF5
:1001900078C1FBD8520728BF30C148BF0B607047F9
:1001A000642900F0AF80752900F0AC80782900F058
:1001B000E580632900F05782732900F05C820020FB
:1001C00070471FB51FBD10B510BD00F06FFA114686
:1001D000FFF7F7FF00F024FD00F08DFA03B4FFF7FE
:1001E000F2FF03BC00F0AFFC08480047FEE7FEE763
:1001F000FEE7FEE7FEE7FEE7FEE7FEE7FEE7FEE7D7
:1002000003480449044A054B70470000ED0000080C
:10021000102D002010330020102F0020102F002060
:10022000704700000FB4044910B503AA029800F00B
:1002300027FA10BC5DF814FB080000200FB41CB5B1
:10024000074B06AA7B4469460090059800F0E9F93F
:100250000020694600F0F8F91CBC5DF814FB0000B2
:100260000104000070B5044685690068C10601D527
:10027000302600E02026C00707D070BDD4E9012158
:1002800030469047206A401C20626D1EF6D570BD36
:1002900070B5044685690078C00707D170BDD4E900
:1002A000012120209047206A401C20626D1EF6D557
:1002B00070BD70B50C460546012A05D02878800629
:1002C00000D5EA69002302E0012305E05B1C9342AC
:1002D00002D2E05C0028F9D1A869E618C01AA8612A
:1002E000286A184428622846FFF7BCFF04E0D5E9D5
:1002F000012114F8010B9047B442F8D32846FFF7C8
:10030000C7FF70BD2DE9F04106460024106875292D
:10031000314616A510D0AFF30080002802DA404223
:1003200013A507E031688A0701D512A502E0490745
:1003300004D511A5012401E0AFF3008000210A22B9
:1003400006F1240709E0B0FBF2FCB0FBF2F302FB7C
:100350001C00303078541846491C0028F3D123463D
:100360002A463046BDE8F04100F0FCB8000000002D
:100370002D0000002B0000002000000070B5044696
:100380000D4621461068AFF300802188090502D58B
:100390000F4A7A4402E00E4A7A440E32002104F1F8
:1003A000240305E000F00F060009965D5E54491C29
:1003B0000028F7D120780023000704D5702D02D043
:1003C00009B1022311322046BDE8704000F0CAB8DE
:1003D000BC2200002DE9F05F894604464FF0000A78
:1003E000DFF874B1FB44C0F820A02046E1688847DC
:1003F000002874D0252806D0D4E901219047206A2E
:10040000401C2062F1E700265F462046E1688847ED
:100410002028054607DB312D05D2781910F8200C6D
:1004200008B10643F1E7B00701D526F00406C4F889
:100430001CA00027C4F818A02A2D09D0284600F0D7
:100440007BFB38B304EB8708303DC8F8185019E03F
:1004500059F8041B204604EB87029161E168884744
:10046000012F054618D1E069002820DA26F0200681
:100470001DE0D8F8180000EB800005EB4000303894
:10048000C8F818002046E1688847054600F054FB8C
:100490000028EED1012F0AD02E2D08D12046E16888
:1004A00088477F1C0546022F46F02006C4DBA06962
:1004B000002803DA404246F00106A061F00701D0AF
:1004C00026F010066C2D0BD0682D09D04C2D39D09C
:1004D0006A2D35D0742D35D07A2D33D016E038E022
:1004E000E1682F4620468847B842054609D16C2F5F
:1004F00026D04FF48060E1680643204688470546D1
:1005000004E06C2F1AD04FF4807006430DB3A5F1B0
:100510004100192802D8203546F400664A4629468B
:10052000204626604E46FFF73BFE80B101280BD0E7
:10053000F61D26F0070000F1080956E74020E4E721
:100540008020D8E70020D6E706F104094DE72846C9
:1005500052E7206ABDE8F09F922200007047704782
:10056000704770472DE9F0470D469946924604467C
:1005700000F124080168880604D5E06921F0100123
:10058000216000E00120A84201DD471B00E00027B8
:10059000A1697A1902EB0900081AA0612078C00647
:1005A00002D42046FFF75EFE002608E0D4E90121D0
:1005B0001AF806009047206A401C761C20624E45BF
:1005C000F4DB2078C0060AD52046FFF74BFE06E094
:1005D000D4E9012130209047206A401C2062381E57
:1005E000A7F10107F4DC07E0D4E9012118F80500C0
:1005F0009047206A401C2062281EA5F10105F3DC0B
:100600002046FFF745FE2078000602D50220BDE80F
:10061000F0870120FBE7000001694A1C02610878AD
:10062000704700B58FB0CDE9013100210591054932
:100630007944CDE9031011466846FFF7CBFE0FB0B1
:1006400000BD0000E5FFFFFF0A6802F8010B0A6029
:10065000704710B5436913B1AFF3008001E0FFF7B5
:1006600028FE012010BD127800F124010A7000223A
:100670004A700122EDE711684FF0FF32E9E7000010
:10068000074B70B50D467B44FFF7CBFF0446284669
:1006900000F008F810B14FF0FF3070BD204670BD7B
:1006A0007B050000007B00F080007047754600F07D
:1006B0002BF8AE4605006946534620F007008546F4
:1006C00018B020B5FFF79CFDBDE820404FF00006B4
:1006D0004FF000074FF000084FF0000B21F007012A
:1006E000AC46ACE8C009ACE8C009ACE8C009ACE86D
:1006F000C0098D46704710B50446AFF30080204610
:10070000BDE81040FFF76ABD00487047AC2C0020E0
:100710002148806940F004001F49886108468069CB
:1007200040F0100088610846806940F02000886130
:100730001A48006820F00F00184908600846006851
:1007400040F0080008601648406820F0FF00144997
:1007500048600846406840F0880048600846C06825
:1007600040F48070C8600846C06840F40070C860FB
:100770000C48006820F470600A4908600846006868
:1007800040F40060086007480C30006840F0040046
:1007900004490C3108607047001002400008014015
:1007A000001001400014014010B5044614B10120AE
:1007B000214908702048007848B32048006850B1AB
:1007C0001E48001D006830B11D48006818B11D4862
:1007D000006801281BD10A2000F0D8F90020164932
:1007E00008701648006808B9012010BD1348001DA4
:1007F000006808B90220F8E71148006808B903202A
:10080000F3E710480068012814D10420EDE70B48F5
:10081000006801280ED10948001D0068012809D18F
:1008200007480068012805D10648006810B9012072
:10083000014908700020D8E7000000202001224272
:1008400008812242000121420A48806940F01000DC
:100850000849886108480068002007490860084680
:10086000006840F0333008600846C06840F0FF0080
:10087000C8607047001002400010014000B5002021
:1008800015490861C8601420486100208861C8616A
:100890000846006840F001000860084640680F49BB
:1008A00008400D494860084600680D4908400A495B
:1008B00008600846006820F4802008600846406808
:1008C00020F4FE0048600020886000214FF00060A6
:1008D00000F058F800BD0000001002400000FFF8D2
:1008E000FFFFF6FE2DE9F0410746884614461D46F7
:1008F000284600F033F8C5F1040007FA00F60F208F
:10090000284100EA0800064306F00F06E21704EB50
:10091000D2625211920002F1E022D2F80021214667
:10092000E31704EBD3635B11A4EB431C012303FA2D
:100930000CF31A432046E31704EBD3635B119B00CF
:1009400003F1E023C3F800210348005D40EA0610EC
:1009500001490855BDE8F08100E400E001460723A5
:1009600023EA01021202054B18684FF6FF031840F4
:10097000034B18431043014B186070470CED00E027
:100980000000FA05024A0A400243024B1A6070470F
:1009900080FFFF1F08ED00E030B504460025FFF79B
:1009A0006DFF1F48006840F480301D49086000BF9B
:1009B0001B480068400C0028FAD04FF480601849AA
:1009C0004860A01EC4B20846406840EA84404860BF
:1009D0000846406840F4803048601248006840F0A3
:1009E0003200104908600E48006840F080700C49E1
:1009F000086000BF0A480068400E0028FAD0084886
:100A0000406840F002000649486005E0044840683C
:100A1000C0F3870505F00305022DF7D130BD0000B6
:100A2000001002400020024010B50C48008800F081
:100A3000010058B10A49086980470020074914316C
:100A400008804FF47A7005491C31088003480088FB
:100A500020F001000149088010BD0000100800408E
:100A60005C00002070B505460C461048C06940F097
:100A700004000E49C8610E480580001F04800C4820
:100A80002038008840F001000949203908800848D2
:100A90002C38008840F0010005492C3908800223D9
:100AA0001E2203210846FFF71DFF70BD0010024003
:100AB0002C0800401D49098801F0200111B31B4991
:100AC000091D0988C8B21A49098801F40041C9B949
:100AD0001749098801F4804161B10A2803D0002137
:100AE000134A118020E01249098841F40041104A5C
:100AF000118019E00D2806D10D49098841F4804183
:100B00000B4A118010E00A490988C1F30D01094A16
:100B1000505407490988491C054A11801146098823
:100B2000C72901DD00211180704700000038014015
:100B30000C0000206401002030380A2801D2012076
:100B4000704700207047014600BF70474FF0E0211A
:100B5000096921F004014FF0E0221161C21700EB96
:100B60005272C2F3C702074B1A701946097801EB9B
:100B70004102C2EBC1114FF6FF7202EAC101024A03
:100B800011807047020000200400002001460D4A39
:100B900012884A434FF0E0235A6100229A610122F1
:100BA0001A6100BF4FF0E022106900F001021AB193
:100BB00000F48032002AF5D000224FF0E0231A61C1
:100BC0009A6170470400002001460D4A12784A439A
:100BD0004FF0E0235A6100229A6101221A6100BF9E
:100BE0004FF0E022106900F001021AB100F48032E7
:100BF000002AF5D000224FF0E0231A619A61704775
:100C00000200002000BF054A128802F04002002ABC
:100C1000F9D0C2B2014B1B1D1A8070470038014049
:100C200086B00026002400270920FFF7B5FE4820E3
:100C3000FFF78CFF4FF4E131482000F079F9FFF71E
:100C400003FE3748416848208847FFF761FD00F000
:100C5000D9F834A0FFF7E6FA36A0FFF7E3FA39A097
:100C6000FFF7E0FA3BA0FFF7DDFA3FA0FFF7DAFA63
:100C700054E00020FFF798FD054635B1012D05D061
:100C8000022D0FD0032D1DD117E01BE04FF40060A3
:100C900000F030F9044624B1324636A12046FFF771
:100CA000CDFA0FE044B1324632A12046FFF7C6FA32
:100CB000214636A0FFF7B6FA04E0204600F00CF912
:100CC000002400BF00BFA74215D0274600F0ECF873
:100CD000804641462FA0FFF7A5FA3A4632A101A867
:100CE000FFF7ACFA01A929A0FFF79CFA1CB1214635
:100CF00026A0FFF797FA0A20FFF748FF701CC6B23C
:100D0000142096FBF0F100FB116038B92A48006806
:100D100008B9012000E0002027490860A9E7000089
:100D20005C0000204E414E4F2053544D33320D0A8B
:100D3000000000004D414C4C4F4320544553540D8E
:100D40000A0000004B4559303A4D616C6C6F630DE1
:100D50000A0000004B4559313A57726974652044C6
:100D60006174610D0A0000004B4559323A467265C4
:100D7000650D0A004D656D6F7279204D616C6C6F69
:100D800063205465737425303364000025730D0AA5
:100D9000000000000D0A5352414D20555345443A7E
:100DA000256425250D0A00005020416464723A3004
:100DB00058253038580000008001224270B50546A1
:100DC0000F48007C20B90E4908688047012070BD9B
:100DD000B5F5205F11D269090948C06830F81120C3
:100DE000002406E00020064BDB680E1923F81600ED
:100DF000641C9442F6DB0020E9E70220E7E70000EC
:100E00005001002000B509494FF42072C868002144
:100E100000F080F805494FF420528868002100F066
:100E200079F801200149087400BD0000500100203C
:100E30002DE9F04106460024A0461A48007C10B96E
:100E40001849086880471EB94FF0FF30BDE8F081AF
:100E5000C6F34F1506F01F0008B1681C85B240F2BA
:100E60003F141AE00F48C06830F8140020B908F1A8
:100E700001001FFA80F801E04FF00008A8450BD1EF
:100E8000002705E00748C068E11920F811507F1CD1
:100E9000AF42F7D36001D9E7641E002CE2DA4FF0CD
:100EA000FF30D3E7500100200022002106E009486E
:100EB000C06830F8110000B1521C491CB1F5A07F88
:100EC000F5D3642050434FF4A073B0FBF3F0C0B2ED
:100ED000704700005001002070B5044604B970BD91
:100EE00003488068251A2846FFF768FF00BFF6E729
:100EF0005001002070B505462846FFF799FF0446CB
:100F0000601C08B9002070BD014880682044FAE7E1
:100F10005001002030B5034601E003F8011B141E08
:100F2000A2F10102F9D130BD014608687047000006
:100F30002DE9F05F05460E46300101F02BFA81469F
:100F4000304905FB01F001F025FA8246494601F0DF
:100F50003FF90746384601F0FDF984B2204601F01A
:100F600019FA8346394601F0F5FA82464FF083417B
:100F700001F024FA814601F0EDF980464FF6FF704A
:100F800000EA041404EB080084B21F48806940F0B2
:100F900004001D4988610846806940F480408861EA
:100FA0001A48006820F47F60184908600846006805
:100FB00040F40B6008601448C06840F48040124957
:100FC000C8600846C06820F48040C86010480480AB
:100FD000001D008842F20C0108430D49091D0880DC
:100FE0000846008840F4807008800846008840F079
:100FF000200008800223252203210846FFF772FC07
:10100000BDE8F09F40420F0000100240040801407C
:101010000838014030B595B0054613AB12AA09A9AE
:10102000284600F03BFA044614B1204615B030BD06
:101030000020149026E0224909689DF8502001EB19
:10104000C20113AB11AA486801A900F027FA0446AF
:101050000CB12046EAE709A901A800F0BBFC60B981
:101060009DF844009DF84810884201DD0220DDE72C
:101070009DF85000124988750AE09DF85000401C08
:10108000C0B214900E48007D9DF850108842D2DC0A
:1010900000BF0B48007D9DF85010884201D104200C
:1010A000C4E714A9284600F0D9FA04460CB120463A
:1010B000BCE79DF85000024948750020B6E70000E3
:1010C0005C0000202DE9F0419AB000269C48847D08
:1010D000007DA04202DC1AB0BDE8F08198490968A1
:1010E00001EBC40106AB07AA486808A900F0D6F9CD
:1010F00008A994A0FFF796F8002544E09048008BDB
:101100000121A9400840D8B1222190A0FFF78AF818
:10111000284600F029FB8A492431471839468CA01B
:10112000FFF780F8222189A0FFF77CF8284600F01D
:101130001BFB83492431084410A941F8250018E01D
:10114000284600F011FB7E492431085810A941F8C7
:1011500025007B48C07D30B910A850F825107DA02F
:10116000FFF760F805E010A850F825107AA0FFF707
:1011700059F89DF81C00401EA84202D078A0FFF745
:1011800051F8681CC5B29DF81C008542B6DB75A0FD
:10119000FFF748F800F038FB6948407D0B280DD276
:1011A000DFE800F0060D151E27323F4E5F72870004
:1011B0006349096851F834008047064690E0604A68
:1011C000126852F8341010988847064688E05C4B45
:1011D0001B6853F83420DDE91001904706467FE094
:1011E000574F3F6857F8343010A807C8984706464D
:1011F00076E0DFF84CC1DCF800C05CF8347010A871
:101200000FC8B84706466BE01498DFF834C1009069
:10121000DCF800C05CF8347010A80FC8B847064668
:101220005EE0DDE91401DFF818C1CDE90001DCF86A
:1012300000C05CF8347010A80FC8B84706464FE0ED
:10124000DDE914121698DFF8F8C0CDE9001202901B
:10125000DCF800C05CF8347010A80FC8B847064628
:101260003EE0DDE91423DDE91610DFF8D4C0CDE956
:101270000023CDE90210DCF800C05CF8347010A83F
:101280000FC8B84706462BE0DDE9163218991598C5
:10129000CDE90232049101901498DFF8A4C00090C7
:1012A000DCF800C05CF8347010A80FC8B8470646D8
:1012B00016E0DDE91623DDE91810CDE90223CDE9BA
:1012C0000410DDE91401DFF878C0CDE90001DCF895
:1012D00000C05CF8347010A80FC8B847064600BFBD
:1012E00000BF00F051FA9DF8180001280CD11448F5
:1012F000C07D20B931461CA0FEF794FF07E03146BF
:101300001BA0FEF78FFF02E018A0FEF78BFF0C4832
:1013100090F8EC0088B10A48D0F8F0000A21B0FB40
:10132000F1F201FB12070648D0F8F000B0FBF1F82B
:101330003A46414611A0FEF775FF00BFCBE600001C
:101340005C0000200D0A25732800000025630000C2
:1013500025730000256C75003058255800000000EA
:101360002C000000290000003D256C753B0D0A0093
:101370003D305825583B0D0A0000000046756E634D
:1013800074696F6E2052756E2054696D653A2564DC
:101390002E2531646D730D0A00000000F0B5034680
:1013A0001546002000220026002455E01F782C2F2F
:1013B00001D104B901221F78292F01D01F780FB95C
:1013C00004B94AE0002E34D11F78302F02DB1F7899
:1013D000392F11DD1F78612F02DB1F78662F0BDD9F
:1013E0001F78412F02DB1F78462F05DD1F78582F0D
:1013F00002D01F78782F0CD102B12EE01F78612F18
:1014000003DB1F78203F0F7001E01F780F70491C2D
:101410001FE01F78222F04D102B11EE00126012413
:1014200017E01F78202F14D01F782C2F11D0FF2603
:1014300013E01F78222F00D1002402B10DE044B147
:101440001F785C2F02D15B1C471CF8B21F780F700D
:10145000491C471CF8B25B1CA8E700BF00270F70AF
:101460002E70F0BD10B50446002010700BE02078FF
:101470000870641C491C1078401C10701078984249
:1014800001DB012010BD2078202802D02078002820
:10149000EDD10020087000BFF4E700002DE9FF4FF8
:1014A00085B08046894600270020049003900120E3
:1014B00002904FF0000B002544461DE020782028C4
:1014C00016D005F07F00052812DA0DB945F0800529
:1014D00005F07F00042803D120782A2800D00EE0F0
:1014E000207805F07F010DF80100681CC5B202E00C
:1014F000852D00D103E0641C20780028DED100BFD8
:101500008DB1002005F07F010DF8010051A1684662
:1015100000F060FA18B900210898017002E001217A
:101520000898017000254FF0000A444614E0641C3E
:101530000AF1010000F0FF0A2078202802D020786C
:101540002A2809D1204600F0D5F90646282E03D0D6
:101550002A2E01D0CDF810A02078282802D020789B
:101560000028E4D14446049810B10498401C044477
:101570004FF0000A002654E0207810B94FF0010A1D
:1015800050E02078282803D116B9781CC7B213E0A0
:101590002078292808D13EB917B1781EC7B201E0DA
:1015A0004FF0010A47B93DE02078222804D10EB956
:1015B000012000E00020064647B9207820282FD0DF
:1015C000207889F8000009F1010929E020782C2809
:1015D00004D101200290681CC5B214E020782028B4
:1015E00011D0207828280ED04DB9BBF1050F06DAAE
:1015F00020780DF80B000BF1010000F0FF0B0298B2
:10160000401CC0B20290012F0AD10298022807D1D3
:101610000298401CC0B202900398401CC0B20390D4
:10162000641CA9E700BF0398012809D100200DF828
:101630000B0008A1684600F0CDF908B9002003901E
:10164000079903980870002089F80000504609B0F7
:10165000BDE8F08F766F6964000000002DE9F0436B
:10166000B5B005460F460024002604E000213D48A1
:101670008155701CC6B20A2EF8DB06E06D1C287876
:1016800018B9012035B0BDE8F08328782828F5D1B5
:101690006D1C61E034AA69462846FFF77FFE0646C6
:1016A00035449DF8D00020B1012827D0FF284CD127
:1016B00049E09DF8000000B333A9684600F025F921
:1016C00006460EB10220DDE7204600F04DF8254920
:1016D0000A31339A0A50A1F12400008B0121A14064
:1016E000884320491A39088304211E480155601C8B
:1016F000C4B20A2C01DD0320C4E726E0684600F0EE
:1017000085F9401C00F0FF08204600F02DF815492F
:101710000A3100EB01094946684600F06CF91148AE
:101720001A38018B0120A040014388B20D491A39B3
:1017300008830C4800F80480601CC4B20A2C01DD48
:1017400003209FE701E002209CE700BF28782928BA
:1017500001D0287800B900E09CE700BF3C70002071
:1017600090E700007600002002460020002105E0FE
:10177000044B5B5C0344D8B24B1CD9B29142F7DBFB
:1017800070470000760000200D48008800F001003E
:1017900040B10C48D0F8F0004FF6FF7108440949F9
:1017A000C1F8F0000748D0F8F00005491431098865
:1017B00008440449C1F8F0000846D0F8F00070472A
:1017C000100800405C00002010B5044604EBC40083
:1017D00000EB04100122C2EB800081B24FF47A705A
:1017E000FFF740F901200149C87510BD5C000020D9
:1017F00010B50246012000E050430B1EA1F1010488
:10180000E1B2F9D110BD00000948008820F00100C4
:10181000074908804FF6FF7005491C3108800020F9
:101820000349143108800349C1F8F00070470000F3
:10183000100800405C00002070B51D48008800F4CE
:101840000040002833D01A4805780020194948552F
:10185000194881681748884704461CB91649C86862
:10186000804721E0134800F0DDF80546012D00D047
:101870002C46CCB1012C06D0022C08D0032C0AD067
:10188000042C10D10BE00DA0FEF7CCFC0BE00EA059
:10189000FEF7C8FC07E00FA0FEF7C4FC03E010A0B1
:1018A000FEF7C0FC00BF00BF00200149088070BDEA
:1018B0000C000020640100205C000020BAAFCAFDCB
:1018C000B4EDCEF3210D0A00B2CECAFDB4EDCEF3D5
:1018D000210D0A00B2CECAFDCCABB6E0210D0A0044
:1018E000CEB4D5D2B5BDC6A5C5E4B5C4BAAFCAFDA0
:1018F000210D0A000146491C00E0491C08782028F7
:1019000001D10029F9D1087870472DE9F043074645
:101910000E4600254FF00A083C46002030601FE0CC
:101920002078392802DC207830280ADA2078462806
:1019300002DC2078412804DA2078582809D1012DCA
:1019400007D12078412801DB4FF01008681CC5B290
:1019500005E0207800B904E00120BDE8F083641CB4
:10196000DEE700BF3C46B8F1100F0FD1032D01DABE
:101970000220F2E72078302806D16078582803D179
:10198000A41CA81EC5B204E00320E6E70DB904209C
:10199000E3E71BE00DB1681EC5B22078392806DCEC
:1019A0002078302803DB2078A0F1300902E020788D
:1019B000A0F1370929464046FFF71AFF316809FBB5
:1019C00000103060641C207800B900E0E2E700BF3E
:1019D0000020C2E702460AE010780B78984201D056
:1019E00001207047107800B902E0521C491CF3E74F
:1019F00000BF0020F5E706E002780A70027802B91D
:101A000002E0401C491CF7E700BF70470146002078
:101A100005E00A7802B903E0421CD0B2491CF8E79D
:101A200000BF704710B58CB004461E230BAA03A953
:101A30002046FFF717FD0090009810B101200CB070
:101A400010BD9DF82C00044400200B900EE040488F
:101A50009DF82C2050F8221003A8FFF7BBFF00B917
:101A600008E09DF82C00401CC0B20B909DF82C00A3
:101A70000728ECD300BF9DF82C00072863D2DFE8CD
:101A800000F004053C5E6564630000BF31A0FEF712
:101A9000C9FB31A0FEF7C6FB3FA0FEF7C3FB4EA07B
:101AA000FEF7C0FB5CA0FEF7BDFB6BA0FEF7BAFB28
:101AB00079A0FEF7B7FB86A0FEF7B4FB8BA0FEF77C
:101AC000B1FB90A0FEF7AEFB94A0FEF7ABFB99A094
:101AD000FEF7A8FB9EA0FEF7A5FBA4A0FEF7A2FBC5
:101AE000B0A0FEF79FFBBDA0FEF79CFBC8A0FEF7D1
:101AF00099FBD4A0FEF796FB9AE216A0FEF792FBA4
:101B0000E0A0FEF78FFB00200B900EE0ED48006890
:101B10009DF82C2000EBC2004168EBA0FEF782FB91
:101B20009DF82C00401CC0B20B90E648007D9DF84B
:101B30002C108842EADC07A0FEF774FB78E205A0CF
:101B4000FEF770FBC4E171E245E219E2ECE100004E
:101B5000100000200D0A00002D2D2D2D2D2D2D2DD6
:101B60002D2D2D2D2D2D2D2D2D2D2D2D2D2D2D2DA5
:101B700055534D4152542056332E312D2D2D2D2DA0
:101B80002D2D2D2D2D2D2D2D2D2D2D2D2D2D2D2D85
:101B90002D2D2D200D0A00002020202055534D41D1
:101BA0005254CAC7D3C9414C49454E54454BBFAAAC
:101BB000B7A2B5C4D2BBB8F6C1E9C7C9B5C4B4AE03
:101BC000BFDAB5F7CAD4BBA5BDBBD7E9BCFE2CCDE7
:101BD000A8B9FD200D0A0000CBFC2CC4E3BFC9D27C
:101BE000D4CDA8B9FDB4AEBFDAD6FACAD6B5F7D30C
:101BF000C3B3CCD0F2C0EFC3E6B5C4C8CEBACEBA38
:101C0000AFCAFD2CB2A2D6B4D0D02ED2F2B4CB2C17
:101C1000C4E3BFC90D0A0000D2D4CBE6D2E2B8FCBF
:101C2000B8C4BAAFCAFDB5C4CAE4C8EBB2CECAFDE7
:101C300028D6A7B3D6CAFDD7D62831302F3136BD26
:101C4000F8D6C629A1A2D7D6B7FBB4AEA1A2BAAF27
:101C5000CAFDC8EB0D0A0000BFDAB5D8D6B7B5C8C3
:101C6000D7F7CEAAB2CECAFD292CB5A5B8F6BAAF21
:101C7000CAFDD7EEB6E0D6A7B3D63130B8F6CAE47F
:101C8000C8EBB2CECAFD2CB2A2D6A7B3D6BAAFCAA1
:101C9000FDB7B5200D0A0000BBD8D6B5CFD4CABE5B
:101CA0002ED0C2D4F6B2CECAFDCFD4CABEBDF8D6AD
:101CB000C6C9E8D6C3B9A6C4DC2CD0C2D4F6BDF8D8
:101CC000D6C6D7AABBBBB9A6C4DC2E0D0A0000003D
:101CD000BCBCCAF5D6A7B3D63A7777772E6F7065B6
:101CE0006E6564762E636F6D0D0A000055534D418D
:101CF0005254D3D037B8F6CFB5CDB3C3FCC1EE3A0A
:101D00000D0A00003F3A202020202020BBF1C8A16E
:101D1000B0EFD6FAD0C5CFA20D0A000068656C708E
:101D20003A202020BBF1C8A1B0EFD6FAD0C5CFA28F
:101D30000D0A00006C6973743A202020BFC9D3C318
:101D4000B5C4BAAFCAFDC1D0B1ED0D0A0A0000009A
:101D500069643A2020202020BFC9D3C3BAAFCAFD8E
:101D6000B5C44944C1D0B1ED0D0A0A006865783A9E
:101D700020202020B2CECAFD3136BDF8D6C6CFD441
:101D8000CABE2CBAF3B8FABFD5B8F12BCAFDD7D664
:101D9000BCB4D6B4D0D0BDF8D6C6D7AABBBB0D0A4A
:101DA0000A0000006465633A20202020B2CECAFDFC
:101DB0003130BDF8D6C6CFD4CABE2CBAF3B8FABFFC
:101DC000D5B8F12BCAFDD7D6BCB4D6B4D0D0BDF8A7
:101DD000D6C6D7AABBBB0D0A0A00000072756E7486
:101DE000696D653A312CBFAAC6F4BAAFCAFDD4CB2F
:101DF000D0D0BCC6CAB13B302CB9D8B1D5BAAFCA65
:101E0000FDD4CBD0D0BCC6CAB13B0D0A0A0000003D
:101E1000C7EBB0B4D5D5B3CCD0F2B1E0D0B4B8F103
:101E2000CABDCAE4C8EBBAAFCAFDC3FBBCB0B2CEF0
:101E3000CAFDB2A2D2D4BBD8B3B5BCFCBDE1CAF8CE
:101E40002E0D0A002D2D2D2D2D2D2D2D2D2D2D2D31
:101E50002D2D2D2D2D2D2D2D2D2D2D2D2D2D414C7F
:101E600049454E54454B2D2D2D2D2D2D2D2D2D2DF0
:101E70002D2D2D2D2D2D2D2D2D2D2D2D2D2D2D209F
:101E80000D0A00002D2D2D2D2D2D2D2D2D2D2D2D1F
:101E90002D2D2D2D2D2D2D2D2D2D2D2D2DBAAFCAC6
:101EA000FDC7E5B5A52D2D2D2D2D2D2D2D2D2D2D40
:101EB0002D2D2D2D2D2D2D2D2D2D2D2D2D2D2D2D52
:101EC000200D0A005C00002025730D0A00000000B0
:101ED00059A0FEF7A7F900200B901AE0664909689F
:101EE0009DF82C2001EBC20101AB02AA486803A9AE
:101EF000FFF7D4FA604800689DF82C1050F83120A4
:101F000003A95EA0FEF78EF99DF82C00401CC0B21C
:101F10000B905948007D9DF82C108842DEDCAFF212
:101F2000CC30FEF77FF983E0AFF2D830FEF77AF9D4
:101F30000BAA03A92046FFF731FA9DF82C00C8B977
:101F4000694603A8FFF7E1FC0B909DF82C0020B92F
:101F50004FA00099FEF766F90EE09DF82C000428CA
:101F600001D002206BE54DA0FEF75CF9012042494B
:101F7000C87501E0022062E547A0FEF753F957E07B
:101F800045A0FEF74FF90BAA03A92046FFF706FA72
:101F90009DF82C00C8B9694603A8FFF7B6FC0B9062
:101FA0009DF82C0020B942A00099FEF73BF90EE005
:101FB0009DF82C00042801D0022040E53FA0FEF748
:101FC00031F900202C49C87501E0022037E532A024
:101FD000FEF728F92CE030A0FEF724F90BAA03A99C
:101FE0002046FFF7DBF99DF82C00C8B9694603A825
:101FF000FFF78BFC0B909DF82C0078B91E490098D8
:1020000081F8EC00084690F8EC0018B130A0FEF71B
:1020100009F907E035A0FEF705F903E002200EE517
:1020200002200CE51CA0FEF7FDF801E0012006E50A
:1020300000BF002003E500002D2D2D2D2D2D2D2D71
:102040002D2D2D2D2D2D2D2D2D2D2D2D2D2D2D2DC0
:102050002DBAAFCAFD204944202D2D2D2D2D2D2D1B
:102060002D2D2D2D2D2D2D2D2D2D2D2D2D2D2D2DA0
:102070002D2D2D2D200D0A005C00002025732069D8
:10208000642069733A0D0A3058253038580D0A001B
:102090004845583A305825580D0A00003136BDF8E9
:1020A000D6C6B2CECAFDCFD4CABE210D0A000000EA
:1020B0004445433A256C750D0A0000003130BDF8E7
:1020C000D6C6B2CECAFDCFD4CABE210D0A000000CA
:1020D00052756E2054696D652043616C63756C6147
:1020E00074696F6E204F4E0D0A00000052756E200D
:1020F00054696D652043616C63756C6174696F6EC2
:10210000204F46460D0A00000160704790EA010F1B
:1021100048BF81F0004100F12E82421A3CBF801A74
:1021200089184FEAD0524FF07F4C1CEA410FA2EBC6
:10213000D15318BF9CEA026F00F03B804FF0004C77
:102140004CEA00204CEA012121FA03FC10EB0C0CB4
:102150001ED202F1FF325FEA1C2040EBC25038BFB2
:1021600070471CF07F0F4FEA400C18BFBCF17F4F47
:1021700038BF7047C3F12003994008BF20F0010029
:10218000BCF17F4F38BF7047A0F1C04000F0DDB90F
:102190004FEA3C00000A40EBC25028BF1CF0FF0F82
:1021A0004FEA400CE6D018BFBCF17F4F38BF7047F4
:1021B000EAE79CEA026F05D010EA5C0F08BF00F066
:1021C0000040704710B500F07AF900BF64FBBE3ED6
:1021D0004FF47F0C1CEAD0121EBF1CEAD11392EA06
:1021E0000C0F93EA0C0F00F0858090EA010F48BFB6
:1021F00042F4807240F4000C41F400002CF07F4166
:1022000020F07F4000B58142A2EB03020FF2081CD0
:10221000ACEB504EC0F100009EF800E04FEA4E0ECD
:1022200000FB0EFC38BF49004FEA2C1C02F5FA02F5
:102230000CFB0EF34FEACE1E4FEA112C4FEAC121E0
:102240000EEB635E42EB22420EFB0CFC4FEA1C538A
:1022500000FB03114FEA112C4FEA01310EFB0CFC7D
:102260004FEADC4C00FB0C11C14228BF09184CEBB3
:1022700003335DF804EB10EB410143EBC250B2F5C0
:102280007C0F38BF704729D512F0F00F1CBF00F14A
:10229000C04000F0004070470081828384858687BB
:1022A00088898B8C8D8E8F919293959697999A9C15
:1022B0009D9FA0A2A3A5A7A8AAACAEB0B2B3B5B784
:1022C000B9BCBEC0C2C5C7C9CCCED1D4D7D9DCDF5A
:1022D000E2E6E9ECF0F3F7FAFE0000004FEA400C0A
:1022E0000CF1807CBCF17E4F28BF7047B0F1C0403C
:1022F00000F02BB990EA010F0CEAD11348BF42F469
:102300008072624538BF634507D213F47F0F16D041
:1023100080EA010000F00040704710B500F0CFF8EF
:10232000097EFC3E00F005B880EA010000F00040A4
:10233000704780EA010000F0004000F006B912F496
:102340007F0F04BF0248704780EA010000F0FDB82B
:102350000000C07FC10DD1F19E0206DB4FEA0023D1
:1023600043F0004323FA02F07047004207D54FEADA
:102370004001B1F1FE4F02D24FF00000704710B59E
:1023800000F09DF849922480002070476FEA2000F9
:1023900070470000B0FA80F310FA03F2C3F19D0316
:1023A0000AD0D90501EB1220530638BF704700F15F
:1023B000010008BF20F00100704700004FF47F0CBF
:1023C0001CEAD0121EBF1CEAD11392EA0C0F93EA4A
:1023D0000C0F00F0478090EA010F48BF42F4807272
:1023E0004FF0004C4CEA00204CEA012102EB0302C2
:1023F000A0FB0113A2F50002002918BF43F001035E
:102400005B0028BF4FEA330342EB22425FEA132C02
:102410004CEBC2502EBFBCEB436FB2F57C0F704744
:102420004FEA036CBCF1004F08BF20F00100B2F589
:102430007C0F38BF70470BD582F0FF0212F5803F4A
:10244000C8BF704700F1C040D8BF00F000407047DF
:1024500000F5000C5FEA4C0C48BF7047B0F1C0407B
:1024600000F073B890EA010F0CEAD11348BF42F4B0
:102470008072624538BF634504D280EA010000F0F3
:102480000040704710B500F01AF800BF8900013E07
:1024900000F007B800F009B85FEA410C5FEA1C6C75
:1024A00008D080EA010000F050B85FEA400C5FEA13
:1024B0001C6CF6D14FF00040A0F5800070470EF183
:1024C000020E2EF0030E5EF8044B244204D44FEAB1
:1024D0004102B2F17F4F11D84FEA4003B3F17F4F71
:1024E0000CD80ED14FEAD07CB2F17F4F0CEB4C0CE4
:1024F0000CF1020C08BF4CEBD17C04E04FF0080C4F
:1025000001E04FEAD17C0CEB4C0324FA03F404F015
:102510000704B4F1040C06D20EEB840CBDE81040A5
:102520004CF0010C6047DFE80CF0070802024FF0A6
:102530000040A0F5800010BD0846420018BFD2F14F
:10254000807288BF00F0004010BDFF2141EAD050EA
:10255000C005704780F0004090EA010F7FF5DDADC7
:1025600081F0004100F007B890EA010F48BF81F008
:1025700000413FF5D2AD421A04D882F00042A0EBF0
:10258000020011444FEAD0524FF07F4C1CEA410F39
:10259000A2EBD15318BF9CEA026F4AD04FF0004C17
:1025A0004CEA00204CEA012121FA03FCB0EB0C0CB0
:1025B0000FD412F0FE0F36D05FEA4C001DD500128A
:1025C00040EBC25038BF70471CF03F0F18BF704738
:1025D0000BE0A2F101025FEA1C2040EBC25038BFC1
:1025E00070471CF07F0F18BF7047C3F1200399405C
:1025F00014BF401E20F00100704780084FEA1223EC
:1026000008BF7047B0FA80FCA2EB0C02CCF1280C9A
:1026100060FA0CF093EA122F04BF00EBC25070472F
:102620004FEAC3707047130A5FEADC1008BF7047B7
:10263000F6E79CEA026F04D010EA5C0F08BF0020A6
:10264000704710B5FFF73BFF40DFF63E81F00040DA
:1026500070473031323334353637383941424344AC
:10266000454640305800303132333435363738390A
:102670006162636465664030780004000008000011
:102680000000000000020001000010003F000000F8
:10269000646563006964000072756E74696D65003D
:1026A00068656C70000000006C69737400000000C5
:1026B00068657800766F6964202A6D796D616C6C4D
:1026C0006F63287533322073697A65290000000032
:1026D000766F69642077726974655F6164647228DB
:1026E00075333220616464722C7533322076616CEC
:1026F0002900000075333220726561645F61646493
:10270000722875333220616464722900766F6964BF
:10271000206D796672656528766F6964202A707409
:1027200072290000766F69642064656C61795F6D61
:102730007328753136206E6D73290000766F6964D9
:102740002064656C61795F757328753332206E750E
:1027500073290000742700080000002064010000B5
:1027600028010008DC27000864010020AC310000CB
:1027700084010008F201138C261B08A0041AA80487
:102780001A94041AB0041A90041A980413290F1BFF
:1027900008F4081309211B08D008138D0B14082412
:1027A000271B08C9081A3C0813F50E1B08B4181A91
:1027B000D9081A0C10222C1420C917140815101B44
:1027C00008C504133918230806E97301CD1A05FC5E
:0C27D0001AA904132C0214202C2A422009
:04000005080000ED02
:00000001FF
